{
	"EscrowContract.sol": {
		"SimpleEscrow": {
			"abi": [
				{
					"inputs": [],
					"name": "dealCount",
					"outputs": [
						{
							"internalType": "uint256",
							"name": "",
							"type": "uint256"
						}
					],
					"stateMutability": "view",
					"type": "function"
				},
				{
					"inputs": [
						{
							"internalType": "uint256",
							"name": "",
							"type": "uint256"
						}
					],
					"name": "deals",
					"outputs": [
						{
							"internalType": "address",
							"name": "depositor",
							"type": "address"
						},
						{
							"internalType": "address",
							"name": "payee",
							"type": "address"
						},
						{
							"internalType": "uint256",
							"name": "amount",
							"type": "uint256"
						},
						{
							"internalType": "bool",
							"name": "released",
							"type": "bool"
						}
					],
					"stateMutability": "view",
					"type": "function"
				},
				{
					"inputs": [
						{
							"internalType": "address",
							"name": "_payee",
							"type": "address"
						}
					],
					"name": "deposit",
					"outputs": [],
					"stateMutability": "payable",
					"type": "function"
				},
				{
					"inputs": [
						{
							"internalType": "uint256",
							"name": "_id",
							"type": "uint256"
						}
					],
					"name": "refund",
					"outputs": [],
					"stateMutability": "nonpayable",
					"type": "function"
				},
				{
					"inputs": [
						{
							"internalType": "uint256",
							"name": "_id",
							"type": "uint256"
						}
					],
					"name": "release",
					"outputs": [],
					"stateMutability": "nonpayable",
					"type": "function"
				}
			],
			"devdoc": {
				"kind": "dev",
				"methods": {},
				"version": 1
			},
			"evm": {
				"assembly": "    /* \"EscrowContract.sol\":61:1119  contract SimpleEscrow {... */\n  mstore(0x40, 0x80)\n  callvalue\n  dup1\n  iszero\n  tag_1\n  jumpi\n  0x00\n  dup1\n  revert\ntag_1:\n  pop\n  dataSize(sub_0)\n  dup1\n  dataOffset(sub_0)\n  0x00\n  codecopy\n  0x00\n  return\nstop\n\nsub_0: assembly {\n        /* \"EscrowContract.sol\":61:1119  contract SimpleEscrow {... */\n      mstore(0x40, 0x80)\n      jumpi(tag_1, lt(calldatasize, 0x04))\n      shr(0xe0, calldataload(0x00))\n      dup1\n      0x03988f84\n      eq\n      tag_2\n      jumpi\n      dup1\n      0x278ecde1\n      eq\n      tag_3\n      jumpi\n      dup1\n      0x37bdc99b\n      eq\n      tag_4\n      jumpi\n      dup1\n      0xeadb3c9c\n      eq\n      tag_5\n      jumpi\n      dup1\n      0xf340fa01\n      eq\n      tag_6\n      jumpi\n    tag_1:\n      0x00\n      dup1\n      revert\n        /* \"EscrowContract.sol\":219:256  mapping(uint256 => Deal) public deals */\n    tag_2:\n      callvalue\n      dup1\n      iszero\n      tag_7\n      jumpi\n      0x00\n      dup1\n      revert\n    tag_7:\n      pop\n      tag_8\n      tag_9\n      calldatasize\n      0x04\n      tag_10\n      jump\t// in\n    tag_9:\n      0x00\n      0x20\n      dup2\n      swap1\n      mstore\n      swap1\n      dup2\n      mstore\n      0x40\n      swap1\n      keccak256\n      dup1\n      sload\n      0x01\n      dup3\n      add\n      sload\n      0x02\n      dup4\n      add\n      sload\n      0x03\n      swap1\n      swap4\n      add\n      sload\n      sub(shl(0xa0, 0x01), 0x01)\n      swap3\n      dup4\n      and\n      swap4\n      swap2\n      swap1\n      swap3\n      and\n      swap2\n      0xff\n      and\n      dup5\n      jump\n    tag_8:\n      0x40\n      dup1\n      mload\n      sub(shl(0xa0, 0x01), 0x01)\n        /* \"#utility.yul\":480:495   */\n      swap6\n      dup7\n      and\n        /* \"#utility.yul\":462:496   */\n      dup2\n      mstore\n        /* \"#utility.yul\":532:547   */\n      swap5\n      swap1\n      swap4\n      and\n        /* \"#utility.yul\":527:529   */\n      0x20\n        /* \"#utility.yul\":512:530   */\n      dup6\n      add\n        /* \"#utility.yul\":505:548   */\n      mstore\n        /* \"#utility.yul\":564:582   */\n      swap2\n      dup4\n      add\n        /* \"#utility.yul\":557:591   */\n      mstore\n        /* \"#utility.yul\":634:648   */\n      iszero\n        /* \"#utility.yul\":627:649   */\n      iszero\n        /* \"#utility.yul\":622:624   */\n      0x60\n        /* \"#utility.yul\":607:625   */\n      dup3\n      add\n        /* \"#utility.yul\":600:650   */\n      mstore\n        /* \"#utility.yul\":411:414   */\n      0x80\n        /* \"#utility.yul\":396:415   */\n      add\n        /* \"EscrowContract.sol\":219:256  mapping(uint256 => Deal) public deals */\n    tag_12:\n      mload(0x40)\n      dup1\n      swap2\n      sub\n      swap1\n      return\n        /* \"EscrowContract.sol\":817:1116  function refund(uint256 _id) external {... */\n    tag_3:\n      callvalue\n      dup1\n      iszero\n      tag_14\n      jumpi\n      0x00\n      dup1\n      revert\n    tag_14:\n      pop\n      tag_15\n      tag_16\n      calldatasize\n      0x04\n      tag_10\n      jump\t// in\n    tag_16:\n      tag_17\n      jump\t// in\n    tag_15:\n      stop\n        /* \"EscrowContract.sol\":504:809  function release(uint256 _id) external {... */\n    tag_4:\n      callvalue\n      dup1\n      iszero\n      tag_18\n      jumpi\n      0x00\n      dup1\n      revert\n    tag_18:\n      pop\n      tag_15\n      tag_20\n      calldatasize\n      0x04\n      tag_10\n      jump\t// in\n    tag_20:\n      tag_21\n      jump\t// in\n        /* \"EscrowContract.sol\":263:287  uint256 public dealCount */\n    tag_5:\n      callvalue\n      dup1\n      iszero\n      tag_22\n      jumpi\n      0x00\n      dup1\n      revert\n    tag_22:\n      pop\n      tag_23\n      sload(0x01)\n      dup2\n      jump\n    tag_23:\n      mload(0x40)\n        /* \"#utility.yul\":807:832   */\n      swap1\n      dup2\n      mstore\n        /* \"#utility.yul\":795:797   */\n      0x20\n        /* \"#utility.yul\":780:798   */\n      add\n        /* \"EscrowContract.sol\":263:287  uint256 public dealCount */\n      tag_12\n        /* \"#utility.yul\":661:838   */\n      jump\n        /* \"EscrowContract.sol\":296:496  function deposit(address _payee) external payable {... */\n    tag_6:\n      tag_15\n      tag_28\n      calldatasize\n      0x04\n      tag_29\n      jump\t// in\n    tag_28:\n      tag_30\n      jump\t// in\n        /* \"EscrowContract.sol\":817:1116  function refund(uint256 _id) external {... */\n    tag_17:\n        /* \"EscrowContract.sol\":866:883  Deal storage deal */\n      0x00\n        /* \"EscrowContract.sol\":886:896  deals[_id] */\n      dup2\n      dup2\n      mstore\n      0x20\n      dup2\n      swap1\n      mstore\n      0x40\n      swap1\n      keccak256\n        /* \"EscrowContract.sol\":916:929  deal.released */\n      0x03\n      dup2\n      add\n      sload\n      0xff\n      and\n        /* \"EscrowContract.sol\":915:929  !deal.released */\n      iszero\n        /* \"EscrowContract.sol\":907:950  require(!deal.released, \"Already released\") */\n      tag_32\n      jumpi\n      mload(0x40)\n      shl(0xe5, 0x461bcd)\n      dup2\n      mstore\n        /* \"#utility.yul\":1336:1338   */\n      0x20\n        /* \"EscrowContract.sol\":907:950  require(!deal.released, \"Already released\") */\n      0x04\n      dup3\n      add\n        /* \"#utility.yul\":1318:1339   */\n      mstore\n        /* \"#utility.yul\":1375:1377   */\n      0x10\n        /* \"#utility.yul\":1355:1373   */\n      0x24\n      dup3\n      add\n        /* \"#utility.yul\":1348:1378   */\n      mstore\n      shl(0x82, 0x105b1c9958591e481c995b19585cd959)\n        /* \"#utility.yul\":1394:1412   */\n      0x44\n      dup3\n      add\n        /* \"#utility.yul\":1387:1433   */\n      mstore\n        /* \"#utility.yul\":1450:1468   */\n      0x64\n      add\n        /* \"EscrowContract.sol\":907:950  require(!deal.released, \"Already released\") */\n    tag_33:\n      mload(0x40)\n      dup1\n      swap2\n      sub\n      swap1\n      revert\n    tag_32:\n        /* \"EscrowContract.sol\":983:993  deal.payee */\n      0x01\n      dup2\n      add\n      sload\n      sub(shl(0xa0, 0x01), 0x01)\n      and\n        /* \"EscrowContract.sol\":969:979  msg.sender */\n      caller\n        /* \"EscrowContract.sol\":969:993  msg.sender == deal.payee */\n      eq\n        /* \"EscrowContract.sol\":961:1019  require(msg.sender == deal.payee, \"Only payee can refund\") */\n      tag_35\n      jumpi\n      mload(0x40)\n      shl(0xe5, 0x461bcd)\n      dup2\n      mstore\n        /* \"#utility.yul\":1681:1683   */\n      0x20\n        /* \"EscrowContract.sol\":961:1019  require(msg.sender == deal.payee, \"Only payee can refund\") */\n      0x04\n      dup3\n      add\n        /* \"#utility.yul\":1663:1684   */\n      mstore\n        /* \"#utility.yul\":1720:1722   */\n      0x15\n        /* \"#utility.yul\":1700:1718   */\n      0x24\n      dup3\n      add\n        /* \"#utility.yul\":1693:1723   */\n      mstore\n      shl(0x5a, 0x13db9b1e481c185e59594818d85b881c99599d5b99)\n        /* \"#utility.yul\":1739:1757   */\n      0x44\n      dup3\n      add\n        /* \"#utility.yul\":1732:1783   */\n      mstore\n        /* \"#utility.yul\":1800:1818   */\n      0x64\n      add\n        /* \"EscrowContract.sol\":961:1019  require(msg.sender == deal.payee, \"Only payee can refund\") */\n      tag_33\n        /* \"#utility.yul\":1479:1824   */\n      jump\n        /* \"EscrowContract.sol\":961:1019  require(msg.sender == deal.payee, \"Only payee can refund\") */\n    tag_35:\n        /* \"EscrowContract.sol\":1032:1045  deal.released */\n      0x03\n      dup2\n      add\n        /* \"EscrowContract.sol\":1032:1052  deal.released = true */\n      dup1\n      sload\n      not(0xff)\n      and\n        /* \"EscrowContract.sol\":1048:1052  true */\n      0x01\n        /* \"EscrowContract.sol\":1032:1052  deal.released = true */\n      or\n      swap1\n      sstore\n        /* \"EscrowContract.sol\":1071:1085  deal.depositor */\n      dup1\n      sload\n        /* \"EscrowContract.sol\":1096:1107  deal.amount */\n      0x02\n      dup3\n      add\n      sload\n        /* \"EscrowContract.sol\":1063:1108  payable(deal.depositor).transfer(deal.amount) */\n      mload(0x40)\n      sub(shl(0xa0, 0x01), 0x01)\n        /* \"EscrowContract.sol\":1071:1085  deal.depositor */\n      swap1\n      swap3\n      and\n      swap2\n        /* \"EscrowContract.sol\":1063:1108  payable(deal.depositor).transfer(deal.amount) */\n      dup2\n      iszero\n      0x08fc\n      mul\n      swap2\n        /* \"EscrowContract.sol\":1096:1107  deal.amount */\n      swap1\n        /* \"EscrowContract.sol\":1032:1045  deal.released */\n      0x00\n        /* \"EscrowContract.sol\":1063:1108  payable(deal.depositor).transfer(deal.amount) */\n      dup2\n        /* \"EscrowContract.sol\":1032:1045  deal.released */\n      dup2\n        /* \"EscrowContract.sol\":1063:1108  payable(deal.depositor).transfer(deal.amount) */\n      dup2\n        /* \"EscrowContract.sol\":1096:1107  deal.amount */\n      dup6\n        /* \"EscrowContract.sol\":1071:1085  deal.depositor */\n      dup9\n        /* \"EscrowContract.sol\":1063:1108  payable(deal.depositor).transfer(deal.amount) */\n      dup9\n      call\n      swap4\n      pop\n      pop\n      pop\n      pop\n      iszero\n      dup1\n      iszero\n      tag_39\n      jumpi\n      returndatasize\n      0x00\n      dup1\n      returndatacopy\n      revert(0x00, returndatasize)\n    tag_39:\n      pop\n        /* \"EscrowContract.sol\":855:1116  {... */\n      pop\n        /* \"EscrowContract.sol\":817:1116  function refund(uint256 _id) external {... */\n      pop\n      jump\t// out\n        /* \"EscrowContract.sol\":504:809  function release(uint256 _id) external {... */\n    tag_21:\n        /* \"EscrowContract.sol\":554:571  Deal storage deal */\n      0x00\n        /* \"EscrowContract.sol\":574:584  deals[_id] */\n      dup2\n      dup2\n      mstore\n      0x20\n      dup2\n      swap1\n      mstore\n      0x40\n      swap1\n      keccak256\n        /* \"EscrowContract.sol\":604:617  deal.released */\n      0x03\n      dup2\n      add\n      sload\n      0xff\n      and\n        /* \"EscrowContract.sol\":603:617  !deal.released */\n      iszero\n        /* \"EscrowContract.sol\":595:638  require(!deal.released, \"Already released\") */\n      tag_41\n      jumpi\n      mload(0x40)\n      shl(0xe5, 0x461bcd)\n      dup2\n      mstore\n        /* \"#utility.yul\":1336:1338   */\n      0x20\n        /* \"EscrowContract.sol\":595:638  require(!deal.released, \"Already released\") */\n      0x04\n      dup3\n      add\n        /* \"#utility.yul\":1318:1339   */\n      mstore\n        /* \"#utility.yul\":1375:1377   */\n      0x10\n        /* \"#utility.yul\":1355:1373   */\n      0x24\n      dup3\n      add\n        /* \"#utility.yul\":1348:1378   */\n      mstore\n      shl(0x82, 0x105b1c9958591e481c995b19585cd959)\n        /* \"#utility.yul\":1394:1412   */\n      0x44\n      dup3\n      add\n        /* \"#utility.yul\":1387:1433   */\n      mstore\n        /* \"#utility.yul\":1450:1468   */\n      0x64\n      add\n        /* \"EscrowContract.sol\":595:638  require(!deal.released, \"Already released\") */\n      tag_33\n        /* \"#utility.yul\":1134:1474   */\n      jump\n        /* \"EscrowContract.sol\":595:638  require(!deal.released, \"Already released\") */\n    tag_41:\n        /* \"EscrowContract.sol\":671:685  deal.depositor */\n      dup1\n      sload\n      sub(shl(0xa0, 0x01), 0x01)\n      and\n        /* \"EscrowContract.sol\":657:667  msg.sender */\n      caller\n        /* \"EscrowContract.sol\":657:685  msg.sender == deal.depositor */\n      eq\n        /* \"EscrowContract.sol\":649:716  require(msg.sender == deal.depositor, \"Only depositor can release\") */\n      tag_43\n      jumpi\n      mload(0x40)\n      shl(0xe5, 0x461bcd)\n      dup2\n      mstore\n        /* \"#utility.yul\":2031:2033   */\n      0x20\n        /* \"EscrowContract.sol\":649:716  require(msg.sender == deal.depositor, \"Only depositor can release\") */\n      0x04\n      dup3\n      add\n        /* \"#utility.yul\":2013:2034   */\n      mstore\n        /* \"#utility.yul\":2070:2072   */\n      0x1a\n        /* \"#utility.yul\":2050:2068   */\n      0x24\n      dup3\n      add\n        /* \"#utility.yul\":2043:2073   */\n      mstore\n        /* \"#utility.yul\":2109:2137   */\n      0x4f6e6c79206465706f7369746f722063616e2072656c65617365000000000000\n        /* \"#utility.yul\":2089:2107   */\n      0x44\n      dup3\n      add\n        /* \"#utility.yul\":2082:2138   */\n      mstore\n        /* \"#utility.yul\":2155:2173   */\n      0x64\n      add\n        /* \"EscrowContract.sol\":649:716  require(msg.sender == deal.depositor, \"Only depositor can release\") */\n      tag_33\n        /* \"#utility.yul\":1829:2179   */\n      jump\n        /* \"EscrowContract.sol\":649:716  require(msg.sender == deal.depositor, \"Only depositor can release\") */\n    tag_43:\n        /* \"EscrowContract.sol\":729:742  deal.released */\n      0x03\n      dup2\n      add\n        /* \"EscrowContract.sol\":729:749  deal.released = true */\n      dup1\n      sload\n      not(0xff)\n      and\n        /* \"EscrowContract.sol\":745:749  true */\n      0x01\n        /* \"EscrowContract.sol\":729:749  deal.released = true */\n      swap1\n      dup2\n      or\n      swap1\n      swap2\n      sstore\n        /* \"EscrowContract.sol\":768:778  deal.payee */\n      dup2\n      add\n      sload\n        /* \"EscrowContract.sol\":789:800  deal.amount */\n      0x02\n      dup3\n      add\n      sload\n        /* \"EscrowContract.sol\":760:801  payable(deal.payee).transfer(deal.amount) */\n      mload(0x40)\n      sub(shl(0xa0, 0x01), 0x01)\n        /* \"EscrowContract.sol\":768:778  deal.payee */\n      swap1\n      swap3\n      and\n      swap2\n        /* \"EscrowContract.sol\":760:801  payable(deal.payee).transfer(deal.amount) */\n      dup2\n      iszero\n      0x08fc\n      mul\n      swap2\n        /* \"EscrowContract.sol\":789:800  deal.amount */\n      swap1\n        /* \"EscrowContract.sol\":729:742  deal.released */\n      0x00\n        /* \"EscrowContract.sol\":760:801  payable(deal.payee).transfer(deal.amount) */\n      dup2\n        /* \"EscrowContract.sol\":729:742  deal.released */\n      dup2\n        /* \"EscrowContract.sol\":760:801  payable(deal.payee).transfer(deal.amount) */\n      dup2\n        /* \"EscrowContract.sol\":789:800  deal.amount */\n      dup6\n        /* \"EscrowContract.sol\":768:778  deal.payee */\n      dup9\n        /* \"EscrowContract.sol\":760:801  payable(deal.payee).transfer(deal.amount) */\n      dup9\n      call\n      swap4\n      pop\n      pop\n      pop\n      pop\n      iszero\n      dup1\n      iszero\n      tag_39\n      jumpi\n      returndatasize\n      0x00\n      dup1\n      returndatacopy\n      revert(0x00, returndatasize)\n        /* \"EscrowContract.sol\":296:496  function deposit(address _payee) external payable {... */\n    tag_30:\n        /* \"EscrowContract.sol\":377:378  0 */\n      0x00\n        /* \"EscrowContract.sol\":365:374  msg.value */\n      callvalue\n        /* \"EscrowContract.sol\":365:378  msg.value > 0 */\n      gt\n        /* \"EscrowContract.sol\":357:394  require(msg.value > 0, \"No ETH sent\") */\n      tag_49\n      jumpi\n      mload(0x40)\n      shl(0xe5, 0x461bcd)\n      dup2\n      mstore\n        /* \"#utility.yul\":2386:2388   */\n      0x20\n        /* \"EscrowContract.sol\":357:394  require(msg.value > 0, \"No ETH sent\") */\n      0x04\n      dup3\n      add\n        /* \"#utility.yul\":2368:2389   */\n      mstore\n        /* \"#utility.yul\":2425:2427   */\n      0x0b\n        /* \"#utility.yul\":2405:2423   */\n      0x24\n      dup3\n      add\n        /* \"#utility.yul\":2398:2428   */\n      mstore\n      shl(0xaa, 0x139bc8115512081cd95b9d)\n        /* \"#utility.yul\":2444:2462   */\n      0x44\n      dup3\n      add\n        /* \"#utility.yul\":2437:2478   */\n      mstore\n        /* \"#utility.yul\":2495:2513   */\n      0x64\n      add\n        /* \"EscrowContract.sol\":357:394  require(msg.value > 0, \"No ETH sent\") */\n      tag_33\n        /* \"#utility.yul\":2184:2519   */\n      jump\n        /* \"EscrowContract.sol\":357:394  require(msg.value > 0, \"No ETH sent\") */\n    tag_49:\n        /* \"EscrowContract.sol\":424:466  Deal(msg.sender, _payee, msg.value, false) */\n      0x40\n      dup1\n      mload\n      0x80\n      dup2\n      add\n      dup3\n      mstore\n        /* \"EscrowContract.sol\":429:439  msg.sender */\n      caller\n        /* \"EscrowContract.sol\":424:466  Deal(msg.sender, _payee, msg.value, false) */\n      dup2\n      mstore\n      sub(shl(0xa0, 0x01), 0x01)\n      dup4\n      dup2\n      and\n      0x20\n      dup1\n      dup5\n      add\n      swap2\n      dup3\n      mstore\n        /* \"EscrowContract.sol\":449:458  msg.value */\n      callvalue\n        /* \"EscrowContract.sol\":424:466  Deal(msg.sender, _payee, msg.value, false) */\n      dup5\n      dup7\n      add\n      swap1\n      dup2\n      mstore\n      0x00\n      0x60\n      dup7\n      add\n      dup2\n      dup2\n      mstore\n      0x01\n        /* \"EscrowContract.sol\":411:420  dealCount */\n      dup1\n      sload\n        /* \"EscrowContract.sol\":405:421  deals[dealCount] */\n      dup4\n      mstore\n      swap4\n      dup3\n      swap1\n      mstore\n      swap7\n      dup2\n      keccak256\n        /* \"EscrowContract.sol\":405:466  deals[dealCount] = Deal(msg.sender, _payee, msg.value, false) */\n      swap6\n      mload\n      dup7\n      sload\n      swap1\n      dup7\n      and\n      not(sub(shl(0xa0, 0x01), 0x01))\n      swap2\n      dup3\n      and\n      or\n      dup8\n      sstore\n      swap4\n      mload\n      dup7\n      dup5\n      add\n      dup1\n      sload\n      swap2\n      swap1\n      swap7\n      and\n      swap5\n      and\n      swap4\n      swap1\n      swap4\n      or\n      swap1\n      swap4\n      sstore\n      swap2\n      mload\n      0x02\n      dup5\n      add\n      sstore\n      swap3\n      mload\n      0x03\n      swap1\n      swap3\n      add\n      dup1\n      sload\n      swap3\n      iszero\n      iszero\n      not(0xff)\n      swap1\n      swap4\n      and\n      swap3\n      swap1\n      swap3\n      or\n      swap1\n      swap2\n      sstore\n        /* \"EscrowContract.sol\":477:488  dealCount++ */\n      dup1\n      sload\n      swap2\n      tag_52\n      dup4\n      tag_53\n      jump\t// in\n    tag_52:\n      swap2\n      swap1\n      pop\n      sstore\n      pop\n        /* \"EscrowContract.sol\":296:496  function deposit(address _payee) external payable {... */\n      pop\n      jump\t// out\n        /* \"#utility.yul\":14:194   */\n    tag_10:\n        /* \"#utility.yul\":73:79   */\n      0x00\n        /* \"#utility.yul\":126:128   */\n      0x20\n        /* \"#utility.yul\":114:123   */\n      dup3\n        /* \"#utility.yul\":105:112   */\n      dup5\n        /* \"#utility.yul\":101:124   */\n      sub\n        /* \"#utility.yul\":97:129   */\n      slt\n        /* \"#utility.yul\":94:146   */\n      iszero\n      tag_56\n      jumpi\n        /* \"#utility.yul\":142:143   */\n      0x00\n        /* \"#utility.yul\":139:140   */\n      dup1\n        /* \"#utility.yul\":132:144   */\n      revert\n        /* \"#utility.yul\":94:146   */\n    tag_56:\n      pop\n        /* \"#utility.yul\":165:188   */\n      calldataload\n      swap2\n        /* \"#utility.yul\":14:194   */\n      swap1\n      pop\n      jump\t// out\n        /* \"#utility.yul\":843:1129   */\n    tag_29:\n        /* \"#utility.yul\":902:908   */\n      0x00\n        /* \"#utility.yul\":955:957   */\n      0x20\n        /* \"#utility.yul\":943:952   */\n      dup3\n        /* \"#utility.yul\":934:941   */\n      dup5\n        /* \"#utility.yul\":930:953   */\n      sub\n        /* \"#utility.yul\":926:958   */\n      slt\n        /* \"#utility.yul\":923:975   */\n      iszero\n      tag_60\n      jumpi\n        /* \"#utility.yul\":971:972   */\n      0x00\n        /* \"#utility.yul\":968:969   */\n      dup1\n        /* \"#utility.yul\":961:973   */\n      revert\n        /* \"#utility.yul\":923:975   */\n    tag_60:\n        /* \"#utility.yul\":997:1020   */\n      dup2\n      calldataload\n      sub(shl(0xa0, 0x01), 0x01)\n        /* \"#utility.yul\":1049:1080   */\n      dup2\n      and\n        /* \"#utility.yul\":1039:1081   */\n      dup2\n      eq\n        /* \"#utility.yul\":1029:1099   */\n      tag_61\n      jumpi\n        /* \"#utility.yul\":1095:1096   */\n      0x00\n        /* \"#utility.yul\":1092:1093   */\n      dup1\n        /* \"#utility.yul\":1085:1097   */\n      revert\n        /* \"#utility.yul\":1029:1099   */\n    tag_61:\n        /* \"#utility.yul\":1118:1123   */\n      swap4\n        /* \"#utility.yul\":843:1129   */\n      swap3\n      pop\n      pop\n      pop\n      jump\t// out\n        /* \"#utility.yul\":2524:2756   */\n    tag_53:\n        /* \"#utility.yul\":2563:2566   */\n      0x00\n        /* \"#utility.yul\":2584:2601   */\n      0x01\n      dup3\n      add\n        /* \"#utility.yul\":2581:2721   */\n      tag_67\n      jumpi\n        /* \"#utility.yul\":2643:2653   */\n      0x4e487b71\n        /* \"#utility.yul\":2638:2641   */\n      0xe0\n        /* \"#utility.yul\":2634:2654   */\n      shl\n        /* \"#utility.yul\":2631:2632   */\n      0x00\n        /* \"#utility.yul\":2624:2655   */\n      mstore\n        /* \"#utility.yul\":2678:2682   */\n      0x11\n        /* \"#utility.yul\":2675:2676   */\n      0x04\n        /* \"#utility.yul\":2668:2683   */\n      mstore\n        /* \"#utility.yul\":2706:2710   */\n      0x24\n        /* \"#utility.yul\":2703:2704   */\n      0x00\n        /* \"#utility.yul\":2696:2711   */\n      revert\n        /* \"#utility.yul\":2581:2721   */\n    tag_67:\n      pop\n        /* \"#utility.yul\":2748:2749   */\n      0x01\n        /* \"#utility.yul\":2737:2750   */\n      add\n      swap1\n        /* \"#utility.yul\":2524:2756   */\n      jump\t// out\n\n    auxdata: 0xa26469706673582212203fdccdd08c97381b5baed1a6beea037854c79005f2e8d9b5d5e46eb0657674b364736f6c63430008140033\n}\n",
				"bytecode": {
					"linkReferences": {},
					"object": "608060405234801561000f575f80fd5b506104b18061001d5f395ff3fe608060405260043610610049575f3560e01c806303988f841461004d578063278ecde1146100cf57806337bdc99b146100f0578063eadb3c9c1461010f578063f340fa0114610132575b5f80fd5b348015610058575f80fd5b5061009d610067366004610413565b5f6020819052908152604090208054600182015460028301546003909301546001600160a01b0392831693919092169160ff1684565b604080516001600160a01b03958616815294909316602085015291830152151560608201526080015b60405180910390f35b3480156100da575f80fd5b506100ee6100e9366004610413565b610145565b005b3480156100fb575f80fd5b506100ee61010a366004610413565b610241565b34801561011a575f80fd5b5061012460015481565b6040519081526020016100c6565b6100ee61014036600461042a565b61033c565b5f818152602081905260409020600381015460ff161561019f5760405162461bcd60e51b815260206004820152601060248201526f105b1c9958591e481c995b19585cd95960821b60448201526064015b60405180910390fd5b60018101546001600160a01b031633146101f35760405162461bcd60e51b815260206004820152601560248201527413db9b1e481c185e59594818d85b881c99599d5b99605a1b6044820152606401610196565b60038101805460ff19166001179055805460028201546040516001600160a01b039092169181156108fc0291905f818181858888f1935050505015801561023c573d5f803e3d5ffd5b505050565b5f818152602081905260409020600381015460ff16156102965760405162461bcd60e51b815260206004820152601060248201526f105b1c9958591e481c995b19585cd95960821b6044820152606401610196565b80546001600160a01b031633146102ef5760405162461bcd60e51b815260206004820152601a60248201527f4f6e6c79206465706f7369746f722063616e2072656c656173650000000000006044820152606401610196565b60038101805460ff1916600190811790915581015460028201546040516001600160a01b039092169181156108fc0291905f818181858888f1935050505015801561023c573d5f803e3d5ffd5b5f34116103795760405162461bcd60e51b815260206004820152600b60248201526a139bc8115512081cd95b9d60aa1b6044820152606401610196565b604080516080810182523381526001600160a01b038381166020808401918252348486019081525f6060860181815260018054835293829052968120955186549086166001600160a01b031991821617875593518684018054919096169416939093179093559151600284015592516003909201805492151560ff199093169290921790915580549161040b83610457565b919050555050565b5f60208284031215610423575f80fd5b5035919050565b5f6020828403121561043a575f80fd5b81356001600160a01b0381168114610450575f80fd5b9392505050565b5f6001820161047457634e487b7160e01b5f52601160045260245ffd5b506001019056fea26469706673582212203fdccdd08c97381b5baed1a6beea037854c79005f2e8d9b5d5e46eb0657674b364736f6c63430008140033",
					"opcodes": "PUSH1 0x80 PUSH1 0x40 MSTORE CALLVALUE DUP1 ISZERO PUSH2 0xF JUMPI PUSH0 DUP1 REVERT JUMPDEST POP PUSH2 0x4B1 DUP1 PUSH2 0x1D PUSH0 CODECOPY PUSH0 RETURN INVALID PUSH1 0x80 PUSH1 0x40 MSTORE PUSH1 0x4 CALLDATASIZE LT PUSH2 0x49 JUMPI PUSH0 CALLDATALOAD PUSH1 0xE0 SHR DUP1 PUSH4 0x3988F84 EQ PUSH2 0x4D JUMPI DUP1 PUSH4 0x278ECDE1 EQ PUSH2 0xCF JUMPI DUP1 PUSH4 0x37BDC99B EQ PUSH2 0xF0 JUMPI DUP1 PUSH4 0xEADB3C9C EQ PUSH2 0x10F JUMPI DUP1 PUSH4 0xF340FA01 EQ PUSH2 0x132 JUMPI JUMPDEST PUSH0 DUP1 REVERT JUMPDEST CALLVALUE DUP1 ISZERO PUSH2 0x58 JUMPI PUSH0 DUP1 REVERT JUMPDEST POP PUSH2 0x9D PUSH2 0x67 CALLDATASIZE PUSH1 0x4 PUSH2 0x413 JUMP JUMPDEST PUSH0 PUSH1 0x20 DUP2 SWAP1 MSTORE SWAP1 DUP2 MSTORE PUSH1 0x40 SWAP1 KECCAK256 DUP1 SLOAD PUSH1 0x1 DUP3 ADD SLOAD PUSH1 0x2 DUP4 ADD SLOAD PUSH1 0x3 SWAP1 SWAP4 ADD SLOAD PUSH1 0x1 PUSH1 0x1 PUSH1 0xA0 SHL SUB SWAP3 DUP4 AND SWAP4 SWAP2 SWAP1 SWAP3 AND SWAP2 PUSH1 0xFF AND DUP5 JUMP JUMPDEST PUSH1 0x40 DUP1 MLOAD PUSH1 0x1 PUSH1 0x1 PUSH1 0xA0 SHL SUB SWAP6 DUP7 AND DUP2 MSTORE SWAP5 SWAP1 SWAP4 AND PUSH1 0x20 DUP6 ADD MSTORE SWAP2 DUP4 ADD MSTORE ISZERO ISZERO PUSH1 0x60 DUP3 ADD MSTORE PUSH1 0x80 ADD JUMPDEST PUSH1 0x40 MLOAD DUP1 SWAP2 SUB SWAP1 RETURN JUMPDEST CALLVALUE DUP1 ISZERO PUSH2 0xDA JUMPI PUSH0 DUP1 REVERT JUMPDEST POP PUSH2 0xEE PUSH2 0xE9 CALLDATASIZE PUSH1 0x4 PUSH2 0x413 JUMP JUMPDEST PUSH2 0x145 JUMP JUMPDEST STOP JUMPDEST CALLVALUE DUP1 ISZERO PUSH2 0xFB JUMPI PUSH0 DUP1 REVERT JUMPDEST POP PUSH2 0xEE PUSH2 0x10A CALLDATASIZE PUSH1 0x4 PUSH2 0x413 JUMP JUMPDEST PUSH2 0x241 JUMP JUMPDEST CALLVALUE DUP1 ISZERO PUSH2 0x11A JUMPI PUSH0 DUP1 REVERT JUMPDEST POP PUSH2 0x124 PUSH1 0x1 SLOAD DUP2 JUMP JUMPDEST PUSH1 0x40 MLOAD SWAP1 DUP2 MSTORE PUSH1 0x20 ADD PUSH2 0xC6 JUMP JUMPDEST PUSH2 0xEE PUSH2 0x140 CALLDATASIZE PUSH1 0x4 PUSH2 0x42A JUMP JUMPDEST PUSH2 0x33C JUMP JUMPDEST PUSH0 DUP2 DUP2 MSTORE PUSH1 0x20 DUP2 SWAP1 MSTORE PUSH1 0x40 SWAP1 KECCAK256 PUSH1 0x3 DUP2 ADD SLOAD PUSH1 0xFF AND ISZERO PUSH2 0x19F JUMPI PUSH1 0x40 MLOAD PUSH3 0x461BCD PUSH1 0xE5 SHL DUP2 MSTORE PUSH1 0x20 PUSH1 0x4 DUP3 ADD MSTORE PUSH1 0x10 PUSH1 0x24 DUP3 ADD MSTORE PUSH16 0x105B1C9958591E481C995B19585CD959 PUSH1 0x82 SHL PUSH1 0x44 DUP3 ADD MSTORE PUSH1 0x64 ADD JUMPDEST PUSH1 0x40 MLOAD DUP1 SWAP2 SUB SWAP1 REVERT JUMPDEST PUSH1 0x1 DUP2 ADD SLOAD PUSH1 0x1 PUSH1 0x1 PUSH1 0xA0 SHL SUB AND CALLER EQ PUSH2 0x1F3 JUMPI PUSH1 0x40 MLOAD PUSH3 0x461BCD PUSH1 0xE5 SHL DUP2 MSTORE PUSH1 0x20 PUSH1 0x4 DUP3 ADD MSTORE PUSH1 0x15 PUSH1 0x24 DUP3 ADD MSTORE PUSH21 0x13DB9B1E481C185E59594818D85B881C99599D5B99 PUSH1 0x5A SHL PUSH1 0x44 DUP3 ADD MSTORE PUSH1 0x64 ADD PUSH2 0x196 JUMP JUMPDEST PUSH1 0x3 DUP2 ADD DUP1 SLOAD PUSH1 0xFF NOT AND PUSH1 0x1 OR SWAP1 SSTORE DUP1 SLOAD PUSH1 0x2 DUP3 ADD SLOAD PUSH1 0x40 MLOAD PUSH1 0x1 PUSH1 0x1 PUSH1 0xA0 SHL SUB SWAP1 SWAP3 AND SWAP2 DUP2 ISZERO PUSH2 0x8FC MUL SWAP2 SWAP1 PUSH0 DUP2 DUP2 DUP2 DUP6 DUP9 DUP9 CALL SWAP4 POP POP POP POP ISZERO DUP1 ISZERO PUSH2 0x23C JUMPI RETURNDATASIZE PUSH0 DUP1 RETURNDATACOPY RETURNDATASIZE PUSH0 REVERT JUMPDEST POP POP POP JUMP JUMPDEST PUSH0 DUP2 DUP2 MSTORE PUSH1 0x20 DUP2 SWAP1 MSTORE PUSH1 0x40 SWAP1 KECCAK256 PUSH1 0x3 DUP2 ADD SLOAD PUSH1 0xFF AND ISZERO PUSH2 0x296 JUMPI PUSH1 0x40 MLOAD PUSH3 0x461BCD PUSH1 0xE5 SHL DUP2 MSTORE PUSH1 0x20 PUSH1 0x4 DUP3 ADD MSTORE PUSH1 0x10 PUSH1 0x24 DUP3 ADD MSTORE PUSH16 0x105B1C9958591E481C995B19585CD959 PUSH1 0x82 SHL PUSH1 0x44 DUP3 ADD MSTORE PUSH1 0x64 ADD PUSH2 0x196 JUMP JUMPDEST DUP1 SLOAD PUSH1 0x1 PUSH1 0x1 PUSH1 0xA0 SHL SUB AND CALLER EQ PUSH2 0x2EF JUMPI PUSH1 0x40 MLOAD PUSH3 0x461BCD PUSH1 0xE5 SHL DUP2 MSTORE PUSH1 0x20 PUSH1 0x4 DUP3 ADD MSTORE PUSH1 0x1A PUSH1 0x24 DUP3 ADD MSTORE PUSH32 0x4F6E6C79206465706F7369746F722063616E2072656C65617365000000000000 PUSH1 0x44 DUP3 ADD MSTORE PUSH1 0x64 ADD PUSH2 0x196 JUMP JUMPDEST PUSH1 0x3 DUP2 ADD DUP1 SLOAD PUSH1 0xFF NOT AND PUSH1 0x1 SWAP1 DUP2 OR SWAP1 SWAP2 SSTORE DUP2 ADD SLOAD PUSH1 0x2 DUP3 ADD SLOAD PUSH1 0x40 MLOAD PUSH1 0x1 PUSH1 0x1 PUSH1 0xA0 SHL SUB SWAP1 SWAP3 AND SWAP2 DUP2 ISZERO PUSH2 0x8FC MUL SWAP2 SWAP1 PUSH0 DUP2 DUP2 DUP2 DUP6 DUP9 DUP9 CALL SWAP4 POP POP POP POP ISZERO DUP1 ISZERO PUSH2 0x23C JUMPI RETURNDATASIZE PUSH0 DUP1 RETURNDATACOPY RETURNDATASIZE PUSH0 REVERT JUMPDEST PUSH0 CALLVALUE GT PUSH2 0x379 JUMPI PUSH1 0x40 MLOAD PUSH3 0x461BCD PUSH1 0xE5 SHL DUP2 MSTORE PUSH1 0x20 PUSH1 0x4 DUP3 ADD MSTORE PUSH1 0xB PUSH1 0x24 DUP3 ADD MSTORE PUSH11 0x139BC8115512081CD95B9D PUSH1 0xAA SHL PUSH1 0x44 DUP3 ADD MSTORE PUSH1 0x64 ADD PUSH2 0x196 JUMP JUMPDEST PUSH1 0x40 DUP1 MLOAD PUSH1 0x80 DUP2 ADD DUP3 MSTORE CALLER DUP2 MSTORE PUSH1 0x1 PUSH1 0x1 PUSH1 0xA0 SHL SUB DUP4 DUP2 AND PUSH1 0x20 DUP1 DUP5 ADD SWAP2 DUP3 MSTORE CALLVALUE DUP5 DUP7 ADD SWAP1 DUP2 MSTORE PUSH0 PUSH1 0x60 DUP7 ADD DUP2 DUP2 MSTORE PUSH1 0x1 DUP1 SLOAD DUP4 MSTORE SWAP4 DUP3 SWAP1 MSTORE SWAP7 DUP2 KECCAK256 SWAP6 MLOAD DUP7 SLOAD SWAP1 DUP7 AND PUSH1 0x1 PUSH1 0x1 PUSH1 0xA0 SHL SUB NOT SWAP2 DUP3 AND OR DUP8 SSTORE SWAP4 MLOAD DUP7 DUP5 ADD DUP1 SLOAD SWAP2 SWAP1 SWAP7 AND SWAP5 AND SWAP4 SWAP1 SWAP4 OR SWAP1 SWAP4 SSTORE SWAP2 MLOAD PUSH1 0x2 DUP5 ADD SSTORE SWAP3 MLOAD PUSH1 0x3 SWAP1 SWAP3 ADD DUP1 SLOAD SWAP3 ISZERO ISZERO PUSH1 0xFF NOT SWAP1 SWAP4 AND SWAP3 SWAP1 SWAP3 OR SWAP1 SWAP2 SSTORE DUP1 SLOAD SWAP2 PUSH2 0x40B DUP4 PUSH2 0x457 JUMP JUMPDEST SWAP2 SWAP1 POP SSTORE POP POP JUMP JUMPDEST PUSH0 PUSH1 0x20 DUP3 DUP5 SUB SLT ISZERO PUSH2 0x423 JUMPI PUSH0 DUP1 REVERT JUMPDEST POP CALLDATALOAD SWAP2 SWAP1 POP JUMP JUMPDEST PUSH0 PUSH1 0x20 DUP3 DUP5 SUB SLT ISZERO PUSH2 0x43A JUMPI PUSH0 DUP1 REVERT JUMPDEST DUP2 CALLDATALOAD PUSH1 0x1 PUSH1 0x1 PUSH1 0xA0 SHL SUB DUP2 AND DUP2 EQ PUSH2 0x450 JUMPI PUSH0 DUP1 REVERT JUMPDEST SWAP4 SWAP3 POP POP POP JUMP JUMPDEST PUSH0 PUSH1 0x1 DUP3 ADD PUSH2 0x474 JUMPI PUSH4 0x4E487B71 PUSH1 0xE0 SHL PUSH0 MSTORE PUSH1 0x11 PUSH1 0x4 MSTORE PUSH1 0x24 PUSH0 REVERT JUMPDEST POP PUSH1 0x1 ADD SWAP1 JUMP INVALID LOG2 PUSH5 0x6970667358 0x22 SLT KECCAK256 EXTCODEHASH 0xDC 0xCD 0xD0 DUP13 SWAP8 CODESIZE SHL JUMPDEST 0xAE 0xD1 0xA6 0xBE 0xEA SUB PUSH25 0x54C79005F2E8D9B5D5E46EB0657674B364736F6C6343000814 STOP CALLER "
				},
				"gasEstimates": {
					"creation": {
						"codeDepositCost": "240200",
						"executionCost": "279",
						"totalCost": "240479"
					},
					"external": {
						"dealCount()": "2338",
						"deals(uint256)": "8873",
						"deposit(address)": "121796",
						"refund(uint256)": "infinite",
						"release(uint256)": "infinite"
					}
				},
				"methodIdentifiers": {
					"dealCount()": "eadb3c9c",
					"deals(uint256)": "03988f84",
					"deposit(address)": "f340fa01",
					"refund(uint256)": "278ecde1",
					"release(uint256)": "37bdc99b"
				}
			},
			"storageLayout": {
				"storage": [
					{
						"astId": 15,
						"contract": "EscrowContract.sol:SimpleEscrow",
						"label": "deals",
						"offset": 0,
						"slot": "0",
						"type": "t_mapping(t_uint256,t_struct(Deal)10_storage)"
					},
					{
						"astId": 17,
						"contract": "EscrowContract.sol:SimpleEscrow",
						"label": "dealCount",
						"offset": 0,
						"slot": "1",
						"type": "t_uint256"
					}
				],
				"types": {
					"t_address": {
						"encoding": "inplace",
						"label": "address",
						"numberOfBytes": "20"
					},
					"t_bool": {
						"encoding": "inplace",
						"label": "bool",
						"numberOfBytes": "1"
					},
					"t_mapping(t_uint256,t_struct(Deal)10_storage)": {
						"encoding": "mapping",
						"key": "t_uint256",
						"label": "mapping(uint256 => struct SimpleEscrow.Deal)",
						"numberOfBytes": "32",
						"value": "t_struct(Deal)10_storage"
					},
					"t_struct(Deal)10_storage": {
						"encoding": "inplace",
						"label": "struct SimpleEscrow.Deal",
						"members": [
							{
								"astId": 3,
								"contract": "EscrowContract.sol:SimpleEscrow",
								"label": "depositor",
								"offset": 0,
								"slot": "0",
								"type": "t_address"
							},
							{
								"astId": 5,
								"contract": "EscrowContract.sol:SimpleEscrow",
								"label": "payee",
								"offset": 0,
								"slot": "1",
								"type": "t_address"
							},
							{
								"astId": 7,
								"contract": "EscrowContract.sol:SimpleEscrow",
								"label": "amount",
								"offset": 0,
								"slot": "2",
								"type": "t_uint256"
							},
							{
								"astId": 9,
								"contract": "EscrowContract.sol:SimpleEscrow",
								"label": "released",
								"offset": 0,
								"slot": "3",
								"type": "t_bool"
							}
						],
						"numberOfBytes": "128"
					},
					"t_uint256": {
						"encoding": "inplace",
						"label": "uint256",
						"numberOfBytes": "32"
					}
				}
			},
			"userdoc": {
				"kind": "user",
				"methods": {},
				"version": 1
			}
		}
	}
}