{
	"LeaderboardManager.sol": {
		"LeaderboardManager": {
			"abi": [
				{
					"inputs": [
						{
							"internalType": "address",
							"name": "_player",
							"type": "address"
						},
						{
							"internalType": "uint256",
							"name": "_score",
							"type": "uint256"
						}
					],
					"name": "addOrUpdateScore",
					"outputs": [],
					"stateMutability": "nonpayable",
					"type": "function"
				},
				{
					"inputs": [],
					"name": "getAllPlayers",
					"outputs": [
						{
							"internalType": "address[]",
							"name": "",
							"type": "address[]"
						}
					],
					"stateMutability": "view",
					"type": "function"
				},
				{
					"inputs": [
						{
							"internalType": "address",
							"name": "_player",
							"type": "address"
						}
					],
					"name": "getScore",
					"outputs": [
						{
							"internalType": "uint256",
							"name": "",
							"type": "uint256"
						}
					],
					"stateMutability": "view",
					"type": "function"
				},
				{
					"inputs": [
						{
							"internalType": "uint256",
							"name": "count",
							"type": "uint256"
						}
					],
					"name": "getTopPlayers",
					"outputs": [
						{
							"internalType": "address[]",
							"name": "",
							"type": "address[]"
						}
					],
					"stateMutability": "view",
					"type": "function"
				},
				{
					"inputs": [
						{
							"internalType": "uint256",
							"name": "",
							"type": "uint256"
						}
					],
					"name": "playerList",
					"outputs": [
						{
							"internalType": "address",
							"name": "",
							"type": "address"
						}
					],
					"stateMutability": "view",
					"type": "function"
				},
				{
					"inputs": [
						{
							"internalType": "address",
							"name": "",
							"type": "address"
						}
					],
					"name": "players",
					"outputs": [
						{
							"internalType": "uint256",
							"name": "score",
							"type": "uint256"
						},
						{
							"internalType": "bool",
							"name": "exists",
							"type": "bool"
						}
					],
					"stateMutability": "view",
					"type": "function"
				}
			],
			"devdoc": {
				"kind": "dev",
				"methods": {},
				"version": 1
			},
			"evm": {
				"assembly": "    /* \"LeaderboardManager.sol\":61:1705  contract LeaderboardManager {... */\n  mstore(0x40, 0x80)\n  callvalue\n  dup1\n  iszero\n  tag_1\n  jumpi\n  0x00\n  dup1\n  revert\ntag_1:\n  pop\n  dataSize(sub_0)\n  dup1\n  dataOffset(sub_0)\n  0x00\n  codecopy\n  0x00\n  return\nstop\n\nsub_0: assembly {\n        /* \"LeaderboardManager.sol\":61:1705  contract LeaderboardManager {... */\n      mstore(0x40, 0x80)\n      callvalue\n      dup1\n      iszero\n      tag_1\n      jumpi\n      0x00\n      dup1\n      revert\n    tag_1:\n      pop\n      jumpi(tag_2, lt(calldatasize, 0x04))\n      shr(0xe0, calldataload(0x00))\n      dup1\n      0x3ccd7d89\n      eq\n      tag_3\n      jumpi\n      dup1\n      0xae6d9073\n      eq\n      tag_4\n      jumpi\n      dup1\n      0xba3c0067\n      eq\n      tag_5\n      jumpi\n      dup1\n      0xd47875d0\n      eq\n      tag_6\n      jumpi\n      dup1\n      0xe2eb41ff\n      eq\n      tag_7\n      jumpi\n      dup1\n      0xefa1c482\n      eq\n      tag_8\n      jumpi\n    tag_2:\n      0x00\n      dup1\n      revert\n        /* \"LeaderboardManager.sol\":256:541  function addOrUpdateScore(address _player, uint256 _score) external {... */\n    tag_3:\n      tag_9\n      tag_10\n      calldatasize\n      0x04\n      tag_11\n      jump\t// in\n    tag_10:\n      tag_12\n      jump\t// in\n    tag_9:\n      stop\n        /* \"LeaderboardManager.sol\":220:247  address[] public playerList */\n    tag_4:\n      tag_13\n      tag_14\n      calldatasize\n      0x04\n      tag_15\n      jump\t// in\n    tag_14:\n      tag_16\n      jump\t// in\n    tag_13:\n      mload(0x40)\n      sub(shl(0xa0, 0x01), 0x01)\n        /* \"#utility.yul\":800:832   */\n      swap1\n      swap2\n      and\n        /* \"#utility.yul\":782:833   */\n      dup2\n      mstore\n        /* \"#utility.yul\":770:772   */\n      0x20\n        /* \"#utility.yul\":755:773   */\n      add\n        /* \"LeaderboardManager.sol\":220:247  address[] public playerList */\n    tag_17:\n      mload(0x40)\n      dup1\n      swap2\n      sub\n      swap1\n      return\n        /* \"LeaderboardManager.sol\":672:1592  function getTopPlayers(uint256 count) external view returns (address[] memory) {... */\n    tag_5:\n      tag_19\n      tag_20\n      calldatasize\n      0x04\n      tag_15\n      jump\t// in\n    tag_20:\n      tag_21\n      jump\t// in\n    tag_19:\n      mload(0x40)\n      tag_17\n      swap2\n      swap1\n      tag_23\n      jump\t// in\n        /* \"LeaderboardManager.sol\":549:664  function getScore(address _player) external view returns (uint256) {... */\n    tag_6:\n      tag_24\n      tag_25\n      calldatasize\n      0x04\n      tag_26\n      jump\t// in\n    tag_25:\n      sub(shl(0xa0, 0x01), 0x01)\n        /* \"LeaderboardManager.sol\":634:650  players[_player] */\n      and\n        /* \"LeaderboardManager.sol\":607:614  uint256 */\n      0x00\n        /* \"LeaderboardManager.sol\":634:650  players[_player] */\n      swap1\n      dup2\n      mstore\n      0x20\n      dup2\n      swap1\n      mstore\n      0x40\n      swap1\n      keccak256\n        /* \"LeaderboardManager.sol\":634:656  players[_player].score */\n      sload\n      swap1\n        /* \"LeaderboardManager.sol\":549:664  function getScore(address _player) external view returns (uint256) {... */\n      jump\n    tag_24:\n      mload(0x40)\n        /* \"#utility.yul\":1844:1869   */\n      swap1\n      dup2\n      mstore\n        /* \"#utility.yul\":1832:1834   */\n      0x20\n        /* \"#utility.yul\":1817:1835   */\n      add\n        /* \"LeaderboardManager.sol\":549:664  function getScore(address _player) external view returns (uint256) {... */\n      tag_17\n        /* \"#utility.yul\":1698:1875   */\n      jump\n        /* \"LeaderboardManager.sol\":172:213  mapping(address => Player) public players */\n    tag_7:\n      tag_30\n      tag_31\n      calldatasize\n      0x04\n      tag_26\n      jump\t// in\n    tag_31:\n      0x00\n      0x20\n      dup2\n      swap1\n      mstore\n      swap1\n      dup2\n      mstore\n      0x40\n      swap1\n      keccak256\n      dup1\n      sload\n      0x01\n      swap1\n      swap2\n      add\n      sload\n      0xff\n      and\n      dup3\n      jump\n    tag_30:\n      0x40\n      dup1\n      mload\n        /* \"#utility.yul\":2048:2073   */\n      swap3\n      dup4\n      mstore\n        /* \"#utility.yul\":2116:2130   */\n      swap1\n      iszero\n        /* \"#utility.yul\":2109:2131   */\n      iszero\n        /* \"#utility.yul\":2104:2106   */\n      0x20\n        /* \"#utility.yul\":2089:2107   */\n      dup4\n      add\n        /* \"#utility.yul\":2082:2132   */\n      mstore\n        /* \"#utility.yul\":2021:2039   */\n      add\n        /* \"LeaderboardManager.sol\":172:213  mapping(address => Player) public players */\n      tag_17\n        /* \"#utility.yul\":1880:2138   */\n      jump\n        /* \"LeaderboardManager.sol\":1600:1702  function getAllPlayers() external view returns (address[] memory) {... */\n    tag_8:\n      tag_19\n      tag_36\n      jump\t// in\n        /* \"LeaderboardManager.sol\":256:541  function addOrUpdateScore(address _player, uint256 _score) external {... */\n    tag_12:\n      sub(shl(0xa0, 0x01), 0x01)\n        /* \"LeaderboardManager.sol\":340:356  players[_player] */\n      dup3\n      and\n        /* \"LeaderboardManager.sol\":340:347  players */\n      0x00\n        /* \"LeaderboardManager.sol\":340:356  players[_player] */\n      swap1\n      dup2\n      mstore\n      0x20\n      dup2\n      swap1\n      mstore\n      0x40\n      swap1\n      keccak256\n        /* \"LeaderboardManager.sol\":340:363  players[_player].exists */\n      0x01\n      add\n      sload\n      0xff\n      and\n        /* \"LeaderboardManager.sol\":335:534  if (!players[_player].exists) {... */\n      tag_39\n      jumpi\n        /* \"LeaderboardManager.sol\":399:419  Player(_score, true) */\n      0x40\n      dup1\n      mload\n      dup1\n      dup3\n      add\n      dup3\n      mstore\n      dup3\n      dup2\n      mstore\n        /* \"LeaderboardManager.sol\":414:418  true */\n      0x01\n        /* \"LeaderboardManager.sol\":399:419  Player(_score, true) */\n      0x20\n      dup1\n      dup4\n      add\n      dup3\n      dup2\n      mstore\n      sub(shl(0xa0, 0x01), 0x01)\n        /* \"LeaderboardManager.sol\":380:396  players[_player] */\n      dup8\n      and\n      0x00\n      dup2\n      dup2\n      mstore\n      swap3\n      dup4\n      swap1\n      mstore\n      swap5\n      dup3\n      keccak256\n        /* \"LeaderboardManager.sol\":380:419  players[_player] = Player(_score, true) */\n      swap4\n      mload\n      dup5\n      sstore\n      mload\n      swap3\n      dup3\n      add\n      dup1\n      sload\n      swap4\n      iszero\n      iszero\n      not(0xff)\n      swap1\n      swap5\n      and\n      swap4\n      swap1\n      swap4\n      or\n      swap1\n      swap3\n      sstore\n        /* \"LeaderboardManager.sol\":434:458  playerList.push(_player) */\n      dup1\n      sload\n      dup1\n      dup3\n      add\n      dup3\n      sstore\n      swap2\n      mstore\n      0xb10e2d527612073b26eecdfd717e6a320cf44b4afac2b0732d9fcbe2b7fa0cf6\n      add\n      dup1\n      sload\n      not(sub(shl(0xa0, 0x01), 0x01))\n      and\n      swap1\n      swap2\n      or\n      swap1\n      sstore\n        /* \"LeaderboardManager.sol\":256:541  function addOrUpdateScore(address _player, uint256 _score) external {... */\n      pop\n      pop\n      jump\t// out\n        /* \"LeaderboardManager.sol\":335:534  if (!players[_player].exists) {... */\n    tag_39:\n      sub(shl(0xa0, 0x01), 0x01)\n        /* \"LeaderboardManager.sol\":491:507  players[_player] */\n      swap2\n      swap1\n      swap2\n      and\n        /* \"LeaderboardManager.sol\":491:498  players */\n      0x00\n        /* \"LeaderboardManager.sol\":491:507  players[_player] */\n      swap1\n      dup2\n      mstore\n      0x20\n      dup2\n      swap1\n      mstore\n      0x40\n      swap1\n      keccak256\n        /* \"LeaderboardManager.sol\":491:522  players[_player].score = _score */\n      sstore\n        /* \"LeaderboardManager.sol\":256:541  function addOrUpdateScore(address _player, uint256 _score) external {... */\n      jump\t// out\n        /* \"LeaderboardManager.sol\":220:247  address[] public playerList */\n    tag_16:\n      0x01\n      dup2\n      dup2\n      sload\n      dup2\n      lt\n      tag_42\n      jumpi\n      0x00\n      dup1\n      revert\n    tag_42:\n      0x00\n      swap2\n      dup3\n      mstore\n      0x20\n      swap1\n      swap2\n      keccak256\n      add\n      sload\n      sub(shl(0xa0, 0x01), 0x01)\n      and\n      swap1\n      pop\n      dup2\n      jump\t// out\n        /* \"LeaderboardManager.sol\":672:1592  function getTopPlayers(uint256 count) external view returns (address[] memory) {... */\n    tag_21:\n        /* \"LeaderboardManager.sol\":733:749  address[] memory */\n      0x60\n        /* \"LeaderboardManager.sol\":778:779  0 */\n      0x00\n        /* \"LeaderboardManager.sol\":770:775  count */\n      dup3\n        /* \"LeaderboardManager.sol\":770:779  count > 0 */\n      gt\n        /* \"LeaderboardManager.sol\":762:797  require(count > 0, \"Invalid count\") */\n      tag_45\n      jumpi\n      mload(0x40)\n      shl(0xe5, 0x461bcd)\n      dup2\n      mstore\n        /* \"#utility.yul\":2345:2347   */\n      0x20\n        /* \"LeaderboardManager.sol\":762:797  require(count > 0, \"Invalid count\") */\n      0x04\n      dup3\n      add\n        /* \"#utility.yul\":2327:2348   */\n      mstore\n        /* \"#utility.yul\":2384:2386   */\n      0x0d\n        /* \"#utility.yul\":2364:2382   */\n      0x24\n      dup3\n      add\n        /* \"#utility.yul\":2357:2387   */\n      mstore\n      shl(0x9a, 0x125b9d985b1a590818dbdd5b9d)\n        /* \"#utility.yul\":2403:2421   */\n      0x44\n      dup3\n      add\n        /* \"#utility.yul\":2396:2439   */\n      mstore\n        /* \"#utility.yul\":2456:2474   */\n      0x64\n      add\n        /* \"LeaderboardManager.sol\":762:797  require(count > 0, \"Invalid count\") */\n      mload(0x40)\n      dup1\n      swap2\n      sub\n      swap1\n      revert\n    tag_45:\n        /* \"LeaderboardManager.sol\":820:830  playerList */\n      0x01\n        /* \"LeaderboardManager.sol\":820:837  playerList.length */\n      sload\n        /* \"LeaderboardManager.sol\":808:817  uint256 n */\n      0x00\n        /* \"LeaderboardManager.sol\":820:837  playerList.length */\n      dup2\n        /* \"LeaderboardManager.sol\":874:890  new address[](n) */\n      0xffffffffffffffff\n      dup2\n      gt\n      iszero\n      tag_49\n      jumpi\n      tag_49\n      tag_50\n      jump\t// in\n    tag_49:\n      mload(0x40)\n      swap1\n      dup1\n      dup3\n      mstore\n      dup1\n      0x20\n      mul\n      0x20\n      add\n      dup3\n      add\n      0x40\n      mstore\n      dup1\n      iszero\n      tag_51\n      jumpi\n      dup2\n      0x20\n      add\n      0x20\n      dup3\n      mul\n      dup1\n      calldatasize\n      dup4\n      calldatacopy\n      add\n      swap1\n      pop\n    tag_51:\n      pop\n        /* \"LeaderboardManager.sol\":848:890  address[] memory sorted = new address[](n) */\n      swap1\n      pop\n        /* \"LeaderboardManager.sol\":906:915  uint256 i */\n      0x00\n        /* \"LeaderboardManager.sol\":901:985  for (uint256 i = 0; i < n; i++) {... */\n    tag_52:\n        /* \"LeaderboardManager.sol\":925:926  n */\n      dup3\n        /* \"LeaderboardManager.sol\":921:922  i */\n      dup2\n        /* \"LeaderboardManager.sol\":921:926  i < n */\n      lt\n        /* \"LeaderboardManager.sol\":901:985  for (uint256 i = 0; i < n; i++) {... */\n      iszero\n      tag_53\n      jumpi\n        /* \"LeaderboardManager.sol\":960:970  playerList */\n      0x01\n        /* \"LeaderboardManager.sol\":971:972  i */\n      dup2\n        /* \"LeaderboardManager.sol\":960:973  playerList[i] */\n      dup2\n      sload\n      dup2\n      lt\n      tag_56\n      jumpi\n      tag_56\n      tag_57\n      jump\t// in\n    tag_56:\n      swap1\n      0x00\n      mstore\n      keccak256(0x00, 0x20)\n      add\n      0x00\n      swap1\n      sload\n      swap1\n      0x0100\n      exp\n      swap1\n      div\n      sub(shl(0xa0, 0x01), 0x01)\n      and\n        /* \"LeaderboardManager.sol\":948:954  sorted */\n      dup3\n        /* \"LeaderboardManager.sol\":955:956  i */\n      dup3\n        /* \"LeaderboardManager.sol\":948:957  sorted[i] */\n      dup2\n      mload\n      dup2\n      lt\n      tag_60\n      jumpi\n      tag_60\n      tag_57\n      jump\t// in\n    tag_60:\n      sub(shl(0xa0, 0x01), 0x01)\n        /* \"LeaderboardManager.sol\":948:973  sorted[i] = playerList[i] */\n      swap1\n      swap3\n      and\n        /* \"LeaderboardManager.sol\":948:957  sorted[i] */\n      0x20\n      swap3\n      dup4\n      mul\n      swap2\n      swap1\n      swap2\n      add\n      swap1\n      swap2\n      add\n        /* \"LeaderboardManager.sol\":948:973  sorted[i] = playerList[i] */\n      mstore\n        /* \"LeaderboardManager.sol\":928:931  i++ */\n      dup1\n      tag_61\n      dup2\n      tag_62\n      jump\t// in\n    tag_61:\n      swap2\n      pop\n      pop\n        /* \"LeaderboardManager.sol\":901:985  for (uint256 i = 0; i < n; i++) {... */\n      jump(tag_52)\n    tag_53:\n      pop\n        /* \"LeaderboardManager.sol\":1050:1059  uint256 i */\n      0x00\n        /* \"LeaderboardManager.sol\":1045:1380  for (uint256 i = 0; i < n; i++) {... */\n    tag_63:\n        /* \"LeaderboardManager.sol\":1069:1070  n */\n      dup3\n        /* \"LeaderboardManager.sol\":1065:1066  i */\n      dup2\n        /* \"LeaderboardManager.sol\":1065:1070  i < n */\n      lt\n        /* \"LeaderboardManager.sol\":1045:1380  for (uint256 i = 0; i < n; i++) {... */\n      iszero\n      tag_64\n      jumpi\n        /* \"LeaderboardManager.sol\":1097:1106  uint256 j */\n      0x00\n        /* \"LeaderboardManager.sol\":1109:1114  i + 1 */\n      tag_69\n        /* \"LeaderboardManager.sol\":1109:1110  i */\n      dup3\n        /* \"LeaderboardManager.sol\":1113:1114  1 */\n      0x01\n        /* \"LeaderboardManager.sol\":1109:1114  i + 1 */\n      tag_70\n      jump\t// in\n    tag_69:\n        /* \"LeaderboardManager.sol\":1097:1114  uint256 j = i + 1 */\n      swap1\n      pop\n        /* \"LeaderboardManager.sol\":1092:1369  for (uint256 j = i + 1; j < n; j++) {... */\n    tag_66:\n        /* \"LeaderboardManager.sol\":1120:1121  n */\n      dup4\n        /* \"LeaderboardManager.sol\":1116:1117  j */\n      dup2\n        /* \"LeaderboardManager.sol\":1116:1121  j < n */\n      lt\n        /* \"LeaderboardManager.sol\":1092:1369  for (uint256 j = i + 1; j < n; j++) {... */\n      iszero\n      tag_67\n      jumpi\n        /* \"LeaderboardManager.sol\":1178:1185  players */\n      0x00\n        /* \"LeaderboardManager.sol\":1178:1196  players[sorted[i]] */\n      dup1\n        /* \"LeaderboardManager.sol\":1186:1192  sorted */\n      dup5\n        /* \"LeaderboardManager.sol\":1193:1194  i */\n      dup5\n        /* \"LeaderboardManager.sol\":1186:1195  sorted[i] */\n      dup2\n      mload\n      dup2\n      lt\n      tag_72\n      jumpi\n      tag_72\n      tag_57\n      jump\t// in\n    tag_72:\n      0x20\n      mul\n      0x20\n      add\n      add\n      mload\n      sub(shl(0xa0, 0x01), 0x01)\n        /* \"LeaderboardManager.sol\":1178:1196  players[sorted[i]] */\n      and\n      sub(shl(0xa0, 0x01), 0x01)\n      and\n      dup2\n      mstore\n      0x20\n      add\n      swap1\n      dup2\n      mstore\n      0x20\n      add\n      0x00\n      keccak256\n        /* \"LeaderboardManager.sol\":1178:1202  players[sorted[i]].score */\n      0x00\n      add\n      sload\n        /* \"LeaderboardManager.sol\":1151:1158  players */\n      0x00\n        /* \"LeaderboardManager.sol\":1151:1169  players[sorted[j]] */\n      dup1\n        /* \"LeaderboardManager.sol\":1159:1165  sorted */\n      dup6\n        /* \"LeaderboardManager.sol\":1166:1167  j */\n      dup5\n        /* \"LeaderboardManager.sol\":1159:1168  sorted[j] */\n      dup2\n      mload\n      dup2\n      lt\n      tag_74\n      jumpi\n      tag_74\n      tag_57\n      jump\t// in\n    tag_74:\n      0x20\n      mul\n      0x20\n      add\n      add\n      mload\n      sub(shl(0xa0, 0x01), 0x01)\n        /* \"LeaderboardManager.sol\":1151:1169  players[sorted[j]] */\n      and\n      sub(shl(0xa0, 0x01), 0x01)\n      and\n      dup2\n      mstore\n      0x20\n      add\n      swap1\n      dup2\n      mstore\n      0x20\n      add\n      0x00\n      keccak256\n        /* \"LeaderboardManager.sol\":1151:1175  players[sorted[j]].score */\n      0x00\n      add\n      sload\n        /* \"LeaderboardManager.sol\":1151:1202  players[sorted[j]].score > players[sorted[i]].score */\n      gt\n        /* \"LeaderboardManager.sol\":1147:1354  if (players[sorted[j]].score > players[sorted[i]].score) {... */\n      iszero\n      tag_75\n      jumpi\n        /* \"LeaderboardManager.sol\":1227:1239  address temp */\n      0x00\n        /* \"LeaderboardManager.sol\":1242:1248  sorted */\n      dup4\n        /* \"LeaderboardManager.sol\":1249:1250  i */\n      dup4\n        /* \"LeaderboardManager.sol\":1242:1251  sorted[i] */\n      dup2\n      mload\n      dup2\n      lt\n      tag_77\n      jumpi\n      tag_77\n      tag_57\n      jump\t// in\n    tag_77:\n      0x20\n      mul\n      0x20\n      add\n      add\n      mload\n        /* \"LeaderboardManager.sol\":1227:1251  address temp = sorted[i] */\n      swap1\n      pop\n        /* \"LeaderboardManager.sol\":1286:1292  sorted */\n      dup4\n        /* \"LeaderboardManager.sol\":1293:1294  j */\n      dup3\n        /* \"LeaderboardManager.sol\":1286:1295  sorted[j] */\n      dup2\n      mload\n      dup2\n      lt\n      tag_79\n      jumpi\n      tag_79\n      tag_57\n      jump\t// in\n    tag_79:\n      0x20\n      mul\n      0x20\n      add\n      add\n      mload\n        /* \"LeaderboardManager.sol\":1274:1280  sorted */\n      dup5\n        /* \"LeaderboardManager.sol\":1281:1282  i */\n      dup5\n        /* \"LeaderboardManager.sol\":1274:1283  sorted[i] */\n      dup2\n      mload\n      dup2\n      lt\n      tag_81\n      jumpi\n      tag_81\n      tag_57\n      jump\t// in\n    tag_81:\n      0x20\n      mul\n      0x20\n      add\n      add\n        /* \"LeaderboardManager.sol\":1274:1295  sorted[i] = sorted[j] */\n      swap1\n      sub(shl(0xa0, 0x01), 0x01)\n      and\n      swap1\n      dup2\n      sub(shl(0xa0, 0x01), 0x01)\n      and\n      dup2\n      mstore\n      pop\n      pop\n        /* \"LeaderboardManager.sol\":1330:1334  temp */\n      dup1\n        /* \"LeaderboardManager.sol\":1318:1324  sorted */\n      dup5\n        /* \"LeaderboardManager.sol\":1325:1326  j */\n      dup4\n        /* \"LeaderboardManager.sol\":1318:1327  sorted[j] */\n      dup2\n      mload\n      dup2\n      lt\n      tag_83\n      jumpi\n      tag_83\n      tag_57\n      jump\t// in\n    tag_83:\n      0x20\n      mul\n      0x20\n      add\n      add\n        /* \"LeaderboardManager.sol\":1318:1334  sorted[j] = temp */\n      swap1\n      sub(shl(0xa0, 0x01), 0x01)\n      and\n      swap1\n      dup2\n      sub(shl(0xa0, 0x01), 0x01)\n      and\n      dup2\n      mstore\n      pop\n      pop\n        /* \"LeaderboardManager.sol\":1204:1354  {... */\n      pop\n        /* \"LeaderboardManager.sol\":1147:1354  if (players[sorted[j]].score > players[sorted[i]].score) {... */\n    tag_75:\n        /* \"LeaderboardManager.sol\":1123:1126  j++ */\n      dup1\n      tag_84\n      dup2\n      tag_62\n      jump\t// in\n    tag_84:\n      swap2\n      pop\n      pop\n        /* \"LeaderboardManager.sol\":1092:1369  for (uint256 j = i + 1; j < n; j++) {... */\n      jump(tag_66)\n    tag_67:\n      pop\n        /* \"LeaderboardManager.sol\":1072:1075  i++ */\n      dup1\n      tag_85\n      dup2\n      tag_62\n      jump\t// in\n    tag_85:\n      swap2\n      pop\n      pop\n        /* \"LeaderboardManager.sol\":1045:1380  for (uint256 i = 0; i < n; i++) {... */\n      jump(tag_63)\n    tag_64:\n      pop\n        /* \"LeaderboardManager.sol\":1404:1405  n */\n      dup2\n        /* \"LeaderboardManager.sol\":1396:1401  count */\n      dup5\n        /* \"LeaderboardManager.sol\":1396:1405  count > n */\n      gt\n        /* \"LeaderboardManager.sol\":1392:1416  if (count > n) count = n */\n      iszero\n      tag_86\n      jumpi\n        /* \"LeaderboardManager.sol\":1415:1416  n */\n      dup2\n        /* \"LeaderboardManager.sol\":1407:1416  count = n */\n      swap4\n      pop\n        /* \"LeaderboardManager.sol\":1392:1416  if (count > n) count = n */\n    tag_86:\n        /* \"LeaderboardManager.sol\":1429:1449  address[] memory top */\n      0x00\n        /* \"LeaderboardManager.sol\":1466:1471  count */\n      dup5\n        /* \"LeaderboardManager.sol\":1452:1472  new address[](count) */\n      0xffffffffffffffff\n      dup2\n      gt\n      iszero\n      tag_88\n      jumpi\n      tag_88\n      tag_50\n      jump\t// in\n    tag_88:\n      mload(0x40)\n      swap1\n      dup1\n      dup3\n      mstore\n      dup1\n      0x20\n      mul\n      0x20\n      add\n      dup3\n      add\n      0x40\n      mstore\n      dup1\n      iszero\n      tag_89\n      jumpi\n      dup2\n      0x20\n      add\n      0x20\n      dup3\n      mul\n      dup1\n      calldatasize\n      dup4\n      calldatacopy\n      add\n      swap1\n      pop\n    tag_89:\n      pop\n        /* \"LeaderboardManager.sol\":1429:1472  address[] memory top = new address[](count) */\n      swap1\n      pop\n        /* \"LeaderboardManager.sol\":1488:1497  uint256 i */\n      0x00\n        /* \"LeaderboardManager.sol\":1483:1564  for (uint256 i = 0; i < count; i++) {... */\n    tag_90:\n        /* \"LeaderboardManager.sol\":1507:1512  count */\n      dup6\n        /* \"LeaderboardManager.sol\":1503:1504  i */\n      dup2\n        /* \"LeaderboardManager.sol\":1503:1512  i < count */\n      lt\n        /* \"LeaderboardManager.sol\":1483:1564  for (uint256 i = 0; i < count; i++) {... */\n      iszero\n      tag_91\n      jumpi\n        /* \"LeaderboardManager.sol\":1543:1549  sorted */\n      dup3\n        /* \"LeaderboardManager.sol\":1550:1551  i */\n      dup2\n        /* \"LeaderboardManager.sol\":1543:1552  sorted[i] */\n      dup2\n      mload\n      dup2\n      lt\n      tag_94\n      jumpi\n      tag_94\n      tag_57\n      jump\t// in\n    tag_94:\n      0x20\n      mul\n      0x20\n      add\n      add\n      mload\n        /* \"LeaderboardManager.sol\":1534:1537  top */\n      dup3\n        /* \"LeaderboardManager.sol\":1538:1539  i */\n      dup3\n        /* \"LeaderboardManager.sol\":1534:1540  top[i] */\n      dup2\n      mload\n      dup2\n      lt\n      tag_96\n      jumpi\n      tag_96\n      tag_57\n      jump\t// in\n    tag_96:\n      sub(shl(0xa0, 0x01), 0x01)\n        /* \"LeaderboardManager.sol\":1534:1552  top[i] = sorted[i] */\n      swap1\n      swap3\n      and\n        /* \"LeaderboardManager.sol\":1534:1540  top[i] */\n      0x20\n      swap3\n      dup4\n      mul\n      swap2\n      swap1\n      swap2\n      add\n      swap1\n      swap2\n      add\n        /* \"LeaderboardManager.sol\":1534:1552  top[i] = sorted[i] */\n      mstore\n        /* \"LeaderboardManager.sol\":1514:1517  i++ */\n      dup1\n      tag_97\n      dup2\n      tag_62\n      jump\t// in\n    tag_97:\n      swap2\n      pop\n      pop\n        /* \"LeaderboardManager.sol\":1483:1564  for (uint256 i = 0; i < count; i++) {... */\n      jump(tag_90)\n    tag_91:\n      pop\n        /* \"LeaderboardManager.sol\":1581:1584  top */\n      swap5\n        /* \"LeaderboardManager.sol\":672:1592  function getTopPlayers(uint256 count) external view returns (address[] memory) {... */\n      swap4\n      pop\n      pop\n      pop\n      pop\n      jump\t// out\n        /* \"LeaderboardManager.sol\":1600:1702  function getAllPlayers() external view returns (address[] memory) {... */\n    tag_36:\n        /* \"LeaderboardManager.sol\":1648:1664  address[] memory */\n      0x60\n        /* \"LeaderboardManager.sol\":1684:1694  playerList */\n      0x01\n        /* \"LeaderboardManager.sol\":1677:1694  return playerList */\n      dup1\n      sload\n      dup1\n      0x20\n      mul\n      0x20\n      add\n      mload(0x40)\n      swap1\n      dup2\n      add\n      0x40\n      mstore\n      dup1\n      swap3\n      swap2\n      swap1\n      dup2\n      dup2\n      mstore\n      0x20\n      add\n      dup3\n      dup1\n      sload\n      dup1\n      iszero\n      tag_100\n      jumpi\n      0x20\n      mul\n      dup3\n      add\n      swap2\n      swap1\n      0x00\n      mstore\n      keccak256(0x00, 0x20)\n      swap1\n    tag_101:\n      dup2\n      sload\n      sub(shl(0xa0, 0x01), 0x01)\n      and\n      dup2\n      mstore\n      0x01\n      swap1\n      swap2\n      add\n      swap1\n      0x20\n      add\n      dup1\n      dup4\n      gt\n      tag_101\n      jumpi\n    tag_100:\n      pop\n      pop\n      pop\n      pop\n      pop\n      swap1\n      pop\n        /* \"LeaderboardManager.sol\":1600:1702  function getAllPlayers() external view returns (address[] memory) {... */\n      swap1\n      jump\t// out\n        /* \"#utility.yul\":14:187   */\n    tag_102:\n        /* \"#utility.yul\":82:102   */\n      dup1\n      calldataload\n      sub(shl(0xa0, 0x01), 0x01)\n        /* \"#utility.yul\":131:162   */\n      dup2\n      and\n        /* \"#utility.yul\":121:163   */\n      dup2\n      eq\n        /* \"#utility.yul\":111:181   */\n      tag_106\n      jumpi\n        /* \"#utility.yul\":177:178   */\n      0x00\n        /* \"#utility.yul\":174:175   */\n      dup1\n        /* \"#utility.yul\":167:179   */\n      revert\n        /* \"#utility.yul\":111:181   */\n    tag_106:\n        /* \"#utility.yul\":14:187   */\n      swap2\n      swap1\n      pop\n      jump\t// out\n        /* \"#utility.yul\":192:446   */\n    tag_11:\n        /* \"#utility.yul\":260:266   */\n      0x00\n        /* \"#utility.yul\":268:274   */\n      dup1\n        /* \"#utility.yul\":321:323   */\n      0x40\n        /* \"#utility.yul\":309:318   */\n      dup4\n        /* \"#utility.yul\":300:307   */\n      dup6\n        /* \"#utility.yul\":296:319   */\n      sub\n        /* \"#utility.yul\":292:324   */\n      slt\n        /* \"#utility.yul\":289:341   */\n      iszero\n      tag_108\n      jumpi\n        /* \"#utility.yul\":337:338   */\n      0x00\n        /* \"#utility.yul\":334:335   */\n      dup1\n        /* \"#utility.yul\":327:339   */\n      revert\n        /* \"#utility.yul\":289:341   */\n    tag_108:\n        /* \"#utility.yul\":360:389   */\n      tag_109\n        /* \"#utility.yul\":379:388   */\n      dup4\n        /* \"#utility.yul\":360:389   */\n      tag_102\n      jump\t// in\n    tag_109:\n        /* \"#utility.yul\":350:389   */\n      swap5\n        /* \"#utility.yul\":436:438   */\n      0x20\n        /* \"#utility.yul\":421:439   */\n      swap4\n      swap1\n      swap4\n      add\n        /* \"#utility.yul\":408:440   */\n      calldataload\n      swap4\n      pop\n      pop\n      pop\n        /* \"#utility.yul\":192:446   */\n      jump\t// out\n        /* \"#utility.yul\":451:631   */\n    tag_15:\n        /* \"#utility.yul\":510:516   */\n      0x00\n        /* \"#utility.yul\":563:565   */\n      0x20\n        /* \"#utility.yul\":551:560   */\n      dup3\n        /* \"#utility.yul\":542:549   */\n      dup5\n        /* \"#utility.yul\":538:561   */\n      sub\n        /* \"#utility.yul\":534:566   */\n      slt\n        /* \"#utility.yul\":531:583   */\n      iszero\n      tag_111\n      jumpi\n        /* \"#utility.yul\":579:580   */\n      0x00\n        /* \"#utility.yul\":576:577   */\n      dup1\n        /* \"#utility.yul\":569:581   */\n      revert\n        /* \"#utility.yul\":531:583   */\n    tag_111:\n      pop\n        /* \"#utility.yul\":602:625   */\n      calldataload\n      swap2\n        /* \"#utility.yul\":451:631   */\n      swap1\n      pop\n      jump\t// out\n        /* \"#utility.yul\":844:1502   */\n    tag_23:\n        /* \"#utility.yul\":1015:1017   */\n      0x20\n        /* \"#utility.yul\":1067:1088   */\n      dup1\n      dup3\n      mstore\n        /* \"#utility.yul\":1137:1150   */\n      dup3\n      mload\n        /* \"#utility.yul\":1040:1058   */\n      dup3\n      dup3\n      add\n        /* \"#utility.yul\":1159:1181   */\n      dup2\n      swap1\n      mstore\n        /* \"#utility.yul\":986:990   */\n      0x00\n      swap2\n        /* \"#utility.yul\":1015:1017   */\n      swap1\n        /* \"#utility.yul\":1238:1253   */\n      dup5\n      dup3\n      add\n      swap1\n        /* \"#utility.yul\":1212:1214   */\n      0x40\n        /* \"#utility.yul\":1197:1215   */\n      dup6\n      add\n      swap1\n        /* \"#utility.yul\":986:990   */\n      dup5\n        /* \"#utility.yul\":1281:1476   */\n    tag_114:\n        /* \"#utility.yul\":1295:1301   */\n      dup2\n        /* \"#utility.yul\":1292:1293   */\n      dup2\n        /* \"#utility.yul\":1289:1302   */\n      lt\n        /* \"#utility.yul\":1281:1476   */\n      iszero\n      tag_116\n      jumpi\n        /* \"#utility.yul\":1360:1373   */\n      dup4\n      mload\n      sub(shl(0xa0, 0x01), 0x01)\n        /* \"#utility.yul\":1356:1395   */\n      and\n        /* \"#utility.yul\":1344:1396   */\n      dup4\n      mstore\n        /* \"#utility.yul\":1451:1466   */\n      swap3\n      dup5\n      add\n      swap3\n        /* \"#utility.yul\":1416:1428   */\n      swap2\n      dup5\n      add\n      swap2\n        /* \"#utility.yul\":1392:1393   */\n      0x01\n        /* \"#utility.yul\":1310:1319   */\n      add\n        /* \"#utility.yul\":1281:1476   */\n      jump(tag_114)\n    tag_116:\n      pop\n        /* \"#utility.yul\":1493:1496   */\n      swap1\n      swap7\n        /* \"#utility.yul\":844:1502   */\n      swap6\n      pop\n      pop\n      pop\n      pop\n      pop\n      pop\n      jump\t// out\n        /* \"#utility.yul\":1507:1693   */\n    tag_26:\n        /* \"#utility.yul\":1566:1572   */\n      0x00\n        /* \"#utility.yul\":1619:1621   */\n      0x20\n        /* \"#utility.yul\":1607:1616   */\n      dup3\n        /* \"#utility.yul\":1598:1605   */\n      dup5\n        /* \"#utility.yul\":1594:1617   */\n      sub\n        /* \"#utility.yul\":1590:1622   */\n      slt\n        /* \"#utility.yul\":1587:1639   */\n      iszero\n      tag_118\n      jumpi\n        /* \"#utility.yul\":1635:1636   */\n      0x00\n        /* \"#utility.yul\":1632:1633   */\n      dup1\n        /* \"#utility.yul\":1625:1637   */\n      revert\n        /* \"#utility.yul\":1587:1639   */\n    tag_118:\n        /* \"#utility.yul\":1658:1687   */\n      tag_119\n        /* \"#utility.yul\":1677:1686   */\n      dup3\n        /* \"#utility.yul\":1658:1687   */\n      tag_102\n      jump\t// in\n    tag_119:\n        /* \"#utility.yul\":1648:1687   */\n      swap4\n        /* \"#utility.yul\":1507:1693   */\n      swap3\n      pop\n      pop\n      pop\n      jump\t// out\n        /* \"#utility.yul\":2485:2612   */\n    tag_50:\n        /* \"#utility.yul\":2546:2556   */\n      0x4e487b71\n        /* \"#utility.yul\":2541:2544   */\n      0xe0\n        /* \"#utility.yul\":2537:2557   */\n      shl\n        /* \"#utility.yul\":2534:2535   */\n      0x00\n        /* \"#utility.yul\":2527:2558   */\n      mstore\n        /* \"#utility.yul\":2577:2581   */\n      0x41\n        /* \"#utility.yul\":2574:2575   */\n      0x04\n        /* \"#utility.yul\":2567:2582   */\n      mstore\n        /* \"#utility.yul\":2601:2605   */\n      0x24\n        /* \"#utility.yul\":2598:2599   */\n      0x00\n        /* \"#utility.yul\":2591:2606   */\n      revert\n        /* \"#utility.yul\":2617:2744   */\n    tag_57:\n        /* \"#utility.yul\":2678:2688   */\n      0x4e487b71\n        /* \"#utility.yul\":2673:2676   */\n      0xe0\n        /* \"#utility.yul\":2669:2689   */\n      shl\n        /* \"#utility.yul\":2666:2667   */\n      0x00\n        /* \"#utility.yul\":2659:2690   */\n      mstore\n        /* \"#utility.yul\":2709:2713   */\n      0x32\n        /* \"#utility.yul\":2706:2707   */\n      0x04\n        /* \"#utility.yul\":2699:2714   */\n      mstore\n        /* \"#utility.yul\":2733:2737   */\n      0x24\n        /* \"#utility.yul\":2730:2731   */\n      0x00\n        /* \"#utility.yul\":2723:2738   */\n      revert\n        /* \"#utility.yul\":2749:2876   */\n    tag_103:\n        /* \"#utility.yul\":2810:2820   */\n      0x4e487b71\n        /* \"#utility.yul\":2805:2808   */\n      0xe0\n        /* \"#utility.yul\":2801:2821   */\n      shl\n        /* \"#utility.yul\":2798:2799   */\n      0x00\n        /* \"#utility.yul\":2791:2822   */\n      mstore\n        /* \"#utility.yul\":2841:2845   */\n      0x11\n        /* \"#utility.yul\":2838:2839   */\n      0x04\n        /* \"#utility.yul\":2831:2846   */\n      mstore\n        /* \"#utility.yul\":2865:2869   */\n      0x24\n        /* \"#utility.yul\":2862:2863   */\n      0x00\n        /* \"#utility.yul\":2855:2870   */\n      revert\n        /* \"#utility.yul\":2881:3016   */\n    tag_62:\n        /* \"#utility.yul\":2920:2923   */\n      0x00\n        /* \"#utility.yul\":2941:2958   */\n      0x01\n      dup3\n      add\n        /* \"#utility.yul\":2938:2981   */\n      tag_128\n      jumpi\n        /* \"#utility.yul\":2961:2979   */\n      tag_128\n      tag_103\n      jump\t// in\n    tag_128:\n      pop\n        /* \"#utility.yul\":3008:3009   */\n      0x01\n        /* \"#utility.yul\":2997:3010   */\n      add\n      swap1\n        /* \"#utility.yul\":2881:3016   */\n      jump\t// out\n        /* \"#utility.yul\":3021:3146   */\n    tag_70:\n        /* \"#utility.yul\":3086:3095   */\n      dup1\n      dup3\n      add\n        /* \"#utility.yul\":3107:3117   */\n      dup1\n      dup3\n      gt\n        /* \"#utility.yul\":3104:3140   */\n      iszero\n      tag_131\n      jumpi\n        /* \"#utility.yul\":3120:3138   */\n      tag_131\n      tag_103\n      jump\t// in\n    tag_131:\n        /* \"#utility.yul\":3021:3146   */\n      swap3\n      swap2\n      pop\n      pop\n      jump\t// out\n\n    auxdata: 0xa264697066735822122076be2952d1ed3a880b8ce6b7bbc052cba15e5e2e634a2b769f8f7260ce17f57e64736f6c63430008140033\n}\n",
				"bytecode": {
					"linkReferences": {},
					"object": "608060405234801561000f575f80fd5b5061071e8061001d5f395ff3fe608060405234801561000f575f80fd5b5060043610610060575f3560e01c80633ccd7d8914610064578063ae6d907314610079578063ba3c0067146100a9578063d47875d0146100c9578063e2eb41ff146100ff578063efa1c4821461013d575b5f80fd5b6100776100723660046105d0565b610145565b005b61008c6100873660046105f8565b610208565b6040516001600160a01b0390911681526020015b60405180910390f35b6100bc6100b73660046105f8565b610230565b6040516100a0919061060f565b6100f16100d736600461065b565b6001600160a01b03165f9081526020819052604090205490565b6040519081526020016100a0565b61012861010d36600461065b565b5f602081905290815260409020805460019091015460ff1682565b604080519283529015156020830152016100a0565b6100bc610555565b6001600160a01b0382165f9081526020819052604090206001015460ff166101ec57604080518082018252828152600160208083018281526001600160a01b0387165f818152928390529482209351845551928201805493151560ff19909416939093179092558054808201825591527fb10e2d527612073b26eecdfd717e6a320cf44b4afac2b0732d9fcbe2b7fa0cf60180546001600160a01b03191690911790555050565b6001600160a01b03919091165f90815260208190526040902055565b60018181548110610217575f80fd5b5f918252602090912001546001600160a01b0316905081565b60605f82116102755760405162461bcd60e51b815260206004820152600d60248201526c125b9d985b1a590818dbdd5b9d609a1b604482015260640160405180910390fd5b6001545f8167ffffffffffffffff8111156102925761029261067b565b6040519080825280602002602001820160405280156102bb578160200160208202803683370190505b5090505f5b8281101561033257600181815481106102db576102db61068f565b905f5260205f20015f9054906101000a90046001600160a01b03168282815181106103085761030861068f565b6001600160a01b03909216602092830291909101909101528061032a816106b7565b9150506102c0565b505f5b82811015610499575f6103498260016106cf565b90505b83811015610486575f808484815181106103685761036861068f565b60200260200101516001600160a01b03166001600160a01b031681526020019081526020015f205f01545f808584815181106103a6576103a661068f565b60200260200101516001600160a01b03166001600160a01b031681526020019081526020015f205f01541115610474575f8383815181106103e9576103e961068f565b602002602001015190508382815181106104055761040561068f565b602002602001015184848151811061041f5761041f61068f565b60200260200101906001600160a01b031690816001600160a01b031681525050808483815181106104525761045261068f565b60200260200101906001600160a01b031690816001600160a01b031681525050505b8061047e816106b7565b91505061034c565b5080610491816106b7565b915050610335565b50818411156104a6578193505b5f8467ffffffffffffffff8111156104c0576104c061067b565b6040519080825280602002602001820160405280156104e9578160200160208202803683370190505b5090505f5b8581101561054c578281815181106105085761050861068f565b60200260200101518282815181106105225761052261068f565b6001600160a01b039092166020928302919091019091015280610544816106b7565b9150506104ee565b50949350505050565b606060018054806020026020016040519081016040528092919081815260200182805480156105ab57602002820191905f5260205f20905b81546001600160a01b0316815260019091019060200180831161058d575b5050505050905090565b80356001600160a01b03811681146105cb575f80fd5b919050565b5f80604083850312156105e1575f80fd5b6105ea836105b5565b946020939093013593505050565b5f60208284031215610608575f80fd5b5035919050565b602080825282518282018190525f9190848201906040850190845b8181101561064f5783516001600160a01b03168352928401929184019160010161062a565b50909695505050505050565b5f6020828403121561066b575f80fd5b610674826105b5565b9392505050565b634e487b7160e01b5f52604160045260245ffd5b634e487b7160e01b5f52603260045260245ffd5b634e487b7160e01b5f52601160045260245ffd5b5f600182016106c8576106c86106a3565b5060010190565b808201808211156106e2576106e26106a3565b9291505056fea264697066735822122076be2952d1ed3a880b8ce6b7bbc052cba15e5e2e634a2b769f8f7260ce17f57e64736f6c63430008140033",
					"opcodes": "PUSH1 0x80 PUSH1 0x40 MSTORE CALLVALUE DUP1 ISZERO PUSH2 0xF JUMPI PUSH0 DUP1 REVERT JUMPDEST POP PUSH2 0x71E DUP1 PUSH2 0x1D PUSH0 CODECOPY PUSH0 RETURN INVALID PUSH1 0x80 PUSH1 0x40 MSTORE CALLVALUE DUP1 ISZERO PUSH2 0xF JUMPI PUSH0 DUP1 REVERT JUMPDEST POP PUSH1 0x4 CALLDATASIZE LT PUSH2 0x60 JUMPI PUSH0 CALLDATALOAD PUSH1 0xE0 SHR DUP1 PUSH4 0x3CCD7D89 EQ PUSH2 0x64 JUMPI DUP1 PUSH4 0xAE6D9073 EQ PUSH2 0x79 JUMPI DUP1 PUSH4 0xBA3C0067 EQ PUSH2 0xA9 JUMPI DUP1 PUSH4 0xD47875D0 EQ PUSH2 0xC9 JUMPI DUP1 PUSH4 0xE2EB41FF EQ PUSH2 0xFF JUMPI DUP1 PUSH4 0xEFA1C482 EQ PUSH2 0x13D JUMPI JUMPDEST PUSH0 DUP1 REVERT JUMPDEST PUSH2 0x77 PUSH2 0x72 CALLDATASIZE PUSH1 0x4 PUSH2 0x5D0 JUMP JUMPDEST PUSH2 0x145 JUMP JUMPDEST STOP JUMPDEST PUSH2 0x8C PUSH2 0x87 CALLDATASIZE PUSH1 0x4 PUSH2 0x5F8 JUMP JUMPDEST PUSH2 0x208 JUMP JUMPDEST PUSH1 0x40 MLOAD PUSH1 0x1 PUSH1 0x1 PUSH1 0xA0 SHL SUB SWAP1 SWAP2 AND DUP2 MSTORE PUSH1 0x20 ADD JUMPDEST PUSH1 0x40 MLOAD DUP1 SWAP2 SUB SWAP1 RETURN JUMPDEST PUSH2 0xBC PUSH2 0xB7 CALLDATASIZE PUSH1 0x4 PUSH2 0x5F8 JUMP JUMPDEST PUSH2 0x230 JUMP JUMPDEST PUSH1 0x40 MLOAD PUSH2 0xA0 SWAP2 SWAP1 PUSH2 0x60F JUMP JUMPDEST PUSH2 0xF1 PUSH2 0xD7 CALLDATASIZE PUSH1 0x4 PUSH2 0x65B JUMP JUMPDEST PUSH1 0x1 PUSH1 0x1 PUSH1 0xA0 SHL SUB AND PUSH0 SWAP1 DUP2 MSTORE PUSH1 0x20 DUP2 SWAP1 MSTORE PUSH1 0x40 SWAP1 KECCAK256 SLOAD SWAP1 JUMP JUMPDEST PUSH1 0x40 MLOAD SWAP1 DUP2 MSTORE PUSH1 0x20 ADD PUSH2 0xA0 JUMP JUMPDEST PUSH2 0x128 PUSH2 0x10D CALLDATASIZE PUSH1 0x4 PUSH2 0x65B JUMP JUMPDEST PUSH0 PUSH1 0x20 DUP2 SWAP1 MSTORE SWAP1 DUP2 MSTORE PUSH1 0x40 SWAP1 KECCAK256 DUP1 SLOAD PUSH1 0x1 SWAP1 SWAP2 ADD SLOAD PUSH1 0xFF AND DUP3 JUMP JUMPDEST PUSH1 0x40 DUP1 MLOAD SWAP3 DUP4 MSTORE SWAP1 ISZERO ISZERO PUSH1 0x20 DUP4 ADD MSTORE ADD PUSH2 0xA0 JUMP JUMPDEST PUSH2 0xBC PUSH2 0x555 JUMP JUMPDEST PUSH1 0x1 PUSH1 0x1 PUSH1 0xA0 SHL SUB DUP3 AND PUSH0 SWAP1 DUP2 MSTORE PUSH1 0x20 DUP2 SWAP1 MSTORE PUSH1 0x40 SWAP1 KECCAK256 PUSH1 0x1 ADD SLOAD PUSH1 0xFF AND PUSH2 0x1EC JUMPI PUSH1 0x40 DUP1 MLOAD DUP1 DUP3 ADD DUP3 MSTORE DUP3 DUP2 MSTORE PUSH1 0x1 PUSH1 0x20 DUP1 DUP4 ADD DUP3 DUP2 MSTORE PUSH1 0x1 PUSH1 0x1 PUSH1 0xA0 SHL SUB DUP8 AND PUSH0 DUP2 DUP2 MSTORE SWAP3 DUP4 SWAP1 MSTORE SWAP5 DUP3 KECCAK256 SWAP4 MLOAD DUP5 SSTORE MLOAD SWAP3 DUP3 ADD DUP1 SLOAD SWAP4 ISZERO ISZERO PUSH1 0xFF NOT SWAP1 SWAP5 AND SWAP4 SWAP1 SWAP4 OR SWAP1 SWAP3 SSTORE DUP1 SLOAD DUP1 DUP3 ADD DUP3 SSTORE SWAP2 MSTORE PUSH32 0xB10E2D527612073B26EECDFD717E6A320CF44B4AFAC2B0732D9FCBE2B7FA0CF6 ADD DUP1 SLOAD PUSH1 0x1 PUSH1 0x1 PUSH1 0xA0 SHL SUB NOT AND SWAP1 SWAP2 OR SWAP1 SSTORE POP POP JUMP JUMPDEST PUSH1 0x1 PUSH1 0x1 PUSH1 0xA0 SHL SUB SWAP2 SWAP1 SWAP2 AND PUSH0 SWAP1 DUP2 MSTORE PUSH1 0x20 DUP2 SWAP1 MSTORE PUSH1 0x40 SWAP1 KECCAK256 SSTORE JUMP JUMPDEST PUSH1 0x1 DUP2 DUP2 SLOAD DUP2 LT PUSH2 0x217 JUMPI PUSH0 DUP1 REVERT JUMPDEST PUSH0 SWAP2 DUP3 MSTORE PUSH1 0x20 SWAP1 SWAP2 KECCAK256 ADD SLOAD PUSH1 0x1 PUSH1 0x1 PUSH1 0xA0 SHL SUB AND SWAP1 POP DUP2 JUMP JUMPDEST PUSH1 0x60 PUSH0 DUP3 GT PUSH2 0x275 JUMPI PUSH1 0x40 MLOAD PUSH3 0x461BCD PUSH1 0xE5 SHL DUP2 MSTORE PUSH1 0x20 PUSH1 0x4 DUP3 ADD MSTORE PUSH1 0xD PUSH1 0x24 DUP3 ADD MSTORE PUSH13 0x125B9D985B1A590818DBDD5B9D PUSH1 0x9A SHL PUSH1 0x44 DUP3 ADD MSTORE PUSH1 0x64 ADD PUSH1 0x40 MLOAD DUP1 SWAP2 SUB SWAP1 REVERT JUMPDEST PUSH1 0x1 SLOAD PUSH0 DUP2 PUSH8 0xFFFFFFFFFFFFFFFF DUP2 GT ISZERO PUSH2 0x292 JUMPI PUSH2 0x292 PUSH2 0x67B JUMP JUMPDEST PUSH1 0x40 MLOAD SWAP1 DUP1 DUP3 MSTORE DUP1 PUSH1 0x20 MUL PUSH1 0x20 ADD DUP3 ADD PUSH1 0x40 MSTORE DUP1 ISZERO PUSH2 0x2BB JUMPI DUP2 PUSH1 0x20 ADD PUSH1 0x20 DUP3 MUL DUP1 CALLDATASIZE DUP4 CALLDATACOPY ADD SWAP1 POP JUMPDEST POP SWAP1 POP PUSH0 JUMPDEST DUP3 DUP2 LT ISZERO PUSH2 0x332 JUMPI PUSH1 0x1 DUP2 DUP2 SLOAD DUP2 LT PUSH2 0x2DB JUMPI PUSH2 0x2DB PUSH2 0x68F JUMP JUMPDEST SWAP1 PUSH0 MSTORE PUSH1 0x20 PUSH0 KECCAK256 ADD PUSH0 SWAP1 SLOAD SWAP1 PUSH2 0x100 EXP SWAP1 DIV PUSH1 0x1 PUSH1 0x1 PUSH1 0xA0 SHL SUB AND DUP3 DUP3 DUP2 MLOAD DUP2 LT PUSH2 0x308 JUMPI PUSH2 0x308 PUSH2 0x68F JUMP JUMPDEST PUSH1 0x1 PUSH1 0x1 PUSH1 0xA0 SHL SUB SWAP1 SWAP3 AND PUSH1 0x20 SWAP3 DUP4 MUL SWAP2 SWAP1 SWAP2 ADD SWAP1 SWAP2 ADD MSTORE DUP1 PUSH2 0x32A DUP2 PUSH2 0x6B7 JUMP JUMPDEST SWAP2 POP POP PUSH2 0x2C0 JUMP JUMPDEST POP PUSH0 JUMPDEST DUP3 DUP2 LT ISZERO PUSH2 0x499 JUMPI PUSH0 PUSH2 0x349 DUP3 PUSH1 0x1 PUSH2 0x6CF JUMP JUMPDEST SWAP1 POP JUMPDEST DUP4 DUP2 LT ISZERO PUSH2 0x486 JUMPI PUSH0 DUP1 DUP5 DUP5 DUP2 MLOAD DUP2 LT PUSH2 0x368 JUMPI PUSH2 0x368 PUSH2 0x68F JUMP JUMPDEST PUSH1 0x20 MUL PUSH1 0x20 ADD ADD MLOAD PUSH1 0x1 PUSH1 0x1 PUSH1 0xA0 SHL SUB AND PUSH1 0x1 PUSH1 0x1 PUSH1 0xA0 SHL SUB AND DUP2 MSTORE PUSH1 0x20 ADD SWAP1 DUP2 MSTORE PUSH1 0x20 ADD PUSH0 KECCAK256 PUSH0 ADD SLOAD PUSH0 DUP1 DUP6 DUP5 DUP2 MLOAD DUP2 LT PUSH2 0x3A6 JUMPI PUSH2 0x3A6 PUSH2 0x68F JUMP JUMPDEST PUSH1 0x20 MUL PUSH1 0x20 ADD ADD MLOAD PUSH1 0x1 PUSH1 0x1 PUSH1 0xA0 SHL SUB AND PUSH1 0x1 PUSH1 0x1 PUSH1 0xA0 SHL SUB AND DUP2 MSTORE PUSH1 0x20 ADD SWAP1 DUP2 MSTORE PUSH1 0x20 ADD PUSH0 KECCAK256 PUSH0 ADD SLOAD GT ISZERO PUSH2 0x474 JUMPI PUSH0 DUP4 DUP4 DUP2 MLOAD DUP2 LT PUSH2 0x3E9 JUMPI PUSH2 0x3E9 PUSH2 0x68F JUMP JUMPDEST PUSH1 0x20 MUL PUSH1 0x20 ADD ADD MLOAD SWAP1 POP DUP4 DUP3 DUP2 MLOAD DUP2 LT PUSH2 0x405 JUMPI PUSH2 0x405 PUSH2 0x68F JUMP JUMPDEST PUSH1 0x20 MUL PUSH1 0x20 ADD ADD MLOAD DUP5 DUP5 DUP2 MLOAD DUP2 LT PUSH2 0x41F JUMPI PUSH2 0x41F PUSH2 0x68F JUMP JUMPDEST PUSH1 0x20 MUL PUSH1 0x20 ADD ADD SWAP1 PUSH1 0x1 PUSH1 0x1 PUSH1 0xA0 SHL SUB AND SWAP1 DUP2 PUSH1 0x1 PUSH1 0x1 PUSH1 0xA0 SHL SUB AND DUP2 MSTORE POP POP DUP1 DUP5 DUP4 DUP2 MLOAD DUP2 LT PUSH2 0x452 JUMPI PUSH2 0x452 PUSH2 0x68F JUMP JUMPDEST PUSH1 0x20 MUL PUSH1 0x20 ADD ADD SWAP1 PUSH1 0x1 PUSH1 0x1 PUSH1 0xA0 SHL SUB AND SWAP1 DUP2 PUSH1 0x1 PUSH1 0x1 PUSH1 0xA0 SHL SUB AND DUP2 MSTORE POP POP POP JUMPDEST DUP1 PUSH2 0x47E DUP2 PUSH2 0x6B7 JUMP JUMPDEST SWAP2 POP POP PUSH2 0x34C JUMP JUMPDEST POP DUP1 PUSH2 0x491 DUP2 PUSH2 0x6B7 JUMP JUMPDEST SWAP2 POP POP PUSH2 0x335 JUMP JUMPDEST POP DUP2 DUP5 GT ISZERO PUSH2 0x4A6 JUMPI DUP2 SWAP4 POP JUMPDEST PUSH0 DUP5 PUSH8 0xFFFFFFFFFFFFFFFF DUP2 GT ISZERO PUSH2 0x4C0 JUMPI PUSH2 0x4C0 PUSH2 0x67B JUMP JUMPDEST PUSH1 0x40 MLOAD SWAP1 DUP1 DUP3 MSTORE DUP1 PUSH1 0x20 MUL PUSH1 0x20 ADD DUP3 ADD PUSH1 0x40 MSTORE DUP1 ISZERO PUSH2 0x4E9 JUMPI DUP2 PUSH1 0x20 ADD PUSH1 0x20 DUP3 MUL DUP1 CALLDATASIZE DUP4 CALLDATACOPY ADD SWAP1 POP JUMPDEST POP SWAP1 POP PUSH0 JUMPDEST DUP6 DUP2 LT ISZERO PUSH2 0x54C JUMPI DUP3 DUP2 DUP2 MLOAD DUP2 LT PUSH2 0x508 JUMPI PUSH2 0x508 PUSH2 0x68F JUMP JUMPDEST PUSH1 0x20 MUL PUSH1 0x20 ADD ADD MLOAD DUP3 DUP3 DUP2 MLOAD DUP2 LT PUSH2 0x522 JUMPI PUSH2 0x522 PUSH2 0x68F JUMP JUMPDEST PUSH1 0x1 PUSH1 0x1 PUSH1 0xA0 SHL SUB SWAP1 SWAP3 AND PUSH1 0x20 SWAP3 DUP4 MUL SWAP2 SWAP1 SWAP2 ADD SWAP1 SWAP2 ADD MSTORE DUP1 PUSH2 0x544 DUP2 PUSH2 0x6B7 JUMP JUMPDEST SWAP2 POP POP PUSH2 0x4EE JUMP JUMPDEST POP SWAP5 SWAP4 POP POP POP POP JUMP JUMPDEST PUSH1 0x60 PUSH1 0x1 DUP1 SLOAD DUP1 PUSH1 0x20 MUL PUSH1 0x20 ADD PUSH1 0x40 MLOAD SWAP1 DUP2 ADD PUSH1 0x40 MSTORE DUP1 SWAP3 SWAP2 SWAP1 DUP2 DUP2 MSTORE PUSH1 0x20 ADD DUP3 DUP1 SLOAD DUP1 ISZERO PUSH2 0x5AB JUMPI PUSH1 0x20 MUL DUP3 ADD SWAP2 SWAP1 PUSH0 MSTORE PUSH1 0x20 PUSH0 KECCAK256 SWAP1 JUMPDEST DUP2 SLOAD PUSH1 0x1 PUSH1 0x1 PUSH1 0xA0 SHL SUB AND DUP2 MSTORE PUSH1 0x1 SWAP1 SWAP2 ADD SWAP1 PUSH1 0x20 ADD DUP1 DUP4 GT PUSH2 0x58D JUMPI JUMPDEST POP POP POP POP POP SWAP1 POP SWAP1 JUMP JUMPDEST DUP1 CALLDATALOAD PUSH1 0x1 PUSH1 0x1 PUSH1 0xA0 SHL SUB DUP2 AND DUP2 EQ PUSH2 0x5CB JUMPI PUSH0 DUP1 REVERT JUMPDEST SWAP2 SWAP1 POP JUMP JUMPDEST PUSH0 DUP1 PUSH1 0x40 DUP4 DUP6 SUB SLT ISZERO PUSH2 0x5E1 JUMPI PUSH0 DUP1 REVERT JUMPDEST PUSH2 0x5EA DUP4 PUSH2 0x5B5 JUMP JUMPDEST SWAP5 PUSH1 0x20 SWAP4 SWAP1 SWAP4 ADD CALLDATALOAD SWAP4 POP POP POP JUMP JUMPDEST PUSH0 PUSH1 0x20 DUP3 DUP5 SUB SLT ISZERO PUSH2 0x608 JUMPI PUSH0 DUP1 REVERT JUMPDEST POP CALLDATALOAD SWAP2 SWAP1 POP JUMP JUMPDEST PUSH1 0x20 DUP1 DUP3 MSTORE DUP3 MLOAD DUP3 DUP3 ADD DUP2 SWAP1 MSTORE PUSH0 SWAP2 SWAP1 DUP5 DUP3 ADD SWAP1 PUSH1 0x40 DUP6 ADD SWAP1 DUP5 JUMPDEST DUP2 DUP2 LT ISZERO PUSH2 0x64F JUMPI DUP4 MLOAD PUSH1 0x1 PUSH1 0x1 PUSH1 0xA0 SHL SUB AND DUP4 MSTORE SWAP3 DUP5 ADD SWAP3 SWAP2 DUP5 ADD SWAP2 PUSH1 0x1 ADD PUSH2 0x62A JUMP JUMPDEST POP SWAP1 SWAP7 SWAP6 POP POP POP POP POP POP JUMP JUMPDEST PUSH0 PUSH1 0x20 DUP3 DUP5 SUB SLT ISZERO PUSH2 0x66B JUMPI PUSH0 DUP1 REVERT JUMPDEST PUSH2 0x674 DUP3 PUSH2 0x5B5 JUMP JUMPDEST SWAP4 SWAP3 POP POP POP JUMP JUMPDEST PUSH4 0x4E487B71 PUSH1 0xE0 SHL PUSH0 MSTORE PUSH1 0x41 PUSH1 0x4 MSTORE PUSH1 0x24 PUSH0 REVERT JUMPDEST PUSH4 0x4E487B71 PUSH1 0xE0 SHL PUSH0 MSTORE PUSH1 0x32 PUSH1 0x4 MSTORE PUSH1 0x24 PUSH0 REVERT JUMPDEST PUSH4 0x4E487B71 PUSH1 0xE0 SHL PUSH0 MSTORE PUSH1 0x11 PUSH1 0x4 MSTORE PUSH1 0x24 PUSH0 REVERT JUMPDEST PUSH0 PUSH1 0x1 DUP3 ADD PUSH2 0x6C8 JUMPI PUSH2 0x6C8 PUSH2 0x6A3 JUMP JUMPDEST POP PUSH1 0x1 ADD SWAP1 JUMP JUMPDEST DUP1 DUP3 ADD DUP1 DUP3 GT ISZERO PUSH2 0x6E2 JUMPI PUSH2 0x6E2 PUSH2 0x6A3 JUMP JUMPDEST SWAP3 SWAP2 POP POP JUMP INVALID LOG2 PUSH5 0x6970667358 0x22 SLT KECCAK256 PUSH23 0xBE2952D1ED3A880B8CE6B7BBC052CBA15E5E2E634A2B76 SWAP16 DUP16 PUSH19 0x60CE17F57E64736F6C63430008140033000000 "
				},
				"gasEstimates": {
					"creation": {
						"codeDepositCost": "364400",
						"executionCost": "397",
						"totalCost": "364797"
					},
					"external": {
						"addOrUpdateScore(address,uint256)": "97507",
						"getAllPlayers()": "infinite",
						"getScore(address)": "2581",
						"getTopPlayers(uint256)": "infinite",
						"playerList(uint256)": "4600",
						"players(address)": "4730"
					}
				},
				"methodIdentifiers": {
					"addOrUpdateScore(address,uint256)": "3ccd7d89",
					"getAllPlayers()": "efa1c482",
					"getScore(address)": "d47875d0",
					"getTopPlayers(uint256)": "ba3c0067",
					"playerList(uint256)": "ae6d9073",
					"players(address)": "e2eb41ff"
				}
			},
			"storageLayout": {
				"storage": [
					{
						"astId": 11,
						"contract": "LeaderboardManager.sol:LeaderboardManager",
						"label": "players",
						"offset": 0,
						"slot": "0",
						"type": "t_mapping(t_address,t_struct(Player)6_storage)"
					},
					{
						"astId": 14,
						"contract": "LeaderboardManager.sol:LeaderboardManager",
						"label": "playerList",
						"offset": 0,
						"slot": "1",
						"type": "t_array(t_address)dyn_storage"
					}
				],
				"types": {
					"t_address": {
						"encoding": "inplace",
						"label": "address",
						"numberOfBytes": "20"
					},
					"t_array(t_address)dyn_storage": {
						"base": "t_address",
						"encoding": "dynamic_array",
						"label": "address[]",
						"numberOfBytes": "32"
					},
					"t_bool": {
						"encoding": "inplace",
						"label": "bool",
						"numberOfBytes": "1"
					},
					"t_mapping(t_address,t_struct(Player)6_storage)": {
						"encoding": "mapping",
						"key": "t_address",
						"label": "mapping(address => struct LeaderboardManager.Player)",
						"numberOfBytes": "32",
						"value": "t_struct(Player)6_storage"
					},
					"t_struct(Player)6_storage": {
						"encoding": "inplace",
						"label": "struct LeaderboardManager.Player",
						"members": [
							{
								"astId": 3,
								"contract": "LeaderboardManager.sol:LeaderboardManager",
								"label": "score",
								"offset": 0,
								"slot": "0",
								"type": "t_uint256"
							},
							{
								"astId": 5,
								"contract": "LeaderboardManager.sol:LeaderboardManager",
								"label": "exists",
								"offset": 0,
								"slot": "1",
								"type": "t_bool"
							}
						],
						"numberOfBytes": "64"
					},
					"t_uint256": {
						"encoding": "inplace",
						"label": "uint256",
						"numberOfBytes": "32"
					}
				}
			},
			"userdoc": {
				"kind": "user",
				"methods": {},
				"version": 1
			}
		}
	}
}