{
	"MiniTokenFactory.sol": {
		"TokenFactory": {
			"abi": [
				{
					"anonymous": false,
					"inputs": [
						{
							"indexed": false,
							"internalType": "address",
							"name": "tokenAddress",
							"type": "address"
						},
						{
							"indexed": false,
							"internalType": "string",
							"name": "name",
							"type": "string"
						},
						{
							"indexed": false,
							"internalType": "string",
							"name": "symbol",
							"type": "string"
						},
						{
							"indexed": false,
							"internalType": "uint256",
							"name": "supply",
							"type": "uint256"
						}
					],
					"name": "TokenCreated",
					"type": "event"
				},
				{
					"inputs": [
						{
							"internalType": "string",
							"name": "name",
							"type": "string"
						},
						{
							"internalType": "string",
							"name": "symbol",
							"type": "string"
						},
						{
							"internalType": "uint256",
							"name": "supply",
							"type": "uint256"
						}
					],
					"name": "createToken",
					"outputs": [],
					"stateMutability": "nonpayable",
					"type": "function"
				},
				{
					"inputs": [
						{
							"internalType": "uint256",
							"name": "",
							"type": "uint256"
						}
					],
					"name": "deployedTokens",
					"outputs": [
						{
							"internalType": "address",
							"name": "",
							"type": "address"
						}
					],
					"stateMutability": "view",
					"type": "function"
				},
				{
					"inputs": [],
					"name": "getDeployedTokens",
					"outputs": [
						{
							"internalType": "address[]",
							"name": "",
							"type": "address[]"
						}
					],
					"stateMutability": "view",
					"type": "function"
				}
			],
			"devdoc": {
				"kind": "dev",
				"methods": {},
				"version": 1
			},
			"evm": {
				"assembly": "    /* \"MiniTokenFactory.sol\":120:698  contract TokenFactory {... */\n  mstore(0x40, 0x80)\n  callvalue\n  dup1\n  iszero\n  tag_1\n  jumpi\n  revert(0x00, 0x00)\ntag_1:\n  pop\n  dataSize(sub_0)\n  dup1\n  dataOffset(sub_0)\n  0x00\n  codecopy\n  0x00\n  return\nstop\n\nsub_0: assembly {\n        /* \"MiniTokenFactory.sol\":120:698  contract TokenFactory {... */\n      mstore(0x40, 0x80)\n      callvalue\n      dup1\n      iszero\n      tag_1\n      jumpi\n      revert(0x00, 0x00)\n    tag_1:\n      pop\n      jumpi(tag_2, lt(calldatasize, 0x04))\n      shr(0xe0, calldataload(0x00))\n      dup1\n      0x5b060530\n      eq\n      tag_3\n      jumpi\n      dup1\n      0x622ae7aa\n      eq\n      tag_4\n      jumpi\n      dup1\n      0xec81aadb\n      eq\n      tag_5\n      jumpi\n    tag_2:\n      revert(0x00, 0x00)\n        /* \"MiniTokenFactory.sol\":282:577  function createToken(string memory name, string memory symbol, uint256 supply) external {... */\n    tag_3:\n      tag_6\n      tag_7\n      calldatasize\n      0x04\n      tag_8\n      jump\t// in\n    tag_7:\n      tag_9\n      jump\t// in\n    tag_6:\n      stop\n        /* \"MiniTokenFactory.sol\":585:695  function getDeployedTokens() external view returns (address[] memory) {... */\n    tag_4:\n      tag_10\n      tag_11\n      jump\t// in\n    tag_10:\n      mload(0x40)\n      tag_12\n      swap2\n      swap1\n      tag_13\n      jump\t// in\n    tag_12:\n      mload(0x40)\n      dup1\n      swap2\n      sub\n      swap1\n      return\n        /* \"MiniTokenFactory.sol\":149:180  address[] public deployedTokens */\n    tag_5:\n      tag_14\n      tag_15\n      calldatasize\n      0x04\n      tag_16\n      jump\t// in\n    tag_15:\n      tag_17\n      jump\t// in\n    tag_14:\n      mload(0x40)\n      sub(shl(0xa0, 0x01), 0x01)\n        /* \"#utility.yul\":2571:2603   */\n      swap1\n      swap2\n      and\n        /* \"#utility.yul\":2553:2604   */\n      dup2\n      mstore\n        /* \"#utility.yul\":2541:2543   */\n      0x20\n        /* \"#utility.yul\":2526:2544   */\n      add\n        /* \"MiniTokenFactory.sol\":149:180  address[] public deployedTokens */\n      tag_12\n        /* \"#utility.yul\":2407:2610   */\n      jump\n        /* \"MiniTokenFactory.sol\":282:577  function createToken(string memory name, string memory symbol, uint256 supply) external {... */\n    tag_9:\n        /* \"MiniTokenFactory.sol\":381:400  ERC20Token newToken */\n      0x00\n        /* \"MiniTokenFactory.sol\":418:422  name */\n      dup4\n        /* \"MiniTokenFactory.sol\":424:430  symbol */\n      dup4\n        /* \"MiniTokenFactory.sol\":432:438  supply */\n      dup4\n        /* \"MiniTokenFactory.sol\":440:450  msg.sender */\n      caller\n        /* \"MiniTokenFactory.sol\":403:451  new ERC20Token(name, symbol, supply, msg.sender) */\n      mload(0x40)\n      tag_21\n      swap1\n      tag_22\n      jump\t// in\n    tag_21:\n      tag_23\n      swap5\n      swap4\n      swap3\n      swap2\n      swap1\n      tag_24\n      jump\t// in\n    tag_23:\n      mload(0x40)\n      dup1\n      swap2\n      sub\n      swap1\n      0x00\n      create\n      dup1\n      iszero\n      dup1\n      iszero\n      tag_25\n      jumpi\n      returndatacopy(0x00, 0x00, returndatasize)\n      revert(0x00, returndatasize)\n    tag_25:\n      pop\n        /* \"MiniTokenFactory.sol\":462:476  deployedTokens */\n      0x00\n        /* \"MiniTokenFactory.sol\":462:500  deployedTokens.push(address(newToken)) */\n      dup1\n      sload\n      0x01\n      dup2\n      add\n      dup3\n      sstore\n      swap1\n      dup1\n      mstore\n      0x290decd9548b62a8d60345a988386fc84ba6bc95484008f6362f93160ef3e563\n      add\n      dup1\n      sload\n      not(sub(shl(0xa0, 0x01), 0x01))\n      and\n      sub(shl(0xa0, 0x01), 0x01)\n      dup4\n      and\n      or\n      swap1\n      sstore\n        /* \"MiniTokenFactory.sol\":516:569  TokenCreated(address(newToken), name, symbol, supply) */\n      mload(0x40)\n        /* \"MiniTokenFactory.sol\":462:500  deployedTokens.push(address(newToken)) */\n      swap1\n      swap2\n      pop\n        /* \"MiniTokenFactory.sol\":516:569  TokenCreated(address(newToken), name, symbol, supply) */\n      0x75d1eb2d61d7e210835bc16e78ac4d0e4f905c108a81852a6b68c4d46b4f40f3\n      swap1\n      tag_27\n      swap1\n        /* \"MiniTokenFactory.sol\":462:500  deployedTokens.push(address(newToken)) */\n      dup4\n      swap1\n        /* \"MiniTokenFactory.sol\":548:552  name */\n      dup8\n      swap1\n        /* \"MiniTokenFactory.sol\":554:560  symbol */\n      dup8\n      swap1\n        /* \"MiniTokenFactory.sol\":562:568  supply */\n      dup8\n      swap1\n        /* \"MiniTokenFactory.sol\":516:569  TokenCreated(address(newToken), name, symbol, supply) */\n      tag_28\n      jump\t// in\n    tag_27:\n      mload(0x40)\n      dup1\n      swap2\n      sub\n      swap1\n      log1\n        /* \"MiniTokenFactory.sol\":370:577  {... */\n      pop\n        /* \"MiniTokenFactory.sol\":282:577  function createToken(string memory name, string memory symbol, uint256 supply) external {... */\n      pop\n      pop\n      pop\n      jump\t// out\n        /* \"MiniTokenFactory.sol\":585:695  function getDeployedTokens() external view returns (address[] memory) {... */\n    tag_11:\n        /* \"MiniTokenFactory.sol\":637:653  address[] memory */\n      0x60\n        /* \"MiniTokenFactory.sol\":673:687  deployedTokens */\n      0x00\n        /* \"MiniTokenFactory.sol\":666:687  return deployedTokens */\n      dup1\n      sload\n      dup1\n      0x20\n      mul\n      0x20\n      add\n      mload(0x40)\n      swap1\n      dup2\n      add\n      0x40\n      mstore\n      dup1\n      swap3\n      swap2\n      swap1\n      dup2\n      dup2\n      mstore\n      0x20\n      add\n      dup3\n      dup1\n      sload\n      dup1\n      iszero\n      tag_30\n      jumpi\n      0x20\n      mul\n      dup3\n      add\n      swap2\n      swap1\n      0x00\n      mstore\n      keccak256(0x00, 0x20)\n      swap1\n    tag_31:\n      dup2\n      sload\n      sub(shl(0xa0, 0x01), 0x01)\n      and\n      dup2\n      mstore\n      0x01\n      swap1\n      swap2\n      add\n      swap1\n      0x20\n      add\n      dup1\n      dup4\n      gt\n      tag_31\n      jumpi\n    tag_30:\n      pop\n      pop\n      pop\n      pop\n      pop\n      swap1\n      pop\n        /* \"MiniTokenFactory.sol\":585:695  function getDeployedTokens() external view returns (address[] memory) {... */\n      swap1\n      jump\t// out\n        /* \"MiniTokenFactory.sol\":149:180  address[] public deployedTokens */\n    tag_17:\n      0x00\n      dup2\n      dup2\n      sload\n      dup2\n      lt\n      tag_32\n      jumpi\n      0x00\n      dup1\n      revert\n    tag_32:\n      0x00\n      swap2\n      dup3\n      mstore\n      0x20\n      swap1\n      swap2\n      keccak256\n      add\n      sload\n      sub(shl(0xa0, 0x01), 0x01)\n      and\n      swap1\n      pop\n      dup2\n      jump\t// out\n    tag_22:\n      dataSize(sub_0)\n      dup1\n      dataOffset(sub_0)\n      dup4\n      codecopy\n      add\n      swap1\n      jump\t// out\n        /* \"#utility.yul\":14:141   */\n    tag_34:\n        /* \"#utility.yul\":75:85   */\n      0x4e487b71\n        /* \"#utility.yul\":70:73   */\n      0xe0\n        /* \"#utility.yul\":66:86   */\n      shl\n        /* \"#utility.yul\":63:64   */\n      0x00\n        /* \"#utility.yul\":56:87   */\n      mstore\n        /* \"#utility.yul\":106:110   */\n      0x41\n        /* \"#utility.yul\":103:104   */\n      0x04\n        /* \"#utility.yul\":96:111   */\n      mstore\n        /* \"#utility.yul\":130:134   */\n      0x24\n        /* \"#utility.yul\":127:128   */\n      0x00\n        /* \"#utility.yul\":120:135   */\n      revert\n        /* \"#utility.yul\":146:872   */\n    tag_35:\n        /* \"#utility.yul\":189:194   */\n      0x00\n        /* \"#utility.yul\":242:245   */\n      dup3\n        /* \"#utility.yul\":235:239   */\n      0x1f\n        /* \"#utility.yul\":227:233   */\n      dup4\n        /* \"#utility.yul\":223:240   */\n      add\n        /* \"#utility.yul\":219:246   */\n      slt\n        /* \"#utility.yul\":209:264   */\n      tag_40\n      jumpi\n        /* \"#utility.yul\":260:261   */\n      0x00\n        /* \"#utility.yul\":257:258   */\n      0x00\n        /* \"#utility.yul\":250:262   */\n      revert\n        /* \"#utility.yul\":209:264   */\n    tag_40:\n        /* \"#utility.yul\":300:306   */\n      dup2\n        /* \"#utility.yul\":287:307   */\n      calldataload\n        /* \"#utility.yul\":330:348   */\n      0xffffffffffffffff\n        /* \"#utility.yul\":322:328   */\n      dup2\n        /* \"#utility.yul\":319:349   */\n      gt\n        /* \"#utility.yul\":316:372   */\n      iszero\n      tag_42\n      jumpi\n        /* \"#utility.yul\":352:370   */\n      tag_42\n      tag_34\n      jump\t// in\n    tag_42:\n        /* \"#utility.yul\":401:403   */\n      0x40\n        /* \"#utility.yul\":395:404   */\n      mload\n        /* \"#utility.yul\":493:495   */\n      0x1f\n        /* \"#utility.yul\":455:472   */\n      dup3\n      add\n      not(0x1f)\n        /* \"#utility.yul\":451:482   */\n      swap1\n      dup2\n      and\n        /* \"#utility.yul\":484:486   */\n      0x3f\n        /* \"#utility.yul\":447:487   */\n      add\n        /* \"#utility.yul\":443:497   */\n      and\n        /* \"#utility.yul\":431:498   */\n      dup2\n      add\n        /* \"#utility.yul\":528:546   */\n      0xffffffffffffffff\n        /* \"#utility.yul\":513:547   */\n      dup2\n      gt\n        /* \"#utility.yul\":549:571   */\n      dup3\n      dup3\n      lt\n        /* \"#utility.yul\":510:572   */\n      or\n        /* \"#utility.yul\":507:595   */\n      iszero\n      tag_44\n      jumpi\n        /* \"#utility.yul\":575:593   */\n      tag_44\n      tag_34\n      jump\t// in\n    tag_44:\n        /* \"#utility.yul\":611:613   */\n      0x40\n        /* \"#utility.yul\":604:626   */\n      mstore\n        /* \"#utility.yul\":635:657   */\n      dup2\n      dup2\n      mstore\n        /* \"#utility.yul\":676:695   */\n      dup4\n      dup3\n      add\n        /* \"#utility.yul\":697:701   */\n      0x20\n        /* \"#utility.yul\":672:702   */\n      add\n        /* \"#utility.yul\":669:708   */\n      dup6\n      lt\n        /* \"#utility.yul\":666:725   */\n      iszero\n      tag_45\n      jumpi\n        /* \"#utility.yul\":721:722   */\n      0x00\n        /* \"#utility.yul\":718:719   */\n      0x00\n        /* \"#utility.yul\":711:723   */\n      revert\n        /* \"#utility.yul\":666:725   */\n    tag_45:\n        /* \"#utility.yul\":785:791   */\n      dup2\n        /* \"#utility.yul\":778:782   */\n      0x20\n        /* \"#utility.yul\":770:776   */\n      dup6\n        /* \"#utility.yul\":766:783   */\n      add\n        /* \"#utility.yul\":759:763   */\n      0x20\n        /* \"#utility.yul\":751:757   */\n      dup4\n        /* \"#utility.yul\":747:764   */\n      add\n        /* \"#utility.yul\":734:792   */\n      calldatacopy\n        /* \"#utility.yul\":840:841   */\n      0x00\n        /* \"#utility.yul\":812:831   */\n      swap2\n      dup2\n      add\n        /* \"#utility.yul\":833:837   */\n      0x20\n        /* \"#utility.yul\":808:838   */\n      add\n        /* \"#utility.yul\":801:842   */\n      swap2\n      swap1\n      swap2\n      mstore\n        /* \"#utility.yul\":816:822   */\n      swap4\n        /* \"#utility.yul\":146:872   */\n      swap3\n      pop\n      pop\n      pop\n      jump\t// out\n        /* \"#utility.yul\":877:1529   */\n    tag_8:\n        /* \"#utility.yul\":974:980   */\n      0x00\n        /* \"#utility.yul\":982:988   */\n      0x00\n        /* \"#utility.yul\":990:996   */\n      0x00\n        /* \"#utility.yul\":1043:1045   */\n      0x60\n        /* \"#utility.yul\":1031:1040   */\n      dup5\n        /* \"#utility.yul\":1022:1029   */\n      dup7\n        /* \"#utility.yul\":1018:1041   */\n      sub\n        /* \"#utility.yul\":1014:1046   */\n      slt\n        /* \"#utility.yul\":1011:1063   */\n      iszero\n      tag_47\n      jumpi\n        /* \"#utility.yul\":1059:1060   */\n      0x00\n        /* \"#utility.yul\":1056:1057   */\n      0x00\n        /* \"#utility.yul\":1049:1061   */\n      revert\n        /* \"#utility.yul\":1011:1063   */\n    tag_47:\n        /* \"#utility.yul\":1099:1108   */\n      dup4\n        /* \"#utility.yul\":1086:1109   */\n      calldataload\n        /* \"#utility.yul\":1132:1150   */\n      0xffffffffffffffff\n        /* \"#utility.yul\":1124:1130   */\n      dup2\n        /* \"#utility.yul\":1121:1151   */\n      gt\n        /* \"#utility.yul\":1118:1168   */\n      iszero\n      tag_48\n      jumpi\n        /* \"#utility.yul\":1164:1165   */\n      0x00\n        /* \"#utility.yul\":1161:1162   */\n      0x00\n        /* \"#utility.yul\":1154:1166   */\n      revert\n        /* \"#utility.yul\":1118:1168   */\n    tag_48:\n        /* \"#utility.yul\":1187:1237   */\n      tag_49\n        /* \"#utility.yul\":1229:1236   */\n      dup7\n        /* \"#utility.yul\":1220:1226   */\n      dup3\n        /* \"#utility.yul\":1209:1218   */\n      dup8\n        /* \"#utility.yul\":1205:1227   */\n      add\n        /* \"#utility.yul\":1187:1237   */\n      tag_35\n      jump\t// in\n    tag_49:\n        /* \"#utility.yul\":1177:1237   */\n      swap4\n      pop\n      pop\n        /* \"#utility.yul\":1290:1292   */\n      0x20\n        /* \"#utility.yul\":1279:1288   */\n      dup5\n        /* \"#utility.yul\":1275:1293   */\n      add\n        /* \"#utility.yul\":1262:1294   */\n      calldataload\n        /* \"#utility.yul\":1319:1337   */\n      0xffffffffffffffff\n        /* \"#utility.yul\":1309:1317   */\n      dup2\n        /* \"#utility.yul\":1306:1338   */\n      gt\n        /* \"#utility.yul\":1303:1355   */\n      iszero\n      tag_50\n      jumpi\n        /* \"#utility.yul\":1351:1352   */\n      0x00\n        /* \"#utility.yul\":1348:1349   */\n      0x00\n        /* \"#utility.yul\":1341:1353   */\n      revert\n        /* \"#utility.yul\":1303:1355   */\n    tag_50:\n        /* \"#utility.yul\":1374:1426   */\n      tag_51\n        /* \"#utility.yul\":1418:1425   */\n      dup7\n        /* \"#utility.yul\":1407:1415   */\n      dup3\n        /* \"#utility.yul\":1396:1405   */\n      dup8\n        /* \"#utility.yul\":1392:1416   */\n      add\n        /* \"#utility.yul\":1374:1426   */\n      tag_35\n      jump\t// in\n    tag_51:\n        /* \"#utility.yul\":877:1529   */\n      swap4\n      swap7\n        /* \"#utility.yul\":1364:1426   */\n      swap4\n      swap6\n      pop\n      pop\n      pop\n      pop\n        /* \"#utility.yul\":1495:1497   */\n      0x40\n        /* \"#utility.yul\":1480:1498   */\n      swap2\n      swap1\n      swap2\n      add\n        /* \"#utility.yul\":1467:1499   */\n      calldataload\n      swap1\n        /* \"#utility.yul\":877:1529   */\n      jump\t// out\n        /* \"#utility.yul\":1534:2171   */\n    tag_13:\n        /* \"#utility.yul\":1724:1726   */\n      0x20\n        /* \"#utility.yul\":1736:1757   */\n      dup1\n      dup3\n      mstore\n        /* \"#utility.yul\":1806:1819   */\n      dup3\n      mload\n        /* \"#utility.yul\":1709:1727   */\n      dup3\n      dup3\n      add\n        /* \"#utility.yul\":1828:1850   */\n      dup2\n      swap1\n      mstore\n        /* \"#utility.yul\":1676:1680   */\n      0x00\n      swap2\n        /* \"#utility.yul\":1907:1922   */\n      dup5\n      add\n      swap1\n        /* \"#utility.yul\":1881:1883   */\n      0x40\n        /* \"#utility.yul\":1866:1884   */\n      dup5\n      add\n      swap1\n        /* \"#utility.yul\":1676:1680   */\n      dup4\n        /* \"#utility.yul\":1950:2145   */\n    tag_53:\n        /* \"#utility.yul\":1964:1970   */\n      dup2\n        /* \"#utility.yul\":1961:1962   */\n      dup2\n        /* \"#utility.yul\":1958:1971   */\n      lt\n        /* \"#utility.yul\":1950:2145   */\n      iszero\n      tag_55\n      jumpi\n        /* \"#utility.yul\":2029:2042   */\n      dup4\n      mload\n      sub(shl(0xa0, 0x01), 0x01)\n        /* \"#utility.yul\":2025:2064   */\n      and\n        /* \"#utility.yul\":2013:2065   */\n      dup4\n      mstore\n        /* \"#utility.yul\":2094:2096   */\n      0x20\n        /* \"#utility.yul\":2120:2135   */\n      swap4\n      dup5\n      add\n      swap4\n        /* \"#utility.yul\":2085:2097   */\n      swap1\n      swap3\n      add\n      swap2\n        /* \"#utility.yul\":2061:2062   */\n      0x01\n        /* \"#utility.yul\":1979:1988   */\n      add\n        /* \"#utility.yul\":1950:2145   */\n      jump(tag_53)\n    tag_55:\n      pop\n        /* \"#utility.yul\":2162:2165   */\n      swap1\n      swap6\n        /* \"#utility.yul\":1534:2171   */\n      swap5\n      pop\n      pop\n      pop\n      pop\n      pop\n      jump\t// out\n        /* \"#utility.yul\":2176:2402   */\n    tag_16:\n        /* \"#utility.yul\":2235:2241   */\n      0x00\n        /* \"#utility.yul\":2288:2290   */\n      0x20\n        /* \"#utility.yul\":2276:2285   */\n      dup3\n        /* \"#utility.yul\":2267:2274   */\n      dup5\n        /* \"#utility.yul\":2263:2286   */\n      sub\n        /* \"#utility.yul\":2259:2291   */\n      slt\n        /* \"#utility.yul\":2256:2308   */\n      iszero\n      tag_57\n      jumpi\n        /* \"#utility.yul\":2304:2305   */\n      0x00\n        /* \"#utility.yul\":2301:2302   */\n      0x00\n        /* \"#utility.yul\":2294:2306   */\n      revert\n        /* \"#utility.yul\":2256:2308   */\n    tag_57:\n      pop\n        /* \"#utility.yul\":2349:2372   */\n      calldataload\n      swap2\n        /* \"#utility.yul\":2176:2402   */\n      swap1\n      pop\n      jump\t// out\n        /* \"#utility.yul\":2615:2904   */\n    tag_36:\n        /* \"#utility.yul\":2657:2660   */\n      0x00\n        /* \"#utility.yul\":2695:2700   */\n      dup2\n        /* \"#utility.yul\":2689:2701   */\n      mload\n        /* \"#utility.yul\":2722:2728   */\n      dup1\n        /* \"#utility.yul\":2717:2720   */\n      dup5\n        /* \"#utility.yul\":2710:2729   */\n      mstore\n        /* \"#utility.yul\":2778:2784   */\n      dup1\n        /* \"#utility.yul\":2771:2775   */\n      0x20\n        /* \"#utility.yul\":2764:2769   */\n      dup5\n        /* \"#utility.yul\":2760:2776   */\n      add\n        /* \"#utility.yul\":2753:2757   */\n      0x20\n        /* \"#utility.yul\":2748:2751   */\n      dup7\n        /* \"#utility.yul\":2744:2758   */\n      add\n        /* \"#utility.yul\":2738:2785   */\n      mcopy\n        /* \"#utility.yul\":2830:2831   */\n      0x00\n        /* \"#utility.yul\":2823:2827   */\n      0x20\n        /* \"#utility.yul\":2814:2820   */\n      dup3\n        /* \"#utility.yul\":2809:2812   */\n      dup7\n        /* \"#utility.yul\":2805:2821   */\n      add\n        /* \"#utility.yul\":2801:2828   */\n      add\n        /* \"#utility.yul\":2794:2832   */\n      mstore\n        /* \"#utility.yul\":2893:2897   */\n      0x20\n        /* \"#utility.yul\":2886:2888   */\n      0x1f\n        /* \"#utility.yul\":2882:2889   */\n      not\n        /* \"#utility.yul\":2877:2879   */\n      0x1f\n        /* \"#utility.yul\":2869:2875   */\n      dup4\n        /* \"#utility.yul\":2865:2880   */\n      add\n        /* \"#utility.yul\":2861:2890   */\n      and\n        /* \"#utility.yul\":2856:2859   */\n      dup6\n        /* \"#utility.yul\":2852:2891   */\n      add\n        /* \"#utility.yul\":2848:2898   */\n      add\n        /* \"#utility.yul\":2841:2898   */\n      swap2\n      pop\n      pop\n        /* \"#utility.yul\":2615:2904   */\n      swap3\n      swap2\n      pop\n      pop\n      jump\t// out\n        /* \"#utility.yul\":2909:3462   */\n    tag_24:\n        /* \"#utility.yul\":3162:3165   */\n      0x80\n        /* \"#utility.yul\":3151:3160   */\n      dup2\n        /* \"#utility.yul\":3144:3166   */\n      mstore\n        /* \"#utility.yul\":3125:3129   */\n      0x00\n        /* \"#utility.yul\":3189:3235   */\n      tag_61\n        /* \"#utility.yul\":3230:3233   */\n      0x80\n        /* \"#utility.yul\":3219:3228   */\n      dup4\n        /* \"#utility.yul\":3215:3234   */\n      add\n        /* \"#utility.yul\":3207:3213   */\n      dup8\n        /* \"#utility.yul\":3189:3235   */\n      tag_36\n      jump\t// in\n    tag_61:\n        /* \"#utility.yul\":3283:3292   */\n      dup3\n        /* \"#utility.yul\":3275:3281   */\n      dup2\n        /* \"#utility.yul\":3271:3293   */\n      sub\n        /* \"#utility.yul\":3266:3268   */\n      0x20\n        /* \"#utility.yul\":3255:3264   */\n      dup5\n        /* \"#utility.yul\":3251:3269   */\n      add\n        /* \"#utility.yul\":3244:3294   */\n      mstore\n        /* \"#utility.yul\":3311:3344   */\n      tag_62\n        /* \"#utility.yul\":3337:3343   */\n      dup2\n        /* \"#utility.yul\":3329:3335   */\n      dup8\n        /* \"#utility.yul\":3311:3344   */\n      tag_36\n      jump\t// in\n    tag_62:\n        /* \"#utility.yul\":3375:3377   */\n      0x40\n        /* \"#utility.yul\":3360:3378   */\n      dup5\n      add\n        /* \"#utility.yul\":3353:3387   */\n      swap6\n      swap1\n      swap6\n      mstore\n      pop\n      pop\n      sub(shl(0xa0, 0x01), 0x01)\n        /* \"#utility.yul\":3423:3455   */\n      swap2\n      swap1\n      swap2\n      and\n        /* \"#utility.yul\":3418:3420   */\n      0x60\n        /* \"#utility.yul\":3403:3421   */\n      swap1\n      swap2\n      add\n        /* \"#utility.yul\":3396:3456   */\n      mstore\n        /* \"#utility.yul\":3303:3344   */\n      swap3\n        /* \"#utility.yul\":2909:3462   */\n      swap2\n      pop\n      pop\n      jump\t// out\n        /* \"#utility.yul\":3467:4020   */\n    tag_28:\n      sub(shl(0xa0, 0x01), 0x01)\n        /* \"#utility.yul\":3720:3752   */\n      dup6\n      and\n        /* \"#utility.yul\":3702:3753   */\n      dup2\n      mstore\n        /* \"#utility.yul\":3789:3792   */\n      0x80\n        /* \"#utility.yul\":3784:3786   */\n      0x20\n        /* \"#utility.yul\":3769:3787   */\n      dup3\n      add\n        /* \"#utility.yul\":3762:3793   */\n      dup2\n      swap1\n      mstore\n      0x00\n      swap1\n        /* \"#utility.yul\":3816:3862   */\n      tag_64\n      swap1\n        /* \"#utility.yul\":3842:3861   */\n      dup4\n      add\n        /* \"#utility.yul\":3834:3840   */\n      dup7\n        /* \"#utility.yul\":3816:3862   */\n      tag_36\n      jump\t// in\n    tag_64:\n        /* \"#utility.yul\":3910:3919   */\n      dup3\n        /* \"#utility.yul\":3902:3908   */\n      dup2\n        /* \"#utility.yul\":3898:3920   */\n      sub\n        /* \"#utility.yul\":3893:3895   */\n      0x40\n        /* \"#utility.yul\":3882:3891   */\n      dup5\n        /* \"#utility.yul\":3878:3896   */\n      add\n        /* \"#utility.yul\":3871:3921   */\n      mstore\n        /* \"#utility.yul\":3938:3971   */\n      tag_65\n        /* \"#utility.yul\":3964:3970   */\n      dup2\n        /* \"#utility.yul\":3956:3962   */\n      dup7\n        /* \"#utility.yul\":3938:3971   */\n      tag_36\n      jump\t// in\n    tag_65:\n        /* \"#utility.yul\":3930:3971   */\n      swap2\n      pop\n      pop\n        /* \"#utility.yul\":4007:4013   */\n      dup3\n        /* \"#utility.yul\":4002:4004   */\n      0x60\n        /* \"#utility.yul\":3991:4000   */\n      dup4\n        /* \"#utility.yul\":3987:4005   */\n      add\n        /* \"#utility.yul\":3980:4014   */\n      mstore\n        /* \"#utility.yul\":3467:4020   */\n      swap6\n      swap5\n      pop\n      pop\n      pop\n      pop\n      pop\n      jump\t// out\n    stop\n\n    sub_0: assembly {\n            /* \"MiniTokenFactory.sol\":702:920  contract ERC20Token is ERC20 {... */\n          mstore(0x40, 0x80)\n            /* \"MiniTokenFactory.sol\":738:917  constructor(string memory name, string memory symbol, uint256 supply, address owner)... */\n          callvalue\n          dup1\n          iszero\n          tag_1\n          jumpi\n          revert(0x00, 0x00)\n        tag_1:\n          pop\n          mload(0x40)\n          sub(codesize, bytecodeSize)\n          dup1\n          bytecodeSize\n          dup4\n          codecopy\n          dup2\n          add\n          0x40\n          dup2\n          swap1\n          mstore\n          tag_2\n          swap2\n          tag_3\n          jump\t// in\n        tag_2:\n            /* \"MiniTokenFactory.sol\":838:842  name */\n          dup4\n            /* \"MiniTokenFactory.sol\":844:850  symbol */\n          dup4\n            /* \"@openzeppelin/contracts/token/ERC20/ERC20.sol\":1648:1653  _name */\n          0x03\n            /* \"@openzeppelin/contracts/token/ERC20/ERC20.sol\":1648:1661  _name = name_ */\n          tag_7\n            /* \"MiniTokenFactory.sol\":838:842  name */\n          dup4\n            /* \"@openzeppelin/contracts/token/ERC20/ERC20.sol\":1648:1653  _name */\n          dup3\n            /* \"@openzeppelin/contracts/token/ERC20/ERC20.sol\":1648:1661  _name = name_ */\n          tag_8\n          jump\t// in\n        tag_7:\n          pop\n            /* \"@openzeppelin/contracts/token/ERC20/ERC20.sol\":1671:1678  _symbol */\n          0x04\n            /* \"@openzeppelin/contracts/token/ERC20/ERC20.sol\":1671:1688  _symbol = symbol_ */\n          tag_9\n            /* \"@openzeppelin/contracts/token/ERC20/ERC20.sol\":1681:1688  symbol_ */\n          dup3\n            /* \"@openzeppelin/contracts/token/ERC20/ERC20.sol\":1671:1678  _symbol */\n          dup3\n            /* \"@openzeppelin/contracts/token/ERC20/ERC20.sol\":1671:1688  _symbol = symbol_ */\n          tag_8\n          jump\t// in\n        tag_9:\n          pop\n            /* \"@openzeppelin/contracts/token/ERC20/ERC20.sol\":1582:1695  constructor(string memory name_, string memory symbol_) {... */\n          pop\n          pop\n            /* \"MiniTokenFactory.sol\":868:909  _mint(owner, supply * (10 ** decimals())) */\n          tag_11\n            /* \"MiniTokenFactory.sol\":874:879  owner */\n          dup2\n            /* \"MiniTokenFactory.sol\":897:907  decimals() */\n          tag_12\n            /* \"MiniTokenFactory.sol\":897:905  decimals */\n          shl(0x20, tag_13)\n            /* \"MiniTokenFactory.sol\":897:907  decimals() */\n          0x20\n          shr\n          jump\t// in\n        tag_12:\n            /* \"MiniTokenFactory.sol\":891:907  10 ** decimals() */\n          tag_14\n          swap1\n            /* \"MiniTokenFactory.sol\":891:893  10 */\n          0x0a\n            /* \"MiniTokenFactory.sol\":891:907  10 ** decimals() */\n          tag_15\n          jump\t// in\n        tag_14:\n            /* \"MiniTokenFactory.sol\":881:908  supply * (10 ** decimals()) */\n          tag_16\n          swap1\n            /* \"MiniTokenFactory.sol\":881:887  supply */\n          dup6\n            /* \"MiniTokenFactory.sol\":881:908  supply * (10 ** decimals()) */\n          tag_17\n          jump\t// in\n        tag_16:\n            /* \"MiniTokenFactory.sol\":868:873  _mint */\n          tag_18\n            /* \"MiniTokenFactory.sol\":868:909  _mint(owner, supply * (10 ** decimals())) */\n          jump\t// in\n        tag_11:\n            /* \"MiniTokenFactory.sol\":738:917  constructor(string memory name, string memory symbol, uint256 supply, address owner)... */\n          pop\n          pop\n          pop\n          pop\n            /* \"MiniTokenFactory.sol\":702:920  contract ERC20Token is ERC20 {... */\n          jump(tag_48)\n            /* \"@openzeppelin/contracts/token/ERC20/ERC20.sol\":2688:2770  function decimals() public view virtual returns (uint8) {... */\n        tag_13:\n            /* \"@openzeppelin/contracts/token/ERC20/ERC20.sol\":2761:2763  18 */\n          0x12\n          swap1\n            /* \"@openzeppelin/contracts/token/ERC20/ERC20.sol\":2688:2770  function decimals() public view virtual returns (uint8) {... */\n          jump\t// out\n            /* \"@openzeppelin/contracts/token/ERC20/ERC20.sol\":7362:7570  function _mint(address account, uint256 value) internal {... */\n        tag_18:\n          sub(shl(0xa0, 0x01), 0x01)\n            /* \"@openzeppelin/contracts/token/ERC20/ERC20.sol\":7432:7453  account == address(0) */\n          dup3\n          and\n            /* \"@openzeppelin/contracts/token/ERC20/ERC20.sol\":7428:7519  if (account == address(0)) {... */\n          tag_22\n          jumpi\n            /* \"@openzeppelin/contracts/token/ERC20/ERC20.sol\":7476:7508  ERC20InvalidReceiver(address(0)) */\n          mload(0x40)\n          shl(0xe0, 0xec442f05)\n          dup2\n          mstore\n            /* \"@openzeppelin/contracts/token/ERC20/ERC20.sol\":7505:7506  0 */\n          0x00\n            /* \"@openzeppelin/contracts/token/ERC20/ERC20.sol\":7476:7508  ERC20InvalidReceiver(address(0)) */\n          0x04\n          dup3\n          add\n            /* \"#utility.yul\":6057:6108   */\n          mstore\n            /* \"#utility.yul\":6030:6048   */\n          0x24\n          add\n            /* \"@openzeppelin/contracts/token/ERC20/ERC20.sol\":7476:7508  ERC20InvalidReceiver(address(0)) */\n        tag_23:\n          mload(0x40)\n          dup1\n          swap2\n          sub\n          swap1\n          revert\n            /* \"@openzeppelin/contracts/token/ERC20/ERC20.sol\":7428:7519  if (account == address(0)) {... */\n        tag_22:\n            /* \"@openzeppelin/contracts/token/ERC20/ERC20.sol\":7528:7563  _update(address(0), account, value) */\n          tag_25\n            /* \"@openzeppelin/contracts/token/ERC20/ERC20.sol\":7544:7545  0 */\n          0x00\n            /* \"@openzeppelin/contracts/token/ERC20/ERC20.sol\":7548:7555  account */\n          dup4\n            /* \"@openzeppelin/contracts/token/ERC20/ERC20.sol\":7557:7562  value */\n          dup4\n            /* \"@openzeppelin/contracts/token/ERC20/ERC20.sol\":7528:7535  _update */\n          tag_26\n            /* \"@openzeppelin/contracts/token/ERC20/ERC20.sol\":7528:7563  _update(address(0), account, value) */\n          jump\t// in\n        tag_25:\n            /* \"@openzeppelin/contracts/token/ERC20/ERC20.sol\":7362:7570  function _mint(address account, uint256 value) internal {... */\n          pop\n          pop\n          jump\t// out\n            /* \"@openzeppelin/contracts/token/ERC20/ERC20.sol\":5912:7019  function _update(address from, address to, uint256 value) internal virtual {... */\n        tag_26:\n          sub(shl(0xa0, 0x01), 0x01)\n            /* \"@openzeppelin/contracts/token/ERC20/ERC20.sol\":6001:6019  from == address(0) */\n          dup4\n          and\n            /* \"@openzeppelin/contracts/token/ERC20/ERC20.sol\":5997:6537  if (from == address(0)) {... */\n          tag_28\n          jumpi\n            /* \"@openzeppelin/contracts/token/ERC20/ERC20.sol\":6153:6158  value */\n          dup1\n            /* \"@openzeppelin/contracts/token/ERC20/ERC20.sol\":6137:6149  _totalSupply */\n          0x02\n          0x00\n            /* \"@openzeppelin/contracts/token/ERC20/ERC20.sol\":6137:6158  _totalSupply += value */\n          dup3\n          dup3\n          sload\n          tag_29\n          swap2\n          swap1\n          tag_30\n          jump\t// in\n        tag_29:\n          swap1\n          swap2\n          sstore\n          pop\n            /* \"@openzeppelin/contracts/token/ERC20/ERC20.sol\":5997:6537  if (from == address(0)) {... */\n          tag_31\n          swap1\n          pop\n          jump\n        tag_28:\n          sub(shl(0xa0, 0x01), 0x01)\n            /* \"@openzeppelin/contracts/token/ERC20/ERC20.sol\":6211:6226  _balances[from] */\n          dup4\n          and\n            /* \"@openzeppelin/contracts/token/ERC20/ERC20.sol\":6189:6208  uint256 fromBalance */\n          0x00\n            /* \"@openzeppelin/contracts/token/ERC20/ERC20.sol\":6211:6226  _balances[from] */\n          swap1\n          dup2\n          mstore\n          0x20\n          dup2\n          swap1\n          mstore\n          0x40\n          swap1\n          keccak256\n          sload\n            /* \"@openzeppelin/contracts/token/ERC20/ERC20.sol\":6244:6263  fromBalance < value */\n          dup2\n          dup2\n          lt\n            /* \"@openzeppelin/contracts/token/ERC20/ERC20.sol\":6240:6355  if (fromBalance < value) {... */\n          iszero\n          tag_32\n          jumpi\n            /* \"@openzeppelin/contracts/token/ERC20/ERC20.sol\":6290:6340  ERC20InsufficientBalance(from, fromBalance, value) */\n          mload(0x40)\n          shl(0xe2, 0x391434e3)\n          dup2\n          mstore\n          sub(shl(0xa0, 0x01), 0x01)\n            /* \"#utility.yul\":6469:6501   */\n          dup6\n          and\n            /* \"@openzeppelin/contracts/token/ERC20/ERC20.sol\":6290:6340  ERC20InsufficientBalance(from, fromBalance, value) */\n          0x04\n          dup3\n          add\n            /* \"#utility.yul\":6451:6502   */\n          mstore\n            /* \"#utility.yul\":6518:6536   */\n          0x24\n          dup2\n          add\n            /* \"#utility.yul\":6511:6545   */\n          dup3\n          swap1\n          mstore\n            /* \"#utility.yul\":6561:6579   */\n          0x44\n          dup2\n          add\n            /* \"#utility.yul\":6554:6588   */\n          dup4\n          swap1\n          mstore\n            /* \"#utility.yul\":6424:6442   */\n          0x64\n          add\n            /* \"@openzeppelin/contracts/token/ERC20/ERC20.sol\":6290:6340  ERC20InsufficientBalance(from, fromBalance, value) */\n          tag_23\n            /* \"#utility.yul\":6249:6594   */\n          jump\n            /* \"@openzeppelin/contracts/token/ERC20/ERC20.sol\":6240:6355  if (fromBalance < value) {... */\n        tag_32:\n          sub(shl(0xa0, 0x01), 0x01)\n            /* \"@openzeppelin/contracts/token/ERC20/ERC20.sol\":6475:6490  _balances[from] */\n          dup5\n          and\n            /* \"@openzeppelin/contracts/token/ERC20/ERC20.sol\":6475:6484  _balances */\n          0x00\n            /* \"@openzeppelin/contracts/token/ERC20/ERC20.sol\":6475:6490  _balances[from] */\n          swap1\n          dup2\n          mstore\n          0x20\n          dup2\n          swap1\n          mstore\n          0x40\n          swap1\n          keccak256\n            /* \"@openzeppelin/contracts/token/ERC20/ERC20.sol\":6493:6512  fromBalance - value */\n          swap1\n          dup3\n          swap1\n          sub\n            /* \"@openzeppelin/contracts/token/ERC20/ERC20.sol\":6475:6512  _balances[from] = fromBalance - value */\n          swap1\n          sstore\n            /* \"@openzeppelin/contracts/token/ERC20/ERC20.sol\":5997:6537  if (from == address(0)) {... */\n        tag_31:\n          sub(shl(0xa0, 0x01), 0x01)\n            /* \"@openzeppelin/contracts/token/ERC20/ERC20.sol\":6551:6567  to == address(0) */\n          dup3\n          and\n            /* \"@openzeppelin/contracts/token/ERC20/ERC20.sol\":6547:6972  if (to == address(0)) {... */\n          tag_35\n          jumpi\n            /* \"@openzeppelin/contracts/token/ERC20/ERC20.sol\":6714:6726  _totalSupply */\n          0x02\n            /* \"@openzeppelin/contracts/token/ERC20/ERC20.sol\":6714:6735  _totalSupply -= value */\n          dup1\n          sload\n          dup3\n          swap1\n          sub\n          swap1\n          sstore\n            /* \"@openzeppelin/contracts/token/ERC20/ERC20.sol\":6547:6972  if (to == address(0)) {... */\n          jump(tag_36)\n        tag_35:\n          sub(shl(0xa0, 0x01), 0x01)\n            /* \"@openzeppelin/contracts/token/ERC20/ERC20.sol\":6925:6938  _balances[to] */\n          dup3\n          and\n            /* \"@openzeppelin/contracts/token/ERC20/ERC20.sol\":6925:6934  _balances */\n          0x00\n            /* \"@openzeppelin/contracts/token/ERC20/ERC20.sol\":6925:6938  _balances[to] */\n          swap1\n          dup2\n          mstore\n          0x20\n          dup2\n          swap1\n          mstore\n          0x40\n          swap1\n          keccak256\n            /* \"@openzeppelin/contracts/token/ERC20/ERC20.sol\":6925:6947  _balances[to] += value */\n          dup1\n          sload\n          dup3\n          add\n          swap1\n          sstore\n            /* \"@openzeppelin/contracts/token/ERC20/ERC20.sol\":6547:6972  if (to == address(0)) {... */\n        tag_36:\n            /* \"@openzeppelin/contracts/token/ERC20/ERC20.sol\":7002:7004  to */\n          dup2\n          sub(shl(0xa0, 0x01), 0x01)\n            /* \"@openzeppelin/contracts/token/ERC20/ERC20.sol\":6987:7012  Transfer(from, to, value) */\n          and\n            /* \"@openzeppelin/contracts/token/ERC20/ERC20.sol\":6996:7000  from */\n          dup4\n          sub(shl(0xa0, 0x01), 0x01)\n            /* \"@openzeppelin/contracts/token/ERC20/ERC20.sol\":6987:7012  Transfer(from, to, value) */\n          and\n          0xddf252ad1be2c89b69c2b068fc378daa952ba7f163c4a11628f55a4df523b3ef\n            /* \"@openzeppelin/contracts/token/ERC20/ERC20.sol\":7006:7011  value */\n          dup4\n            /* \"@openzeppelin/contracts/token/ERC20/ERC20.sol\":6987:7012  Transfer(from, to, value) */\n          mload(0x40)\n          tag_37\n          swap2\n            /* \"#utility.yul\":6745:6770   */\n          dup2\n          mstore\n            /* \"#utility.yul\":6733:6735   */\n          0x20\n            /* \"#utility.yul\":6718:6736   */\n          add\n          swap1\n            /* \"#utility.yul\":6599:6776   */\n          jump\n            /* \"@openzeppelin/contracts/token/ERC20/ERC20.sol\":6987:7012  Transfer(from, to, value) */\n        tag_37:\n          mload(0x40)\n          dup1\n          swap2\n          sub\n          swap1\n          log3\n            /* \"@openzeppelin/contracts/token/ERC20/ERC20.sol\":5912:7019  function _update(address from, address to, uint256 value) internal virtual {... */\n          pop\n          pop\n          pop\n          jump\t// out\n            /* \"#utility.yul\":14:141   */\n        tag_39:\n            /* \"#utility.yul\":75:85   */\n          0x4e487b71\n            /* \"#utility.yul\":70:73   */\n          0xe0\n            /* \"#utility.yul\":66:86   */\n          shl\n            /* \"#utility.yul\":63:64   */\n          0x00\n            /* \"#utility.yul\":56:87   */\n          mstore\n            /* \"#utility.yul\":106:110   */\n          0x41\n            /* \"#utility.yul\":103:104   */\n          0x04\n            /* \"#utility.yul\":96:111   */\n          mstore\n            /* \"#utility.yul\":130:134   */\n          0x24\n            /* \"#utility.yul\":127:128   */\n          0x00\n            /* \"#utility.yul\":120:135   */\n          revert\n            /* \"#utility.yul\":146:869   */\n        tag_40:\n            /* \"#utility.yul\":200:205   */\n          0x00\n            /* \"#utility.yul\":253:256   */\n          dup3\n            /* \"#utility.yul\":246:250   */\n          0x1f\n            /* \"#utility.yul\":238:244   */\n          dup4\n            /* \"#utility.yul\":234:251   */\n          add\n            /* \"#utility.yul\":230:257   */\n          slt\n            /* \"#utility.yul\":220:275   */\n          tag_51\n          jumpi\n            /* \"#utility.yul\":271:272   */\n          0x00\n            /* \"#utility.yul\":268:269   */\n          0x00\n            /* \"#utility.yul\":261:273   */\n          revert\n            /* \"#utility.yul\":220:275   */\n        tag_51:\n            /* \"#utility.yul\":298:311   */\n          dup2\n          mload\n          sub(shl(0x40, 0x01), 0x01)\n            /* \"#utility.yul\":323:353   */\n          dup2\n          gt\n            /* \"#utility.yul\":320:376   */\n          iszero\n          tag_53\n          jumpi\n            /* \"#utility.yul\":356:374   */\n          tag_53\n          tag_39\n          jump\t// in\n        tag_53:\n            /* \"#utility.yul\":405:407   */\n          0x40\n            /* \"#utility.yul\":399:408   */\n          mload\n            /* \"#utility.yul\":497:499   */\n          0x1f\n            /* \"#utility.yul\":459:476   */\n          dup3\n          add\n          not(0x1f)\n            /* \"#utility.yul\":455:486   */\n          swap1\n          dup2\n          and\n            /* \"#utility.yul\":488:490   */\n          0x3f\n            /* \"#utility.yul\":451:491   */\n          add\n            /* \"#utility.yul\":447:501   */\n          and\n            /* \"#utility.yul\":435:502   */\n          dup2\n          add\n          sub(shl(0x40, 0x01), 0x01)\n            /* \"#utility.yul\":517:551   */\n          dup2\n          gt\n            /* \"#utility.yul\":553:575   */\n          dup3\n          dup3\n          lt\n            /* \"#utility.yul\":514:576   */\n          or\n            /* \"#utility.yul\":511:599   */\n          iszero\n          tag_55\n          jumpi\n            /* \"#utility.yul\":579:597   */\n          tag_55\n          tag_39\n          jump\t// in\n        tag_55:\n            /* \"#utility.yul\":615:617   */\n          0x40\n            /* \"#utility.yul\":608:630   */\n          mstore\n            /* \"#utility.yul\":639:661   */\n          dup2\n          dup2\n          mstore\n            /* \"#utility.yul\":680:699   */\n          dup4\n          dup3\n          add\n            /* \"#utility.yul\":701:705   */\n          0x20\n            /* \"#utility.yul\":676:706   */\n          add\n            /* \"#utility.yul\":673:712   */\n          dup6\n          lt\n            /* \"#utility.yul\":670:729   */\n          iszero\n          tag_56\n          jumpi\n            /* \"#utility.yul\":725:726   */\n          0x00\n            /* \"#utility.yul\":722:723   */\n          0x00\n            /* \"#utility.yul\":715:727   */\n          revert\n            /* \"#utility.yul\":670:729   */\n        tag_56:\n            /* \"#utility.yul\":782:788   */\n          dup2\n            /* \"#utility.yul\":775:779   */\n          0x20\n            /* \"#utility.yul\":767:773   */\n          dup6\n            /* \"#utility.yul\":763:780   */\n          add\n            /* \"#utility.yul\":756:760   */\n          0x20\n            /* \"#utility.yul\":748:754   */\n          dup4\n            /* \"#utility.yul\":744:761   */\n          add\n            /* \"#utility.yul\":738:789   */\n          mcopy\n            /* \"#utility.yul\":837:838   */\n          0x00\n            /* \"#utility.yul\":809:828   */\n          swap2\n          dup2\n          add\n            /* \"#utility.yul\":830:834   */\n          0x20\n            /* \"#utility.yul\":805:835   */\n          add\n            /* \"#utility.yul\":798:839   */\n          swap2\n          swap1\n          swap2\n          mstore\n            /* \"#utility.yul\":813:819   */\n          swap4\n            /* \"#utility.yul\":146:869   */\n          swap3\n          pop\n          pop\n          pop\n          jump\t// out\n            /* \"#utility.yul\":874:1660   */\n        tag_3:\n            /* \"#utility.yul\":991:997   */\n          0x00\n            /* \"#utility.yul\":999:1005   */\n          0x00\n            /* \"#utility.yul\":1007:1013   */\n          0x00\n            /* \"#utility.yul\":1015:1021   */\n          0x00\n            /* \"#utility.yul\":1068:1071   */\n          0x80\n            /* \"#utility.yul\":1056:1065   */\n          dup6\n            /* \"#utility.yul\":1047:1054   */\n          dup8\n            /* \"#utility.yul\":1043:1066   */\n          sub\n            /* \"#utility.yul\":1039:1072   */\n          slt\n            /* \"#utility.yul\":1036:1089   */\n          iszero\n          tag_58\n          jumpi\n            /* \"#utility.yul\":1085:1086   */\n          0x00\n            /* \"#utility.yul\":1082:1083   */\n          0x00\n            /* \"#utility.yul\":1075:1087   */\n          revert\n            /* \"#utility.yul\":1036:1089   */\n        tag_58:\n            /* \"#utility.yul\":1112:1128   */\n          dup5\n          mload\n          sub(shl(0x40, 0x01), 0x01)\n            /* \"#utility.yul\":1140:1170   */\n          dup2\n          gt\n            /* \"#utility.yul\":1137:1187   */\n          iszero\n          tag_59\n          jumpi\n            /* \"#utility.yul\":1183:1184   */\n          0x00\n            /* \"#utility.yul\":1180:1181   */\n          0x00\n            /* \"#utility.yul\":1173:1185   */\n          revert\n            /* \"#utility.yul\":1137:1187   */\n        tag_59:\n            /* \"#utility.yul\":1206:1267   */\n          tag_60\n            /* \"#utility.yul\":1259:1266   */\n          dup8\n            /* \"#utility.yul\":1250:1256   */\n          dup3\n            /* \"#utility.yul\":1239:1248   */\n          dup9\n            /* \"#utility.yul\":1235:1257   */\n          add\n            /* \"#utility.yul\":1206:1267   */\n          tag_40\n          jump\t// in\n        tag_60:\n            /* \"#utility.yul\":1313:1315   */\n          0x20\n            /* \"#utility.yul\":1298:1316   */\n          dup8\n          add\n            /* \"#utility.yul\":1292:1317   */\n          mload\n            /* \"#utility.yul\":1196:1267   */\n          swap1\n          swap6\n          pop\n            /* \"#utility.yul\":1292:1317   */\n          swap1\n          pop\n          sub(shl(0x40, 0x01), 0x01)\n            /* \"#utility.yul\":1329:1361   */\n          dup2\n          gt\n            /* \"#utility.yul\":1326:1378   */\n          iszero\n          tag_61\n          jumpi\n            /* \"#utility.yul\":1374:1375   */\n          0x00\n            /* \"#utility.yul\":1371:1372   */\n          0x00\n            /* \"#utility.yul\":1364:1376   */\n          revert\n            /* \"#utility.yul\":1326:1378   */\n        tag_61:\n            /* \"#utility.yul\":1397:1460   */\n          tag_62\n            /* \"#utility.yul\":1452:1459   */\n          dup8\n            /* \"#utility.yul\":1441:1449   */\n          dup3\n            /* \"#utility.yul\":1430:1439   */\n          dup9\n            /* \"#utility.yul\":1426:1450   */\n          add\n            /* \"#utility.yul\":1397:1460   */\n          tag_40\n          jump\t// in\n        tag_62:\n            /* \"#utility.yul\":1500:1502   */\n          0x40\n            /* \"#utility.yul\":1485:1503   */\n          dup8\n          add\n            /* \"#utility.yul\":1479:1504   */\n          mload\n            /* \"#utility.yul\":1547:1549   */\n          0x60\n            /* \"#utility.yul\":1532:1550   */\n          dup9\n          add\n            /* \"#utility.yul\":1526:1551   */\n          mload\n            /* \"#utility.yul\":1387:1460   */\n          swap2\n          swap6\n          pop\n            /* \"#utility.yul\":1479:1504   */\n          swap4\n          pop\n            /* \"#utility.yul\":1526:1551   */\n          swap1\n          pop\n          sub(shl(0xa0, 0x01), 0x01)\n            /* \"#utility.yul\":1580:1611   */\n          dup2\n          and\n            /* \"#utility.yul\":1570:1612   */\n          dup2\n          eq\n            /* \"#utility.yul\":1560:1630   */\n          tag_63\n          jumpi\n            /* \"#utility.yul\":1626:1627   */\n          0x00\n            /* \"#utility.yul\":1623:1624   */\n          0x00\n            /* \"#utility.yul\":1616:1628   */\n          revert\n            /* \"#utility.yul\":1560:1630   */\n        tag_63:\n            /* \"#utility.yul\":874:1660   */\n          swap4\n          swap7\n          swap3\n          swap6\n          pop\n          swap1\n          swap4\n          pop\n          pop\n          jump\t// out\n            /* \"#utility.yul\":1665:2045   */\n        tag_41:\n            /* \"#utility.yul\":1744:1745   */\n          0x01\n            /* \"#utility.yul\":1740:1752   */\n          dup2\n          dup2\n          shr\n          swap1\n            /* \"#utility.yul\":1787:1799   */\n          dup3\n          and\n          dup1\n            /* \"#utility.yul\":1808:1869   */\n          tag_65\n          jumpi\n            /* \"#utility.yul\":1862:1866   */\n          0x7f\n            /* \"#utility.yul\":1854:1860   */\n          dup3\n            /* \"#utility.yul\":1850:1867   */\n          and\n            /* \"#utility.yul\":1840:1867   */\n          swap2\n          pop\n            /* \"#utility.yul\":1808:1869   */\n        tag_65:\n            /* \"#utility.yul\":1915:1917   */\n          0x20\n            /* \"#utility.yul\":1907:1913   */\n          dup3\n            /* \"#utility.yul\":1904:1918   */\n          lt\n            /* \"#utility.yul\":1884:1902   */\n          dup2\n            /* \"#utility.yul\":1881:1919   */\n          sub\n            /* \"#utility.yul\":1878:2039   */\n          tag_66\n          jumpi\n            /* \"#utility.yul\":1961:1971   */\n          0x4e487b71\n            /* \"#utility.yul\":1956:1959   */\n          0xe0\n            /* \"#utility.yul\":1952:1972   */\n          shl\n            /* \"#utility.yul\":1949:1950   */\n          0x00\n            /* \"#utility.yul\":1942:1973   */\n          mstore\n            /* \"#utility.yul\":1996:2000   */\n          0x22\n            /* \"#utility.yul\":1993:1994   */\n          0x04\n            /* \"#utility.yul\":1986:2001   */\n          mstore\n            /* \"#utility.yul\":2024:2028   */\n          0x24\n            /* \"#utility.yul\":2021:2022   */\n          0x00\n            /* \"#utility.yul\":2014:2029   */\n          revert\n            /* \"#utility.yul\":1878:2039   */\n        tag_66:\n          pop\n            /* \"#utility.yul\":1665:2045   */\n          swap2\n          swap1\n          pop\n          jump\t// out\n            /* \"#utility.yul\":2176:2694   */\n        tag_43:\n            /* \"#utility.yul\":2278:2280   */\n          0x1f\n            /* \"#utility.yul\":2273:2276   */\n          dup3\n            /* \"#utility.yul\":2270:2281   */\n          gt\n            /* \"#utility.yul\":2267:2688   */\n          iszero\n          tag_69\n          jumpi\n            /* \"#utility.yul\":2314:2319   */\n          dup1\n            /* \"#utility.yul\":2311:2312   */\n          0x00\n            /* \"#utility.yul\":2304:2320   */\n          mstore\n            /* \"#utility.yul\":2358:2362   */\n          0x20\n            /* \"#utility.yul\":2355:2356   */\n          0x00\n            /* \"#utility.yul\":2345:2363   */\n          keccak256\n            /* \"#utility.yul\":2428:2430   */\n          0x1f\n            /* \"#utility.yul\":2416:2426   */\n          dup5\n            /* \"#utility.yul\":2412:2431   */\n          add\n            /* \"#utility.yul\":2409:2410   */\n          0x05\n            /* \"#utility.yul\":2405:2432   */\n          shr\n            /* \"#utility.yul\":2399:2403   */\n          dup2\n            /* \"#utility.yul\":2395:2433   */\n          add\n            /* \"#utility.yul\":2464:2468   */\n          0x20\n            /* \"#utility.yul\":2452:2462   */\n          dup6\n            /* \"#utility.yul\":2449:2469   */\n          lt\n            /* \"#utility.yul\":2446:2493   */\n          iszero\n          tag_70\n          jumpi\n          pop\n            /* \"#utility.yul\":2487:2491   */\n          dup1\n            /* \"#utility.yul\":2446:2493   */\n        tag_70:\n            /* \"#utility.yul\":2542:2544   */\n          0x1f\n            /* \"#utility.yul\":2537:2540   */\n          dup5\n            /* \"#utility.yul\":2533:2545   */\n          add\n            /* \"#utility.yul\":2530:2531   */\n          0x05\n            /* \"#utility.yul\":2526:2546   */\n          shr\n            /* \"#utility.yul\":2520:2524   */\n          dup3\n            /* \"#utility.yul\":2516:2547   */\n          add\n            /* \"#utility.yul\":2506:2547   */\n          swap2\n          pop\n            /* \"#utility.yul\":2597:2678   */\n        tag_71:\n            /* \"#utility.yul\":2615:2617   */\n          dup2\n            /* \"#utility.yul\":2608:2613   */\n          dup2\n            /* \"#utility.yul\":2605:2618   */\n          lt\n            /* \"#utility.yul\":2597:2678   */\n          iszero\n          tag_73\n          jumpi\n            /* \"#utility.yul\":2674:2675   */\n          0x00\n            /* \"#utility.yul\":2660:2676   */\n          dup2\n          sstore\n            /* \"#utility.yul\":2641:2642   */\n          0x01\n            /* \"#utility.yul\":2630:2643   */\n          add\n            /* \"#utility.yul\":2597:2678   */\n          jump(tag_71)\n        tag_73:\n            /* \"#utility.yul\":2601:2604   */\n          pop\n          pop\n            /* \"#utility.yul\":2267:2688   */\n        tag_69:\n            /* \"#utility.yul\":2176:2694   */\n          pop\n          pop\n          pop\n          jump\t// out\n            /* \"#utility.yul\":2870:4169   */\n        tag_8:\n            /* \"#utility.yul\":2990:3000   */\n          dup2\n          mload\n          sub(shl(0x40, 0x01), 0x01)\n            /* \"#utility.yul\":3012:3042   */\n          dup2\n          gt\n            /* \"#utility.yul\":3009:3065   */\n          iszero\n          tag_77\n          jumpi\n            /* \"#utility.yul\":3045:3063   */\n          tag_77\n          tag_39\n          jump\t// in\n        tag_77:\n            /* \"#utility.yul\":3074:3171   */\n          tag_78\n            /* \"#utility.yul\":3164:3170   */\n          dup2\n            /* \"#utility.yul\":3124:3162   */\n          tag_79\n            /* \"#utility.yul\":3156:3160   */\n          dup5\n            /* \"#utility.yul\":3150:3161   */\n          sload\n            /* \"#utility.yul\":3124:3162   */\n          tag_41\n          jump\t// in\n        tag_79:\n            /* \"#utility.yul\":3118:3122   */\n          dup5\n            /* \"#utility.yul\":3074:3171   */\n          tag_43\n          jump\t// in\n        tag_78:\n            /* \"#utility.yul\":3220:3224   */\n          0x20\n            /* \"#utility.yul\":3251:3253   */\n          0x1f\n            /* \"#utility.yul\":3240:3254   */\n          dup3\n          gt\n            /* \"#utility.yul\":3268:3269   */\n          0x01\n            /* \"#utility.yul\":3263:3912   */\n          dup2\n          eq\n          tag_81\n          jumpi\n            /* \"#utility.yul\":3956:3957   */\n          0x00\n            /* \"#utility.yul\":3973:3979   */\n          dup4\n            /* \"#utility.yul\":3970:4059   */\n          iszero\n          tag_82\n          jumpi\n          pop\n            /* \"#utility.yul\":4025:4044   */\n          dup5\n          dup3\n          add\n            /* \"#utility.yul\":4019:4045   */\n          mload\n            /* \"#utility.yul\":3970:4059   */\n        tag_82:\n          not(0x00)\n            /* \"#utility.yul\":2827:2828   */\n          0x03\n            /* \"#utility.yul\":2823:2834   */\n          dup6\n          swap1\n          shl\n            /* \"#utility.yul\":2819:2843   */\n          shr\n            /* \"#utility.yul\":2815:2844   */\n          not\n            /* \"#utility.yul\":2805:2845   */\n          and\n            /* \"#utility.yul\":2851:2852   */\n          0x01\n            /* \"#utility.yul\":2847:2858   */\n          dup5\n          swap1\n          shl\n            /* \"#utility.yul\":2802:2859   */\n          or\n            /* \"#utility.yul\":4072:4153   */\n          dup5\n          sstore\n            /* \"#utility.yul\":3233:4163   */\n          jump(tag_73)\n            /* \"#utility.yul\":3263:3912   */\n        tag_81:\n            /* \"#utility.yul\":2123:2124   */\n          0x00\n            /* \"#utility.yul\":2116:2130   */\n          dup5\n          dup2\n          mstore\n            /* \"#utility.yul\":2160:2164   */\n          0x20\n            /* \"#utility.yul\":2147:2165   */\n          dup2\n          keccak256\n          not(0x1f)\n            /* \"#utility.yul\":3299:3319   */\n          dup6\n          and\n          swap2\n            /* \"#utility.yul\":3417:3639   */\n        tag_85:\n            /* \"#utility.yul\":3431:3438   */\n          dup3\n            /* \"#utility.yul\":3428:3429   */\n          dup2\n            /* \"#utility.yul\":3425:3439   */\n          lt\n            /* \"#utility.yul\":3417:3639   */\n          iszero\n          tag_87\n          jumpi\n            /* \"#utility.yul\":3513:3532   */\n          dup8\n          dup6\n          add\n            /* \"#utility.yul\":3507:3533   */\n          mload\n            /* \"#utility.yul\":3492:3534   */\n          dup3\n          sstore\n            /* \"#utility.yul\":3620:3624   */\n          0x20\n            /* \"#utility.yul\":3605:3625   */\n          swap5\n          dup6\n          add\n          swap5\n            /* \"#utility.yul\":3573:3574   */\n          0x01\n            /* \"#utility.yul\":3561:3575   */\n          swap1\n          swap3\n          add\n          swap2\n            /* \"#utility.yul\":3447:3459   */\n          add\n            /* \"#utility.yul\":3417:3639   */\n          jump(tag_85)\n        tag_87:\n            /* \"#utility.yul\":3421:3424   */\n          pop\n            /* \"#utility.yul\":3667:3673   */\n          dup5\n            /* \"#utility.yul\":3658:3665   */\n          dup3\n            /* \"#utility.yul\":3655:3674   */\n          lt\n            /* \"#utility.yul\":3652:3853   */\n          iszero\n          tag_88\n          jumpi\n            /* \"#utility.yul\":3728:3747   */\n          dup7\n          dup5\n          add\n            /* \"#utility.yul\":3722:3748   */\n          mload\n          not(0x00)\n            /* \"#utility.yul\":3811:3812   */\n          0x03\n            /* \"#utility.yul\":3807:3821   */\n          dup8\n          swap1\n          shl\n            /* \"#utility.yul\":3823:3826   */\n          0xf8\n            /* \"#utility.yul\":3803:3827   */\n          and\n            /* \"#utility.yul\":3799:3836   */\n          shr\n            /* \"#utility.yul\":3795:3837   */\n          not\n            /* \"#utility.yul\":3780:3838   */\n          and\n            /* \"#utility.yul\":3765:3839   */\n          dup2\n          sstore\n            /* \"#utility.yul\":3652:3853   */\n        tag_88:\n          pop\n          pop\n          pop\n          pop\n            /* \"#utility.yul\":3899:3900   */\n          0x01\n            /* \"#utility.yul\":3883:3897   */\n          swap1\n          dup2\n          shl\n            /* \"#utility.yul\":3879:3901   */\n          add\n            /* \"#utility.yul\":3866:3902   */\n          swap1\n          sstore\n          pop\n            /* \"#utility.yul\":2870:4169   */\n          jump\t// out\n            /* \"#utility.yul\":4174:4301   */\n        tag_45:\n            /* \"#utility.yul\":4235:4245   */\n          0x4e487b71\n            /* \"#utility.yul\":4230:4233   */\n          0xe0\n            /* \"#utility.yul\":4226:4246   */\n          shl\n            /* \"#utility.yul\":4223:4224   */\n          0x00\n            /* \"#utility.yul\":4216:4247   */\n          mstore\n            /* \"#utility.yul\":4266:4270   */\n          0x11\n            /* \"#utility.yul\":4263:4264   */\n          0x04\n            /* \"#utility.yul\":4256:4271   */\n          mstore\n            /* \"#utility.yul\":4290:4294   */\n          0x24\n            /* \"#utility.yul\":4287:4288   */\n          0x00\n            /* \"#utility.yul\":4280:4295   */\n          revert\n            /* \"#utility.yul\":4306:4681   */\n        tag_46:\n            /* \"#utility.yul\":4394:4395   */\n          0x01\n            /* \"#utility.yul\":4412:4417   */\n          dup2\n            /* \"#utility.yul\":4426:4675   */\n        tag_91:\n            /* \"#utility.yul\":4447:4448   */\n          0x01\n            /* \"#utility.yul\":4437:4445   */\n          dup5\n            /* \"#utility.yul\":4434:4449   */\n          gt\n            /* \"#utility.yul\":4426:4675   */\n          iszero\n          tag_93\n          jumpi\n            /* \"#utility.yul\":4497:4501   */\n          dup1\n            /* \"#utility.yul\":4492:4495   */\n          dup6\n            /* \"#utility.yul\":4488:4502   */\n          div\n            /* \"#utility.yul\":4482:4486   */\n          dup2\n            /* \"#utility.yul\":4479:4503   */\n          gt\n            /* \"#utility.yul\":4476:4526   */\n          iszero\n          tag_95\n          jumpi\n            /* \"#utility.yul\":4506:4524   */\n          tag_95\n          tag_45\n          jump\t// in\n        tag_95:\n            /* \"#utility.yul\":4556:4557   */\n          0x01\n            /* \"#utility.yul\":4546:4554   */\n          dup5\n            /* \"#utility.yul\":4542:4558   */\n          and\n            /* \"#utility.yul\":4539:4588   */\n          iszero\n          tag_96\n          jumpi\n            /* \"#utility.yul\":4570:4586   */\n          swap1\n          dup2\n          mul\n          swap1\n            /* \"#utility.yul\":4539:4588   */\n        tag_96:\n            /* \"#utility.yul\":4653:4654   */\n          0x01\n            /* \"#utility.yul\":4649:4665   */\n          swap4\n          swap1\n          swap4\n          shr\n          swap3\n            /* \"#utility.yul\":4609:4624   */\n          dup1\n          mul\n            /* \"#utility.yul\":4426:4675   */\n          jump(tag_91)\n        tag_93:\n            /* \"#utility.yul\":4306:4681   */\n          swap4\n          pop\n          swap4\n          swap2\n          pop\n          pop\n          jump\t// out\n            /* \"#utility.yul\":4686:5588   */\n        tag_47:\n            /* \"#utility.yul\":4735:4740   */\n          0x00\n            /* \"#utility.yul\":4765:4773   */\n          dup3\n            /* \"#utility.yul\":4755:4835   */\n          tag_98\n          jumpi\n          pop\n            /* \"#utility.yul\":4806:4807   */\n          0x01\n            /* \"#utility.yul\":4820:4825   */\n          jump(tag_97)\n            /* \"#utility.yul\":4755:4835   */\n        tag_98:\n            /* \"#utility.yul\":4854:4858   */\n          dup2\n            /* \"#utility.yul\":4844:4920   */\n          tag_99\n          jumpi\n          pop\n            /* \"#utility.yul\":4891:4892   */\n          0x00\n            /* \"#utility.yul\":4905:4910   */\n          jump(tag_97)\n            /* \"#utility.yul\":4844:4920   */\n        tag_99:\n            /* \"#utility.yul\":4936:4940   */\n          dup2\n            /* \"#utility.yul\":4954:4955   */\n          0x01\n            /* \"#utility.yul\":4949:5008   */\n          dup2\n          eq\n          tag_101\n          jumpi\n            /* \"#utility.yul\":5022:5023   */\n          0x02\n            /* \"#utility.yul\":5017:5191   */\n          dup2\n          eq\n          tag_102\n          jumpi\n            /* \"#utility.yul\":4929:5191   */\n          jump(tag_100)\n            /* \"#utility.yul\":4949:5008   */\n        tag_101:\n            /* \"#utility.yul\":4979:4980   */\n          0x01\n            /* \"#utility.yul\":4970:4980   */\n          swap2\n          pop\n            /* \"#utility.yul\":4993:4998   */\n          pop\n          jump(tag_97)\n            /* \"#utility.yul\":5017:5191   */\n        tag_102:\n            /* \"#utility.yul\":5054:5057   */\n          0xff\n            /* \"#utility.yul\":5044:5052   */\n          dup5\n            /* \"#utility.yul\":5041:5058   */\n          gt\n            /* \"#utility.yul\":5038:5081   */\n          iszero\n          tag_104\n          jumpi\n            /* \"#utility.yul\":5061:5079   */\n          tag_104\n          tag_45\n          jump\t// in\n        tag_104:\n          pop\n          pop\n            /* \"#utility.yul\":5117:5118   */\n          0x01\n            /* \"#utility.yul\":5103:5119   */\n          dup3\n          shl\n            /* \"#utility.yul\":5176:5181   */\n          jump(tag_97)\n            /* \"#utility.yul\":4929:5191   */\n        tag_100:\n          pop\n            /* \"#utility.yul\":5275:5277   */\n          0x20\n            /* \"#utility.yul\":5265:5273   */\n          dup4\n            /* \"#utility.yul\":5262:5278   */\n          lt\n            /* \"#utility.yul\":5256:5259   */\n          0x0133\n            /* \"#utility.yul\":5250:5254   */\n          dup4\n            /* \"#utility.yul\":5247:5260   */\n          lt\n            /* \"#utility.yul\":5243:5279   */\n          and\n            /* \"#utility.yul\":5237:5239   */\n          0x4e\n            /* \"#utility.yul\":5227:5235   */\n          dup5\n            /* \"#utility.yul\":5224:5240   */\n          lt\n            /* \"#utility.yul\":5219:5221   */\n          0x0b\n            /* \"#utility.yul\":5213:5217   */\n          dup5\n            /* \"#utility.yul\":5210:5222   */\n          lt\n            /* \"#utility.yul\":5206:5241   */\n          and\n            /* \"#utility.yul\":5203:5280   */\n          or\n            /* \"#utility.yul\":5200:5403   */\n          iszero\n          tag_105\n          jumpi\n          pop\n            /* \"#utility.yul\":5312:5331   */\n          dup2\n          dup2\n          exp\n            /* \"#utility.yul\":5388:5393   */\n          jump(tag_97)\n            /* \"#utility.yul\":5200:5403   */\n        tag_105:\n            /* \"#utility.yul\":5435:5477   */\n          tag_106\n          not(0x00)\n            /* \"#utility.yul\":5460:5468   */\n          dup5\n            /* \"#utility.yul\":5454:5458   */\n          dup5\n            /* \"#utility.yul\":5435:5477   */\n          tag_46\n          jump\t// in\n        tag_106:\n            /* \"#utility.yul\":5513:5519   */\n          dup1\n            /* \"#utility.yul\":5509:5510   */\n          0x00\n            /* \"#utility.yul\":5505:5511   */\n          not\n            /* \"#utility.yul\":5501:5520   */\n          div\n            /* \"#utility.yul\":5492:5499   */\n          dup3\n            /* \"#utility.yul\":5489:5521   */\n          gt\n            /* \"#utility.yul\":5486:5544   */\n          iszero\n          tag_108\n          jumpi\n            /* \"#utility.yul\":5524:5542   */\n          tag_108\n          tag_45\n          jump\t// in\n        tag_108:\n            /* \"#utility.yul\":5562:5582   */\n          mul\n          swap1\n          pop\n            /* \"#utility.yul\":4686:5588   */\n        tag_97:\n          swap3\n          swap2\n          pop\n          pop\n          jump\t// out\n            /* \"#utility.yul\":5593:5733   */\n        tag_15:\n            /* \"#utility.yul\":5651:5656   */\n          0x00\n            /* \"#utility.yul\":5680:5727   */\n          tag_110\n            /* \"#utility.yul\":5721:5725   */\n          0xff\n            /* \"#utility.yul\":5711:5719   */\n          dup5\n            /* \"#utility.yul\":5707:5726   */\n          and\n            /* \"#utility.yul\":5701:5705   */\n          dup4\n            /* \"#utility.yul\":5680:5727   */\n          tag_47\n          jump\t// in\n        tag_110:\n            /* \"#utility.yul\":5671:5727   */\n          swap4\n            /* \"#utility.yul\":5593:5733   */\n          swap3\n          pop\n          pop\n          pop\n          jump\t// out\n            /* \"#utility.yul\":5738:5906   */\n        tag_17:\n            /* \"#utility.yul\":5811:5820   */\n          dup1\n          dup3\n          mul\n            /* \"#utility.yul\":5842:5851   */\n          dup2\n          iszero\n            /* \"#utility.yul\":5859:5874   */\n          dup3\n          dup3\n          div\n            /* \"#utility.yul\":5853:5875   */\n          dup5\n          eq\n            /* \"#utility.yul\":5839:5876   */\n          or\n            /* \"#utility.yul\":5829:5900   */\n          tag_97\n          jumpi\n            /* \"#utility.yul\":5880:5898   */\n          tag_97\n          tag_45\n          jump\t// in\n            /* \"#utility.yul\":6119:6244   */\n        tag_30:\n            /* \"#utility.yul\":6184:6193   */\n          dup1\n          dup3\n          add\n            /* \"#utility.yul\":6205:6215   */\n          dup1\n          dup3\n          gt\n            /* \"#utility.yul\":6202:6238   */\n          iszero\n          tag_97\n          jumpi\n            /* \"#utility.yul\":6218:6236   */\n          tag_97\n          tag_45\n          jump\t// in\n            /* \"#utility.yul\":6599:6776   */\n        tag_48:\n            /* \"MiniTokenFactory.sol\":702:920  contract ERC20Token is ERC20 {... */\n          dataSize(sub_0)\n          dup1\n          dataOffset(sub_0)\n          0x00\n          codecopy\n          0x00\n          return\n        stop\n\n        sub_0: assembly {\n                /* \"MiniTokenFactory.sol\":702:920  contract ERC20Token is ERC20 {... */\n              mstore(0x40, 0x80)\n              callvalue\n              dup1\n              iszero\n              tag_1\n              jumpi\n              revert(0x00, 0x00)\n            tag_1:\n              pop\n              jumpi(tag_2, lt(calldatasize, 0x04))\n              shr(0xe0, calldataload(0x00))\n              dup1\n              0x313ce567\n              gt\n              tag_12\n              jumpi\n              dup1\n              0x313ce567\n              eq\n              tag_7\n              jumpi\n              dup1\n              0x70a08231\n              eq\n              tag_8\n              jumpi\n              dup1\n              0x95d89b41\n              eq\n              tag_9\n              jumpi\n              dup1\n              0xa9059cbb\n              eq\n              tag_10\n              jumpi\n              dup1\n              0xdd62ed3e\n              eq\n              tag_11\n              jumpi\n              revert(0x00, 0x00)\n            tag_12:\n              dup1\n              0x06fdde03\n              eq\n              tag_3\n              jumpi\n              dup1\n              0x095ea7b3\n              eq\n              tag_4\n              jumpi\n              dup1\n              0x18160ddd\n              eq\n              tag_5\n              jumpi\n              dup1\n              0x23b872dd\n              eq\n              tag_6\n              jumpi\n            tag_2:\n              revert(0x00, 0x00)\n                /* \"@openzeppelin/contracts/token/ERC20/ERC20.sol\":1760:1849  function name() public view virtual returns (string memory) {... */\n            tag_3:\n              tag_13\n              tag_14\n              jump\t// in\n            tag_13:\n              mload(0x40)\n              tag_15\n              swap2\n              swap1\n              tag_16\n              jump\t// in\n            tag_15:\n              mload(0x40)\n              dup1\n              swap2\n              sub\n              swap1\n              return\n                /* \"@openzeppelin/contracts/token/ERC20/ERC20.sol\":3902:4088  function approve(address spender, uint256 value) public virtual returns (bool) {... */\n            tag_4:\n              tag_17\n              tag_18\n              calldatasize\n              0x04\n              tag_19\n              jump\t// in\n            tag_18:\n              tag_20\n              jump\t// in\n            tag_17:\n              mload(0x40)\n                /* \"#utility.yul\":1085:1099   */\n              swap1\n              iszero\n                /* \"#utility.yul\":1078:1100   */\n              iszero\n                /* \"#utility.yul\":1060:1101   */\n              dup2\n              mstore\n                /* \"#utility.yul\":1048:1050   */\n              0x20\n                /* \"#utility.yul\":1033:1051   */\n              add\n                /* \"@openzeppelin/contracts/token/ERC20/ERC20.sol\":3902:4088  function approve(address spender, uint256 value) public virtual returns (bool) {... */\n              tag_15\n                /* \"#utility.yul\":920:1107   */\n              jump\n                /* \"@openzeppelin/contracts/token/ERC20/ERC20.sol\":2803:2900  function totalSupply() public view virtual returns (uint256) {... */\n            tag_5:\n                /* \"@openzeppelin/contracts/token/ERC20/ERC20.sol\":2881:2893  _totalSupply */\n              sload(0x02)\n                /* \"@openzeppelin/contracts/token/ERC20/ERC20.sol\":2803:2900  function totalSupply() public view virtual returns (uint256) {... */\n            tag_23:\n              mload(0x40)\n                /* \"#utility.yul\":1258:1283   */\n              swap1\n              dup2\n              mstore\n                /* \"#utility.yul\":1246:1248   */\n              0x20\n                /* \"#utility.yul\":1231:1249   */\n              add\n                /* \"@openzeppelin/contracts/token/ERC20/ERC20.sol\":2803:2900  function totalSupply() public view virtual returns (uint256) {... */\n              tag_15\n                /* \"#utility.yul\":1112:1289   */\n              jump\n                /* \"@openzeppelin/contracts/token/ERC20/ERC20.sol\":4680:4924  function transferFrom(address from, address to, uint256 value) public virtual returns (bool) {... */\n            tag_6:\n              tag_17\n              tag_28\n              calldatasize\n              0x04\n              tag_29\n              jump\t// in\n            tag_28:\n              tag_30\n              jump\t// in\n                /* \"@openzeppelin/contracts/token/ERC20/ERC20.sol\":2688:2770  function decimals() public view virtual returns (uint8) {... */\n            tag_7:\n              mload(0x40)\n                /* \"@openzeppelin/contracts/token/ERC20/ERC20.sol\":2761:2763  18 */\n              0x12\n                /* \"#utility.yul\":1815:1851   */\n              dup2\n              mstore\n                /* \"#utility.yul\":1803:1805   */\n              0x20\n                /* \"#utility.yul\":1788:1806   */\n              add\n                /* \"@openzeppelin/contracts/token/ERC20/ERC20.sol\":2688:2770  function decimals() public view virtual returns (uint8) {... */\n              tag_15\n                /* \"#utility.yul\":1673:1857   */\n              jump\n                /* \"@openzeppelin/contracts/token/ERC20/ERC20.sol\":2933:3049  function balanceOf(address account) public view virtual returns (uint256) {... */\n            tag_8:\n              tag_23\n              tag_37\n              calldatasize\n              0x04\n              tag_38\n              jump\t// in\n            tag_37:\n              sub(shl(0xa0, 0x01), 0x01)\n                /* \"@openzeppelin/contracts/token/ERC20/ERC20.sol\":3024:3042  _balances[account] */\n              and\n                /* \"@openzeppelin/contracts/token/ERC20/ERC20.sol\":2998:3005  uint256 */\n              0x00\n                /* \"@openzeppelin/contracts/token/ERC20/ERC20.sol\":3024:3042  _balances[account] */\n              swap1\n              dup2\n              mstore\n              0x20\n              dup2\n              swap1\n              mstore\n              0x40\n              swap1\n              keccak256\n              sload\n              swap1\n                /* \"@openzeppelin/contracts/token/ERC20/ERC20.sol\":2933:3049  function balanceOf(address account) public view virtual returns (uint256) {... */\n              jump\n                /* \"@openzeppelin/contracts/token/ERC20/ERC20.sol\":1962:2055  function symbol() public view virtual returns (string memory) {... */\n            tag_9:\n              tag_13\n              tag_42\n              jump\t// in\n                /* \"@openzeppelin/contracts/token/ERC20/ERC20.sol\":3244:3422  function transfer(address to, uint256 value) public virtual returns (bool) {... */\n            tag_10:\n              tag_17\n              tag_45\n              calldatasize\n              0x04\n              tag_19\n              jump\t// in\n            tag_45:\n              tag_46\n              jump\t// in\n                /* \"@openzeppelin/contracts/token/ERC20/ERC20.sol\":3455:3595  function allowance(address owner, address spender) public view virtual returns (uint256) {... */\n            tag_11:\n              tag_23\n              tag_49\n              calldatasize\n              0x04\n              tag_50\n              jump\t// in\n            tag_49:\n              sub(shl(0xa0, 0x01), 0x01)\n                /* \"@openzeppelin/contracts/token/ERC20/ERC20.sol\":3561:3579  _allowances[owner] */\n              swap2\n              dup3\n              and\n                /* \"@openzeppelin/contracts/token/ERC20/ERC20.sol\":3535:3542  uint256 */\n              0x00\n                /* \"@openzeppelin/contracts/token/ERC20/ERC20.sol\":3561:3579  _allowances[owner] */\n              swap1\n              dup2\n              mstore\n                /* \"@openzeppelin/contracts/token/ERC20/ERC20.sol\":3561:3572  _allowances */\n              0x01\n                /* \"@openzeppelin/contracts/token/ERC20/ERC20.sol\":3561:3579  _allowances[owner] */\n              0x20\n              swap1\n              dup2\n              mstore\n              0x40\n              dup1\n              dup4\n              keccak256\n                /* \"@openzeppelin/contracts/token/ERC20/ERC20.sol\":3561:3588  _allowances[owner][spender] */\n              swap4\n              swap1\n              swap5\n              and\n              dup3\n              mstore\n              swap2\n              swap1\n              swap2\n              mstore\n              keccak256\n              sload\n              swap1\n                /* \"@openzeppelin/contracts/token/ERC20/ERC20.sol\":3455:3595  function allowance(address owner, address spender) public view virtual returns (uint256) {... */\n              jump\n                /* \"@openzeppelin/contracts/token/ERC20/ERC20.sol\":1760:1849  function name() public view virtual returns (string memory) {... */\n            tag_14:\n                /* \"@openzeppelin/contracts/token/ERC20/ERC20.sol\":1805:1818  string memory */\n              0x60\n                /* \"@openzeppelin/contracts/token/ERC20/ERC20.sol\":1837:1842  _name */\n              0x03\n                /* \"@openzeppelin/contracts/token/ERC20/ERC20.sol\":1830:1842  return _name */\n              dup1\n              sload\n              tag_54\n              swap1\n              tag_55\n              jump\t// in\n            tag_54:\n              dup1\n              0x1f\n              add\n              0x20\n              dup1\n              swap2\n              div\n              mul\n              0x20\n              add\n              mload(0x40)\n              swap1\n              dup2\n              add\n              0x40\n              mstore\n              dup1\n              swap3\n              swap2\n              swap1\n              dup2\n              dup2\n              mstore\n              0x20\n              add\n              dup3\n              dup1\n              sload\n              tag_56\n              swap1\n              tag_55\n              jump\t// in\n            tag_56:\n              dup1\n              iszero\n              tag_57\n              jumpi\n              dup1\n              0x1f\n              lt\n              tag_58\n              jumpi\n              0x0100\n              dup1\n              dup4\n              sload\n              div\n              mul\n              dup4\n              mstore\n              swap2\n              0x20\n              add\n              swap2\n              jump(tag_57)\n            tag_58:\n              dup3\n              add\n              swap2\n              swap1\n              0x00\n              mstore\n              keccak256(0x00, 0x20)\n              swap1\n            tag_59:\n              dup2\n              sload\n              dup2\n              mstore\n              swap1\n              0x01\n              add\n              swap1\n              0x20\n              add\n              dup1\n              dup4\n              gt\n              tag_59\n              jumpi\n              dup3\n              swap1\n              sub\n              0x1f\n              and\n              dup3\n              add\n              swap2\n            tag_57:\n              pop\n              pop\n              pop\n              pop\n              pop\n              swap1\n              pop\n                /* \"@openzeppelin/contracts/token/ERC20/ERC20.sol\":1760:1849  function name() public view virtual returns (string memory) {... */\n              swap1\n              jump\t// out\n                /* \"@openzeppelin/contracts/token/ERC20/ERC20.sol\":3902:4088  function approve(address spender, uint256 value) public virtual returns (bool) {... */\n            tag_20:\n                /* \"@openzeppelin/contracts/token/ERC20/ERC20.sol\":3975:3979  bool */\n              0x00\n                /* \"@openzeppelin/contracts/utils/Context.sol\":735:745  msg.sender */\n              caller\n                /* \"@openzeppelin/contracts/token/ERC20/ERC20.sol\":4029:4060  _approve(owner, spender, value) */\n              tag_63\n                /* \"@openzeppelin/contracts/utils/Context.sol\":735:745  msg.sender */\n              dup2\n                /* \"@openzeppelin/contracts/token/ERC20/ERC20.sol\":4045:4052  spender */\n              dup6\n                /* \"@openzeppelin/contracts/token/ERC20/ERC20.sol\":4054:4059  value */\n              dup6\n                /* \"@openzeppelin/contracts/token/ERC20/ERC20.sol\":4029:4037  _approve */\n              tag_64\n                /* \"@openzeppelin/contracts/token/ERC20/ERC20.sol\":4029:4060  _approve(owner, spender, value) */\n              jump\t// in\n            tag_63:\n                /* \"@openzeppelin/contracts/token/ERC20/ERC20.sol\":4077:4081  true */\n              0x01\n                /* \"@openzeppelin/contracts/token/ERC20/ERC20.sol\":4070:4081  return true */\n              swap2\n              pop\n              pop\n                /* \"@openzeppelin/contracts/token/ERC20/ERC20.sol\":3902:4088  function approve(address spender, uint256 value) public virtual returns (bool) {... */\n            tag_60:\n              swap3\n              swap2\n              pop\n              pop\n              jump\t// out\n                /* \"@openzeppelin/contracts/token/ERC20/ERC20.sol\":4680:4924  function transferFrom(address from, address to, uint256 value) public virtual returns (bool) {... */\n            tag_30:\n                /* \"@openzeppelin/contracts/token/ERC20/ERC20.sol\":4767:4771  bool */\n              0x00\n                /* \"@openzeppelin/contracts/utils/Context.sol\":735:745  msg.sender */\n              caller\n                /* \"@openzeppelin/contracts/token/ERC20/ERC20.sol\":4823:4860  _spendAllowance(from, spender, value) */\n              tag_68\n                /* \"@openzeppelin/contracts/token/ERC20/ERC20.sol\":4839:4843  from */\n              dup6\n                /* \"@openzeppelin/contracts/utils/Context.sol\":735:745  msg.sender */\n              dup3\n                /* \"@openzeppelin/contracts/token/ERC20/ERC20.sol\":4854:4859  value */\n              dup6\n                /* \"@openzeppelin/contracts/token/ERC20/ERC20.sol\":4823:4838  _spendAllowance */\n              tag_69\n                /* \"@openzeppelin/contracts/token/ERC20/ERC20.sol\":4823:4860  _spendAllowance(from, spender, value) */\n              jump\t// in\n            tag_68:\n                /* \"@openzeppelin/contracts/token/ERC20/ERC20.sol\":4870:4896  _transfer(from, to, value) */\n              tag_70\n                /* \"@openzeppelin/contracts/token/ERC20/ERC20.sol\":4880:4884  from */\n              dup6\n                /* \"@openzeppelin/contracts/token/ERC20/ERC20.sol\":4886:4888  to */\n              dup6\n                /* \"@openzeppelin/contracts/token/ERC20/ERC20.sol\":4890:4895  value */\n              dup6\n                /* \"@openzeppelin/contracts/token/ERC20/ERC20.sol\":4870:4879  _transfer */\n              tag_71\n                /* \"@openzeppelin/contracts/token/ERC20/ERC20.sol\":4870:4896  _transfer(from, to, value) */\n              jump\t// in\n            tag_70:\n              pop\n                /* \"@openzeppelin/contracts/token/ERC20/ERC20.sol\":4913:4917  true */\n              0x01\n              swap5\n                /* \"@openzeppelin/contracts/token/ERC20/ERC20.sol\":4680:4924  function transferFrom(address from, address to, uint256 value) public virtual returns (bool) {... */\n              swap4\n              pop\n              pop\n              pop\n              pop\n              jump\t// out\n                /* \"@openzeppelin/contracts/token/ERC20/ERC20.sol\":1962:2055  function symbol() public view virtual returns (string memory) {... */\n            tag_42:\n                /* \"@openzeppelin/contracts/token/ERC20/ERC20.sol\":2009:2022  string memory */\n              0x60\n                /* \"@openzeppelin/contracts/token/ERC20/ERC20.sol\":2041:2048  _symbol */\n              0x04\n                /* \"@openzeppelin/contracts/token/ERC20/ERC20.sol\":2034:2048  return _symbol */\n              dup1\n              sload\n              tag_54\n              swap1\n              tag_55\n              jump\t// in\n                /* \"@openzeppelin/contracts/token/ERC20/ERC20.sol\":3244:3422  function transfer(address to, uint256 value) public virtual returns (bool) {... */\n            tag_46:\n                /* \"@openzeppelin/contracts/token/ERC20/ERC20.sol\":3313:3317  bool */\n              0x00\n                /* \"@openzeppelin/contracts/utils/Context.sol\":735:745  msg.sender */\n              caller\n                /* \"@openzeppelin/contracts/token/ERC20/ERC20.sol\":3367:3394  _transfer(owner, to, value) */\n              tag_63\n                /* \"@openzeppelin/contracts/utils/Context.sol\":735:745  msg.sender */\n              dup2\n                /* \"@openzeppelin/contracts/token/ERC20/ERC20.sol\":3384:3386  to */\n              dup6\n                /* \"@openzeppelin/contracts/token/ERC20/ERC20.sol\":3388:3393  value */\n              dup6\n                /* \"@openzeppelin/contracts/token/ERC20/ERC20.sol\":3367:3376  _transfer */\n              tag_71\n                /* \"@openzeppelin/contracts/token/ERC20/ERC20.sol\":3367:3394  _transfer(owner, to, value) */\n              jump\t// in\n                /* \"@openzeppelin/contracts/token/ERC20/ERC20.sol\":8630:8758  function _approve(address owner, address spender, uint256 value) internal {... */\n            tag_64:\n                /* \"@openzeppelin/contracts/token/ERC20/ERC20.sol\":8714:8751  _approve(owner, spender, value, true) */\n              tag_86\n                /* \"@openzeppelin/contracts/token/ERC20/ERC20.sol\":8723:8728  owner */\n              dup4\n                /* \"@openzeppelin/contracts/token/ERC20/ERC20.sol\":8730:8737  spender */\n              dup4\n                /* \"@openzeppelin/contracts/token/ERC20/ERC20.sol\":8739:8744  value */\n              dup4\n                /* \"@openzeppelin/contracts/token/ERC20/ERC20.sol\":8746:8750  true */\n              0x01\n                /* \"@openzeppelin/contracts/token/ERC20/ERC20.sol\":8714:8722  _approve */\n              tag_87\n                /* \"@openzeppelin/contracts/token/ERC20/ERC20.sol\":8714:8751  _approve(owner, spender, value, true) */\n              jump\t// in\n            tag_86:\n                /* \"@openzeppelin/contracts/token/ERC20/ERC20.sol\":8630:8758  function _approve(address owner, address spender, uint256 value) internal {... */\n              pop\n              pop\n              pop\n              jump\t// out\n                /* \"@openzeppelin/contracts/token/ERC20/ERC20.sol\":10319:10795  function _spendAllowance(address owner, address spender, uint256 value) internal virtual {... */\n            tag_69:\n              sub(shl(0xa0, 0x01), 0x01)\n                /* \"@openzeppelin/contracts/token/ERC20/ERC20.sol\":3561:3579  _allowances[owner] */\n              dup4\n              dup2\n              and\n                /* \"@openzeppelin/contracts/token/ERC20/ERC20.sol\":10418:10442  uint256 currentAllowance */\n              0x00\n                /* \"@openzeppelin/contracts/token/ERC20/ERC20.sol\":3561:3579  _allowances[owner] */\n              swap1\n              dup2\n              mstore\n                /* \"@openzeppelin/contracts/token/ERC20/ERC20.sol\":3561:3572  _allowances */\n              0x01\n                /* \"@openzeppelin/contracts/token/ERC20/ERC20.sol\":3561:3579  _allowances[owner] */\n              0x20\n              swap1\n              dup2\n              mstore\n              0x40\n              dup1\n              dup4\n              keccak256\n                /* \"@openzeppelin/contracts/token/ERC20/ERC20.sol\":3561:3588  _allowances[owner][spender] */\n              swap4\n              dup7\n              and\n              dup4\n              mstore\n              swap3\n              swap1\n              mstore\n              keccak256\n              sload\n              not(0x00)\n                /* \"@openzeppelin/contracts/token/ERC20/ERC20.sol\":10484:10520  currentAllowance < type(uint256).max */\n              dup2\n              lt\n                /* \"@openzeppelin/contracts/token/ERC20/ERC20.sol\":10480:10789  if (currentAllowance < type(uint256).max) {... */\n              iszero\n              tag_94\n              jumpi\n                /* \"@openzeppelin/contracts/token/ERC20/ERC20.sol\":10559:10564  value */\n              dup2\n                /* \"@openzeppelin/contracts/token/ERC20/ERC20.sol\":10540:10556  currentAllowance */\n              dup2\n                /* \"@openzeppelin/contracts/token/ERC20/ERC20.sol\":10540:10564  currentAllowance < value */\n              lt\n                /* \"@openzeppelin/contracts/token/ERC20/ERC20.sol\":10536:10666  if (currentAllowance < value) {... */\n              iszero\n              tag_91\n              jumpi\n                /* \"@openzeppelin/contracts/token/ERC20/ERC20.sol\":10591:10651  ERC20InsufficientAllowance(spender, currentAllowance, value) */\n              mload(0x40)\n              shl(0xe1, 0x7dc7a0d9)\n              dup2\n              mstore\n              sub(shl(0xa0, 0x01), 0x01)\n                /* \"#utility.yul\":2923:2955   */\n              dup5\n              and\n                /* \"@openzeppelin/contracts/token/ERC20/ERC20.sol\":10591:10651  ERC20InsufficientAllowance(spender, currentAllowance, value) */\n              0x04\n              dup3\n              add\n                /* \"#utility.yul\":2905:2956   */\n              mstore\n                /* \"#utility.yul\":2972:2990   */\n              0x24\n              dup2\n              add\n                /* \"#utility.yul\":2965:2999   */\n              dup3\n              swap1\n              mstore\n                /* \"#utility.yul\":3015:3033   */\n              0x44\n              dup2\n              add\n                /* \"#utility.yul\":3008:3042   */\n              dup4\n              swap1\n              mstore\n                /* \"#utility.yul\":2878:2896   */\n              0x64\n              add\n                /* \"@openzeppelin/contracts/token/ERC20/ERC20.sol\":10591:10651  ERC20InsufficientAllowance(spender, currentAllowance, value) */\n            tag_92:\n              mload(0x40)\n              dup1\n              swap2\n              sub\n              swap1\n              revert\n                /* \"@openzeppelin/contracts/token/ERC20/ERC20.sol\":10536:10666  if (currentAllowance < value) {... */\n            tag_91:\n                /* \"@openzeppelin/contracts/token/ERC20/ERC20.sol\":10707:10764  _approve(owner, spender, currentAllowance - value, false) */\n              tag_94\n                /* \"@openzeppelin/contracts/token/ERC20/ERC20.sol\":10716:10721  owner */\n              dup5\n                /* \"@openzeppelin/contracts/token/ERC20/ERC20.sol\":10723:10730  spender */\n              dup5\n                /* \"@openzeppelin/contracts/token/ERC20/ERC20.sol\":10751:10756  value */\n              dup5\n                /* \"@openzeppelin/contracts/token/ERC20/ERC20.sol\":10732:10748  currentAllowance */\n              dup5\n                /* \"@openzeppelin/contracts/token/ERC20/ERC20.sol\":10732:10756  currentAllowance - value */\n              sub\n                /* \"@openzeppelin/contracts/token/ERC20/ERC20.sol\":10758:10763  false */\n              0x00\n                /* \"@openzeppelin/contracts/token/ERC20/ERC20.sol\":10707:10715  _approve */\n              tag_87\n                /* \"@openzeppelin/contracts/token/ERC20/ERC20.sol\":10707:10764  _approve(owner, spender, currentAllowance - value, false) */\n              jump\t// in\n            tag_94:\n                /* \"@openzeppelin/contracts/token/ERC20/ERC20.sol\":10408:10795  {... */\n              pop\n                /* \"@openzeppelin/contracts/token/ERC20/ERC20.sol\":10319:10795  function _spendAllowance(address owner, address spender, uint256 value) internal virtual {... */\n              pop\n              pop\n              pop\n              jump\t// out\n                /* \"@openzeppelin/contracts/token/ERC20/ERC20.sol\":5297:5597  function _transfer(address from, address to, uint256 value) internal {... */\n            tag_71:\n              sub(shl(0xa0, 0x01), 0x01)\n                /* \"@openzeppelin/contracts/token/ERC20/ERC20.sol\":5380:5398  from == address(0) */\n              dup4\n              and\n                /* \"@openzeppelin/contracts/token/ERC20/ERC20.sol\":5376:5462  if (from == address(0)) {... */\n              tag_96\n              jumpi\n                /* \"@openzeppelin/contracts/token/ERC20/ERC20.sol\":5421:5451  ERC20InvalidSender(address(0)) */\n              mload(0x40)\n              shl(0xe1, 0x4b637e8f)\n              dup2\n              mstore\n                /* \"@openzeppelin/contracts/token/ERC20/ERC20.sol\":5448:5449  0 */\n              0x00\n                /* \"@openzeppelin/contracts/token/ERC20/ERC20.sol\":5421:5451  ERC20InvalidSender(address(0)) */\n              0x04\n              dup3\n              add\n                /* \"#utility.yul\":3199:3250   */\n              mstore\n                /* \"#utility.yul\":3172:3190   */\n              0x24\n              add\n                /* \"@openzeppelin/contracts/token/ERC20/ERC20.sol\":5421:5451  ERC20InvalidSender(address(0)) */\n              tag_92\n                /* \"#utility.yul\":3053:3256   */\n              jump\n                /* \"@openzeppelin/contracts/token/ERC20/ERC20.sol\":5376:5462  if (from == address(0)) {... */\n            tag_96:\n              sub(shl(0xa0, 0x01), 0x01)\n                /* \"@openzeppelin/contracts/token/ERC20/ERC20.sol\":5475:5491  to == address(0) */\n              dup3\n              and\n                /* \"@openzeppelin/contracts/token/ERC20/ERC20.sol\":5471:5557  if (to == address(0)) {... */\n              tag_99\n              jumpi\n                /* \"@openzeppelin/contracts/token/ERC20/ERC20.sol\":5514:5546  ERC20InvalidReceiver(address(0)) */\n              mload(0x40)\n              shl(0xe0, 0xec442f05)\n              dup2\n              mstore\n                /* \"@openzeppelin/contracts/token/ERC20/ERC20.sol\":5543:5544  0 */\n              0x00\n                /* \"@openzeppelin/contracts/token/ERC20/ERC20.sol\":5514:5546  ERC20InvalidReceiver(address(0)) */\n              0x04\n              dup3\n              add\n                /* \"#utility.yul\":3199:3250   */\n              mstore\n                /* \"#utility.yul\":3172:3190   */\n              0x24\n              add\n                /* \"@openzeppelin/contracts/token/ERC20/ERC20.sol\":5514:5546  ERC20InvalidReceiver(address(0)) */\n              tag_92\n                /* \"#utility.yul\":3053:3256   */\n              jump\n                /* \"@openzeppelin/contracts/token/ERC20/ERC20.sol\":5471:5557  if (to == address(0)) {... */\n            tag_99:\n                /* \"@openzeppelin/contracts/token/ERC20/ERC20.sol\":5566:5590  _update(from, to, value) */\n              tag_86\n                /* \"@openzeppelin/contracts/token/ERC20/ERC20.sol\":5574:5578  from */\n              dup4\n                /* \"@openzeppelin/contracts/token/ERC20/ERC20.sol\":5580:5582  to */\n              dup4\n                /* \"@openzeppelin/contracts/token/ERC20/ERC20.sol\":5584:5589  value */\n              dup4\n                /* \"@openzeppelin/contracts/token/ERC20/ERC20.sol\":5566:5573  _update */\n              tag_102\n                /* \"@openzeppelin/contracts/token/ERC20/ERC20.sol\":5566:5590  _update(from, to, value) */\n              jump\t// in\n                /* \"@openzeppelin/contracts/token/ERC20/ERC20.sol\":9605:10037  function _approve(address owner, address spender, uint256 value, bool emitEvent) internal virtual {... */\n            tag_87:\n              sub(shl(0xa0, 0x01), 0x01)\n                /* \"@openzeppelin/contracts/token/ERC20/ERC20.sol\":9717:9736  owner == address(0) */\n              dup5\n              and\n                /* \"@openzeppelin/contracts/token/ERC20/ERC20.sol\":9713:9802  if (owner == address(0)) {... */\n              tag_104\n              jumpi\n                /* \"@openzeppelin/contracts/token/ERC20/ERC20.sol\":9759:9791  ERC20InvalidApprover(address(0)) */\n              mload(0x40)\n              shl(0xe0, 0xe602df05)\n              dup2\n              mstore\n                /* \"@openzeppelin/contracts/token/ERC20/ERC20.sol\":9788:9789  0 */\n              0x00\n                /* \"@openzeppelin/contracts/token/ERC20/ERC20.sol\":9759:9791  ERC20InvalidApprover(address(0)) */\n              0x04\n              dup3\n              add\n                /* \"#utility.yul\":3199:3250   */\n              mstore\n                /* \"#utility.yul\":3172:3190   */\n              0x24\n              add\n                /* \"@openzeppelin/contracts/token/ERC20/ERC20.sol\":9759:9791  ERC20InvalidApprover(address(0)) */\n              tag_92\n                /* \"#utility.yul\":3053:3256   */\n              jump\n                /* \"@openzeppelin/contracts/token/ERC20/ERC20.sol\":9713:9802  if (owner == address(0)) {... */\n            tag_104:\n              sub(shl(0xa0, 0x01), 0x01)\n                /* \"@openzeppelin/contracts/token/ERC20/ERC20.sol\":9815:9836  spender == address(0) */\n              dup4\n              and\n                /* \"@openzeppelin/contracts/token/ERC20/ERC20.sol\":9811:9901  if (spender == address(0)) {... */\n              tag_106\n              jumpi\n                /* \"@openzeppelin/contracts/token/ERC20/ERC20.sol\":9859:9890  ERC20InvalidSpender(address(0)) */\n              mload(0x40)\n              shl(0xe1, 0x4a1406b1)\n              dup2\n              mstore\n                /* \"@openzeppelin/contracts/token/ERC20/ERC20.sol\":9887:9888  0 */\n              0x00\n                /* \"@openzeppelin/contracts/token/ERC20/ERC20.sol\":9859:9890  ERC20InvalidSpender(address(0)) */\n              0x04\n              dup3\n              add\n                /* \"#utility.yul\":3199:3250   */\n              mstore\n                /* \"#utility.yul\":3172:3190   */\n              0x24\n              add\n                /* \"@openzeppelin/contracts/token/ERC20/ERC20.sol\":9859:9890  ERC20InvalidSpender(address(0)) */\n              tag_92\n                /* \"#utility.yul\":3053:3256   */\n              jump\n                /* \"@openzeppelin/contracts/token/ERC20/ERC20.sol\":9811:9901  if (spender == address(0)) {... */\n            tag_106:\n              sub(shl(0xa0, 0x01), 0x01)\n                /* \"@openzeppelin/contracts/token/ERC20/ERC20.sol\":9910:9928  _allowances[owner] */\n              dup1\n              dup6\n              and\n              0x00\n              swap1\n              dup2\n              mstore\n                /* \"@openzeppelin/contracts/token/ERC20/ERC20.sol\":9910:9921  _allowances */\n              0x01\n                /* \"@openzeppelin/contracts/token/ERC20/ERC20.sol\":9910:9928  _allowances[owner] */\n              0x20\n              swap1\n              dup2\n              mstore\n              0x40\n              dup1\n              dup4\n              keccak256\n                /* \"@openzeppelin/contracts/token/ERC20/ERC20.sol\":9910:9937  _allowances[owner][spender] */\n              swap4\n              dup8\n              and\n              dup4\n              mstore\n              swap3\n              swap1\n              mstore\n              keccak256\n                /* \"@openzeppelin/contracts/token/ERC20/ERC20.sol\":9910:9945  _allowances[owner][spender] = value */\n              dup3\n              swap1\n              sstore\n                /* \"@openzeppelin/contracts/token/ERC20/ERC20.sol\":9955:10031  if (emitEvent) {... */\n              dup1\n              iszero\n              tag_94\n              jumpi\n                /* \"@openzeppelin/contracts/token/ERC20/ERC20.sol\":10005:10012  spender */\n              dup3\n              sub(shl(0xa0, 0x01), 0x01)\n                /* \"@openzeppelin/contracts/token/ERC20/ERC20.sol\":9989:10020  Approval(owner, spender, value) */\n              and\n                /* \"@openzeppelin/contracts/token/ERC20/ERC20.sol\":9998:10003  owner */\n              dup5\n              sub(shl(0xa0, 0x01), 0x01)\n                /* \"@openzeppelin/contracts/token/ERC20/ERC20.sol\":9989:10020  Approval(owner, spender, value) */\n              and\n              0x8c5be1e5ebec7d5bd14f71427d1e84f3dd0314c0f7b2291e5b200ac8c7c3b925\n                /* \"@openzeppelin/contracts/token/ERC20/ERC20.sol\":10014:10019  value */\n              dup5\n                /* \"@openzeppelin/contracts/token/ERC20/ERC20.sol\":9989:10020  Approval(owner, spender, value) */\n              mload(0x40)\n              tag_109\n              swap2\n                /* \"#utility.yul\":1258:1283   */\n              dup2\n              mstore\n                /* \"#utility.yul\":1246:1248   */\n              0x20\n                /* \"#utility.yul\":1231:1249   */\n              add\n              swap1\n                /* \"#utility.yul\":1112:1289   */\n              jump\n                /* \"@openzeppelin/contracts/token/ERC20/ERC20.sol\":9989:10020  Approval(owner, spender, value) */\n            tag_109:\n              mload(0x40)\n              dup1\n              swap2\n              sub\n              swap1\n              log3\n                /* \"@openzeppelin/contracts/token/ERC20/ERC20.sol\":9605:10037  function _approve(address owner, address spender, uint256 value, bool emitEvent) internal virtual {... */\n              pop\n              pop\n              pop\n              pop\n              jump\t// out\n                /* \"@openzeppelin/contracts/token/ERC20/ERC20.sol\":5912:7019  function _update(address from, address to, uint256 value) internal virtual {... */\n            tag_102:\n              sub(shl(0xa0, 0x01), 0x01)\n                /* \"@openzeppelin/contracts/token/ERC20/ERC20.sol\":6001:6019  from == address(0) */\n              dup4\n              and\n                /* \"@openzeppelin/contracts/token/ERC20/ERC20.sol\":5997:6537  if (from == address(0)) {... */\n              tag_111\n              jumpi\n                /* \"@openzeppelin/contracts/token/ERC20/ERC20.sol\":6153:6158  value */\n              dup1\n                /* \"@openzeppelin/contracts/token/ERC20/ERC20.sol\":6137:6149  _totalSupply */\n              0x02\n              0x00\n                /* \"@openzeppelin/contracts/token/ERC20/ERC20.sol\":6137:6158  _totalSupply += value */\n              dup3\n              dup3\n              sload\n              tag_112\n              swap2\n              swap1\n              tag_113\n              jump\t// in\n            tag_112:\n              swap1\n              swap2\n              sstore\n              pop\n                /* \"@openzeppelin/contracts/token/ERC20/ERC20.sol\":5997:6537  if (from == address(0)) {... */\n              tag_114\n              swap1\n              pop\n              jump\n            tag_111:\n              sub(shl(0xa0, 0x01), 0x01)\n                /* \"@openzeppelin/contracts/token/ERC20/ERC20.sol\":6211:6226  _balances[from] */\n              dup4\n              and\n                /* \"@openzeppelin/contracts/token/ERC20/ERC20.sol\":6189:6208  uint256 fromBalance */\n              0x00\n                /* \"@openzeppelin/contracts/token/ERC20/ERC20.sol\":6211:6226  _balances[from] */\n              swap1\n              dup2\n              mstore\n              0x20\n              dup2\n              swap1\n              mstore\n              0x40\n              swap1\n              keccak256\n              sload\n                /* \"@openzeppelin/contracts/token/ERC20/ERC20.sol\":6244:6263  fromBalance < value */\n              dup2\n              dup2\n              lt\n                /* \"@openzeppelin/contracts/token/ERC20/ERC20.sol\":6240:6355  if (fromBalance < value) {... */\n              iszero\n              tag_115\n              jumpi\n                /* \"@openzeppelin/contracts/token/ERC20/ERC20.sol\":6290:6340  ERC20InsufficientBalance(from, fromBalance, value) */\n              mload(0x40)\n              shl(0xe2, 0x391434e3)\n              dup2\n              mstore\n              sub(shl(0xa0, 0x01), 0x01)\n                /* \"#utility.yul\":2923:2955   */\n              dup6\n              and\n                /* \"@openzeppelin/contracts/token/ERC20/ERC20.sol\":6290:6340  ERC20InsufficientBalance(from, fromBalance, value) */\n              0x04\n              dup3\n              add\n                /* \"#utility.yul\":2905:2956   */\n              mstore\n                /* \"#utility.yul\":2972:2990   */\n              0x24\n              dup2\n              add\n                /* \"#utility.yul\":2965:2999   */\n              dup3\n              swap1\n              mstore\n                /* \"#utility.yul\":3015:3033   */\n              0x44\n              dup2\n              add\n                /* \"#utility.yul\":3008:3042   */\n              dup4\n              swap1\n              mstore\n                /* \"#utility.yul\":2878:2896   */\n              0x64\n              add\n                /* \"@openzeppelin/contracts/token/ERC20/ERC20.sol\":6290:6340  ERC20InsufficientBalance(from, fromBalance, value) */\n              tag_92\n                /* \"#utility.yul\":2703:3048   */\n              jump\n                /* \"@openzeppelin/contracts/token/ERC20/ERC20.sol\":6240:6355  if (fromBalance < value) {... */\n            tag_115:\n              sub(shl(0xa0, 0x01), 0x01)\n                /* \"@openzeppelin/contracts/token/ERC20/ERC20.sol\":6475:6490  _balances[from] */\n              dup5\n              and\n                /* \"@openzeppelin/contracts/token/ERC20/ERC20.sol\":6475:6484  _balances */\n              0x00\n                /* \"@openzeppelin/contracts/token/ERC20/ERC20.sol\":6475:6490  _balances[from] */\n              swap1\n              dup2\n              mstore\n              0x20\n              dup2\n              swap1\n              mstore\n              0x40\n              swap1\n              keccak256\n                /* \"@openzeppelin/contracts/token/ERC20/ERC20.sol\":6493:6512  fromBalance - value */\n              swap1\n              dup3\n              swap1\n              sub\n                /* \"@openzeppelin/contracts/token/ERC20/ERC20.sol\":6475:6512  _balances[from] = fromBalance - value */\n              swap1\n              sstore\n                /* \"@openzeppelin/contracts/token/ERC20/ERC20.sol\":5997:6537  if (from == address(0)) {... */\n            tag_114:\n              sub(shl(0xa0, 0x01), 0x01)\n                /* \"@openzeppelin/contracts/token/ERC20/ERC20.sol\":6551:6567  to == address(0) */\n              dup3\n              and\n                /* \"@openzeppelin/contracts/token/ERC20/ERC20.sol\":6547:6972  if (to == address(0)) {... */\n              tag_117\n              jumpi\n                /* \"@openzeppelin/contracts/token/ERC20/ERC20.sol\":6714:6726  _totalSupply */\n              0x02\n                /* \"@openzeppelin/contracts/token/ERC20/ERC20.sol\":6714:6735  _totalSupply -= value */\n              dup1\n              sload\n              dup3\n              swap1\n              sub\n              swap1\n              sstore\n                /* \"@openzeppelin/contracts/token/ERC20/ERC20.sol\":6547:6972  if (to == address(0)) {... */\n              jump(tag_118)\n            tag_117:\n              sub(shl(0xa0, 0x01), 0x01)\n                /* \"@openzeppelin/contracts/token/ERC20/ERC20.sol\":6925:6938  _balances[to] */\n              dup3\n              and\n                /* \"@openzeppelin/contracts/token/ERC20/ERC20.sol\":6925:6934  _balances */\n              0x00\n                /* \"@openzeppelin/contracts/token/ERC20/ERC20.sol\":6925:6938  _balances[to] */\n              swap1\n              dup2\n              mstore\n              0x20\n              dup2\n              swap1\n              mstore\n              0x40\n              swap1\n              keccak256\n                /* \"@openzeppelin/contracts/token/ERC20/ERC20.sol\":6925:6947  _balances[to] += value */\n              dup1\n              sload\n              dup3\n              add\n              swap1\n              sstore\n                /* \"@openzeppelin/contracts/token/ERC20/ERC20.sol\":6547:6972  if (to == address(0)) {... */\n            tag_118:\n                /* \"@openzeppelin/contracts/token/ERC20/ERC20.sol\":7002:7004  to */\n              dup2\n              sub(shl(0xa0, 0x01), 0x01)\n                /* \"@openzeppelin/contracts/token/ERC20/ERC20.sol\":6987:7012  Transfer(from, to, value) */\n              and\n                /* \"@openzeppelin/contracts/token/ERC20/ERC20.sol\":6996:7000  from */\n              dup4\n              sub(shl(0xa0, 0x01), 0x01)\n                /* \"@openzeppelin/contracts/token/ERC20/ERC20.sol\":6987:7012  Transfer(from, to, value) */\n              and\n              0xddf252ad1be2c89b69c2b068fc378daa952ba7f163c4a11628f55a4df523b3ef\n                /* \"@openzeppelin/contracts/token/ERC20/ERC20.sol\":7006:7011  value */\n              dup4\n                /* \"@openzeppelin/contracts/token/ERC20/ERC20.sol\":6987:7012  Transfer(from, to, value) */\n              mload(0x40)\n              tag_119\n              swap2\n                /* \"#utility.yul\":1258:1283   */\n              dup2\n              mstore\n                /* \"#utility.yul\":1246:1248   */\n              0x20\n                /* \"#utility.yul\":1231:1249   */\n              add\n              swap1\n                /* \"#utility.yul\":1112:1289   */\n              jump\n                /* \"@openzeppelin/contracts/token/ERC20/ERC20.sol\":6987:7012  Transfer(from, to, value) */\n            tag_119:\n              mload(0x40)\n              dup1\n              swap2\n              sub\n              swap1\n              log3\n                /* \"@openzeppelin/contracts/token/ERC20/ERC20.sol\":5912:7019  function _update(address from, address to, uint256 value) internal virtual {... */\n              pop\n              pop\n              pop\n              jump\t// out\n                /* \"#utility.yul\":14:432   */\n            tag_16:\n                /* \"#utility.yul\":163:165   */\n              0x20\n                /* \"#utility.yul\":152:161   */\n              dup2\n                /* \"#utility.yul\":145:166   */\n              mstore\n                /* \"#utility.yul\":126:130   */\n              0x00\n                /* \"#utility.yul\":195:201   */\n              dup3\n                /* \"#utility.yul\":189:202   */\n              mload\n                /* \"#utility.yul\":238:244   */\n              dup1\n                /* \"#utility.yul\":233:235   */\n              0x20\n                /* \"#utility.yul\":222:231   */\n              dup5\n                /* \"#utility.yul\":218:236   */\n              add\n                /* \"#utility.yul\":211:245   */\n              mstore\n                /* \"#utility.yul\":297:303   */\n              dup1\n                /* \"#utility.yul\":292:294   */\n              0x20\n                /* \"#utility.yul\":284:290   */\n              dup6\n                /* \"#utility.yul\":280:295   */\n              add\n                /* \"#utility.yul\":275:277   */\n              0x40\n                /* \"#utility.yul\":264:273   */\n              dup6\n                /* \"#utility.yul\":260:278   */\n              add\n                /* \"#utility.yul\":254:304   */\n              mcopy\n                /* \"#utility.yul\":353:354   */\n              0x00\n                /* \"#utility.yul\":348:350   */\n              0x40\n                /* \"#utility.yul\":339:345   */\n              dup3\n                /* \"#utility.yul\":328:337   */\n              dup6\n                /* \"#utility.yul\":324:346   */\n              add\n                /* \"#utility.yul\":320:351   */\n              add\n                /* \"#utility.yul\":313:355   */\n              mstore\n                /* \"#utility.yul\":423:425   */\n              0x40\n                /* \"#utility.yul\":416:418   */\n              0x1f\n                /* \"#utility.yul\":412:419   */\n              not\n                /* \"#utility.yul\":407:409   */\n              0x1f\n                /* \"#utility.yul\":399:405   */\n              dup4\n                /* \"#utility.yul\":395:410   */\n              add\n                /* \"#utility.yul\":391:420   */\n              and\n                /* \"#utility.yul\":380:389   */\n              dup5\n                /* \"#utility.yul\":376:421   */\n              add\n                /* \"#utility.yul\":372:426   */\n              add\n                /* \"#utility.yul\":364:426   */\n              swap2\n              pop\n              pop\n                /* \"#utility.yul\":14:432   */\n              swap3\n              swap2\n              pop\n              pop\n              jump\t// out\n                /* \"#utility.yul\":437:610   */\n            tag_120:\n                /* \"#utility.yul\":505:525   */\n              dup1\n              calldataload\n              sub(shl(0xa0, 0x01), 0x01)\n                /* \"#utility.yul\":554:585   */\n              dup2\n              and\n                /* \"#utility.yul\":544:586   */\n              dup2\n              eq\n                /* \"#utility.yul\":534:604   */\n              tag_124\n              jumpi\n                /* \"#utility.yul\":600:601   */\n              0x00\n                /* \"#utility.yul\":597:598   */\n              0x00\n                /* \"#utility.yul\":590:602   */\n              revert\n                /* \"#utility.yul\":534:604   */\n            tag_124:\n                /* \"#utility.yul\":437:610   */\n              swap2\n              swap1\n              pop\n              jump\t// out\n                /* \"#utility.yul\":615:915   */\n            tag_19:\n                /* \"#utility.yul\":683:689   */\n              0x00\n                /* \"#utility.yul\":691:697   */\n              0x00\n                /* \"#utility.yul\":744:746   */\n              0x40\n                /* \"#utility.yul\":732:741   */\n              dup4\n                /* \"#utility.yul\":723:730   */\n              dup6\n                /* \"#utility.yul\":719:742   */\n              sub\n                /* \"#utility.yul\":715:747   */\n              slt\n                /* \"#utility.yul\":712:764   */\n              iszero\n              tag_126\n              jumpi\n                /* \"#utility.yul\":760:761   */\n              0x00\n                /* \"#utility.yul\":757:758   */\n              0x00\n                /* \"#utility.yul\":750:762   */\n              revert\n                /* \"#utility.yul\":712:764   */\n            tag_126:\n                /* \"#utility.yul\":783:812   */\n              tag_127\n                /* \"#utility.yul\":802:811   */\n              dup4\n                /* \"#utility.yul\":783:812   */\n              tag_120\n              jump\t// in\n            tag_127:\n                /* \"#utility.yul\":773:812   */\n              swap5\n                /* \"#utility.yul\":881:883   */\n              0x20\n                /* \"#utility.yul\":866:884   */\n              swap4\n              swap1\n              swap4\n              add\n                /* \"#utility.yul\":853:885   */\n              calldataload\n              swap4\n              pop\n              pop\n              pop\n                /* \"#utility.yul\":615:915   */\n              jump\t// out\n                /* \"#utility.yul\":1294:1668   */\n            tag_29:\n                /* \"#utility.yul\":1371:1377   */\n              0x00\n                /* \"#utility.yul\":1379:1385   */\n              0x00\n                /* \"#utility.yul\":1387:1393   */\n              0x00\n                /* \"#utility.yul\":1440:1442   */\n              0x60\n                /* \"#utility.yul\":1428:1437   */\n              dup5\n                /* \"#utility.yul\":1419:1426   */\n              dup7\n                /* \"#utility.yul\":1415:1438   */\n              sub\n                /* \"#utility.yul\":1411:1443   */\n              slt\n                /* \"#utility.yul\":1408:1460   */\n              iszero\n              tag_131\n              jumpi\n                /* \"#utility.yul\":1456:1457   */\n              0x00\n                /* \"#utility.yul\":1453:1454   */\n              0x00\n                /* \"#utility.yul\":1446:1458   */\n              revert\n                /* \"#utility.yul\":1408:1460   */\n            tag_131:\n                /* \"#utility.yul\":1479:1508   */\n              tag_132\n                /* \"#utility.yul\":1498:1507   */\n              dup5\n                /* \"#utility.yul\":1479:1508   */\n              tag_120\n              jump\t// in\n            tag_132:\n                /* \"#utility.yul\":1469:1508   */\n              swap3\n              pop\n                /* \"#utility.yul\":1527:1565   */\n              tag_133\n                /* \"#utility.yul\":1561:1563   */\n              0x20\n                /* \"#utility.yul\":1550:1559   */\n              dup6\n                /* \"#utility.yul\":1546:1564   */\n              add\n                /* \"#utility.yul\":1527:1565   */\n              tag_120\n              jump\t// in\n            tag_133:\n                /* \"#utility.yul\":1294:1668   */\n              swap3\n              swap6\n                /* \"#utility.yul\":1517:1565   */\n              swap3\n              swap5\n              pop\n              pop\n              pop\n                /* \"#utility.yul\":1634:1636   */\n              0x40\n                /* \"#utility.yul\":1619:1637   */\n              swap2\n              swap1\n              swap2\n              add\n                /* \"#utility.yul\":1606:1638   */\n              calldataload\n              swap1\n                /* \"#utility.yul\":1294:1668   */\n              jump\t// out\n                /* \"#utility.yul\":1862:2048   */\n            tag_38:\n                /* \"#utility.yul\":1921:1927   */\n              0x00\n                /* \"#utility.yul\":1974:1976   */\n              0x20\n                /* \"#utility.yul\":1962:1971   */\n              dup3\n                /* \"#utility.yul\":1953:1960   */\n              dup5\n                /* \"#utility.yul\":1949:1972   */\n              sub\n                /* \"#utility.yul\":1945:1977   */\n              slt\n                /* \"#utility.yul\":1942:1994   */\n              iszero\n              tag_136\n              jumpi\n                /* \"#utility.yul\":1990:1991   */\n              0x00\n                /* \"#utility.yul\":1987:1988   */\n              0x00\n                /* \"#utility.yul\":1980:1992   */\n              revert\n                /* \"#utility.yul\":1942:1994   */\n            tag_136:\n                /* \"#utility.yul\":2013:2042   */\n              tag_137\n                /* \"#utility.yul\":2032:2041   */\n              dup3\n                /* \"#utility.yul\":2013:2042   */\n              tag_120\n              jump\t// in\n            tag_137:\n                /* \"#utility.yul\":2003:2042   */\n              swap4\n                /* \"#utility.yul\":1862:2048   */\n              swap3\n              pop\n              pop\n              pop\n              jump\t// out\n                /* \"#utility.yul\":2053:2313   */\n            tag_50:\n                /* \"#utility.yul\":2121:2127   */\n              0x00\n                /* \"#utility.yul\":2129:2135   */\n              0x00\n                /* \"#utility.yul\":2182:2184   */\n              0x40\n                /* \"#utility.yul\":2170:2179   */\n              dup4\n                /* \"#utility.yul\":2161:2168   */\n              dup6\n                /* \"#utility.yul\":2157:2180   */\n              sub\n                /* \"#utility.yul\":2153:2185   */\n              slt\n                /* \"#utility.yul\":2150:2202   */\n              iszero\n              tag_139\n              jumpi\n                /* \"#utility.yul\":2198:2199   */\n              0x00\n                /* \"#utility.yul\":2195:2196   */\n              0x00\n                /* \"#utility.yul\":2188:2200   */\n              revert\n                /* \"#utility.yul\":2150:2202   */\n            tag_139:\n                /* \"#utility.yul\":2221:2250   */\n              tag_140\n                /* \"#utility.yul\":2240:2249   */\n              dup4\n                /* \"#utility.yul\":2221:2250   */\n              tag_120\n              jump\t// in\n            tag_140:\n                /* \"#utility.yul\":2211:2250   */\n              swap2\n              pop\n                /* \"#utility.yul\":2269:2307   */\n              tag_141\n                /* \"#utility.yul\":2303:2305   */\n              0x20\n                /* \"#utility.yul\":2292:2301   */\n              dup5\n                /* \"#utility.yul\":2288:2306   */\n              add\n                /* \"#utility.yul\":2269:2307   */\n              tag_120\n              jump\t// in\n            tag_141:\n                /* \"#utility.yul\":2259:2307   */\n              swap1\n              pop\n                /* \"#utility.yul\":2053:2313   */\n              swap3\n              pop\n              swap3\n              swap1\n              pop\n              jump\t// out\n                /* \"#utility.yul\":2318:2698   */\n            tag_55:\n                /* \"#utility.yul\":2397:2398   */\n              0x01\n                /* \"#utility.yul\":2393:2405   */\n              dup2\n              dup2\n              shr\n              swap1\n                /* \"#utility.yul\":2440:2452   */\n              dup3\n              and\n              dup1\n                /* \"#utility.yul\":2461:2522   */\n              tag_143\n              jumpi\n                /* \"#utility.yul\":2515:2519   */\n              0x7f\n                /* \"#utility.yul\":2507:2513   */\n              dup3\n                /* \"#utility.yul\":2503:2520   */\n              and\n                /* \"#utility.yul\":2493:2520   */\n              swap2\n              pop\n                /* \"#utility.yul\":2461:2522   */\n            tag_143:\n                /* \"#utility.yul\":2568:2570   */\n              0x20\n                /* \"#utility.yul\":2560:2566   */\n              dup3\n                /* \"#utility.yul\":2557:2571   */\n              lt\n                /* \"#utility.yul\":2537:2555   */\n              dup2\n                /* \"#utility.yul\":2534:2572   */\n              sub\n                /* \"#utility.yul\":2531:2692   */\n              tag_144\n              jumpi\n                /* \"#utility.yul\":2614:2624   */\n              0x4e487b71\n                /* \"#utility.yul\":2609:2612   */\n              0xe0\n                /* \"#utility.yul\":2605:2625   */\n              shl\n                /* \"#utility.yul\":2602:2603   */\n              0x00\n                /* \"#utility.yul\":2595:2626   */\n              mstore\n                /* \"#utility.yul\":2649:2653   */\n              0x22\n                /* \"#utility.yul\":2646:2647   */\n              0x04\n                /* \"#utility.yul\":2639:2654   */\n              mstore\n                /* \"#utility.yul\":2677:2681   */\n              0x24\n                /* \"#utility.yul\":2674:2675   */\n              0x00\n                /* \"#utility.yul\":2667:2682   */\n              revert\n                /* \"#utility.yul\":2531:2692   */\n            tag_144:\n              pop\n                /* \"#utility.yul\":2318:2698   */\n              swap2\n              swap1\n              pop\n              jump\t// out\n                /* \"#utility.yul\":3261:3483   */\n            tag_113:\n                /* \"#utility.yul\":3326:3335   */\n              dup1\n              dup3\n              add\n                /* \"#utility.yul\":3347:3357   */\n              dup1\n              dup3\n              gt\n                /* \"#utility.yul\":3344:3477   */\n              iszero\n              tag_60\n              jumpi\n                /* \"#utility.yul\":3399:3409   */\n              0x4e487b71\n                /* \"#utility.yul\":3394:3397   */\n              0xe0\n                /* \"#utility.yul\":3390:3410   */\n              shl\n                /* \"#utility.yul\":3387:3388   */\n              0x00\n                /* \"#utility.yul\":3380:3411   */\n              mstore\n                /* \"#utility.yul\":3434:3438   */\n              0x11\n                /* \"#utility.yul\":3431:3432   */\n              0x04\n                /* \"#utility.yul\":3424:3439   */\n              mstore\n                /* \"#utility.yul\":3462:3466   */\n              0x24\n                /* \"#utility.yul\":3459:3460   */\n              0x00\n                /* \"#utility.yul\":3452:3467   */\n              revert\n\n            auxdata: 0xa26469706673582212209d4889de60d54c147629951e9b4e19eb6aa3e6772c1a1b845b7a1dfd6a951d8664736f6c634300081e0033\n        }\n    }\n\n    auxdata: 0xa2646970667358221220f3746969b98b3b7ee3d642eeaff7bc3a3cf9bf49ac0caebf9952570eb1b3cd3464736f6c634300081e0033\n}\n",
				"bytecode": {
					"linkReferences": {},
					"object": "6080604052348015600e575f5ffd5b506110d48061001c5f395ff3fe608060405234801561000f575f5ffd5b506004361061003f575f3560e01c80635b06053014610043578063622ae7aa14610058578063ec81aadb14610076575b5f5ffd5b610056610051366004610299565b6100a1565b005b610060610167565b60405161006d9190610307565b60405180910390f35b610089610084366004610352565b6101c6565b6040516001600160a01b03909116815260200161006d565b5f838383336040516100b2906101ed565b6100bf9493929190610397565b604051809103905ff0801580156100d8573d5f5f3e3d5ffd5b505f80546001810182559080527f290decd9548b62a8d60345a988386fc84ba6bc95484008f6362f93160ef3e5630180546001600160a01b0319166001600160a01b0383161790556040519091507f75d1eb2d61d7e210835bc16e78ac4d0e4f905c108a81852a6b68c4d46b4f40f3906101599083908790879087906103dd565b60405180910390a150505050565b60605f8054806020026020016040519081016040528092919081815260200182805480156101bc57602002820191905f5260205f20905b81546001600160a01b0316815260019091019060200180831161019e575b5050505050905090565b5f81815481106101d4575f80fd5b5f918252602090912001546001600160a01b0316905081565b610c7a8061042583390190565b634e487b7160e01b5f52604160045260245ffd5b5f82601f83011261021d575f5ffd5b813567ffffffffffffffff811115610237576102376101fa565b604051601f8201601f19908116603f0116810167ffffffffffffffff81118282101715610266576102666101fa565b60405281815283820160200185101561027d575f5ffd5b816020850160208301375f918101602001919091529392505050565b5f5f5f606084860312156102ab575f5ffd5b833567ffffffffffffffff8111156102c1575f5ffd5b6102cd8682870161020e565b935050602084013567ffffffffffffffff8111156102e9575f5ffd5b6102f58682870161020e565b93969395505050506040919091013590565b602080825282518282018190525f918401906040840190835b818110156103475783516001600160a01b0316835260209384019390920191600101610320565b509095945050505050565b5f60208284031215610362575f5ffd5b5035919050565b5f81518084528060208401602086015e5f602082860101526020601f19601f83011685010191505092915050565b608081525f6103a96080830187610369565b82810360208401526103bb8187610369565b604084019590955250506001600160a01b039190911660609091015292915050565b6001600160a01b03851681526080602082018190525f9061040090830186610369565b82810360408401526104128186610369565b9150508260608301529594505050505056fe608060405234801561000f575f5ffd5b50604051610c7a380380610c7a83398101604081905261002e91610286565b8383600361003c8382610397565b5060046100498282610397565b5050506100788161005e61008160201b60201c565b61006990600a61054a565b610073908561055f565b610086565b50505050610589565b601290565b6001600160a01b0382166100b45760405163ec442f0560e01b81525f60048201526024015b60405180910390fd5b6100bf5f83836100c3565b5050565b6001600160a01b0383166100ed578060025f8282546100e29190610576565b9091555061015d9050565b6001600160a01b0383165f908152602081905260409020548181101561013f5760405163391434e360e21b81526001600160a01b038516600482015260248101829052604481018390526064016100ab565b6001600160a01b0384165f9081526020819052604090209082900390555b6001600160a01b03821661017957600280548290039055610197565b6001600160a01b0382165f9081526020819052604090208054820190555b816001600160a01b0316836001600160a01b03167fddf252ad1be2c89b69c2b068fc378daa952ba7f163c4a11628f55a4df523b3ef836040516101dc91815260200190565b60405180910390a3505050565b634e487b7160e01b5f52604160045260245ffd5b5f82601f83011261020c575f5ffd5b81516001600160401b03811115610225576102256101e9565b604051601f8201601f19908116603f011681016001600160401b0381118282101715610253576102536101e9565b60405281815283820160200185101561026a575f5ffd5b8160208501602083015e5f918101602001919091529392505050565b5f5f5f5f60808587031215610299575f5ffd5b84516001600160401b038111156102ae575f5ffd5b6102ba878288016101fd565b602087015190955090506001600160401b038111156102d7575f5ffd5b6102e3878288016101fd565b60408701516060880151919550935090506001600160a01b0381168114610308575f5ffd5b939692955090935050565b600181811c9082168061032757607f821691505b60208210810361034557634e487b7160e01b5f52602260045260245ffd5b50919050565b601f82111561039257805f5260205f20601f840160051c810160208510156103705750805b601f840160051c820191505b8181101561038f575f815560010161037c565b50505b505050565b81516001600160401b038111156103b0576103b06101e9565b6103c4816103be8454610313565b8461034b565b6020601f8211600181146103f6575f83156103df5750848201515b5f19600385901b1c1916600184901b17845561038f565b5f84815260208120601f198516915b828110156104255787850151825560209485019460019092019101610405565b508482101561044257868401515f19600387901b60f8161c191681555b50505050600190811b01905550565b634e487b7160e01b5f52601160045260245ffd5b6001815b60018411156104a05780850481111561048457610484610451565b600184161561049257908102905b60019390931c928002610469565b935093915050565b5f826104b657506001610544565b816104c257505f610544565b81600181146104d857600281146104e2576104fe565b6001915050610544565b60ff8411156104f3576104f3610451565b50506001821b610544565b5060208310610133831016604e8410600b8410161715610521575081810a610544565b61052d5f198484610465565b805f190482111561054057610540610451565b0290505b92915050565b5f61055860ff8416836104a8565b9392505050565b808202811582820484141761054457610544610451565b8082018082111561054457610544610451565b6106e4806105965f395ff3fe608060405234801561000f575f5ffd5b5060043610610090575f3560e01c8063313ce56711610063578063313ce567146100fa57806370a082311461010957806395d89b4114610131578063a9059cbb14610139578063dd62ed3e1461014c575f5ffd5b806306fdde0314610094578063095ea7b3146100b257806318160ddd146100d557806323b872dd146100e7575b5f5ffd5b61009c610184565b6040516100a99190610554565b60405180910390f35b6100c56100c03660046105a4565b610214565b60405190151581526020016100a9565b6002545b6040519081526020016100a9565b6100c56100f53660046105cc565b61022d565b604051601281526020016100a9565b6100d9610117366004610606565b6001600160a01b03165f9081526020819052604090205490565b61009c610250565b6100c56101473660046105a4565b61025f565b6100d961015a366004610626565b6001600160a01b039182165f90815260016020908152604080832093909416825291909152205490565b60606003805461019390610657565b80601f01602080910402602001604051908101604052809291908181526020018280546101bf90610657565b801561020a5780601f106101e15761010080835404028352916020019161020a565b820191905f5260205f20905b8154815290600101906020018083116101ed57829003601f168201915b5050505050905090565b5f3361022181858561026c565b60019150505b92915050565b5f3361023a85828561027e565b6102458585856102ff565b506001949350505050565b60606004805461019390610657565b5f336102218185856102ff565b610279838383600161035c565b505050565b6001600160a01b038381165f908152600160209081526040808320938616835292905220545f198110156102f957818110156102eb57604051637dc7a0d960e11b81526001600160a01b038416600482015260248101829052604481018390526064015b60405180910390fd5b6102f984848484035f61035c565b50505050565b6001600160a01b03831661032857604051634b637e8f60e11b81525f60048201526024016102e2565b6001600160a01b0382166103515760405163ec442f0560e01b81525f60048201526024016102e2565b61027983838361042e565b6001600160a01b0384166103855760405163e602df0560e01b81525f60048201526024016102e2565b6001600160a01b0383166103ae57604051634a1406b160e11b81525f60048201526024016102e2565b6001600160a01b038085165f90815260016020908152604080832093871683529290522082905580156102f957826001600160a01b0316846001600160a01b03167f8c5be1e5ebec7d5bd14f71427d1e84f3dd0314c0f7b2291e5b200ac8c7c3b9258460405161042091815260200190565b60405180910390a350505050565b6001600160a01b038316610458578060025f82825461044d919061068f565b909155506104c89050565b6001600160a01b0383165f90815260208190526040902054818110156104aa5760405163391434e360e21b81526001600160a01b038516600482015260248101829052604481018390526064016102e2565b6001600160a01b0384165f9081526020819052604090209082900390555b6001600160a01b0382166104e457600280548290039055610502565b6001600160a01b0382165f9081526020819052604090208054820190555b816001600160a01b0316836001600160a01b03167fddf252ad1be2c89b69c2b068fc378daa952ba7f163c4a11628f55a4df523b3ef8360405161054791815260200190565b60405180910390a3505050565b602081525f82518060208401528060208501604085015e5f604082850101526040601f19601f83011684010191505092915050565b80356001600160a01b038116811461059f575f5ffd5b919050565b5f5f604083850312156105b5575f5ffd5b6105be83610589565b946020939093013593505050565b5f5f5f606084860312156105de575f5ffd5b6105e784610589565b92506105f560208501610589565b929592945050506040919091013590565b5f60208284031215610616575f5ffd5b61061f82610589565b9392505050565b5f5f60408385031215610637575f5ffd5b61064083610589565b915061064e60208401610589565b90509250929050565b600181811c9082168061066b57607f821691505b60208210810361068957634e487b7160e01b5f52602260045260245ffd5b50919050565b8082018082111561022757634e487b7160e01b5f52601160045260245ffdfea26469706673582212209d4889de60d54c147629951e9b4e19eb6aa3e6772c1a1b845b7a1dfd6a951d8664736f6c634300081e0033a2646970667358221220f3746969b98b3b7ee3d642eeaff7bc3a3cf9bf49ac0caebf9952570eb1b3cd3464736f6c634300081e0033",
					"opcodes": "PUSH1 0x80 PUSH1 0x40 MSTORE CALLVALUE DUP1 ISZERO PUSH1 0xE JUMPI PUSH0 PUSH0 REVERT JUMPDEST POP PUSH2 0x10D4 DUP1 PUSH2 0x1C PUSH0 CODECOPY PUSH0 RETURN INVALID PUSH1 0x80 PUSH1 0x40 MSTORE CALLVALUE DUP1 ISZERO PUSH2 0xF JUMPI PUSH0 PUSH0 REVERT JUMPDEST POP PUSH1 0x4 CALLDATASIZE LT PUSH2 0x3F JUMPI PUSH0 CALLDATALOAD PUSH1 0xE0 SHR DUP1 PUSH4 0x5B060530 EQ PUSH2 0x43 JUMPI DUP1 PUSH4 0x622AE7AA EQ PUSH2 0x58 JUMPI DUP1 PUSH4 0xEC81AADB EQ PUSH2 0x76 JUMPI JUMPDEST PUSH0 PUSH0 REVERT JUMPDEST PUSH2 0x56 PUSH2 0x51 CALLDATASIZE PUSH1 0x4 PUSH2 0x299 JUMP JUMPDEST PUSH2 0xA1 JUMP JUMPDEST STOP JUMPDEST PUSH2 0x60 PUSH2 0x167 JUMP JUMPDEST PUSH1 0x40 MLOAD PUSH2 0x6D SWAP2 SWAP1 PUSH2 0x307 JUMP JUMPDEST PUSH1 0x40 MLOAD DUP1 SWAP2 SUB SWAP1 RETURN JUMPDEST PUSH2 0x89 PUSH2 0x84 CALLDATASIZE PUSH1 0x4 PUSH2 0x352 JUMP JUMPDEST PUSH2 0x1C6 JUMP JUMPDEST PUSH1 0x40 MLOAD PUSH1 0x1 PUSH1 0x1 PUSH1 0xA0 SHL SUB SWAP1 SWAP2 AND DUP2 MSTORE PUSH1 0x20 ADD PUSH2 0x6D JUMP JUMPDEST PUSH0 DUP4 DUP4 DUP4 CALLER PUSH1 0x40 MLOAD PUSH2 0xB2 SWAP1 PUSH2 0x1ED JUMP JUMPDEST PUSH2 0xBF SWAP5 SWAP4 SWAP3 SWAP2 SWAP1 PUSH2 0x397 JUMP JUMPDEST PUSH1 0x40 MLOAD DUP1 SWAP2 SUB SWAP1 PUSH0 CREATE DUP1 ISZERO DUP1 ISZERO PUSH2 0xD8 JUMPI RETURNDATASIZE PUSH0 PUSH0 RETURNDATACOPY RETURNDATASIZE PUSH0 REVERT JUMPDEST POP PUSH0 DUP1 SLOAD PUSH1 0x1 DUP2 ADD DUP3 SSTORE SWAP1 DUP1 MSTORE PUSH32 0x290DECD9548B62A8D60345A988386FC84BA6BC95484008F6362F93160EF3E563 ADD DUP1 SLOAD PUSH1 0x1 PUSH1 0x1 PUSH1 0xA0 SHL SUB NOT AND PUSH1 0x1 PUSH1 0x1 PUSH1 0xA0 SHL SUB DUP4 AND OR SWAP1 SSTORE PUSH1 0x40 MLOAD SWAP1 SWAP2 POP PUSH32 0x75D1EB2D61D7E210835BC16E78AC4D0E4F905C108A81852A6B68C4D46B4F40F3 SWAP1 PUSH2 0x159 SWAP1 DUP4 SWAP1 DUP8 SWAP1 DUP8 SWAP1 DUP8 SWAP1 PUSH2 0x3DD JUMP JUMPDEST PUSH1 0x40 MLOAD DUP1 SWAP2 SUB SWAP1 LOG1 POP POP POP POP JUMP JUMPDEST PUSH1 0x60 PUSH0 DUP1 SLOAD DUP1 PUSH1 0x20 MUL PUSH1 0x20 ADD PUSH1 0x40 MLOAD SWAP1 DUP2 ADD PUSH1 0x40 MSTORE DUP1 SWAP3 SWAP2 SWAP1 DUP2 DUP2 MSTORE PUSH1 0x20 ADD DUP3 DUP1 SLOAD DUP1 ISZERO PUSH2 0x1BC JUMPI PUSH1 0x20 MUL DUP3 ADD SWAP2 SWAP1 PUSH0 MSTORE PUSH1 0x20 PUSH0 KECCAK256 SWAP1 JUMPDEST DUP2 SLOAD PUSH1 0x1 PUSH1 0x1 PUSH1 0xA0 SHL SUB AND DUP2 MSTORE PUSH1 0x1 SWAP1 SWAP2 ADD SWAP1 PUSH1 0x20 ADD DUP1 DUP4 GT PUSH2 0x19E JUMPI JUMPDEST POP POP POP POP POP SWAP1 POP SWAP1 JUMP JUMPDEST PUSH0 DUP2 DUP2 SLOAD DUP2 LT PUSH2 0x1D4 JUMPI PUSH0 DUP1 REVERT JUMPDEST PUSH0 SWAP2 DUP3 MSTORE PUSH1 0x20 SWAP1 SWAP2 KECCAK256 ADD SLOAD PUSH1 0x1 PUSH1 0x1 PUSH1 0xA0 SHL SUB AND SWAP1 POP DUP2 JUMP JUMPDEST PUSH2 0xC7A DUP1 PUSH2 0x425 DUP4 CODECOPY ADD SWAP1 JUMP JUMPDEST PUSH4 0x4E487B71 PUSH1 0xE0 SHL PUSH0 MSTORE PUSH1 0x41 PUSH1 0x4 MSTORE PUSH1 0x24 PUSH0 REVERT JUMPDEST PUSH0 DUP3 PUSH1 0x1F DUP4 ADD SLT PUSH2 0x21D JUMPI PUSH0 PUSH0 REVERT JUMPDEST DUP2 CALLDATALOAD PUSH8 0xFFFFFFFFFFFFFFFF DUP2 GT ISZERO PUSH2 0x237 JUMPI PUSH2 0x237 PUSH2 0x1FA JUMP JUMPDEST PUSH1 0x40 MLOAD PUSH1 0x1F DUP3 ADD PUSH1 0x1F NOT SWAP1 DUP2 AND PUSH1 0x3F ADD AND DUP2 ADD PUSH8 0xFFFFFFFFFFFFFFFF DUP2 GT DUP3 DUP3 LT OR ISZERO PUSH2 0x266 JUMPI PUSH2 0x266 PUSH2 0x1FA JUMP JUMPDEST PUSH1 0x40 MSTORE DUP2 DUP2 MSTORE DUP4 DUP3 ADD PUSH1 0x20 ADD DUP6 LT ISZERO PUSH2 0x27D JUMPI PUSH0 PUSH0 REVERT JUMPDEST DUP2 PUSH1 0x20 DUP6 ADD PUSH1 0x20 DUP4 ADD CALLDATACOPY PUSH0 SWAP2 DUP2 ADD PUSH1 0x20 ADD SWAP2 SWAP1 SWAP2 MSTORE SWAP4 SWAP3 POP POP POP JUMP JUMPDEST PUSH0 PUSH0 PUSH0 PUSH1 0x60 DUP5 DUP7 SUB SLT ISZERO PUSH2 0x2AB JUMPI PUSH0 PUSH0 REVERT JUMPDEST DUP4 CALLDATALOAD PUSH8 0xFFFFFFFFFFFFFFFF DUP2 GT ISZERO PUSH2 0x2C1 JUMPI PUSH0 PUSH0 REVERT JUMPDEST PUSH2 0x2CD DUP7 DUP3 DUP8 ADD PUSH2 0x20E JUMP JUMPDEST SWAP4 POP POP PUSH1 0x20 DUP5 ADD CALLDATALOAD PUSH8 0xFFFFFFFFFFFFFFFF DUP2 GT ISZERO PUSH2 0x2E9 JUMPI PUSH0 PUSH0 REVERT JUMPDEST PUSH2 0x2F5 DUP7 DUP3 DUP8 ADD PUSH2 0x20E JUMP JUMPDEST SWAP4 SWAP7 SWAP4 SWAP6 POP POP POP POP PUSH1 0x40 SWAP2 SWAP1 SWAP2 ADD CALLDATALOAD SWAP1 JUMP JUMPDEST PUSH1 0x20 DUP1 DUP3 MSTORE DUP3 MLOAD DUP3 DUP3 ADD DUP2 SWAP1 MSTORE PUSH0 SWAP2 DUP5 ADD SWAP1 PUSH1 0x40 DUP5 ADD SWAP1 DUP4 JUMPDEST DUP2 DUP2 LT ISZERO PUSH2 0x347 JUMPI DUP4 MLOAD PUSH1 0x1 PUSH1 0x1 PUSH1 0xA0 SHL SUB AND DUP4 MSTORE PUSH1 0x20 SWAP4 DUP5 ADD SWAP4 SWAP1 SWAP3 ADD SWAP2 PUSH1 0x1 ADD PUSH2 0x320 JUMP JUMPDEST POP SWAP1 SWAP6 SWAP5 POP POP POP POP POP JUMP JUMPDEST PUSH0 PUSH1 0x20 DUP3 DUP5 SUB SLT ISZERO PUSH2 0x362 JUMPI PUSH0 PUSH0 REVERT JUMPDEST POP CALLDATALOAD SWAP2 SWAP1 POP JUMP JUMPDEST PUSH0 DUP2 MLOAD DUP1 DUP5 MSTORE DUP1 PUSH1 0x20 DUP5 ADD PUSH1 0x20 DUP7 ADD MCOPY PUSH0 PUSH1 0x20 DUP3 DUP7 ADD ADD MSTORE PUSH1 0x20 PUSH1 0x1F NOT PUSH1 0x1F DUP4 ADD AND DUP6 ADD ADD SWAP2 POP POP SWAP3 SWAP2 POP POP JUMP JUMPDEST PUSH1 0x80 DUP2 MSTORE PUSH0 PUSH2 0x3A9 PUSH1 0x80 DUP4 ADD DUP8 PUSH2 0x369 JUMP JUMPDEST DUP3 DUP2 SUB PUSH1 0x20 DUP5 ADD MSTORE PUSH2 0x3BB DUP2 DUP8 PUSH2 0x369 JUMP JUMPDEST PUSH1 0x40 DUP5 ADD SWAP6 SWAP1 SWAP6 MSTORE POP POP PUSH1 0x1 PUSH1 0x1 PUSH1 0xA0 SHL SUB SWAP2 SWAP1 SWAP2 AND PUSH1 0x60 SWAP1 SWAP2 ADD MSTORE SWAP3 SWAP2 POP POP JUMP JUMPDEST PUSH1 0x1 PUSH1 0x1 PUSH1 0xA0 SHL SUB DUP6 AND DUP2 MSTORE PUSH1 0x80 PUSH1 0x20 DUP3 ADD DUP2 SWAP1 MSTORE PUSH0 SWAP1 PUSH2 0x400 SWAP1 DUP4 ADD DUP7 PUSH2 0x369 JUMP JUMPDEST DUP3 DUP2 SUB PUSH1 0x40 DUP5 ADD MSTORE PUSH2 0x412 DUP2 DUP7 PUSH2 0x369 JUMP JUMPDEST SWAP2 POP POP DUP3 PUSH1 0x60 DUP4 ADD MSTORE SWAP6 SWAP5 POP POP POP POP POP JUMP INVALID PUSH1 0x80 PUSH1 0x40 MSTORE CALLVALUE DUP1 ISZERO PUSH2 0xF JUMPI PUSH0 PUSH0 REVERT JUMPDEST POP PUSH1 0x40 MLOAD PUSH2 0xC7A CODESIZE SUB DUP1 PUSH2 0xC7A DUP4 CODECOPY DUP2 ADD PUSH1 0x40 DUP2 SWAP1 MSTORE PUSH2 0x2E SWAP2 PUSH2 0x286 JUMP JUMPDEST DUP4 DUP4 PUSH1 0x3 PUSH2 0x3C DUP4 DUP3 PUSH2 0x397 JUMP JUMPDEST POP PUSH1 0x4 PUSH2 0x49 DUP3 DUP3 PUSH2 0x397 JUMP JUMPDEST POP POP POP PUSH2 0x78 DUP2 PUSH2 0x5E PUSH2 0x81 PUSH1 0x20 SHL PUSH1 0x20 SHR JUMP JUMPDEST PUSH2 0x69 SWAP1 PUSH1 0xA PUSH2 0x54A JUMP JUMPDEST PUSH2 0x73 SWAP1 DUP6 PUSH2 0x55F JUMP JUMPDEST PUSH2 0x86 JUMP JUMPDEST POP POP POP POP PUSH2 0x589 JUMP JUMPDEST PUSH1 0x12 SWAP1 JUMP JUMPDEST PUSH1 0x1 PUSH1 0x1 PUSH1 0xA0 SHL SUB DUP3 AND PUSH2 0xB4 JUMPI PUSH1 0x40 MLOAD PUSH4 0xEC442F05 PUSH1 0xE0 SHL DUP2 MSTORE PUSH0 PUSH1 0x4 DUP3 ADD MSTORE PUSH1 0x24 ADD JUMPDEST PUSH1 0x40 MLOAD DUP1 SWAP2 SUB SWAP1 REVERT JUMPDEST PUSH2 0xBF PUSH0 DUP4 DUP4 PUSH2 0xC3 JUMP JUMPDEST POP POP JUMP JUMPDEST PUSH1 0x1 PUSH1 0x1 PUSH1 0xA0 SHL SUB DUP4 AND PUSH2 0xED JUMPI DUP1 PUSH1 0x2 PUSH0 DUP3 DUP3 SLOAD PUSH2 0xE2 SWAP2 SWAP1 PUSH2 0x576 JUMP JUMPDEST SWAP1 SWAP2 SSTORE POP PUSH2 0x15D SWAP1 POP JUMP JUMPDEST PUSH1 0x1 PUSH1 0x1 PUSH1 0xA0 SHL SUB DUP4 AND PUSH0 SWAP1 DUP2 MSTORE PUSH1 0x20 DUP2 SWAP1 MSTORE PUSH1 0x40 SWAP1 KECCAK256 SLOAD DUP2 DUP2 LT ISZERO PUSH2 0x13F JUMPI PUSH1 0x40 MLOAD PUSH4 0x391434E3 PUSH1 0xE2 SHL DUP2 MSTORE PUSH1 0x1 PUSH1 0x1 PUSH1 0xA0 SHL SUB DUP6 AND PUSH1 0x4 DUP3 ADD MSTORE PUSH1 0x24 DUP2 ADD DUP3 SWAP1 MSTORE PUSH1 0x44 DUP2 ADD DUP4 SWAP1 MSTORE PUSH1 0x64 ADD PUSH2 0xAB JUMP JUMPDEST PUSH1 0x1 PUSH1 0x1 PUSH1 0xA0 SHL SUB DUP5 AND PUSH0 SWAP1 DUP2 MSTORE PUSH1 0x20 DUP2 SWAP1 MSTORE PUSH1 0x40 SWAP1 KECCAK256 SWAP1 DUP3 SWAP1 SUB SWAP1 SSTORE JUMPDEST PUSH1 0x1 PUSH1 0x1 PUSH1 0xA0 SHL SUB DUP3 AND PUSH2 0x179 JUMPI PUSH1 0x2 DUP1 SLOAD DUP3 SWAP1 SUB SWAP1 SSTORE PUSH2 0x197 JUMP JUMPDEST PUSH1 0x1 PUSH1 0x1 PUSH1 0xA0 SHL SUB DUP3 AND PUSH0 SWAP1 DUP2 MSTORE PUSH1 0x20 DUP2 SWAP1 MSTORE PUSH1 0x40 SWAP1 KECCAK256 DUP1 SLOAD DUP3 ADD SWAP1 SSTORE JUMPDEST DUP2 PUSH1 0x1 PUSH1 0x1 PUSH1 0xA0 SHL SUB AND DUP4 PUSH1 0x1 PUSH1 0x1 PUSH1 0xA0 SHL SUB AND PUSH32 0xDDF252AD1BE2C89B69C2B068FC378DAA952BA7F163C4A11628F55A4DF523B3EF DUP4 PUSH1 0x40 MLOAD PUSH2 0x1DC SWAP2 DUP2 MSTORE PUSH1 0x20 ADD SWAP1 JUMP JUMPDEST PUSH1 0x40 MLOAD DUP1 SWAP2 SUB SWAP1 LOG3 POP POP POP JUMP JUMPDEST PUSH4 0x4E487B71 PUSH1 0xE0 SHL PUSH0 MSTORE PUSH1 0x41 PUSH1 0x4 MSTORE PUSH1 0x24 PUSH0 REVERT JUMPDEST PUSH0 DUP3 PUSH1 0x1F DUP4 ADD SLT PUSH2 0x20C JUMPI PUSH0 PUSH0 REVERT JUMPDEST DUP2 MLOAD PUSH1 0x1 PUSH1 0x1 PUSH1 0x40 SHL SUB DUP2 GT ISZERO PUSH2 0x225 JUMPI PUSH2 0x225 PUSH2 0x1E9 JUMP JUMPDEST PUSH1 0x40 MLOAD PUSH1 0x1F DUP3 ADD PUSH1 0x1F NOT SWAP1 DUP2 AND PUSH1 0x3F ADD AND DUP2 ADD PUSH1 0x1 PUSH1 0x1 PUSH1 0x40 SHL SUB DUP2 GT DUP3 DUP3 LT OR ISZERO PUSH2 0x253 JUMPI PUSH2 0x253 PUSH2 0x1E9 JUMP JUMPDEST PUSH1 0x40 MSTORE DUP2 DUP2 MSTORE DUP4 DUP3 ADD PUSH1 0x20 ADD DUP6 LT ISZERO PUSH2 0x26A JUMPI PUSH0 PUSH0 REVERT JUMPDEST DUP2 PUSH1 0x20 DUP6 ADD PUSH1 0x20 DUP4 ADD MCOPY PUSH0 SWAP2 DUP2 ADD PUSH1 0x20 ADD SWAP2 SWAP1 SWAP2 MSTORE SWAP4 SWAP3 POP POP POP JUMP JUMPDEST PUSH0 PUSH0 PUSH0 PUSH0 PUSH1 0x80 DUP6 DUP8 SUB SLT ISZERO PUSH2 0x299 JUMPI PUSH0 PUSH0 REVERT JUMPDEST DUP5 MLOAD PUSH1 0x1 PUSH1 0x1 PUSH1 0x40 SHL SUB DUP2 GT ISZERO PUSH2 0x2AE JUMPI PUSH0 PUSH0 REVERT JUMPDEST PUSH2 0x2BA DUP8 DUP3 DUP9 ADD PUSH2 0x1FD JUMP JUMPDEST PUSH1 0x20 DUP8 ADD MLOAD SWAP1 SWAP6 POP SWAP1 POP PUSH1 0x1 PUSH1 0x1 PUSH1 0x40 SHL SUB DUP2 GT ISZERO PUSH2 0x2D7 JUMPI PUSH0 PUSH0 REVERT JUMPDEST PUSH2 0x2E3 DUP8 DUP3 DUP9 ADD PUSH2 0x1FD JUMP JUMPDEST PUSH1 0x40 DUP8 ADD MLOAD PUSH1 0x60 DUP9 ADD MLOAD SWAP2 SWAP6 POP SWAP4 POP SWAP1 POP PUSH1 0x1 PUSH1 0x1 PUSH1 0xA0 SHL SUB DUP2 AND DUP2 EQ PUSH2 0x308 JUMPI PUSH0 PUSH0 REVERT JUMPDEST SWAP4 SWAP7 SWAP3 SWAP6 POP SWAP1 SWAP4 POP POP JUMP JUMPDEST PUSH1 0x1 DUP2 DUP2 SHR SWAP1 DUP3 AND DUP1 PUSH2 0x327 JUMPI PUSH1 0x7F DUP3 AND SWAP2 POP JUMPDEST PUSH1 0x20 DUP3 LT DUP2 SUB PUSH2 0x345 JUMPI PUSH4 0x4E487B71 PUSH1 0xE0 SHL PUSH0 MSTORE PUSH1 0x22 PUSH1 0x4 MSTORE PUSH1 0x24 PUSH0 REVERT JUMPDEST POP SWAP2 SWAP1 POP JUMP JUMPDEST PUSH1 0x1F DUP3 GT ISZERO PUSH2 0x392 JUMPI DUP1 PUSH0 MSTORE PUSH1 0x20 PUSH0 KECCAK256 PUSH1 0x1F DUP5 ADD PUSH1 0x5 SHR DUP2 ADD PUSH1 0x20 DUP6 LT ISZERO PUSH2 0x370 JUMPI POP DUP1 JUMPDEST PUSH1 0x1F DUP5 ADD PUSH1 0x5 SHR DUP3 ADD SWAP2 POP JUMPDEST DUP2 DUP2 LT ISZERO PUSH2 0x38F JUMPI PUSH0 DUP2 SSTORE PUSH1 0x1 ADD PUSH2 0x37C JUMP JUMPDEST POP POP JUMPDEST POP POP POP JUMP JUMPDEST DUP2 MLOAD PUSH1 0x1 PUSH1 0x1 PUSH1 0x40 SHL SUB DUP2 GT ISZERO PUSH2 0x3B0 JUMPI PUSH2 0x3B0 PUSH2 0x1E9 JUMP JUMPDEST PUSH2 0x3C4 DUP2 PUSH2 0x3BE DUP5 SLOAD PUSH2 0x313 JUMP JUMPDEST DUP5 PUSH2 0x34B JUMP JUMPDEST PUSH1 0x20 PUSH1 0x1F DUP3 GT PUSH1 0x1 DUP2 EQ PUSH2 0x3F6 JUMPI PUSH0 DUP4 ISZERO PUSH2 0x3DF JUMPI POP DUP5 DUP3 ADD MLOAD JUMPDEST PUSH0 NOT PUSH1 0x3 DUP6 SWAP1 SHL SHR NOT AND PUSH1 0x1 DUP5 SWAP1 SHL OR DUP5 SSTORE PUSH2 0x38F JUMP JUMPDEST PUSH0 DUP5 DUP2 MSTORE PUSH1 0x20 DUP2 KECCAK256 PUSH1 0x1F NOT DUP6 AND SWAP2 JUMPDEST DUP3 DUP2 LT ISZERO PUSH2 0x425 JUMPI DUP8 DUP6 ADD MLOAD DUP3 SSTORE PUSH1 0x20 SWAP5 DUP6 ADD SWAP5 PUSH1 0x1 SWAP1 SWAP3 ADD SWAP2 ADD PUSH2 0x405 JUMP JUMPDEST POP DUP5 DUP3 LT ISZERO PUSH2 0x442 JUMPI DUP7 DUP5 ADD MLOAD PUSH0 NOT PUSH1 0x3 DUP8 SWAP1 SHL PUSH1 0xF8 AND SHR NOT AND DUP2 SSTORE JUMPDEST POP POP POP POP PUSH1 0x1 SWAP1 DUP2 SHL ADD SWAP1 SSTORE POP JUMP JUMPDEST PUSH4 0x4E487B71 PUSH1 0xE0 SHL PUSH0 MSTORE PUSH1 0x11 PUSH1 0x4 MSTORE PUSH1 0x24 PUSH0 REVERT JUMPDEST PUSH1 0x1 DUP2 JUMPDEST PUSH1 0x1 DUP5 GT ISZERO PUSH2 0x4A0 JUMPI DUP1 DUP6 DIV DUP2 GT ISZERO PUSH2 0x484 JUMPI PUSH2 0x484 PUSH2 0x451 JUMP JUMPDEST PUSH1 0x1 DUP5 AND ISZERO PUSH2 0x492 JUMPI SWAP1 DUP2 MUL SWAP1 JUMPDEST PUSH1 0x1 SWAP4 SWAP1 SWAP4 SHR SWAP3 DUP1 MUL PUSH2 0x469 JUMP JUMPDEST SWAP4 POP SWAP4 SWAP2 POP POP JUMP JUMPDEST PUSH0 DUP3 PUSH2 0x4B6 JUMPI POP PUSH1 0x1 PUSH2 0x544 JUMP JUMPDEST DUP2 PUSH2 0x4C2 JUMPI POP PUSH0 PUSH2 0x544 JUMP JUMPDEST DUP2 PUSH1 0x1 DUP2 EQ PUSH2 0x4D8 JUMPI PUSH1 0x2 DUP2 EQ PUSH2 0x4E2 JUMPI PUSH2 0x4FE JUMP JUMPDEST PUSH1 0x1 SWAP2 POP POP PUSH2 0x544 JUMP JUMPDEST PUSH1 0xFF DUP5 GT ISZERO PUSH2 0x4F3 JUMPI PUSH2 0x4F3 PUSH2 0x451 JUMP JUMPDEST POP POP PUSH1 0x1 DUP3 SHL PUSH2 0x544 JUMP JUMPDEST POP PUSH1 0x20 DUP4 LT PUSH2 0x133 DUP4 LT AND PUSH1 0x4E DUP5 LT PUSH1 0xB DUP5 LT AND OR ISZERO PUSH2 0x521 JUMPI POP DUP2 DUP2 EXP PUSH2 0x544 JUMP JUMPDEST PUSH2 0x52D PUSH0 NOT DUP5 DUP5 PUSH2 0x465 JUMP JUMPDEST DUP1 PUSH0 NOT DIV DUP3 GT ISZERO PUSH2 0x540 JUMPI PUSH2 0x540 PUSH2 0x451 JUMP JUMPDEST MUL SWAP1 POP JUMPDEST SWAP3 SWAP2 POP POP JUMP JUMPDEST PUSH0 PUSH2 0x558 PUSH1 0xFF DUP5 AND DUP4 PUSH2 0x4A8 JUMP JUMPDEST SWAP4 SWAP3 POP POP POP JUMP JUMPDEST DUP1 DUP3 MUL DUP2 ISZERO DUP3 DUP3 DIV DUP5 EQ OR PUSH2 0x544 JUMPI PUSH2 0x544 PUSH2 0x451 JUMP JUMPDEST DUP1 DUP3 ADD DUP1 DUP3 GT ISZERO PUSH2 0x544 JUMPI PUSH2 0x544 PUSH2 0x451 JUMP JUMPDEST PUSH2 0x6E4 DUP1 PUSH2 0x596 PUSH0 CODECOPY PUSH0 RETURN INVALID PUSH1 0x80 PUSH1 0x40 MSTORE CALLVALUE DUP1 ISZERO PUSH2 0xF JUMPI PUSH0 PUSH0 REVERT JUMPDEST POP PUSH1 0x4 CALLDATASIZE LT PUSH2 0x90 JUMPI PUSH0 CALLDATALOAD PUSH1 0xE0 SHR DUP1 PUSH4 0x313CE567 GT PUSH2 0x63 JUMPI DUP1 PUSH4 0x313CE567 EQ PUSH2 0xFA JUMPI DUP1 PUSH4 0x70A08231 EQ PUSH2 0x109 JUMPI DUP1 PUSH4 0x95D89B41 EQ PUSH2 0x131 JUMPI DUP1 PUSH4 0xA9059CBB EQ PUSH2 0x139 JUMPI DUP1 PUSH4 0xDD62ED3E EQ PUSH2 0x14C JUMPI PUSH0 PUSH0 REVERT JUMPDEST DUP1 PUSH4 0x6FDDE03 EQ PUSH2 0x94 JUMPI DUP1 PUSH4 0x95EA7B3 EQ PUSH2 0xB2 JUMPI DUP1 PUSH4 0x18160DDD EQ PUSH2 0xD5 JUMPI DUP1 PUSH4 0x23B872DD EQ PUSH2 0xE7 JUMPI JUMPDEST PUSH0 PUSH0 REVERT JUMPDEST PUSH2 0x9C PUSH2 0x184 JUMP JUMPDEST PUSH1 0x40 MLOAD PUSH2 0xA9 SWAP2 SWAP1 PUSH2 0x554 JUMP JUMPDEST PUSH1 0x40 MLOAD DUP1 SWAP2 SUB SWAP1 RETURN JUMPDEST PUSH2 0xC5 PUSH2 0xC0 CALLDATASIZE PUSH1 0x4 PUSH2 0x5A4 JUMP JUMPDEST PUSH2 0x214 JUMP JUMPDEST PUSH1 0x40 MLOAD SWAP1 ISZERO ISZERO DUP2 MSTORE PUSH1 0x20 ADD PUSH2 0xA9 JUMP JUMPDEST PUSH1 0x2 SLOAD JUMPDEST PUSH1 0x40 MLOAD SWAP1 DUP2 MSTORE PUSH1 0x20 ADD PUSH2 0xA9 JUMP JUMPDEST PUSH2 0xC5 PUSH2 0xF5 CALLDATASIZE PUSH1 0x4 PUSH2 0x5CC JUMP JUMPDEST PUSH2 0x22D JUMP JUMPDEST PUSH1 0x40 MLOAD PUSH1 0x12 DUP2 MSTORE PUSH1 0x20 ADD PUSH2 0xA9 JUMP JUMPDEST PUSH2 0xD9 PUSH2 0x117 CALLDATASIZE PUSH1 0x4 PUSH2 0x606 JUMP JUMPDEST PUSH1 0x1 PUSH1 0x1 PUSH1 0xA0 SHL SUB AND PUSH0 SWAP1 DUP2 MSTORE PUSH1 0x20 DUP2 SWAP1 MSTORE PUSH1 0x40 SWAP1 KECCAK256 SLOAD SWAP1 JUMP JUMPDEST PUSH2 0x9C PUSH2 0x250 JUMP JUMPDEST PUSH2 0xC5 PUSH2 0x147 CALLDATASIZE PUSH1 0x4 PUSH2 0x5A4 JUMP JUMPDEST PUSH2 0x25F JUMP JUMPDEST PUSH2 0xD9 PUSH2 0x15A CALLDATASIZE PUSH1 0x4 PUSH2 0x626 JUMP JUMPDEST PUSH1 0x1 PUSH1 0x1 PUSH1 0xA0 SHL SUB SWAP2 DUP3 AND PUSH0 SWAP1 DUP2 MSTORE PUSH1 0x1 PUSH1 0x20 SWAP1 DUP2 MSTORE PUSH1 0x40 DUP1 DUP4 KECCAK256 SWAP4 SWAP1 SWAP5 AND DUP3 MSTORE SWAP2 SWAP1 SWAP2 MSTORE KECCAK256 SLOAD SWAP1 JUMP JUMPDEST PUSH1 0x60 PUSH1 0x3 DUP1 SLOAD PUSH2 0x193 SWAP1 PUSH2 0x657 JUMP JUMPDEST DUP1 PUSH1 0x1F ADD PUSH1 0x20 DUP1 SWAP2 DIV MUL PUSH1 0x20 ADD PUSH1 0x40 MLOAD SWAP1 DUP2 ADD PUSH1 0x40 MSTORE DUP1 SWAP3 SWAP2 SWAP1 DUP2 DUP2 MSTORE PUSH1 0x20 ADD DUP3 DUP1 SLOAD PUSH2 0x1BF SWAP1 PUSH2 0x657 JUMP JUMPDEST DUP1 ISZERO PUSH2 0x20A JUMPI DUP1 PUSH1 0x1F LT PUSH2 0x1E1 JUMPI PUSH2 0x100 DUP1 DUP4 SLOAD DIV MUL DUP4 MSTORE SWAP2 PUSH1 0x20 ADD SWAP2 PUSH2 0x20A JUMP JUMPDEST DUP3 ADD SWAP2 SWAP1 PUSH0 MSTORE PUSH1 0x20 PUSH0 KECCAK256 SWAP1 JUMPDEST DUP2 SLOAD DUP2 MSTORE SWAP1 PUSH1 0x1 ADD SWAP1 PUSH1 0x20 ADD DUP1 DUP4 GT PUSH2 0x1ED JUMPI DUP3 SWAP1 SUB PUSH1 0x1F AND DUP3 ADD SWAP2 JUMPDEST POP POP POP POP POP SWAP1 POP SWAP1 JUMP JUMPDEST PUSH0 CALLER PUSH2 0x221 DUP2 DUP6 DUP6 PUSH2 0x26C JUMP JUMPDEST PUSH1 0x1 SWAP2 POP POP JUMPDEST SWAP3 SWAP2 POP POP JUMP JUMPDEST PUSH0 CALLER PUSH2 0x23A DUP6 DUP3 DUP6 PUSH2 0x27E JUMP JUMPDEST PUSH2 0x245 DUP6 DUP6 DUP6 PUSH2 0x2FF JUMP JUMPDEST POP PUSH1 0x1 SWAP5 SWAP4 POP POP POP POP JUMP JUMPDEST PUSH1 0x60 PUSH1 0x4 DUP1 SLOAD PUSH2 0x193 SWAP1 PUSH2 0x657 JUMP JUMPDEST PUSH0 CALLER PUSH2 0x221 DUP2 DUP6 DUP6 PUSH2 0x2FF JUMP JUMPDEST PUSH2 0x279 DUP4 DUP4 DUP4 PUSH1 0x1 PUSH2 0x35C JUMP JUMPDEST POP POP POP JUMP JUMPDEST PUSH1 0x1 PUSH1 0x1 PUSH1 0xA0 SHL SUB DUP4 DUP2 AND PUSH0 SWAP1 DUP2 MSTORE PUSH1 0x1 PUSH1 0x20 SWAP1 DUP2 MSTORE PUSH1 0x40 DUP1 DUP4 KECCAK256 SWAP4 DUP7 AND DUP4 MSTORE SWAP3 SWAP1 MSTORE KECCAK256 SLOAD PUSH0 NOT DUP2 LT ISZERO PUSH2 0x2F9 JUMPI DUP2 DUP2 LT ISZERO PUSH2 0x2EB JUMPI PUSH1 0x40 MLOAD PUSH4 0x7DC7A0D9 PUSH1 0xE1 SHL DUP2 MSTORE PUSH1 0x1 PUSH1 0x1 PUSH1 0xA0 SHL SUB DUP5 AND PUSH1 0x4 DUP3 ADD MSTORE PUSH1 0x24 DUP2 ADD DUP3 SWAP1 MSTORE PUSH1 0x44 DUP2 ADD DUP4 SWAP1 MSTORE PUSH1 0x64 ADD JUMPDEST PUSH1 0x40 MLOAD DUP1 SWAP2 SUB SWAP1 REVERT JUMPDEST PUSH2 0x2F9 DUP5 DUP5 DUP5 DUP5 SUB PUSH0 PUSH2 0x35C JUMP JUMPDEST POP POP POP POP JUMP JUMPDEST PUSH1 0x1 PUSH1 0x1 PUSH1 0xA0 SHL SUB DUP4 AND PUSH2 0x328 JUMPI PUSH1 0x40 MLOAD PUSH4 0x4B637E8F PUSH1 0xE1 SHL DUP2 MSTORE PUSH0 PUSH1 0x4 DUP3 ADD MSTORE PUSH1 0x24 ADD PUSH2 0x2E2 JUMP JUMPDEST PUSH1 0x1 PUSH1 0x1 PUSH1 0xA0 SHL SUB DUP3 AND PUSH2 0x351 JUMPI PUSH1 0x40 MLOAD PUSH4 0xEC442F05 PUSH1 0xE0 SHL DUP2 MSTORE PUSH0 PUSH1 0x4 DUP3 ADD MSTORE PUSH1 0x24 ADD PUSH2 0x2E2 JUMP JUMPDEST PUSH2 0x279 DUP4 DUP4 DUP4 PUSH2 0x42E JUMP JUMPDEST PUSH1 0x1 PUSH1 0x1 PUSH1 0xA0 SHL SUB DUP5 AND PUSH2 0x385 JUMPI PUSH1 0x40 MLOAD PUSH4 0xE602DF05 PUSH1 0xE0 SHL DUP2 MSTORE PUSH0 PUSH1 0x4 DUP3 ADD MSTORE PUSH1 0x24 ADD PUSH2 0x2E2 JUMP JUMPDEST PUSH1 0x1 PUSH1 0x1 PUSH1 0xA0 SHL SUB DUP4 AND PUSH2 0x3AE JUMPI PUSH1 0x40 MLOAD PUSH4 0x4A1406B1 PUSH1 0xE1 SHL DUP2 MSTORE PUSH0 PUSH1 0x4 DUP3 ADD MSTORE PUSH1 0x24 ADD PUSH2 0x2E2 JUMP JUMPDEST PUSH1 0x1 PUSH1 0x1 PUSH1 0xA0 SHL SUB DUP1 DUP6 AND PUSH0 SWAP1 DUP2 MSTORE PUSH1 0x1 PUSH1 0x20 SWAP1 DUP2 MSTORE PUSH1 0x40 DUP1 DUP4 KECCAK256 SWAP4 DUP8 AND DUP4 MSTORE SWAP3 SWAP1 MSTORE KECCAK256 DUP3 SWAP1 SSTORE DUP1 ISZERO PUSH2 0x2F9 JUMPI DUP3 PUSH1 0x1 PUSH1 0x1 PUSH1 0xA0 SHL SUB AND DUP5 PUSH1 0x1 PUSH1 0x1 PUSH1 0xA0 SHL SUB AND PUSH32 0x8C5BE1E5EBEC7D5BD14F71427D1E84F3DD0314C0F7B2291E5B200AC8C7C3B925 DUP5 PUSH1 0x40 MLOAD PUSH2 0x420 SWAP2 DUP2 MSTORE PUSH1 0x20 ADD SWAP1 JUMP JUMPDEST PUSH1 0x40 MLOAD DUP1 SWAP2 SUB SWAP1 LOG3 POP POP POP POP JUMP JUMPDEST PUSH1 0x1 PUSH1 0x1 PUSH1 0xA0 SHL SUB DUP4 AND PUSH2 0x458 JUMPI DUP1 PUSH1 0x2 PUSH0 DUP3 DUP3 SLOAD PUSH2 0x44D SWAP2 SWAP1 PUSH2 0x68F JUMP JUMPDEST SWAP1 SWAP2 SSTORE POP PUSH2 0x4C8 SWAP1 POP JUMP JUMPDEST PUSH1 0x1 PUSH1 0x1 PUSH1 0xA0 SHL SUB DUP4 AND PUSH0 SWAP1 DUP2 MSTORE PUSH1 0x20 DUP2 SWAP1 MSTORE PUSH1 0x40 SWAP1 KECCAK256 SLOAD DUP2 DUP2 LT ISZERO PUSH2 0x4AA JUMPI PUSH1 0x40 MLOAD PUSH4 0x391434E3 PUSH1 0xE2 SHL DUP2 MSTORE PUSH1 0x1 PUSH1 0x1 PUSH1 0xA0 SHL SUB DUP6 AND PUSH1 0x4 DUP3 ADD MSTORE PUSH1 0x24 DUP2 ADD DUP3 SWAP1 MSTORE PUSH1 0x44 DUP2 ADD DUP4 SWAP1 MSTORE PUSH1 0x64 ADD PUSH2 0x2E2 JUMP JUMPDEST PUSH1 0x1 PUSH1 0x1 PUSH1 0xA0 SHL SUB DUP5 AND PUSH0 SWAP1 DUP2 MSTORE PUSH1 0x20 DUP2 SWAP1 MSTORE PUSH1 0x40 SWAP1 KECCAK256 SWAP1 DUP3 SWAP1 SUB SWAP1 SSTORE JUMPDEST PUSH1 0x1 PUSH1 0x1 PUSH1 0xA0 SHL SUB DUP3 AND PUSH2 0x4E4 JUMPI PUSH1 0x2 DUP1 SLOAD DUP3 SWAP1 SUB SWAP1 SSTORE PUSH2 0x502 JUMP JUMPDEST PUSH1 0x1 PUSH1 0x1 PUSH1 0xA0 SHL SUB DUP3 AND PUSH0 SWAP1 DUP2 MSTORE PUSH1 0x20 DUP2 SWAP1 MSTORE PUSH1 0x40 SWAP1 KECCAK256 DUP1 SLOAD DUP3 ADD SWAP1 SSTORE JUMPDEST DUP2 PUSH1 0x1 PUSH1 0x1 PUSH1 0xA0 SHL SUB AND DUP4 PUSH1 0x1 PUSH1 0x1 PUSH1 0xA0 SHL SUB AND PUSH32 0xDDF252AD1BE2C89B69C2B068FC378DAA952BA7F163C4A11628F55A4DF523B3EF DUP4 PUSH1 0x40 MLOAD PUSH2 0x547 SWAP2 DUP2 MSTORE PUSH1 0x20 ADD SWAP1 JUMP JUMPDEST PUSH1 0x40 MLOAD DUP1 SWAP2 SUB SWAP1 LOG3 POP POP POP JUMP JUMPDEST PUSH1 0x20 DUP2 MSTORE PUSH0 DUP3 MLOAD DUP1 PUSH1 0x20 DUP5 ADD MSTORE DUP1 PUSH1 0x20 DUP6 ADD PUSH1 0x40 DUP6 ADD MCOPY PUSH0 PUSH1 0x40 DUP3 DUP6 ADD ADD MSTORE PUSH1 0x40 PUSH1 0x1F NOT PUSH1 0x1F DUP4 ADD AND DUP5 ADD ADD SWAP2 POP POP SWAP3 SWAP2 POP POP JUMP JUMPDEST DUP1 CALLDATALOAD PUSH1 0x1 PUSH1 0x1 PUSH1 0xA0 SHL SUB DUP2 AND DUP2 EQ PUSH2 0x59F JUMPI PUSH0 PUSH0 REVERT JUMPDEST SWAP2 SWAP1 POP JUMP JUMPDEST PUSH0 PUSH0 PUSH1 0x40 DUP4 DUP6 SUB SLT ISZERO PUSH2 0x5B5 JUMPI PUSH0 PUSH0 REVERT JUMPDEST PUSH2 0x5BE DUP4 PUSH2 0x589 JUMP JUMPDEST SWAP5 PUSH1 0x20 SWAP4 SWAP1 SWAP4 ADD CALLDATALOAD SWAP4 POP POP POP JUMP JUMPDEST PUSH0 PUSH0 PUSH0 PUSH1 0x60 DUP5 DUP7 SUB SLT ISZERO PUSH2 0x5DE JUMPI PUSH0 PUSH0 REVERT JUMPDEST PUSH2 0x5E7 DUP5 PUSH2 0x589 JUMP JUMPDEST SWAP3 POP PUSH2 0x5F5 PUSH1 0x20 DUP6 ADD PUSH2 0x589 JUMP JUMPDEST SWAP3 SWAP6 SWAP3 SWAP5 POP POP POP PUSH1 0x40 SWAP2 SWAP1 SWAP2 ADD CALLDATALOAD SWAP1 JUMP JUMPDEST PUSH0 PUSH1 0x20 DUP3 DUP5 SUB SLT ISZERO PUSH2 0x616 JUMPI PUSH0 PUSH0 REVERT JUMPDEST PUSH2 0x61F DUP3 PUSH2 0x589 JUMP JUMPDEST SWAP4 SWAP3 POP POP POP JUMP JUMPDEST PUSH0 PUSH0 PUSH1 0x40 DUP4 DUP6 SUB SLT ISZERO PUSH2 0x637 JUMPI PUSH0 PUSH0 REVERT JUMPDEST PUSH2 0x640 DUP4 PUSH2 0x589 JUMP JUMPDEST SWAP2 POP PUSH2 0x64E PUSH1 0x20 DUP5 ADD PUSH2 0x589 JUMP JUMPDEST SWAP1 POP SWAP3 POP SWAP3 SWAP1 POP JUMP JUMPDEST PUSH1 0x1 DUP2 DUP2 SHR SWAP1 DUP3 AND DUP1 PUSH2 0x66B JUMPI PUSH1 0x7F DUP3 AND SWAP2 POP JUMPDEST PUSH1 0x20 DUP3 LT DUP2 SUB PUSH2 0x689 JUMPI PUSH4 0x4E487B71 PUSH1 0xE0 SHL PUSH0 MSTORE PUSH1 0x22 PUSH1 0x4 MSTORE PUSH1 0x24 PUSH0 REVERT JUMPDEST POP SWAP2 SWAP1 POP JUMP JUMPDEST DUP1 DUP3 ADD DUP1 DUP3 GT ISZERO PUSH2 0x227 JUMPI PUSH4 0x4E487B71 PUSH1 0xE0 SHL PUSH0 MSTORE PUSH1 0x11 PUSH1 0x4 MSTORE PUSH1 0x24 PUSH0 REVERT INVALID LOG2 PUSH5 0x6970667358 0x22 SLT KECCAK256 SWAP14 BASEFEE DUP10 0xDE PUSH1 0xD5 0x4C EQ PUSH23 0x29951E9B4E19EB6AA3E6772C1A1B845B7A1DFD6A951D86 PUSH5 0x736F6C6343 STOP ADDMOD 0x1E STOP CALLER LOG2 PUSH5 0x6970667358 0x22 SLT KECCAK256 RETURN PUSH21 0x6969B98B3B7EE3D642EEAFF7BC3A3CF9BF49AC0CAE 0xBF SWAP10 MSTORE JUMPI 0xE 0xB1 0xB3 0xCD CALLVALUE PUSH5 0x736F6C6343 STOP ADDMOD 0x1E STOP CALLER "
				},
				"gasEstimates": {
					"creation": {
						"codeDepositCost": "861600",
						"executionCost": "894",
						"totalCost": "862494"
					},
					"external": {
						"createToken(string,string,uint256)": "infinite",
						"deployedTokens(uint256)": "4632",
						"getDeployedTokens()": "infinite"
					}
				},
				"methodIdentifiers": {
					"createToken(string,string,uint256)": "5b060530",
					"deployedTokens(uint256)": "ec81aadb",
					"getDeployedTokens()": "622ae7aa"
				}
			},
			"storageLayout": {
				"storage": [
					{
						"astId": 791,
						"contract": "MiniTokenFactory.sol:TokenFactory",
						"label": "deployedTokens",
						"offset": 0,
						"slot": "0",
						"type": "t_array(t_address)dyn_storage"
					}
				],
				"types": {
					"t_address": {
						"encoding": "inplace",
						"label": "address",
						"numberOfBytes": "20"
					},
					"t_array(t_address)dyn_storage": {
						"base": "t_address",
						"encoding": "dynamic_array",
						"label": "address[]",
						"numberOfBytes": "32"
					}
				}
			},
			"userdoc": {
				"kind": "user",
				"methods": {},
				"version": 1
			}
		}
	}
}