{
	"Raffle.sol": {
		"Raffle": {
			"abi": [
				{
					"inputs": [],
					"stateMutability": "nonpayable",
					"type": "constructor"
				},
				{
					"inputs": [],
					"name": "enterRaffle",
					"outputs": [],
					"stateMutability": "payable",
					"type": "function"
				},
				{
					"inputs": [],
					"name": "getPlayers",
					"outputs": [
						{
							"internalType": "address[]",
							"name": "",
							"type": "address[]"
						}
					],
					"stateMutability": "view",
					"type": "function"
				},
				{
					"inputs": [],
					"name": "getRecentWinner",
					"outputs": [
						{
							"internalType": "address",
							"name": "",
							"type": "address"
						}
					],
					"stateMutability": "view",
					"type": "function"
				},
				{
					"inputs": [],
					"name": "owner",
					"outputs": [
						{
							"internalType": "address",
							"name": "",
							"type": "address"
						}
					],
					"stateMutability": "view",
					"type": "function"
				},
				{
					"inputs": [],
					"name": "pickWinner",
					"outputs": [],
					"stateMutability": "nonpayable",
					"type": "function"
				},
				{
					"inputs": [
						{
							"internalType": "uint256",
							"name": "",
							"type": "uint256"
						}
					],
					"name": "players",
					"outputs": [
						{
							"internalType": "address",
							"name": "",
							"type": "address"
						}
					],
					"stateMutability": "view",
					"type": "function"
				},
				{
					"inputs": [],
					"name": "recentWinner",
					"outputs": [
						{
							"internalType": "address",
							"name": "",
							"type": "address"
						}
					],
					"stateMutability": "view",
					"type": "function"
				}
			],
			"devdoc": {
				"kind": "dev",
				"methods": {},
				"version": 1
			},
			"evm": {
				"assembly": "    /* \"Raffle.sol\":61:1076  contract Raffle {... */\n  mstore(0x40, 0x80)\n    /* \"Raffle.sol\":178:229  constructor() {... */\n  callvalue\n  dup1\n  iszero\n  tag_1\n  jumpi\n  0x00\n  dup1\n  revert\ntag_1:\n  pop\n    /* \"Raffle.sol\":203:208  owner */\n  0x00\n    /* \"Raffle.sol\":203:221  owner = msg.sender */\n  dup1\n  sload\n  not(sub(shl(0xa0, 0x01), 0x01))\n  and\n    /* \"Raffle.sol\":211:221  msg.sender */\n  caller\n    /* \"Raffle.sol\":203:221  owner = msg.sender */\n  or\n  swap1\n  sstore\n    /* \"Raffle.sol\":61:1076  contract Raffle {... */\n  dataSize(sub_0)\n  dup1\n  dataOffset(sub_0)\n  0x00\n  codecopy\n  0x00\n  return\nstop\n\nsub_0: assembly {\n        /* \"Raffle.sol\":61:1076  contract Raffle {... */\n      mstore(0x40, 0x80)\n      jumpi(tag_1, lt(calldatasize, 0x04))\n      shr(0xe0, calldataload(0x00))\n      dup1\n      0x5d495aea\n      gt\n      tag_9\n      jumpi\n      dup1\n      0x5d495aea\n      eq\n      tag_5\n      jumpi\n      dup1\n      0x8b5b9ccc\n      eq\n      tag_6\n      jumpi\n      dup1\n      0x8da5cb5b\n      eq\n      tag_7\n      jumpi\n      dup1\n      0xf71d96cb\n      eq\n      tag_8\n      jumpi\n      0x00\n      dup1\n      revert\n    tag_9:\n      dup1\n      0x2cfcc539\n      eq\n      tag_2\n      jumpi\n      dup1\n      0x473f1ddc\n      eq\n      tag_3\n      jumpi\n      dup1\n      0x4f8c70cf\n      eq\n      tag_4\n      jumpi\n    tag_1:\n      0x00\n      dup1\n      revert\n        /* \"Raffle.sol\":237:392  function enterRaffle() external payable {... */\n    tag_2:\n      tag_10\n      tag_11\n      jump\t// in\n    tag_10:\n      stop\n        /* \"Raffle.sol\":976:1073  function getRecentWinner() external view returns (address) {... */\n    tag_3:\n      callvalue\n      dup1\n      iszero\n      tag_12\n      jumpi\n      0x00\n      dup1\n      revert\n    tag_12:\n      pop\n        /* \"Raffle.sol\":1053:1065  recentWinner */\n      and(sub(shl(0xa0, 0x01), 0x01), sload(0x02))\n        /* \"Raffle.sol\":976:1073  function getRecentWinner() external view returns (address) {... */\n    tag_13:\n      mload(0x40)\n      sub(shl(0xa0, 0x01), 0x01)\n        /* \"#utility.yul\":178:210   */\n      swap1\n      swap2\n      and\n        /* \"#utility.yul\":160:211   */\n      dup2\n      mstore\n        /* \"#utility.yul\":148:150   */\n      0x20\n        /* \"#utility.yul\":133:151   */\n      add\n        /* \"Raffle.sol\":976:1073  function getRecentWinner() external view returns (address) {... */\n    tag_15:\n      mload(0x40)\n      dup1\n      swap2\n      sub\n      swap1\n      return\n        /* \"Raffle.sol\":142:169  address public recentWinner */\n    tag_4:\n      callvalue\n      dup1\n      iszero\n      tag_17\n      jumpi\n      0x00\n      dup1\n      revert\n    tag_17:\n      pop\n      sload(0x02)\n      tag_13\n      swap1\n      sub(shl(0xa0, 0x01), 0x01)\n      and\n      dup2\n      jump\n        /* \"Raffle.sol\":400:864  function pickWinner() external {... */\n    tag_5:\n      callvalue\n      dup1\n      iszero\n      tag_21\n      jumpi\n      0x00\n      dup1\n      revert\n    tag_21:\n      pop\n      tag_10\n      tag_23\n      jump\t// in\n        /* \"Raffle.sol\":872:968  function getPlayers() external view returns (address[] memory) {... */\n    tag_6:\n      callvalue\n      dup1\n      iszero\n      tag_24\n      jumpi\n      0x00\n      dup1\n      revert\n    tag_24:\n      pop\n      tag_25\n      tag_26\n      jump\t// in\n    tag_25:\n      mload(0x40)\n      tag_15\n      swap2\n      swap1\n      tag_28\n      jump\t// in\n        /* \"Raffle.sol\":84:104  address public owner */\n    tag_7:\n      callvalue\n      dup1\n      iszero\n      tag_29\n      jumpi\n      0x00\n      dup1\n      revert\n    tag_29:\n      pop\n      sload(0x00)\n      tag_13\n      swap1\n      sub(shl(0xa0, 0x01), 0x01)\n      and\n      dup2\n      jump\n        /* \"Raffle.sol\":111:135  address[] public players */\n    tag_8:\n      callvalue\n      dup1\n      iszero\n      tag_33\n      jumpi\n      0x00\n      dup1\n      revert\n    tag_33:\n      pop\n      tag_13\n      tag_35\n      calldatasize\n      0x04\n      tag_36\n      jump\t// in\n    tag_35:\n      tag_37\n      jump\t// in\n        /* \"Raffle.sol\":237:392  function enterRaffle() external payable {... */\n    tag_11:\n        /* \"Raffle.sol\":308:319  0.001 ether */\n      0x038d7ea4c68000\n        /* \"Raffle.sol\":296:305  msg.value */\n      callvalue\n        /* \"Raffle.sol\":296:319  msg.value > 0.001 ether */\n      gt\n        /* \"Raffle.sol\":288:349  require(msg.value > 0.001 ether, \"Need > 0.001 ETH to enter\") */\n      tag_40\n      jumpi\n      mload(0x40)\n      shl(0xe5, 0x461bcd)\n      dup2\n      mstore\n        /* \"#utility.yul\":1272:1274   */\n      0x20\n        /* \"Raffle.sol\":288:349  require(msg.value > 0.001 ether, \"Need > 0.001 ETH to enter\") */\n      0x04\n      dup3\n      add\n        /* \"#utility.yul\":1254:1275   */\n      mstore\n        /* \"#utility.yul\":1311:1313   */\n      0x19\n        /* \"#utility.yul\":1291:1309   */\n      0x24\n      dup3\n      add\n        /* \"#utility.yul\":1284:1314   */\n      mstore\n        /* \"#utility.yul\":1350:1377   */\n      0x4e656564203e20302e3030312045544820746f20656e74657200000000000000\n        /* \"#utility.yul\":1330:1348   */\n      0x44\n      dup3\n      add\n        /* \"#utility.yul\":1323:1378   */\n      mstore\n        /* \"#utility.yul\":1395:1413   */\n      0x64\n      add\n        /* \"Raffle.sol\":288:349  require(msg.value > 0.001 ether, \"Need > 0.001 ETH to enter\") */\n    tag_41:\n      mload(0x40)\n      dup1\n      swap2\n      sub\n      swap1\n      revert\n    tag_40:\n        /* \"Raffle.sol\":360:367  players */\n      0x01\n        /* \"Raffle.sol\":360:384  players.push(msg.sender) */\n      dup1\n      sload\n      dup1\n      dup3\n      add\n      dup3\n      sstore\n      0x00\n      swap2\n      swap1\n      swap2\n      mstore\n      0xb10e2d527612073b26eecdfd717e6a320cf44b4afac2b0732d9fcbe2b7fa0cf6\n      add\n      dup1\n      sload\n      not(sub(shl(0xa0, 0x01), 0x01))\n      and\n        /* \"Raffle.sol\":373:383  msg.sender */\n      caller\n        /* \"Raffle.sol\":360:384  players.push(msg.sender) */\n      or\n      swap1\n      sstore\n        /* \"Raffle.sol\":237:392  function enterRaffle() external payable {... */\n      jump\t// out\n        /* \"Raffle.sol\":400:864  function pickWinner() external {... */\n    tag_23:\n        /* \"Raffle.sol\":464:469  owner */\n      and(sub(shl(0xa0, 0x01), 0x01), sload(0x00))\n        /* \"Raffle.sol\":450:460  msg.sender */\n      caller\n        /* \"Raffle.sol\":450:469  msg.sender == owner */\n      eq\n        /* \"Raffle.sol\":442:484  require(msg.sender == owner, \"Only owner\") */\n      tag_46\n      jumpi\n      mload(0x40)\n      shl(0xe5, 0x461bcd)\n      dup2\n      mstore\n        /* \"#utility.yul\":1626:1628   */\n      0x20\n        /* \"Raffle.sol\":442:484  require(msg.sender == owner, \"Only owner\") */\n      0x04\n      dup3\n      add\n        /* \"#utility.yul\":1608:1629   */\n      mstore\n        /* \"#utility.yul\":1665:1667   */\n      0x0a\n        /* \"#utility.yul\":1645:1663   */\n      0x24\n      dup3\n      add\n        /* \"#utility.yul\":1638:1668   */\n      mstore\n      shl(0xb1, 0x27b7363c9037bbb732b9)\n        /* \"#utility.yul\":1684:1702   */\n      0x44\n      dup3\n      add\n        /* \"#utility.yul\":1677:1717   */\n      mstore\n        /* \"#utility.yul\":1734:1752   */\n      0x64\n      add\n        /* \"Raffle.sol\":442:484  require(msg.sender == owner, \"Only owner\") */\n      tag_41\n        /* \"#utility.yul\":1424:1758   */\n      jump\n        /* \"Raffle.sol\":442:484  require(msg.sender == owner, \"Only owner\") */\n    tag_46:\n        /* \"Raffle.sol\":503:510  players */\n      0x01\n        /* \"Raffle.sol\":503:517  players.length */\n      sload\n        /* \"Raffle.sol\":495:540  require(players.length > 0, \"No players yet\") */\n      tag_49\n      jumpi\n      mload(0x40)\n      shl(0xe5, 0x461bcd)\n      dup2\n      mstore\n        /* \"#utility.yul\":1965:1967   */\n      0x20\n        /* \"Raffle.sol\":495:540  require(players.length > 0, \"No players yet\") */\n      0x04\n      dup3\n      add\n        /* \"#utility.yul\":1947:1968   */\n      mstore\n        /* \"#utility.yul\":2004:2006   */\n      0x0e\n        /* \"#utility.yul\":1984:2002   */\n      0x24\n      dup3\n      add\n        /* \"#utility.yul\":1977:2007   */\n      mstore\n      shl(0x92, 0x139bc81c1b185e595c9cc81e595d)\n        /* \"#utility.yul\":2023:2041   */\n      0x44\n      dup3\n      add\n        /* \"#utility.yul\":2016:2060   */\n      mstore\n        /* \"#utility.yul\":2077:2095   */\n      0x64\n      add\n        /* \"Raffle.sol\":495:540  require(players.length > 0, \"No players yet\") */\n      tag_41\n        /* \"#utility.yul\":1763:2101   */\n      jump\n        /* \"Raffle.sol\":495:540  require(players.length > 0, \"No players yet\") */\n    tag_49:\n        /* \"Raffle.sol\":683:690  players */\n      0x01\n        /* \"Raffle.sol\":683:697  players.length */\n      sload\n        /* \"Raffle.sol\":601:668  abi.encodePacked(block.timestamp, block.prevrandao, players.length) */\n      0x40\n      dup1\n      mload\n        /* \"Raffle.sol\":618:633  block.timestamp */\n      timestamp\n        /* \"Raffle.sol\":601:668  abi.encodePacked(block.timestamp, block.prevrandao, players.length) */\n      0x20\n      dup3\n      add\n        /* \"#utility.yul\":2291:2310   */\n      mstore\n        /* \"Raffle.sol\":635:651  block.prevrandao */\n      prevrandao\n        /* \"#utility.yul\":2326:2338   */\n      swap2\n      dup2\n      add\n        /* \"#utility.yul\":2319:2347   */\n      swap2\n      swap1\n      swap2\n      mstore\n        /* \"#utility.yul\":2363:2375   */\n      0x60\n      dup2\n      add\n        /* \"#utility.yul\":2356:2384   */\n      dup3\n      swap1\n      mstore\n        /* \"Raffle.sol\":553:566  uint256 index */\n      0x00\n      swap2\n        /* \"Raffle.sol\":683:697  players.length */\n      swap1\n        /* \"#utility.yul\":2400:2412   */\n      0x80\n      add\n        /* \"Raffle.sol\":601:668  abi.encodePacked(block.timestamp, block.prevrandao, players.length) */\n      mload(0x40)\n      0x20\n      dup2\n      dup4\n      sub\n      sub\n      dup2\n      mstore\n      swap1\n      0x40\n      mstore\n        /* \"Raffle.sol\":591:669  keccak256(abi.encodePacked(block.timestamp, block.prevrandao, players.length)) */\n      dup1\n      mload\n      swap1\n      0x20\n      add\n      keccak256\n        /* \"Raffle.sol\":569:680  uint256(... */\n      0x00\n      shr\n        /* \"Raffle.sol\":569:697  uint256(... */\n      tag_54\n      swap2\n      swap1\n      tag_55\n      jump\t// in\n    tag_54:\n        /* \"Raffle.sol\":553:697  uint256 index = uint256(... */\n      swap1\n      pop\n        /* \"Raffle.sol\":725:732  players */\n      0x01\n        /* \"Raffle.sol\":733:738  index */\n      dup2\n        /* \"Raffle.sol\":725:739  players[index] */\n      dup2\n      sload\n      dup2\n      lt\n      tag_57\n      jumpi\n      tag_57\n      tag_58\n      jump\t// in\n    tag_57:\n      0x00\n      swap2\n      dup3\n      mstore\n      0x20\n      dup3\n      keccak256\n      add\n      sload\n        /* \"Raffle.sol\":710:722  recentWinner */\n      0x02\n        /* \"Raffle.sol\":710:739  recentWinner = players[index] */\n      dup1\n      sload\n      not(sub(shl(0xa0, 0x01), 0x01))\n      and\n      sub(shl(0xa0, 0x01), 0x01)\n        /* \"Raffle.sol\":725:739  players[index] */\n      swap1\n      swap3\n      and\n        /* \"Raffle.sol\":710:739  recentWinner = players[index] */\n      swap2\n      dup3\n      or\n      swap1\n      sstore\n        /* \"Raffle.sol\":750:803  payable(recentWinner).transfer(address(this).balance) */\n      mload(0x40)\n        /* \"Raffle.sol\":725:739  players[index] */\n      swap1\n      swap2\n        /* \"Raffle.sol\":781:802  address(this).balance */\n      selfbalance\n        /* \"Raffle.sol\":750:803  payable(recentWinner).transfer(address(this).balance) */\n      dup1\n      iszero\n      0x08fc\n      mul\n      swap3\n        /* \"Raffle.sol\":781:802  address(this).balance */\n      swap1\n      swap2\n        /* \"Raffle.sol\":750:803  payable(recentWinner).transfer(address(this).balance) */\n      dup2\n        /* \"Raffle.sol\":725:739  players[index] */\n      dup2\n        /* \"Raffle.sol\":750:803  payable(recentWinner).transfer(address(this).balance) */\n      dup2\n        /* \"Raffle.sol\":781:802  address(this).balance */\n      dup6\n        /* \"Raffle.sol\":725:739  players[index] */\n      dup9\n        /* \"Raffle.sol\":750:803  payable(recentWinner).transfer(address(this).balance) */\n      dup9\n      call\n      swap4\n      pop\n      pop\n      pop\n      pop\n      iszero\n      dup1\n      iszero\n      tag_61\n      jumpi\n      returndatasize\n      0x00\n      dup1\n      returndatacopy\n      revert(0x00, returndatasize)\n    tag_61:\n      pop\n        /* \"Raffle.sol\":842:856  delete players */\n      tag_62\n        /* \"Raffle.sol\":849:856  players */\n      0x01\n      0x00\n        /* \"Raffle.sol\":842:856  delete players */\n      tag_63\n      jump\t// in\n    tag_62:\n        /* \"Raffle.sol\":431:864  {... */\n      pop\n        /* \"Raffle.sol\":400:864  function pickWinner() external {... */\n      jump\t// out\n        /* \"Raffle.sol\":872:968  function getPlayers() external view returns (address[] memory) {... */\n    tag_26:\n        /* \"Raffle.sol\":917:933  address[] memory */\n      0x60\n        /* \"Raffle.sol\":953:960  players */\n      0x01\n        /* \"Raffle.sol\":946:960  return players */\n      dup1\n      sload\n      dup1\n      0x20\n      mul\n      0x20\n      add\n      mload(0x40)\n      swap1\n      dup2\n      add\n      0x40\n      mstore\n      dup1\n      swap3\n      swap2\n      swap1\n      dup2\n      dup2\n      mstore\n      0x20\n      add\n      dup3\n      dup1\n      sload\n      dup1\n      iszero\n      tag_65\n      jumpi\n      0x20\n      mul\n      dup3\n      add\n      swap2\n      swap1\n      0x00\n      mstore\n      keccak256(0x00, 0x20)\n      swap1\n    tag_66:\n      dup2\n      sload\n      sub(shl(0xa0, 0x01), 0x01)\n      and\n      dup2\n      mstore\n      0x01\n      swap1\n      swap2\n      add\n      swap1\n      0x20\n      add\n      dup1\n      dup4\n      gt\n      tag_66\n      jumpi\n    tag_65:\n      pop\n      pop\n      pop\n      pop\n      pop\n      swap1\n      pop\n        /* \"Raffle.sol\":872:968  function getPlayers() external view returns (address[] memory) {... */\n      swap1\n      jump\t// out\n        /* \"Raffle.sol\":111:135  address[] public players */\n    tag_37:\n      0x01\n      dup2\n      dup2\n      sload\n      dup2\n      lt\n      tag_67\n      jumpi\n      0x00\n      dup1\n      revert\n    tag_67:\n      0x00\n      swap2\n      dup3\n      mstore\n      0x20\n      swap1\n      swap2\n      keccak256\n      add\n      sload\n      sub(shl(0xa0, 0x01), 0x01)\n      and\n      swap1\n      pop\n      dup2\n      jump\t// out\n    tag_63:\n      pop\n      dup1\n      sload\n      0x00\n      dup3\n      sstore\n      swap1\n      0x00\n      mstore\n      keccak256(0x00, 0x20)\n      swap1\n      dup2\n      add\n      swap1\n      tag_62\n      swap2\n      swap1\n    tag_72:\n      dup1\n      dup3\n      gt\n      iszero\n      tag_73\n      jumpi\n      0x00\n      dup2\n      sstore\n      0x01\n      add\n      jump(tag_72)\n    tag_73:\n      pop\n      swap1\n      jump\t// out\n        /* \"#utility.yul\":222:880   */\n    tag_28:\n        /* \"#utility.yul\":393:395   */\n      0x20\n        /* \"#utility.yul\":445:466   */\n      dup1\n      dup3\n      mstore\n        /* \"#utility.yul\":515:528   */\n      dup3\n      mload\n        /* \"#utility.yul\":418:436   */\n      dup3\n      dup3\n      add\n        /* \"#utility.yul\":537:559   */\n      dup2\n      swap1\n      mstore\n        /* \"#utility.yul\":364:368   */\n      0x00\n      swap2\n        /* \"#utility.yul\":393:395   */\n      swap1\n        /* \"#utility.yul\":616:631   */\n      dup5\n      dup3\n      add\n      swap1\n        /* \"#utility.yul\":590:592   */\n      0x40\n        /* \"#utility.yul\":575:593   */\n      dup6\n      add\n      swap1\n        /* \"#utility.yul\":364:368   */\n      dup5\n        /* \"#utility.yul\":659:854   */\n    tag_77:\n        /* \"#utility.yul\":673:679   */\n      dup2\n        /* \"#utility.yul\":670:671   */\n      dup2\n        /* \"#utility.yul\":667:680   */\n      lt\n        /* \"#utility.yul\":659:854   */\n      iszero\n      tag_79\n      jumpi\n        /* \"#utility.yul\":738:751   */\n      dup4\n      mload\n      sub(shl(0xa0, 0x01), 0x01)\n        /* \"#utility.yul\":734:773   */\n      and\n        /* \"#utility.yul\":722:774   */\n      dup4\n      mstore\n        /* \"#utility.yul\":829:844   */\n      swap3\n      dup5\n      add\n      swap3\n        /* \"#utility.yul\":794:806   */\n      swap2\n      dup5\n      add\n      swap2\n        /* \"#utility.yul\":770:771   */\n      0x01\n        /* \"#utility.yul\":688:697   */\n      add\n        /* \"#utility.yul\":659:854   */\n      jump(tag_77)\n    tag_79:\n      pop\n        /* \"#utility.yul\":871:874   */\n      swap1\n      swap7\n        /* \"#utility.yul\":222:880   */\n      swap6\n      pop\n      pop\n      pop\n      pop\n      pop\n      pop\n      jump\t// out\n        /* \"#utility.yul\":885:1065   */\n    tag_36:\n        /* \"#utility.yul\":944:950   */\n      0x00\n        /* \"#utility.yul\":997:999   */\n      0x20\n        /* \"#utility.yul\":985:994   */\n      dup3\n        /* \"#utility.yul\":976:983   */\n      dup5\n        /* \"#utility.yul\":972:995   */\n      sub\n        /* \"#utility.yul\":968:1000   */\n      slt\n        /* \"#utility.yul\":965:1017   */\n      iszero\n      tag_81\n      jumpi\n        /* \"#utility.yul\":1013:1014   */\n      0x00\n        /* \"#utility.yul\":1010:1011   */\n      dup1\n        /* \"#utility.yul\":1003:1015   */\n      revert\n        /* \"#utility.yul\":965:1017   */\n    tag_81:\n      pop\n        /* \"#utility.yul\":1036:1059   */\n      calldataload\n      swap2\n        /* \"#utility.yul\":885:1065   */\n      swap1\n      pop\n      jump\t// out\n        /* \"#utility.yul\":2423:2632   */\n    tag_55:\n        /* \"#utility.yul\":2455:2456   */\n      0x00\n        /* \"#utility.yul\":2481:2482   */\n      dup3\n        /* \"#utility.yul\":2471:2603   */\n      tag_87\n      jumpi\n        /* \"#utility.yul\":2525:2535   */\n      0x4e487b71\n        /* \"#utility.yul\":2520:2523   */\n      0xe0\n        /* \"#utility.yul\":2516:2536   */\n      shl\n        /* \"#utility.yul\":2513:2514   */\n      0x00\n        /* \"#utility.yul\":2506:2537   */\n      mstore\n        /* \"#utility.yul\":2560:2564   */\n      0x12\n        /* \"#utility.yul\":2557:2558   */\n      0x04\n        /* \"#utility.yul\":2550:2565   */\n      mstore\n        /* \"#utility.yul\":2588:2592   */\n      0x24\n        /* \"#utility.yul\":2585:2586   */\n      0x00\n        /* \"#utility.yul\":2578:2593   */\n      revert\n        /* \"#utility.yul\":2471:2603   */\n    tag_87:\n      pop\n        /* \"#utility.yul\":2617:2626   */\n      mod\n      swap1\n        /* \"#utility.yul\":2423:2632   */\n      jump\t// out\n        /* \"#utility.yul\":2637:2764   */\n    tag_58:\n        /* \"#utility.yul\":2698:2708   */\n      0x4e487b71\n        /* \"#utility.yul\":2693:2696   */\n      0xe0\n        /* \"#utility.yul\":2689:2709   */\n      shl\n        /* \"#utility.yul\":2686:2687   */\n      0x00\n        /* \"#utility.yul\":2679:2710   */\n      mstore\n        /* \"#utility.yul\":2729:2733   */\n      0x32\n        /* \"#utility.yul\":2726:2727   */\n      0x04\n        /* \"#utility.yul\":2719:2734   */\n      mstore\n        /* \"#utility.yul\":2753:2757   */\n      0x24\n        /* \"#utility.yul\":2750:2751   */\n      0x00\n        /* \"#utility.yul\":2743:2758   */\n      revert\n\n    auxdata: 0xa2646970667358221220c1cf54f584c475486870c9c4065cfe7e89f8392c8ecb193e96012b1ae85f69d864736f6c63430008140033\n}\n",
				"bytecode": {
					"linkReferences": {},
					"object": "608060405234801561000f575f80fd5b505f80546001600160a01b031916331790556104a28061002e5f395ff3fe60806040526004361061006e575f3560e01c80635d495aea1161004c5780635d495aea146100d15780638b5b9ccc146100e55780638da5cb5b14610106578063f71d96cb14610124575f80fd5b80632cfcc53914610072578063473f1ddc1461007c5780634f8c70cf146100b2575b5f80fd5b61007a610143565b005b348015610087575f80fd5b506002546001600160a01b03165b6040516001600160a01b0390911681526020015b60405180910390f35b3480156100bd575f80fd5b50600254610095906001600160a01b031681565b3480156100dc575f80fd5b5061007a6101e0565b3480156100f0575f80fd5b506100f9610320565b6040516100a991906103d6565b348015610111575f80fd5b505f54610095906001600160a01b031681565b34801561012f575f80fd5b5061009561013e366004610422565b610380565b66038d7ea4c68000341161019e5760405162461bcd60e51b815260206004820152601960248201527f4e656564203e20302e3030312045544820746f20656e7465720000000000000060448201526064015b60405180910390fd5b6001805480820182555f919091527fb10e2d527612073b26eecdfd717e6a320cf44b4afac2b0732d9fcbe2b7fa0cf60180546001600160a01b03191633179055565b5f546001600160a01b031633146102265760405162461bcd60e51b815260206004820152600a60248201526927b7363c9037bbb732b960b11b6044820152606401610195565b6001546102665760405162461bcd60e51b815260206004820152600e60248201526d139bc81c1b185e595c9cc81e595d60921b6044820152606401610195565b600154604080514260208201524491810191909152606081018290525f9190608001604051602081830303815290604052805190602001205f1c6102aa9190610439565b9050600181815481106102bf576102bf610458565b5f918252602082200154600280546001600160a01b0319166001600160a01b03909216918217905560405190914780156108fc02929091818181858888f19350505050158015610311573d5f803e3d5ffd5b5061031d60015f6103a8565b50565b6060600180548060200260200160405190810160405280929190818152602001828054801561037657602002820191905f5260205f20905b81546001600160a01b03168152600190910190602001808311610358575b5050505050905090565b6001818154811061038f575f80fd5b5f918252602090912001546001600160a01b0316905081565b5080545f8255905f5260205f209081019061031d91905b808211156103d2575f81556001016103bf565b5090565b602080825282518282018190525f9190848201906040850190845b818110156104165783516001600160a01b0316835292840192918401916001016103f1565b50909695505050505050565b5f60208284031215610432575f80fd5b5035919050565b5f8261045357634e487b7160e01b5f52601260045260245ffd5b500690565b634e487b7160e01b5f52603260045260245ffdfea2646970667358221220c1cf54f584c475486870c9c4065cfe7e89f8392c8ecb193e96012b1ae85f69d864736f6c63430008140033",
					"opcodes": "PUSH1 0x80 PUSH1 0x40 MSTORE CALLVALUE DUP1 ISZERO PUSH2 0xF JUMPI PUSH0 DUP1 REVERT JUMPDEST POP PUSH0 DUP1 SLOAD PUSH1 0x1 PUSH1 0x1 PUSH1 0xA0 SHL SUB NOT AND CALLER OR SWAP1 SSTORE PUSH2 0x4A2 DUP1 PUSH2 0x2E PUSH0 CODECOPY PUSH0 RETURN INVALID PUSH1 0x80 PUSH1 0x40 MSTORE PUSH1 0x4 CALLDATASIZE LT PUSH2 0x6E JUMPI PUSH0 CALLDATALOAD PUSH1 0xE0 SHR DUP1 PUSH4 0x5D495AEA GT PUSH2 0x4C JUMPI DUP1 PUSH4 0x5D495AEA EQ PUSH2 0xD1 JUMPI DUP1 PUSH4 0x8B5B9CCC EQ PUSH2 0xE5 JUMPI DUP1 PUSH4 0x8DA5CB5B EQ PUSH2 0x106 JUMPI DUP1 PUSH4 0xF71D96CB EQ PUSH2 0x124 JUMPI PUSH0 DUP1 REVERT JUMPDEST DUP1 PUSH4 0x2CFCC539 EQ PUSH2 0x72 JUMPI DUP1 PUSH4 0x473F1DDC EQ PUSH2 0x7C JUMPI DUP1 PUSH4 0x4F8C70CF EQ PUSH2 0xB2 JUMPI JUMPDEST PUSH0 DUP1 REVERT JUMPDEST PUSH2 0x7A PUSH2 0x143 JUMP JUMPDEST STOP JUMPDEST CALLVALUE DUP1 ISZERO PUSH2 0x87 JUMPI PUSH0 DUP1 REVERT JUMPDEST POP PUSH1 0x2 SLOAD PUSH1 0x1 PUSH1 0x1 PUSH1 0xA0 SHL SUB AND JUMPDEST PUSH1 0x40 MLOAD PUSH1 0x1 PUSH1 0x1 PUSH1 0xA0 SHL SUB SWAP1 SWAP2 AND DUP2 MSTORE PUSH1 0x20 ADD JUMPDEST PUSH1 0x40 MLOAD DUP1 SWAP2 SUB SWAP1 RETURN JUMPDEST CALLVALUE DUP1 ISZERO PUSH2 0xBD JUMPI PUSH0 DUP1 REVERT JUMPDEST POP PUSH1 0x2 SLOAD PUSH2 0x95 SWAP1 PUSH1 0x1 PUSH1 0x1 PUSH1 0xA0 SHL SUB AND DUP2 JUMP JUMPDEST CALLVALUE DUP1 ISZERO PUSH2 0xDC JUMPI PUSH0 DUP1 REVERT JUMPDEST POP PUSH2 0x7A PUSH2 0x1E0 JUMP JUMPDEST CALLVALUE DUP1 ISZERO PUSH2 0xF0 JUMPI PUSH0 DUP1 REVERT JUMPDEST POP PUSH2 0xF9 PUSH2 0x320 JUMP JUMPDEST PUSH1 0x40 MLOAD PUSH2 0xA9 SWAP2 SWAP1 PUSH2 0x3D6 JUMP JUMPDEST CALLVALUE DUP1 ISZERO PUSH2 0x111 JUMPI PUSH0 DUP1 REVERT JUMPDEST POP PUSH0 SLOAD PUSH2 0x95 SWAP1 PUSH1 0x1 PUSH1 0x1 PUSH1 0xA0 SHL SUB AND DUP2 JUMP JUMPDEST CALLVALUE DUP1 ISZERO PUSH2 0x12F JUMPI PUSH0 DUP1 REVERT JUMPDEST POP PUSH2 0x95 PUSH2 0x13E CALLDATASIZE PUSH1 0x4 PUSH2 0x422 JUMP JUMPDEST PUSH2 0x380 JUMP JUMPDEST PUSH7 0x38D7EA4C68000 CALLVALUE GT PUSH2 0x19E JUMPI PUSH1 0x40 MLOAD PUSH3 0x461BCD PUSH1 0xE5 SHL DUP2 MSTORE PUSH1 0x20 PUSH1 0x4 DUP3 ADD MSTORE PUSH1 0x19 PUSH1 0x24 DUP3 ADD MSTORE PUSH32 0x4E656564203E20302E3030312045544820746F20656E74657200000000000000 PUSH1 0x44 DUP3 ADD MSTORE PUSH1 0x64 ADD JUMPDEST PUSH1 0x40 MLOAD DUP1 SWAP2 SUB SWAP1 REVERT JUMPDEST PUSH1 0x1 DUP1 SLOAD DUP1 DUP3 ADD DUP3 SSTORE PUSH0 SWAP2 SWAP1 SWAP2 MSTORE PUSH32 0xB10E2D527612073B26EECDFD717E6A320CF44B4AFAC2B0732D9FCBE2B7FA0CF6 ADD DUP1 SLOAD PUSH1 0x1 PUSH1 0x1 PUSH1 0xA0 SHL SUB NOT AND CALLER OR SWAP1 SSTORE JUMP JUMPDEST PUSH0 SLOAD PUSH1 0x1 PUSH1 0x1 PUSH1 0xA0 SHL SUB AND CALLER EQ PUSH2 0x226 JUMPI PUSH1 0x40 MLOAD PUSH3 0x461BCD PUSH1 0xE5 SHL DUP2 MSTORE PUSH1 0x20 PUSH1 0x4 DUP3 ADD MSTORE PUSH1 0xA PUSH1 0x24 DUP3 ADD MSTORE PUSH10 0x27B7363C9037BBB732B9 PUSH1 0xB1 SHL PUSH1 0x44 DUP3 ADD MSTORE PUSH1 0x64 ADD PUSH2 0x195 JUMP JUMPDEST PUSH1 0x1 SLOAD PUSH2 0x266 JUMPI PUSH1 0x40 MLOAD PUSH3 0x461BCD PUSH1 0xE5 SHL DUP2 MSTORE PUSH1 0x20 PUSH1 0x4 DUP3 ADD MSTORE PUSH1 0xE PUSH1 0x24 DUP3 ADD MSTORE PUSH14 0x139BC81C1B185E595C9CC81E595D PUSH1 0x92 SHL PUSH1 0x44 DUP3 ADD MSTORE PUSH1 0x64 ADD PUSH2 0x195 JUMP JUMPDEST PUSH1 0x1 SLOAD PUSH1 0x40 DUP1 MLOAD TIMESTAMP PUSH1 0x20 DUP3 ADD MSTORE PREVRANDAO SWAP2 DUP2 ADD SWAP2 SWAP1 SWAP2 MSTORE PUSH1 0x60 DUP2 ADD DUP3 SWAP1 MSTORE PUSH0 SWAP2 SWAP1 PUSH1 0x80 ADD PUSH1 0x40 MLOAD PUSH1 0x20 DUP2 DUP4 SUB SUB DUP2 MSTORE SWAP1 PUSH1 0x40 MSTORE DUP1 MLOAD SWAP1 PUSH1 0x20 ADD KECCAK256 PUSH0 SHR PUSH2 0x2AA SWAP2 SWAP1 PUSH2 0x439 JUMP JUMPDEST SWAP1 POP PUSH1 0x1 DUP2 DUP2 SLOAD DUP2 LT PUSH2 0x2BF JUMPI PUSH2 0x2BF PUSH2 0x458 JUMP JUMPDEST PUSH0 SWAP2 DUP3 MSTORE PUSH1 0x20 DUP3 KECCAK256 ADD SLOAD PUSH1 0x2 DUP1 SLOAD PUSH1 0x1 PUSH1 0x1 PUSH1 0xA0 SHL SUB NOT AND PUSH1 0x1 PUSH1 0x1 PUSH1 0xA0 SHL SUB SWAP1 SWAP3 AND SWAP2 DUP3 OR SWAP1 SSTORE PUSH1 0x40 MLOAD SWAP1 SWAP2 SELFBALANCE DUP1 ISZERO PUSH2 0x8FC MUL SWAP3 SWAP1 SWAP2 DUP2 DUP2 DUP2 DUP6 DUP9 DUP9 CALL SWAP4 POP POP POP POP ISZERO DUP1 ISZERO PUSH2 0x311 JUMPI RETURNDATASIZE PUSH0 DUP1 RETURNDATACOPY RETURNDATASIZE PUSH0 REVERT JUMPDEST POP PUSH2 0x31D PUSH1 0x1 PUSH0 PUSH2 0x3A8 JUMP JUMPDEST POP JUMP JUMPDEST PUSH1 0x60 PUSH1 0x1 DUP1 SLOAD DUP1 PUSH1 0x20 MUL PUSH1 0x20 ADD PUSH1 0x40 MLOAD SWAP1 DUP2 ADD PUSH1 0x40 MSTORE DUP1 SWAP3 SWAP2 SWAP1 DUP2 DUP2 MSTORE PUSH1 0x20 ADD DUP3 DUP1 SLOAD DUP1 ISZERO PUSH2 0x376 JUMPI PUSH1 0x20 MUL DUP3 ADD SWAP2 SWAP1 PUSH0 MSTORE PUSH1 0x20 PUSH0 KECCAK256 SWAP1 JUMPDEST DUP2 SLOAD PUSH1 0x1 PUSH1 0x1 PUSH1 0xA0 SHL SUB AND DUP2 MSTORE PUSH1 0x1 SWAP1 SWAP2 ADD SWAP1 PUSH1 0x20 ADD DUP1 DUP4 GT PUSH2 0x358 JUMPI JUMPDEST POP POP POP POP POP SWAP1 POP SWAP1 JUMP JUMPDEST PUSH1 0x1 DUP2 DUP2 SLOAD DUP2 LT PUSH2 0x38F JUMPI PUSH0 DUP1 REVERT JUMPDEST PUSH0 SWAP2 DUP3 MSTORE PUSH1 0x20 SWAP1 SWAP2 KECCAK256 ADD SLOAD PUSH1 0x1 PUSH1 0x1 PUSH1 0xA0 SHL SUB AND SWAP1 POP DUP2 JUMP JUMPDEST POP DUP1 SLOAD PUSH0 DUP3 SSTORE SWAP1 PUSH0 MSTORE PUSH1 0x20 PUSH0 KECCAK256 SWAP1 DUP2 ADD SWAP1 PUSH2 0x31D SWAP2 SWAP1 JUMPDEST DUP1 DUP3 GT ISZERO PUSH2 0x3D2 JUMPI PUSH0 DUP2 SSTORE PUSH1 0x1 ADD PUSH2 0x3BF JUMP JUMPDEST POP SWAP1 JUMP JUMPDEST PUSH1 0x20 DUP1 DUP3 MSTORE DUP3 MLOAD DUP3 DUP3 ADD DUP2 SWAP1 MSTORE PUSH0 SWAP2 SWAP1 DUP5 DUP3 ADD SWAP1 PUSH1 0x40 DUP6 ADD SWAP1 DUP5 JUMPDEST DUP2 DUP2 LT ISZERO PUSH2 0x416 JUMPI DUP4 MLOAD PUSH1 0x1 PUSH1 0x1 PUSH1 0xA0 SHL SUB AND DUP4 MSTORE SWAP3 DUP5 ADD SWAP3 SWAP2 DUP5 ADD SWAP2 PUSH1 0x1 ADD PUSH2 0x3F1 JUMP JUMPDEST POP SWAP1 SWAP7 SWAP6 POP POP POP POP POP POP JUMP JUMPDEST PUSH0 PUSH1 0x20 DUP3 DUP5 SUB SLT ISZERO PUSH2 0x432 JUMPI PUSH0 DUP1 REVERT JUMPDEST POP CALLDATALOAD SWAP2 SWAP1 POP JUMP JUMPDEST PUSH0 DUP3 PUSH2 0x453 JUMPI PUSH4 0x4E487B71 PUSH1 0xE0 SHL PUSH0 MSTORE PUSH1 0x12 PUSH1 0x4 MSTORE PUSH1 0x24 PUSH0 REVERT JUMPDEST POP MOD SWAP1 JUMP JUMPDEST PUSH4 0x4E487B71 PUSH1 0xE0 SHL PUSH0 MSTORE PUSH1 0x32 PUSH1 0x4 MSTORE PUSH1 0x24 PUSH0 REVERT INVALID LOG2 PUSH5 0x6970667358 0x22 SLT KECCAK256 0xC1 0xCF SLOAD CREATE2 DUP5 0xC4 PUSH22 0x486870C9C4065CFE7E89F8392C8ECB193E96012B1AE8 PUSH0 PUSH10 0xD864736F6C6343000814 STOP CALLER "
				},
				"gasEstimates": {
					"creation": {
						"codeDepositCost": "237200",
						"executionCost": "24513",
						"totalCost": "261713"
					},
					"external": {
						"enterRaffle()": "48612",
						"getPlayers()": "infinite",
						"getRecentWinner()": "2331",
						"owner()": "2368",
						"pickWinner()": "infinite",
						"players(uint256)": "4666",
						"recentWinner()": "2370"
					}
				},
				"methodIdentifiers": {
					"enterRaffle()": "2cfcc539",
					"getPlayers()": "8b5b9ccc",
					"getRecentWinner()": "473f1ddc",
					"owner()": "8da5cb5b",
					"pickWinner()": "5d495aea",
					"players(uint256)": "f71d96cb",
					"recentWinner()": "4f8c70cf"
				}
			},
			"storageLayout": {
				"storage": [
					{
						"astId": 3,
						"contract": "Raffle.sol:Raffle",
						"label": "owner",
						"offset": 0,
						"slot": "0",
						"type": "t_address"
					},
					{
						"astId": 6,
						"contract": "Raffle.sol:Raffle",
						"label": "players",
						"offset": 0,
						"slot": "1",
						"type": "t_array(t_address)dyn_storage"
					},
					{
						"astId": 8,
						"contract": "Raffle.sol:Raffle",
						"label": "recentWinner",
						"offset": 0,
						"slot": "2",
						"type": "t_address"
					}
				],
				"types": {
					"t_address": {
						"encoding": "inplace",
						"label": "address",
						"numberOfBytes": "20"
					},
					"t_array(t_address)dyn_storage": {
						"base": "t_address",
						"encoding": "dynamic_array",
						"label": "address[]",
						"numberOfBytes": "32"
					}
				}
			},
			"userdoc": {
				"kind": "user",
				"methods": {},
				"version": 1
			}
		}
	}
}