{
	"ChallengeFactory_flattened.sol": {
		"Reputation": {
			"abi": [
				{
					"anonymous": false,
					"inputs": [
						{
							"indexed": true,
							"internalType": "address",
							"name": "user",
							"type": "address"
						},
						{
							"indexed": false,
							"internalType": "string",
							"name": "badge",
							"type": "string"
						}
					],
					"name": "BadgeAwarded",
					"type": "event"
				},
				{
					"anonymous": false,
					"inputs": [
						{
							"indexed": true,
							"internalType": "address",
							"name": "user",
							"type": "address"
						},
						{
							"indexed": false,
							"internalType": "uint256",
							"name": "newScore",
							"type": "uint256"
						}
					],
					"name": "ReputationIncreased",
					"type": "event"
				},
				{
					"inputs": [
						{
							"internalType": "address",
							"name": "user",
							"type": "address"
						},
						{
							"internalType": "string",
							"name": "badge",
							"type": "string"
						}
					],
					"name": "awardBadge",
					"outputs": [],
					"stateMutability": "nonpayable",
					"type": "function"
				},
				{
					"inputs": [
						{
							"internalType": "address",
							"name": "",
							"type": "address"
						},
						{
							"internalType": "uint256",
							"name": "",
							"type": "uint256"
						}
					],
					"name": "badges",
					"outputs": [
						{
							"internalType": "string",
							"name": "",
							"type": "string"
						}
					],
					"stateMutability": "view",
					"type": "function"
				},
				{
					"inputs": [
						{
							"internalType": "address",
							"name": "user",
							"type": "address"
						}
					],
					"name": "getBadges",
					"outputs": [
						{
							"internalType": "string[]",
							"name": "",
							"type": "string[]"
						}
					],
					"stateMutability": "view",
					"type": "function"
				},
				{
					"inputs": [
						{
							"internalType": "address",
							"name": "user",
							"type": "address"
						},
						{
							"internalType": "uint256",
							"name": "amount",
							"type": "uint256"
						}
					],
					"name": "increaseReputation",
					"outputs": [],
					"stateMutability": "nonpayable",
					"type": "function"
				},
				{
					"inputs": [
						{
							"internalType": "address",
							"name": "",
							"type": "address"
						}
					],
					"name": "reputation",
					"outputs": [
						{
							"internalType": "uint256",
							"name": "",
							"type": "uint256"
						}
					],
					"stateMutability": "view",
					"type": "function"
				}
			],
			"devdoc": {
				"kind": "dev",
				"methods": {},
				"version": 1
			},
			"evm": {
				"assembly": "    /* \"ChallengeFactory_flattened.sol\":84:778  contract Reputation {... */\n  mstore(0x40, 0x80)\n  callvalue\n  dup1\n  iszero\n  tag_1\n  jumpi\n  0x00\n  dup1\n  revert\ntag_1:\n  pop\n  dataSize(sub_0)\n  dup1\n  dataOffset(sub_0)\n  0x00\n  codecopy\n  0x00\n  return\nstop\n\nsub_0: assembly {\n        /* \"ChallengeFactory_flattened.sol\":84:778  contract Reputation {... */\n      mstore(0x40, 0x80)\n      callvalue\n      dup1\n      iszero\n      tag_1\n      jumpi\n      0x00\n      dup1\n      revert\n    tag_1:\n      pop\n      jumpi(tag_2, lt(calldatasize, 0x04))\n      shr(0xe0, calldataload(0x00))\n      dup1\n      0x03828e45\n      eq\n      tag_3\n      jumpi\n      dup1\n      0x833c5329\n      eq\n      tag_4\n      jumpi\n      dup1\n      0xb9f79451\n      eq\n      tag_5\n      jumpi\n      dup1\n      0xded86d68\n      eq\n      tag_6\n      jumpi\n      dup1\n      0xfbd09794\n      eq\n      tag_7\n      jumpi\n    tag_2:\n      0x00\n      dup1\n      revert\n        /* \"ChallengeFactory_flattened.sol\":667:776  function getBadges(address user) external view returns (string[] memory) {... */\n    tag_3:\n      tag_8\n      tag_9\n      calldatasize\n      0x04\n      tag_10\n      jump\t// in\n    tag_9:\n      tag_11\n      jump\t// in\n    tag_8:\n      mload(0x40)\n      tag_12\n      swap2\n      swap1\n      tag_13\n      jump\t// in\n    tag_12:\n      mload(0x40)\n      dup1\n      swap2\n      sub\n      swap1\n      return\n        /* \"ChallengeFactory_flattened.sol\":516:661  function awardBadge(address user, string memory badge) external {... */\n    tag_4:\n      tag_14\n      tag_15\n      calldatasize\n      0x04\n      tag_16\n      jump\t// in\n    tag_15:\n      tag_17\n      jump\t// in\n    tag_14:\n      stop\n        /* \"ChallengeFactory_flattened.sol\":110:155  mapping(address => uint256) public reputation */\n    tag_5:\n      tag_18\n      tag_19\n      calldatasize\n      0x04\n      tag_10\n      jump\t// in\n    tag_19:\n      0x00\n      0x20\n      dup2\n      swap1\n      mstore\n      swap1\n      dup2\n      mstore\n      0x40\n      swap1\n      keccak256\n      sload\n      dup2\n      jump\n    tag_18:\n      mload(0x40)\n        /* \"#utility.yul\":2898:2923   */\n      swap1\n      dup2\n      mstore\n        /* \"#utility.yul\":2886:2888   */\n      0x20\n        /* \"#utility.yul\":2871:2889   */\n      add\n        /* \"ChallengeFactory_flattened.sol\":110:155  mapping(address => uint256) public reputation */\n      tag_12\n        /* \"#utility.yul\":2752:2929   */\n      jump\n        /* \"ChallengeFactory_flattened.sol\":342:510  function increaseReputation(address user, uint256 amount) external {... */\n    tag_6:\n      tag_14\n      tag_24\n      calldatasize\n      0x04\n      tag_25\n      jump\t// in\n    tag_24:\n      tag_26\n      jump\t// in\n        /* \"ChallengeFactory_flattened.sol\":161:203  mapping(address => string[]) public badges */\n    tag_7:\n      tag_27\n      tag_28\n      calldatasize\n      0x04\n      tag_25\n      jump\t// in\n    tag_28:\n      tag_29\n      jump\t// in\n    tag_27:\n      mload(0x40)\n      tag_12\n      swap2\n      swap1\n      tag_31\n      jump\t// in\n        /* \"ChallengeFactory_flattened.sol\":667:776  function getBadges(address user) external view returns (string[] memory) {... */\n    tag_11:\n      sub(shl(0xa0, 0x01), 0x01)\n        /* \"ChallengeFactory_flattened.sol\":757:769  badges[user] */\n      dup2\n      and\n      0x00\n      swap1\n      dup2\n      mstore\n        /* \"ChallengeFactory_flattened.sol\":757:763  badges */\n      0x01\n        /* \"ChallengeFactory_flattened.sol\":757:769  badges[user] */\n      0x20\n      swap1\n      dup2\n      mstore\n      0x40\n      dup1\n      dup4\n      keccak256\n        /* \"ChallengeFactory_flattened.sol\":750:769  return badges[user] */\n      dup1\n      sload\n      dup3\n      mload\n      dup2\n      dup6\n      mul\n      dup2\n      add\n      dup6\n      add\n      swap1\n      swap4\n      mstore\n      dup1\n      dup4\n      mstore\n        /* \"ChallengeFactory_flattened.sol\":723:738  string[] memory */\n      0x60\n      swap5\n        /* \"ChallengeFactory_flattened.sol\":750:769  return badges[user] */\n      swap3\n      swap4\n        /* \"ChallengeFactory_flattened.sol\":757:769  badges[user] */\n      swap2\n      swap3\n        /* \"ChallengeFactory_flattened.sol\":750:769  return badges[user] */\n      swap1\n      swap2\n      dup5\n      add\n    tag_33:\n      dup3\n      dup3\n      lt\n      iszero\n      tag_34\n      jumpi\n      dup4\n      dup3\n      swap1\n      0x00\n      mstore\n      keccak256(0x00, 0x20)\n      add\n      dup1\n      sload\n      tag_36\n      swap1\n      tag_37\n      jump\t// in\n    tag_36:\n      dup1\n      0x1f\n      add\n      0x20\n      dup1\n      swap2\n      div\n      mul\n      0x20\n      add\n      mload(0x40)\n      swap1\n      dup2\n      add\n      0x40\n      mstore\n      dup1\n      swap3\n      swap2\n      swap1\n      dup2\n      dup2\n      mstore\n      0x20\n      add\n      dup3\n      dup1\n      sload\n      tag_38\n      swap1\n      tag_37\n      jump\t// in\n    tag_38:\n      dup1\n      iszero\n      tag_39\n      jumpi\n      dup1\n      0x1f\n      lt\n      tag_40\n      jumpi\n      0x0100\n      dup1\n      dup4\n      sload\n      div\n      mul\n      dup4\n      mstore\n      swap2\n      0x20\n      add\n      swap2\n      jump(tag_39)\n    tag_40:\n      dup3\n      add\n      swap2\n      swap1\n      0x00\n      mstore\n      keccak256(0x00, 0x20)\n      swap1\n    tag_41:\n      dup2\n      sload\n      dup2\n      mstore\n      swap1\n      0x01\n      add\n      swap1\n      0x20\n      add\n      dup1\n      dup4\n      gt\n      tag_41\n      jumpi\n      dup3\n      swap1\n      sub\n      0x1f\n      and\n      dup3\n      add\n      swap2\n    tag_39:\n      pop\n      pop\n      pop\n      pop\n      pop\n      dup2\n      mstore\n      0x20\n      add\n      swap1\n      0x01\n      add\n      swap1\n      jump(tag_33)\n    tag_34:\n      pop\n      pop\n      pop\n      pop\n      swap1\n      pop\n        /* \"ChallengeFactory_flattened.sol\":667:776  function getBadges(address user) external view returns (string[] memory) {... */\n      swap2\n      swap1\n      pop\n      jump\t// out\n        /* \"ChallengeFactory_flattened.sol\":516:661  function awardBadge(address user, string memory badge) external {... */\n    tag_17:\n      sub(shl(0xa0, 0x01), 0x01)\n        /* \"ChallengeFactory_flattened.sol\":590:602  badges[user] */\n      dup3\n      and\n      0x00\n      swap1\n      dup2\n      mstore\n        /* \"ChallengeFactory_flattened.sol\":590:596  badges */\n      0x01\n        /* \"ChallengeFactory_flattened.sol\":590:602  badges[user] */\n      0x20\n      dup2\n      dup2\n      mstore\n      0x40\n      dup4\n      keccak256\n        /* \"ChallengeFactory_flattened.sol\":590:614  badges[user].push(badge) */\n      dup1\n      sload\n      swap3\n      dup4\n      add\n      dup2\n      sstore\n      dup4\n      mstore\n      swap1\n      swap2\n      keccak256\n      add\n      tag_44\n        /* \"ChallengeFactory_flattened.sol\":608:613  badge */\n      dup3\n        /* \"ChallengeFactory_flattened.sol\":590:614  badges[user].push(badge) */\n      dup3\n      tag_45\n      jump\t// in\n    tag_44:\n      pop\n        /* \"ChallengeFactory_flattened.sol\":642:646  user */\n      dup2\n      sub(shl(0xa0, 0x01), 0x01)\n        /* \"ChallengeFactory_flattened.sol\":629:654  BadgeAwarded(user, badge) */\n      and\n      0x69c934c9cd93691b9435ed4d66ddb36755cce9ce6d0d34f7b5042287510c0096\n        /* \"ChallengeFactory_flattened.sol\":648:653  badge */\n      dup3\n        /* \"ChallengeFactory_flattened.sol\":629:654  BadgeAwarded(user, badge) */\n      mload(0x40)\n      tag_46\n      swap2\n      swap1\n      tag_31\n      jump\t// in\n    tag_46:\n      mload(0x40)\n      dup1\n      swap2\n      sub\n      swap1\n      log2\n        /* \"ChallengeFactory_flattened.sol\":516:661  function awardBadge(address user, string memory badge) external {... */\n      pop\n      pop\n      jump\t// out\n        /* \"ChallengeFactory_flattened.sol\":342:510  function increaseReputation(address user, uint256 amount) external {... */\n    tag_26:\n      sub(shl(0xa0, 0x01), 0x01)\n        /* \"ChallengeFactory_flattened.sol\":419:435  reputation[user] */\n      dup3\n      and\n        /* \"ChallengeFactory_flattened.sol\":419:429  reputation */\n      0x00\n        /* \"ChallengeFactory_flattened.sol\":419:435  reputation[user] */\n      swap1\n      dup2\n      mstore\n      0x20\n      dup2\n      swap1\n      mstore\n      0x40\n      dup2\n      keccak256\n        /* \"ChallengeFactory_flattened.sol\":419:445  reputation[user] += amount */\n      dup1\n      sload\n        /* \"ChallengeFactory_flattened.sol\":439:445  amount */\n      dup4\n      swap3\n        /* \"ChallengeFactory_flattened.sol\":419:429  reputation */\n      swap1\n        /* \"ChallengeFactory_flattened.sol\":419:445  reputation[user] += amount */\n      tag_48\n      swap1\n        /* \"ChallengeFactory_flattened.sol\":439:445  amount */\n      dup5\n      swap1\n        /* \"ChallengeFactory_flattened.sol\":419:445  reputation[user] += amount */\n      tag_49\n      jump\t// in\n    tag_48:\n      swap1\n      swap2\n      sstore\n      pop\n      pop\n      sub(shl(0xa0, 0x01), 0x01)\n        /* \"ChallengeFactory_flattened.sol\":460:503  ReputationIncreased(user, reputation[user]) */\n      dup3\n      and\n        /* \"ChallengeFactory_flattened.sol\":486:496  reputation */\n      0x00\n        /* \"ChallengeFactory_flattened.sol\":486:502  reputation[user] */\n      dup2\n      dup2\n      mstore\n      0x20\n      dup2\n      dup2\n      mstore\n      0x40\n      swap2\n      dup3\n      swap1\n      keccak256\n      sload\n        /* \"ChallengeFactory_flattened.sol\":460:503  ReputationIncreased(user, reputation[user]) */\n      swap2\n      mload\n        /* \"#utility.yul\":2898:2923   */\n      swap2\n      dup3\n      mstore\n        /* \"ChallengeFactory_flattened.sol\":460:503  ReputationIncreased(user, reputation[user]) */\n      0xfac498e7ee7d43e382528bf22afd838a7c6abfa5f54e7c564f7e5a54a18ca34c\n      swap2\n        /* \"#utility.yul\":2871:2889   */\n      add\n        /* \"ChallengeFactory_flattened.sol\":460:503  ReputationIncreased(user, reputation[user]) */\n      tag_46\n        /* \"#utility.yul\":2752:2929   */\n      jump\n        /* \"ChallengeFactory_flattened.sol\":161:203  mapping(address => string[]) public badges */\n    tag_29:\n      mstore(0x20, 0x01)\n      dup2\n      0x00\n      mstore\n      keccak256(0x00, 0x40)\n      dup2\n      dup2\n      sload\n      dup2\n      lt\n      tag_51\n      jumpi\n      0x00\n      dup1\n      revert\n    tag_51:\n      swap1\n      0x00\n      mstore\n      keccak256(0x00, 0x20)\n      add\n      0x00\n      swap2\n      pop\n      swap2\n      pop\n      pop\n      dup1\n      sload\n      tag_53\n      swap1\n      tag_37\n      jump\t// in\n    tag_53:\n      dup1\n      0x1f\n      add\n      0x20\n      dup1\n      swap2\n      div\n      mul\n      0x20\n      add\n      mload(0x40)\n      swap1\n      dup2\n      add\n      0x40\n      mstore\n      dup1\n      swap3\n      swap2\n      swap1\n      dup2\n      dup2\n      mstore\n      0x20\n      add\n      dup3\n      dup1\n      sload\n      tag_54\n      swap1\n      tag_37\n      jump\t// in\n    tag_54:\n      dup1\n      iszero\n      tag_55\n      jumpi\n      dup1\n      0x1f\n      lt\n      tag_56\n      jumpi\n      0x0100\n      dup1\n      dup4\n      sload\n      div\n      mul\n      dup4\n      mstore\n      swap2\n      0x20\n      add\n      swap2\n      jump(tag_55)\n    tag_56:\n      dup3\n      add\n      swap2\n      swap1\n      0x00\n      mstore\n      keccak256(0x00, 0x20)\n      swap1\n    tag_57:\n      dup2\n      sload\n      dup2\n      mstore\n      swap1\n      0x01\n      add\n      swap1\n      0x20\n      add\n      dup1\n      dup4\n      gt\n      tag_57\n      jumpi\n      dup3\n      swap1\n      sub\n      0x1f\n      and\n      dup3\n      add\n      swap2\n    tag_55:\n      pop\n      pop\n      pop\n      pop\n      pop\n      dup2\n      jump\t// out\n        /* \"#utility.yul\":14:187   */\n    tag_58:\n        /* \"#utility.yul\":82:102   */\n      dup1\n      calldataload\n      sub(shl(0xa0, 0x01), 0x01)\n        /* \"#utility.yul\":131:162   */\n      dup2\n      and\n        /* \"#utility.yul\":121:163   */\n      dup2\n      eq\n        /* \"#utility.yul\":111:181   */\n      tag_66\n      jumpi\n        /* \"#utility.yul\":177:178   */\n      0x00\n        /* \"#utility.yul\":174:175   */\n      dup1\n        /* \"#utility.yul\":167:179   */\n      revert\n        /* \"#utility.yul\":111:181   */\n    tag_66:\n        /* \"#utility.yul\":14:187   */\n      swap2\n      swap1\n      pop\n      jump\t// out\n        /* \"#utility.yul\":192:378   */\n    tag_10:\n        /* \"#utility.yul\":251:257   */\n      0x00\n        /* \"#utility.yul\":304:306   */\n      0x20\n        /* \"#utility.yul\":292:301   */\n      dup3\n        /* \"#utility.yul\":283:290   */\n      dup5\n        /* \"#utility.yul\":279:302   */\n      sub\n        /* \"#utility.yul\":275:307   */\n      slt\n        /* \"#utility.yul\":272:324   */\n      iszero\n      tag_68\n      jumpi\n        /* \"#utility.yul\":320:321   */\n      0x00\n        /* \"#utility.yul\":317:318   */\n      dup1\n        /* \"#utility.yul\":310:322   */\n      revert\n        /* \"#utility.yul\":272:324   */\n    tag_68:\n        /* \"#utility.yul\":343:372   */\n      tag_69\n        /* \"#utility.yul\":362:371   */\n      dup3\n        /* \"#utility.yul\":343:372   */\n      tag_58\n      jump\t// in\n    tag_69:\n        /* \"#utility.yul\":333:372   */\n      swap4\n        /* \"#utility.yul\":192:378   */\n      swap3\n      pop\n      pop\n      pop\n      jump\t// out\n        /* \"#utility.yul\":383:806   */\n    tag_59:\n        /* \"#utility.yul\":425:428   */\n      0x00\n        /* \"#utility.yul\":463:468   */\n      dup2\n        /* \"#utility.yul\":457:469   */\n      mload\n        /* \"#utility.yul\":490:496   */\n      dup1\n        /* \"#utility.yul\":485:488   */\n      dup5\n        /* \"#utility.yul\":478:497   */\n      mstore\n        /* \"#utility.yul\":515:516   */\n      0x00\n        /* \"#utility.yul\":525:687   */\n    tag_71:\n        /* \"#utility.yul\":539:545   */\n      dup2\n        /* \"#utility.yul\":536:537   */\n      dup2\n        /* \"#utility.yul\":533:546   */\n      lt\n        /* \"#utility.yul\":525:687   */\n      iszero\n      tag_73\n      jumpi\n        /* \"#utility.yul\":601:605   */\n      0x20\n        /* \"#utility.yul\":657:670   */\n      dup2\n      dup6\n      add\n        /* \"#utility.yul\":653:675   */\n      dup2\n      add\n        /* \"#utility.yul\":647:676   */\n      mload\n        /* \"#utility.yul\":629:640   */\n      dup7\n      dup4\n      add\n        /* \"#utility.yul\":625:645   */\n      dup3\n      add\n        /* \"#utility.yul\":618:677   */\n      mstore\n        /* \"#utility.yul\":554:566   */\n      add\n        /* \"#utility.yul\":525:687   */\n      jump(tag_71)\n    tag_73:\n        /* \"#utility.yul\":529:532   */\n      pop\n        /* \"#utility.yul\":732:733   */\n      0x00\n        /* \"#utility.yul\":725:729   */\n      0x20\n        /* \"#utility.yul\":716:722   */\n      dup3\n        /* \"#utility.yul\":711:714   */\n      dup7\n        /* \"#utility.yul\":707:723   */\n      add\n        /* \"#utility.yul\":703:730   */\n      add\n        /* \"#utility.yul\":696:734   */\n      mstore\n        /* \"#utility.yul\":795:799   */\n      0x20\n        /* \"#utility.yul\":788:790   */\n      0x1f\n        /* \"#utility.yul\":784:791   */\n      not\n        /* \"#utility.yul\":779:781   */\n      0x1f\n        /* \"#utility.yul\":771:777   */\n      dup4\n        /* \"#utility.yul\":767:782   */\n      add\n        /* \"#utility.yul\":763:792   */\n      and\n        /* \"#utility.yul\":758:761   */\n      dup6\n        /* \"#utility.yul\":754:793   */\n      add\n        /* \"#utility.yul\":750:800   */\n      add\n        /* \"#utility.yul\":743:800   */\n      swap2\n      pop\n      pop\n        /* \"#utility.yul\":383:806   */\n      swap3\n      swap2\n      pop\n      pop\n      jump\t// out\n        /* \"#utility.yul\":811:1614   */\n    tag_13:\n        /* \"#utility.yul\":973:977   */\n      0x00\n        /* \"#utility.yul\":1002:1004   */\n      0x20\n        /* \"#utility.yul\":1042:1044   */\n      dup1\n        /* \"#utility.yul\":1031:1040   */\n      dup4\n        /* \"#utility.yul\":1027:1045   */\n      add\n        /* \"#utility.yul\":1072:1074   */\n      dup2\n        /* \"#utility.yul\":1061:1070   */\n      dup5\n        /* \"#utility.yul\":1054:1075   */\n      mstore\n        /* \"#utility.yul\":1095:1101   */\n      dup1\n        /* \"#utility.yul\":1130:1136   */\n      dup6\n        /* \"#utility.yul\":1124:1137   */\n      mload\n        /* \"#utility.yul\":1161:1167   */\n      dup1\n        /* \"#utility.yul\":1153:1159   */\n      dup4\n        /* \"#utility.yul\":1146:1168   */\n      mstore\n        /* \"#utility.yul\":1199:1201   */\n      0x40\n        /* \"#utility.yul\":1188:1197   */\n      dup7\n        /* \"#utility.yul\":1184:1202   */\n      add\n        /* \"#utility.yul\":1177:1202   */\n      swap2\n      pop\n        /* \"#utility.yul\":1261:1263   */\n      0x40\n        /* \"#utility.yul\":1251:1257   */\n      dup2\n        /* \"#utility.yul\":1248:1249   */\n      0x05\n        /* \"#utility.yul\":1244:1258   */\n      shl\n        /* \"#utility.yul\":1233:1242   */\n      dup8\n        /* \"#utility.yul\":1229:1259   */\n      add\n        /* \"#utility.yul\":1225:1264   */\n      add\n        /* \"#utility.yul\":1211:1264   */\n      swap3\n      pop\n        /* \"#utility.yul\":1299:1301   */\n      dup4\n        /* \"#utility.yul\":1291:1297   */\n      dup8\n        /* \"#utility.yul\":1287:1302   */\n      add\n        /* \"#utility.yul\":1320:1321   */\n      0x00\n        /* \"#utility.yul\":1330:1585   */\n    tag_75:\n        /* \"#utility.yul\":1344:1350   */\n      dup3\n        /* \"#utility.yul\":1341:1342   */\n      dup2\n        /* \"#utility.yul\":1338:1351   */\n      lt\n        /* \"#utility.yul\":1330:1585   */\n      iszero\n      tag_77\n      jumpi\n        /* \"#utility.yul\":1437:1439   */\n      0x3f\n        /* \"#utility.yul\":1433:1440   */\n      not\n        /* \"#utility.yul\":1421:1430   */\n      dup9\n        /* \"#utility.yul\":1413:1419   */\n      dup7\n        /* \"#utility.yul\":1409:1431   */\n      sub\n        /* \"#utility.yul\":1405:1441   */\n      add\n        /* \"#utility.yul\":1400:1403   */\n      dup5\n        /* \"#utility.yul\":1393:1442   */\n      mstore\n        /* \"#utility.yul\":1465:1505   */\n      tag_78\n        /* \"#utility.yul\":1498:1504   */\n      dup6\n        /* \"#utility.yul\":1489:1495   */\n      dup4\n        /* \"#utility.yul\":1483:1496   */\n      mload\n        /* \"#utility.yul\":1465:1505   */\n      tag_59\n      jump\t// in\n    tag_78:\n        /* \"#utility.yul\":1455:1505   */\n      swap5\n      pop\n        /* \"#utility.yul\":1563:1575   */\n      swap3\n      dup6\n      add\n      swap3\n        /* \"#utility.yul\":1528:1543   */\n      swap1\n      dup6\n      add\n      swap1\n        /* \"#utility.yul\":1366:1367   */\n      0x01\n        /* \"#utility.yul\":1359:1368   */\n      add\n        /* \"#utility.yul\":1330:1585   */\n      jump(tag_75)\n    tag_77:\n      pop\n        /* \"#utility.yul\":1602:1608   */\n      swap3\n      swap8\n        /* \"#utility.yul\":811:1614   */\n      swap7\n      pop\n      pop\n      pop\n      pop\n      pop\n      pop\n      pop\n      jump\t// out\n        /* \"#utility.yul\":1619:1746   */\n    tag_60:\n        /* \"#utility.yul\":1680:1690   */\n      0x4e487b71\n        /* \"#utility.yul\":1675:1678   */\n      0xe0\n        /* \"#utility.yul\":1671:1691   */\n      shl\n        /* \"#utility.yul\":1668:1669   */\n      0x00\n        /* \"#utility.yul\":1661:1692   */\n      mstore\n        /* \"#utility.yul\":1711:1715   */\n      0x41\n        /* \"#utility.yul\":1708:1709   */\n      0x04\n        /* \"#utility.yul\":1701:1716   */\n      mstore\n        /* \"#utility.yul\":1735:1739   */\n      0x24\n        /* \"#utility.yul\":1732:1733   */\n      0x00\n        /* \"#utility.yul\":1725:1740   */\n      revert\n        /* \"#utility.yul\":1751:2747   */\n    tag_16:\n        /* \"#utility.yul\":1829:1835   */\n      0x00\n        /* \"#utility.yul\":1837:1843   */\n      dup1\n        /* \"#utility.yul\":1890:1892   */\n      0x40\n        /* \"#utility.yul\":1878:1887   */\n      dup4\n        /* \"#utility.yul\":1869:1876   */\n      dup6\n        /* \"#utility.yul\":1865:1888   */\n      sub\n        /* \"#utility.yul\":1861:1893   */\n      slt\n        /* \"#utility.yul\":1858:1910   */\n      iszero\n      tag_81\n      jumpi\n        /* \"#utility.yul\":1906:1907   */\n      0x00\n        /* \"#utility.yul\":1903:1904   */\n      dup1\n        /* \"#utility.yul\":1896:1908   */\n      revert\n        /* \"#utility.yul\":1858:1910   */\n    tag_81:\n        /* \"#utility.yul\":1929:1958   */\n      tag_82\n        /* \"#utility.yul\":1948:1957   */\n      dup4\n        /* \"#utility.yul\":1929:1958   */\n      tag_58\n      jump\t// in\n    tag_82:\n        /* \"#utility.yul\":1919:1958   */\n      swap2\n      pop\n        /* \"#utility.yul\":2009:2011   */\n      0x20\n        /* \"#utility.yul\":1998:2007   */\n      dup4\n        /* \"#utility.yul\":1994:2012   */\n      add\n        /* \"#utility.yul\":1981:2013   */\n      calldataload\n        /* \"#utility.yul\":2032:2050   */\n      0xffffffffffffffff\n        /* \"#utility.yul\":2073:2075   */\n      dup1\n        /* \"#utility.yul\":2065:2071   */\n      dup3\n        /* \"#utility.yul\":2062:2076   */\n      gt\n        /* \"#utility.yul\":2059:2093   */\n      iszero\n      tag_83\n      jumpi\n        /* \"#utility.yul\":2089:2090   */\n      0x00\n        /* \"#utility.yul\":2086:2087   */\n      dup1\n        /* \"#utility.yul\":2079:2091   */\n      revert\n        /* \"#utility.yul\":2059:2093   */\n    tag_83:\n        /* \"#utility.yul\":2127:2133   */\n      dup2\n        /* \"#utility.yul\":2116:2125   */\n      dup6\n        /* \"#utility.yul\":2112:2134   */\n      add\n        /* \"#utility.yul\":2102:2134   */\n      swap2\n      pop\n        /* \"#utility.yul\":2172:2179   */\n      dup6\n        /* \"#utility.yul\":2165:2169   */\n      0x1f\n        /* \"#utility.yul\":2161:2163   */\n      dup4\n        /* \"#utility.yul\":2157:2170   */\n      add\n        /* \"#utility.yul\":2153:2180   */\n      slt\n        /* \"#utility.yul\":2143:2198   */\n      tag_84\n      jumpi\n        /* \"#utility.yul\":2194:2195   */\n      0x00\n        /* \"#utility.yul\":2191:2192   */\n      dup1\n        /* \"#utility.yul\":2184:2196   */\n      revert\n        /* \"#utility.yul\":2143:2198   */\n    tag_84:\n        /* \"#utility.yul\":2230:2232   */\n      dup2\n        /* \"#utility.yul\":2217:2233   */\n      calldataload\n        /* \"#utility.yul\":2252:2254   */\n      dup2\n        /* \"#utility.yul\":2248:2250   */\n      dup2\n        /* \"#utility.yul\":2245:2255   */\n      gt\n        /* \"#utility.yul\":2242:2278   */\n      iszero\n      tag_86\n      jumpi\n        /* \"#utility.yul\":2258:2276   */\n      tag_86\n      tag_60\n      jump\t// in\n    tag_86:\n        /* \"#utility.yul\":2333:2335   */\n      0x40\n        /* \"#utility.yul\":2327:2336   */\n      mload\n        /* \"#utility.yul\":2301:2303   */\n      0x1f\n        /* \"#utility.yul\":2387:2400   */\n      dup3\n      add\n      not(0x1f)\n        /* \"#utility.yul\":2383:2405   */\n      swap1\n      dup2\n      and\n        /* \"#utility.yul\":2407:2409   */\n      0x3f\n        /* \"#utility.yul\":2379:2410   */\n      add\n        /* \"#utility.yul\":2375:2415   */\n      and\n        /* \"#utility.yul\":2363:2416   */\n      dup2\n      add\n      swap1\n        /* \"#utility.yul\":2431:2449   */\n      dup4\n      dup3\n      gt\n        /* \"#utility.yul\":2451:2473   */\n      dup2\n      dup4\n      lt\n        /* \"#utility.yul\":2428:2474   */\n      or\n        /* \"#utility.yul\":2425:2497   */\n      iszero\n      tag_88\n      jumpi\n        /* \"#utility.yul\":2477:2495   */\n      tag_88\n      tag_60\n      jump\t// in\n    tag_88:\n        /* \"#utility.yul\":2517:2527   */\n      dup2\n        /* \"#utility.yul\":2513:2515   */\n      0x40\n        /* \"#utility.yul\":2506:2528   */\n      mstore\n        /* \"#utility.yul\":2552:2554   */\n      dup3\n        /* \"#utility.yul\":2544:2550   */\n      dup2\n        /* \"#utility.yul\":2537:2555   */\n      mstore\n        /* \"#utility.yul\":2592:2599   */\n      dup9\n        /* \"#utility.yul\":2587:2589   */\n      0x20\n        /* \"#utility.yul\":2582:2584   */\n      dup5\n        /* \"#utility.yul\":2578:2580   */\n      dup8\n        /* \"#utility.yul\":2574:2585   */\n      add\n        /* \"#utility.yul\":2570:2590   */\n      add\n        /* \"#utility.yul\":2567:2600   */\n      gt\n        /* \"#utility.yul\":2564:2617   */\n      iszero\n      tag_89\n      jumpi\n        /* \"#utility.yul\":2613:2614   */\n      0x00\n        /* \"#utility.yul\":2610:2611   */\n      dup1\n        /* \"#utility.yul\":2603:2615   */\n      revert\n        /* \"#utility.yul\":2564:2617   */\n    tag_89:\n        /* \"#utility.yul\":2669:2671   */\n      dup3\n        /* \"#utility.yul\":2664:2666   */\n      0x20\n        /* \"#utility.yul\":2660:2662   */\n      dup7\n        /* \"#utility.yul\":2656:2667   */\n      add\n        /* \"#utility.yul\":2651:2653   */\n      0x20\n        /* \"#utility.yul\":2643:2649   */\n      dup4\n        /* \"#utility.yul\":2639:2654   */\n      add\n        /* \"#utility.yul\":2626:2672   */\n      calldatacopy\n        /* \"#utility.yul\":2714:2715   */\n      0x00\n        /* \"#utility.yul\":2709:2711   */\n      0x20\n        /* \"#utility.yul\":2704:2706   */\n      dup5\n        /* \"#utility.yul\":2696:2702   */\n      dup4\n        /* \"#utility.yul\":2692:2707   */\n      add\n        /* \"#utility.yul\":2688:2712   */\n      add\n        /* \"#utility.yul\":2681:2716   */\n      mstore\n        /* \"#utility.yul\":2735:2741   */\n      dup1\n        /* \"#utility.yul\":2725:2741   */\n      swap6\n      pop\n      pop\n      pop\n      pop\n      pop\n      pop\n        /* \"#utility.yul\":1751:2747   */\n      swap3\n      pop\n      swap3\n      swap1\n      pop\n      jump\t// out\n        /* \"#utility.yul\":2934:3188   */\n    tag_25:\n        /* \"#utility.yul\":3002:3008   */\n      0x00\n        /* \"#utility.yul\":3010:3016   */\n      dup1\n        /* \"#utility.yul\":3063:3065   */\n      0x40\n        /* \"#utility.yul\":3051:3060   */\n      dup4\n        /* \"#utility.yul\":3042:3049   */\n      dup6\n        /* \"#utility.yul\":3038:3061   */\n      sub\n        /* \"#utility.yul\":3034:3066   */\n      slt\n        /* \"#utility.yul\":3031:3083   */\n      iszero\n      tag_92\n      jumpi\n        /* \"#utility.yul\":3079:3080   */\n      0x00\n        /* \"#utility.yul\":3076:3077   */\n      dup1\n        /* \"#utility.yul\":3069:3081   */\n      revert\n        /* \"#utility.yul\":3031:3083   */\n    tag_92:\n        /* \"#utility.yul\":3102:3131   */\n      tag_93\n        /* \"#utility.yul\":3121:3130   */\n      dup4\n        /* \"#utility.yul\":3102:3131   */\n      tag_58\n      jump\t// in\n    tag_93:\n        /* \"#utility.yul\":3092:3131   */\n      swap5\n        /* \"#utility.yul\":3178:3180   */\n      0x20\n        /* \"#utility.yul\":3163:3181   */\n      swap4\n      swap1\n      swap4\n      add\n        /* \"#utility.yul\":3150:3182   */\n      calldataload\n      swap4\n      pop\n      pop\n      pop\n        /* \"#utility.yul\":2934:3188   */\n      jump\t// out\n        /* \"#utility.yul\":3193:3413   */\n    tag_31:\n        /* \"#utility.yul\":3342:3344   */\n      0x20\n        /* \"#utility.yul\":3331:3340   */\n      dup2\n        /* \"#utility.yul\":3324:3345   */\n      mstore\n        /* \"#utility.yul\":3305:3309   */\n      0x00\n        /* \"#utility.yul\":3362:3407   */\n      tag_69\n        /* \"#utility.yul\":3403:3405   */\n      0x20\n        /* \"#utility.yul\":3392:3401   */\n      dup4\n        /* \"#utility.yul\":3388:3406   */\n      add\n        /* \"#utility.yul\":3380:3386   */\n      dup5\n        /* \"#utility.yul\":3362:3407   */\n      tag_59\n      jump\t// in\n        /* \"#utility.yul\":3418:3798   */\n    tag_37:\n        /* \"#utility.yul\":3497:3498   */\n      0x01\n        /* \"#utility.yul\":3493:3505   */\n      dup2\n      dup2\n      shr\n      swap1\n        /* \"#utility.yul\":3540:3552   */\n      dup3\n      and\n      dup1\n        /* \"#utility.yul\":3561:3622   */\n      tag_97\n      jumpi\n        /* \"#utility.yul\":3615:3619   */\n      0x7f\n        /* \"#utility.yul\":3607:3613   */\n      dup3\n        /* \"#utility.yul\":3603:3620   */\n      and\n        /* \"#utility.yul\":3593:3620   */\n      swap2\n      pop\n        /* \"#utility.yul\":3561:3622   */\n    tag_97:\n        /* \"#utility.yul\":3668:3670   */\n      0x20\n        /* \"#utility.yul\":3660:3666   */\n      dup3\n        /* \"#utility.yul\":3657:3671   */\n      lt\n        /* \"#utility.yul\":3637:3655   */\n      dup2\n        /* \"#utility.yul\":3634:3672   */\n      sub\n        /* \"#utility.yul\":3631:3792   */\n      tag_98\n      jumpi\n        /* \"#utility.yul\":3714:3724   */\n      0x4e487b71\n        /* \"#utility.yul\":3709:3712   */\n      0xe0\n        /* \"#utility.yul\":3705:3725   */\n      shl\n        /* \"#utility.yul\":3702:3703   */\n      0x00\n        /* \"#utility.yul\":3695:3726   */\n      mstore\n        /* \"#utility.yul\":3749:3753   */\n      0x22\n        /* \"#utility.yul\":3746:3747   */\n      0x04\n        /* \"#utility.yul\":3739:3754   */\n      mstore\n        /* \"#utility.yul\":3777:3781   */\n      0x24\n        /* \"#utility.yul\":3774:3775   */\n      0x00\n        /* \"#utility.yul\":3767:3782   */\n      revert\n        /* \"#utility.yul\":3631:3792   */\n    tag_98:\n      pop\n        /* \"#utility.yul\":3418:3798   */\n      swap2\n      swap1\n      pop\n      jump\t// out\n        /* \"#utility.yul\":3929:4474   */\n    tag_62:\n        /* \"#utility.yul\":4031:4033   */\n      0x1f\n        /* \"#utility.yul\":4026:4029   */\n      dup3\n        /* \"#utility.yul\":4023:4034   */\n      gt\n        /* \"#utility.yul\":4020:4468   */\n      iszero\n      tag_101\n      jumpi\n        /* \"#utility.yul\":4067:4068   */\n      0x00\n        /* \"#utility.yul\":4092:4097   */\n      dup2\n        /* \"#utility.yul\":4088:4090   */\n      dup2\n        /* \"#utility.yul\":4081:4098   */\n      mstore\n        /* \"#utility.yul\":4137:4141   */\n      0x20\n        /* \"#utility.yul\":4133:4135   */\n      dup2\n        /* \"#utility.yul\":4123:4142   */\n      keccak256\n        /* \"#utility.yul\":4207:4209   */\n      0x1f\n        /* \"#utility.yul\":4195:4205   */\n      dup6\n        /* \"#utility.yul\":4191:4210   */\n      add\n        /* \"#utility.yul\":4188:4189   */\n      0x05\n        /* \"#utility.yul\":4184:4211   */\n      shr\n        /* \"#utility.yul\":4178:4182   */\n      dup2\n        /* \"#utility.yul\":4174:4212   */\n      add\n        /* \"#utility.yul\":4243:4247   */\n      0x20\n        /* \"#utility.yul\":4231:4241   */\n      dup7\n        /* \"#utility.yul\":4228:4248   */\n      lt\n        /* \"#utility.yul\":4225:4272   */\n      iszero\n      tag_102\n      jumpi\n      pop\n        /* \"#utility.yul\":4266:4270   */\n      dup1\n        /* \"#utility.yul\":4225:4272   */\n    tag_102:\n        /* \"#utility.yul\":4321:4323   */\n      0x1f\n        /* \"#utility.yul\":4316:4319   */\n      dup6\n        /* \"#utility.yul\":4312:4324   */\n      add\n        /* \"#utility.yul\":4309:4310   */\n      0x05\n        /* \"#utility.yul\":4305:4325   */\n      shr\n        /* \"#utility.yul\":4299:4303   */\n      dup3\n        /* \"#utility.yul\":4295:4326   */\n      add\n        /* \"#utility.yul\":4285:4326   */\n      swap2\n      pop\n        /* \"#utility.yul\":4376:4458   */\n    tag_103:\n        /* \"#utility.yul\":4394:4396   */\n      dup2\n        /* \"#utility.yul\":4387:4392   */\n      dup2\n        /* \"#utility.yul\":4384:4397   */\n      lt\n        /* \"#utility.yul\":4376:4458   */\n      iszero\n      tag_105\n      jumpi\n        /* \"#utility.yul\":4439:4456   */\n      dup3\n      dup2\n      sstore\n        /* \"#utility.yul\":4420:4421   */\n      0x01\n        /* \"#utility.yul\":4409:4422   */\n      add\n        /* \"#utility.yul\":4376:4458   */\n      jump(tag_103)\n    tag_105:\n        /* \"#utility.yul\":4380:4383   */\n      pop\n      pop\n      pop\n        /* \"#utility.yul\":4020:4468   */\n    tag_101:\n        /* \"#utility.yul\":3929:4474   */\n      pop\n      pop\n      pop\n      jump\t// out\n        /* \"#utility.yul\":4650:6002   */\n    tag_45:\n        /* \"#utility.yul\":4776:4779   */\n      dup2\n        /* \"#utility.yul\":4770:4780   */\n      mload\n        /* \"#utility.yul\":4803:4821   */\n      0xffffffffffffffff\n        /* \"#utility.yul\":4795:4801   */\n      dup2\n        /* \"#utility.yul\":4792:4822   */\n      gt\n        /* \"#utility.yul\":4789:4845   */\n      iszero\n      tag_109\n      jumpi\n        /* \"#utility.yul\":4825:4843   */\n      tag_109\n      tag_60\n      jump\t// in\n    tag_109:\n        /* \"#utility.yul\":4854:4951   */\n      tag_110\n        /* \"#utility.yul\":4944:4950   */\n      dup2\n        /* \"#utility.yul\":4904:4942   */\n      tag_111\n        /* \"#utility.yul\":4936:4940   */\n      dup5\n        /* \"#utility.yul\":4930:4941   */\n      sload\n        /* \"#utility.yul\":4904:4942   */\n      tag_37\n      jump\t// in\n    tag_111:\n        /* \"#utility.yul\":4898:4902   */\n      dup5\n        /* \"#utility.yul\":4854:4951   */\n      tag_62\n      jump\t// in\n    tag_110:\n        /* \"#utility.yul\":5006:5010   */\n      0x20\n      dup1\n        /* \"#utility.yul\":5070:5072   */\n      0x1f\n        /* \"#utility.yul\":5059:5073   */\n      dup4\n      gt\n        /* \"#utility.yul\":5087:5088   */\n      0x01\n        /* \"#utility.yul\":5082:5745   */\n      dup2\n      eq\n      tag_113\n      jumpi\n        /* \"#utility.yul\":5789:5790   */\n      0x00\n        /* \"#utility.yul\":5806:5812   */\n      dup5\n        /* \"#utility.yul\":5803:5892   */\n      iszero\n      tag_114\n      jumpi\n      pop\n        /* \"#utility.yul\":5858:5877   */\n      dup6\n      dup4\n      add\n        /* \"#utility.yul\":5852:5878   */\n      mload\n        /* \"#utility.yul\":5803:5892   */\n    tag_114:\n      not(0x00)\n        /* \"#utility.yul\":4607:4608   */\n      0x03\n        /* \"#utility.yul\":4603:4614   */\n      dup7\n      swap1\n      shl\n        /* \"#utility.yul\":4599:4623   */\n      shr\n        /* \"#utility.yul\":4595:4624   */\n      not\n        /* \"#utility.yul\":4585:4625   */\n      and\n        /* \"#utility.yul\":4631:4632   */\n      0x01\n        /* \"#utility.yul\":4627:4638   */\n      dup6\n      swap1\n      shl\n        /* \"#utility.yul\":4582:4639   */\n      or\n        /* \"#utility.yul\":5905:5986   */\n      dup6\n      sstore\n        /* \"#utility.yul\":5052:5996   */\n      jump(tag_105)\n        /* \"#utility.yul\":5082:5745   */\n    tag_113:\n        /* \"#utility.yul\":3876:3877   */\n      0x00\n        /* \"#utility.yul\":3869:3883   */\n      dup6\n      dup2\n      mstore\n        /* \"#utility.yul\":3913:3917   */\n      0x20\n        /* \"#utility.yul\":3900:3918   */\n      dup2\n      keccak256\n      not(0x1f)\n        /* \"#utility.yul\":5118:5138   */\n      dup7\n      and\n      swap2\n        /* \"#utility.yul\":5236:5472   */\n    tag_117:\n        /* \"#utility.yul\":5250:5257   */\n      dup3\n        /* \"#utility.yul\":5247:5248   */\n      dup2\n        /* \"#utility.yul\":5244:5258   */\n      lt\n        /* \"#utility.yul\":5236:5472   */\n      iszero\n      tag_119\n      jumpi\n        /* \"#utility.yul\":5339:5358   */\n      dup9\n      dup7\n      add\n        /* \"#utility.yul\":5333:5359   */\n      mload\n        /* \"#utility.yul\":5318:5360   */\n      dup3\n      sstore\n        /* \"#utility.yul\":5431:5458   */\n      swap5\n      dup5\n      add\n      swap5\n        /* \"#utility.yul\":5399:5400   */\n      0x01\n        /* \"#utility.yul\":5387:5401   */\n      swap1\n      swap2\n      add\n      swap1\n        /* \"#utility.yul\":5266:5285   */\n      dup5\n      add\n        /* \"#utility.yul\":5236:5472   */\n      jump(tag_117)\n    tag_119:\n        /* \"#utility.yul\":5240:5243   */\n      pop\n        /* \"#utility.yul\":5500:5506   */\n      dup6\n        /* \"#utility.yul\":5491:5498   */\n      dup3\n        /* \"#utility.yul\":5488:5507   */\n      lt\n        /* \"#utility.yul\":5485:5686   */\n      iszero\n      tag_120\n      jumpi\n        /* \"#utility.yul\":5561:5580   */\n      dup8\n      dup6\n      add\n        /* \"#utility.yul\":5555:5581   */\n      mload\n      not(0x00)\n        /* \"#utility.yul\":5644:5645   */\n      0x03\n        /* \"#utility.yul\":5640:5654   */\n      dup9\n      swap1\n      shl\n        /* \"#utility.yul\":5656:5659   */\n      0xf8\n        /* \"#utility.yul\":5636:5660   */\n      and\n        /* \"#utility.yul\":5632:5669   */\n      shr\n        /* \"#utility.yul\":5628:5670   */\n      not\n        /* \"#utility.yul\":5613:5671   */\n      and\n        /* \"#utility.yul\":5598:5672   */\n      dup2\n      sstore\n        /* \"#utility.yul\":5485:5686   */\n    tag_120:\n      pop\n      pop\n      pop\n      pop\n      pop\n        /* \"#utility.yul\":5732:5733   */\n      0x01\n        /* \"#utility.yul\":5716:5730   */\n      swap1\n      dup2\n      shl\n        /* \"#utility.yul\":5712:5734   */\n      add\n        /* \"#utility.yul\":5699:5735   */\n      swap1\n      sstore\n      pop\n        /* \"#utility.yul\":4650:6002   */\n      jump\t// out\n        /* \"#utility.yul\":6007:6229   */\n    tag_49:\n        /* \"#utility.yul\":6072:6081   */\n      dup1\n      dup3\n      add\n        /* \"#utility.yul\":6093:6103   */\n      dup1\n      dup3\n      gt\n        /* \"#utility.yul\":6090:6223   */\n      iszero\n      tag_122\n      jumpi\n        /* \"#utility.yul\":6145:6155   */\n      0x4e487b71\n        /* \"#utility.yul\":6140:6143   */\n      0xe0\n        /* \"#utility.yul\":6136:6156   */\n      shl\n        /* \"#utility.yul\":6133:6134   */\n      0x00\n        /* \"#utility.yul\":6126:6157   */\n      mstore\n        /* \"#utility.yul\":6180:6184   */\n      0x11\n        /* \"#utility.yul\":6177:6178   */\n      0x04\n        /* \"#utility.yul\":6170:6185   */\n      mstore\n        /* \"#utility.yul\":6208:6212   */\n      0x24\n        /* \"#utility.yul\":6205:6206   */\n      0x00\n        /* \"#utility.yul\":6198:6213   */\n      revert\n        /* \"#utility.yul\":6090:6223   */\n    tag_122:\n        /* \"#utility.yul\":6007:6229   */\n      swap3\n      swap2\n      pop\n      pop\n      jump\t// out\n\n    auxdata: 0xa264697066735822122072ece560f1a88214459837f90b7e0d41bcec4441d99e6ed348a49f1740f6486b64736f6c63430008140033\n}\n",
				"bytecode": {
					"linkReferences": {},
					"object": "608060405234801561000f575f80fd5b506107008061001d5f395ff3fe608060405234801561000f575f80fd5b5060043610610055575f3560e01c806303828e4514610059578063833c532914610082578063b9f7945114610097578063ded86d68146100c4578063fbd09794146100d7575b5f80fd5b61006c610067366004610396565b6100f7565b60405161007991906103f9565b60405180910390f35b61009561009036600461046d565b6101e1565b005b6100b66100a5366004610396565b5f6020819052908152604090205481565b604051908152602001610079565b6100956100d2366004610529565b610257565b6100ea6100e5366004610529565b6102ca565b6040516100799190610551565b6001600160a01b0381165f908152600160209081526040808320805482518185028101850190935280835260609492939192909184015b828210156101d6578382905f5260205f2001805461014b90610563565b80601f016020809104026020016040519081016040528092919081815260200182805461017790610563565b80156101c25780601f10610199576101008083540402835291602001916101c2565b820191905f5260205f20905b8154815290600101906020018083116101a557829003601f168201915b50505050508152602001906001019061012e565b505050509050919050565b6001600160a01b0382165f90815260016020818152604083208054928301815583529091200161021182826105e9565b50816001600160a01b03167f69c934c9cd93691b9435ed4d66ddb36755cce9ce6d0d34f7b5042287510c00968260405161024b9190610551565b60405180910390a25050565b6001600160a01b0382165f908152602081905260408120805483929061027e9084906106a5565b90915550506001600160a01b0382165f81815260208181526040918290205491519182527ffac498e7ee7d43e382528bf22afd838a7c6abfa5f54e7c564f7e5a54a18ca34c910161024b565b6001602052815f5260405f2081815481106102e3575f80fd5b905f5260205f20015f915091505080546102fc90610563565b80601f016020809104026020016040519081016040528092919081815260200182805461032890610563565b80156103735780601f1061034a57610100808354040283529160200191610373565b820191905f5260205f20905b81548152906001019060200180831161035657829003601f168201915b505050505081565b80356001600160a01b0381168114610391575f80fd5b919050565b5f602082840312156103a6575f80fd5b6103af8261037b565b9392505050565b5f81518084525f5b818110156103da576020818501810151868301820152016103be565b505f602082860101526020601f19601f83011685010191505092915050565b5f602080830181845280855180835260408601915060408160051b87010192508387015f5b8281101561044c57603f1988860301845261043a8583516103b6565b9450928501929085019060010161041e565b5092979650505050505050565b634e487b7160e01b5f52604160045260245ffd5b5f806040838503121561047e575f80fd5b6104878361037b565b9150602083013567ffffffffffffffff808211156104a3575f80fd5b818501915085601f8301126104b6575f80fd5b8135818111156104c8576104c8610459565b604051601f8201601f19908116603f011681019083821181831017156104f0576104f0610459565b81604052828152886020848701011115610508575f80fd5b826020860160208301375f6020848301015280955050505050509250929050565b5f806040838503121561053a575f80fd5b6105438361037b565b946020939093013593505050565b602081525f6103af60208301846103b6565b600181811c9082168061057757607f821691505b60208210810361059557634e487b7160e01b5f52602260045260245ffd5b50919050565b601f8211156105e4575f81815260208120601f850160051c810160208610156105c15750805b601f850160051c820191505b818110156105e0578281556001016105cd565b5050505b505050565b815167ffffffffffffffff81111561060357610603610459565b610617816106118454610563565b8461059b565b602080601f83116001811461064a575f84156106335750858301515b5f19600386901b1c1916600185901b1785556105e0565b5f85815260208120601f198616915b8281101561067857888601518255948401946001909101908401610659565b508582101561069557878501515f19600388901b60f8161c191681555b5050505050600190811b01905550565b808201808211156106c457634e487b7160e01b5f52601160045260245ffd5b9291505056fea264697066735822122072ece560f1a88214459837f90b7e0d41bcec4441d99e6ed348a49f1740f6486b64736f6c63430008140033",
					"opcodes": "PUSH1 0x80 PUSH1 0x40 MSTORE CALLVALUE DUP1 ISZERO PUSH2 0xF JUMPI PUSH0 DUP1 REVERT JUMPDEST POP PUSH2 0x700 DUP1 PUSH2 0x1D PUSH0 CODECOPY PUSH0 RETURN INVALID PUSH1 0x80 PUSH1 0x40 MSTORE CALLVALUE DUP1 ISZERO PUSH2 0xF JUMPI PUSH0 DUP1 REVERT JUMPDEST POP PUSH1 0x4 CALLDATASIZE LT PUSH2 0x55 JUMPI PUSH0 CALLDATALOAD PUSH1 0xE0 SHR DUP1 PUSH4 0x3828E45 EQ PUSH2 0x59 JUMPI DUP1 PUSH4 0x833C5329 EQ PUSH2 0x82 JUMPI DUP1 PUSH4 0xB9F79451 EQ PUSH2 0x97 JUMPI DUP1 PUSH4 0xDED86D68 EQ PUSH2 0xC4 JUMPI DUP1 PUSH4 0xFBD09794 EQ PUSH2 0xD7 JUMPI JUMPDEST PUSH0 DUP1 REVERT JUMPDEST PUSH2 0x6C PUSH2 0x67 CALLDATASIZE PUSH1 0x4 PUSH2 0x396 JUMP JUMPDEST PUSH2 0xF7 JUMP JUMPDEST PUSH1 0x40 MLOAD PUSH2 0x79 SWAP2 SWAP1 PUSH2 0x3F9 JUMP JUMPDEST PUSH1 0x40 MLOAD DUP1 SWAP2 SUB SWAP1 RETURN JUMPDEST PUSH2 0x95 PUSH2 0x90 CALLDATASIZE PUSH1 0x4 PUSH2 0x46D JUMP JUMPDEST PUSH2 0x1E1 JUMP JUMPDEST STOP JUMPDEST PUSH2 0xB6 PUSH2 0xA5 CALLDATASIZE PUSH1 0x4 PUSH2 0x396 JUMP JUMPDEST PUSH0 PUSH1 0x20 DUP2 SWAP1 MSTORE SWAP1 DUP2 MSTORE PUSH1 0x40 SWAP1 KECCAK256 SLOAD DUP2 JUMP JUMPDEST PUSH1 0x40 MLOAD SWAP1 DUP2 MSTORE PUSH1 0x20 ADD PUSH2 0x79 JUMP JUMPDEST PUSH2 0x95 PUSH2 0xD2 CALLDATASIZE PUSH1 0x4 PUSH2 0x529 JUMP JUMPDEST PUSH2 0x257 JUMP JUMPDEST PUSH2 0xEA PUSH2 0xE5 CALLDATASIZE PUSH1 0x4 PUSH2 0x529 JUMP JUMPDEST PUSH2 0x2CA JUMP JUMPDEST PUSH1 0x40 MLOAD PUSH2 0x79 SWAP2 SWAP1 PUSH2 0x551 JUMP JUMPDEST PUSH1 0x1 PUSH1 0x1 PUSH1 0xA0 SHL SUB DUP2 AND PUSH0 SWAP1 DUP2 MSTORE PUSH1 0x1 PUSH1 0x20 SWAP1 DUP2 MSTORE PUSH1 0x40 DUP1 DUP4 KECCAK256 DUP1 SLOAD DUP3 MLOAD DUP2 DUP6 MUL DUP2 ADD DUP6 ADD SWAP1 SWAP4 MSTORE DUP1 DUP4 MSTORE PUSH1 0x60 SWAP5 SWAP3 SWAP4 SWAP2 SWAP3 SWAP1 SWAP2 DUP5 ADD JUMPDEST DUP3 DUP3 LT ISZERO PUSH2 0x1D6 JUMPI DUP4 DUP3 SWAP1 PUSH0 MSTORE PUSH1 0x20 PUSH0 KECCAK256 ADD DUP1 SLOAD PUSH2 0x14B SWAP1 PUSH2 0x563 JUMP JUMPDEST DUP1 PUSH1 0x1F ADD PUSH1 0x20 DUP1 SWAP2 DIV MUL PUSH1 0x20 ADD PUSH1 0x40 MLOAD SWAP1 DUP2 ADD PUSH1 0x40 MSTORE DUP1 SWAP3 SWAP2 SWAP1 DUP2 DUP2 MSTORE PUSH1 0x20 ADD DUP3 DUP1 SLOAD PUSH2 0x177 SWAP1 PUSH2 0x563 JUMP JUMPDEST DUP1 ISZERO PUSH2 0x1C2 JUMPI DUP1 PUSH1 0x1F LT PUSH2 0x199 JUMPI PUSH2 0x100 DUP1 DUP4 SLOAD DIV MUL DUP4 MSTORE SWAP2 PUSH1 0x20 ADD SWAP2 PUSH2 0x1C2 JUMP JUMPDEST DUP3 ADD SWAP2 SWAP1 PUSH0 MSTORE PUSH1 0x20 PUSH0 KECCAK256 SWAP1 JUMPDEST DUP2 SLOAD DUP2 MSTORE SWAP1 PUSH1 0x1 ADD SWAP1 PUSH1 0x20 ADD DUP1 DUP4 GT PUSH2 0x1A5 JUMPI DUP3 SWAP1 SUB PUSH1 0x1F AND DUP3 ADD SWAP2 JUMPDEST POP POP POP POP POP DUP2 MSTORE PUSH1 0x20 ADD SWAP1 PUSH1 0x1 ADD SWAP1 PUSH2 0x12E JUMP JUMPDEST POP POP POP POP SWAP1 POP SWAP2 SWAP1 POP JUMP JUMPDEST PUSH1 0x1 PUSH1 0x1 PUSH1 0xA0 SHL SUB DUP3 AND PUSH0 SWAP1 DUP2 MSTORE PUSH1 0x1 PUSH1 0x20 DUP2 DUP2 MSTORE PUSH1 0x40 DUP4 KECCAK256 DUP1 SLOAD SWAP3 DUP4 ADD DUP2 SSTORE DUP4 MSTORE SWAP1 SWAP2 KECCAK256 ADD PUSH2 0x211 DUP3 DUP3 PUSH2 0x5E9 JUMP JUMPDEST POP DUP2 PUSH1 0x1 PUSH1 0x1 PUSH1 0xA0 SHL SUB AND PUSH32 0x69C934C9CD93691B9435ED4D66DDB36755CCE9CE6D0D34F7B5042287510C0096 DUP3 PUSH1 0x40 MLOAD PUSH2 0x24B SWAP2 SWAP1 PUSH2 0x551 JUMP JUMPDEST PUSH1 0x40 MLOAD DUP1 SWAP2 SUB SWAP1 LOG2 POP POP JUMP JUMPDEST PUSH1 0x1 PUSH1 0x1 PUSH1 0xA0 SHL SUB DUP3 AND PUSH0 SWAP1 DUP2 MSTORE PUSH1 0x20 DUP2 SWAP1 MSTORE PUSH1 0x40 DUP2 KECCAK256 DUP1 SLOAD DUP4 SWAP3 SWAP1 PUSH2 0x27E SWAP1 DUP5 SWAP1 PUSH2 0x6A5 JUMP JUMPDEST SWAP1 SWAP2 SSTORE POP POP PUSH1 0x1 PUSH1 0x1 PUSH1 0xA0 SHL SUB DUP3 AND PUSH0 DUP2 DUP2 MSTORE PUSH1 0x20 DUP2 DUP2 MSTORE PUSH1 0x40 SWAP2 DUP3 SWAP1 KECCAK256 SLOAD SWAP2 MLOAD SWAP2 DUP3 MSTORE PUSH32 0xFAC498E7EE7D43E382528BF22AFD838A7C6ABFA5F54E7C564F7E5A54A18CA34C SWAP2 ADD PUSH2 0x24B JUMP JUMPDEST PUSH1 0x1 PUSH1 0x20 MSTORE DUP2 PUSH0 MSTORE PUSH1 0x40 PUSH0 KECCAK256 DUP2 DUP2 SLOAD DUP2 LT PUSH2 0x2E3 JUMPI PUSH0 DUP1 REVERT JUMPDEST SWAP1 PUSH0 MSTORE PUSH1 0x20 PUSH0 KECCAK256 ADD PUSH0 SWAP2 POP SWAP2 POP POP DUP1 SLOAD PUSH2 0x2FC SWAP1 PUSH2 0x563 JUMP JUMPDEST DUP1 PUSH1 0x1F ADD PUSH1 0x20 DUP1 SWAP2 DIV MUL PUSH1 0x20 ADD PUSH1 0x40 MLOAD SWAP1 DUP2 ADD PUSH1 0x40 MSTORE DUP1 SWAP3 SWAP2 SWAP1 DUP2 DUP2 MSTORE PUSH1 0x20 ADD DUP3 DUP1 SLOAD PUSH2 0x328 SWAP1 PUSH2 0x563 JUMP JUMPDEST DUP1 ISZERO PUSH2 0x373 JUMPI DUP1 PUSH1 0x1F LT PUSH2 0x34A JUMPI PUSH2 0x100 DUP1 DUP4 SLOAD DIV MUL DUP4 MSTORE SWAP2 PUSH1 0x20 ADD SWAP2 PUSH2 0x373 JUMP JUMPDEST DUP3 ADD SWAP2 SWAP1 PUSH0 MSTORE PUSH1 0x20 PUSH0 KECCAK256 SWAP1 JUMPDEST DUP2 SLOAD DUP2 MSTORE SWAP1 PUSH1 0x1 ADD SWAP1 PUSH1 0x20 ADD DUP1 DUP4 GT PUSH2 0x356 JUMPI DUP3 SWAP1 SUB PUSH1 0x1F AND DUP3 ADD SWAP2 JUMPDEST POP POP POP POP POP DUP2 JUMP JUMPDEST DUP1 CALLDATALOAD PUSH1 0x1 PUSH1 0x1 PUSH1 0xA0 SHL SUB DUP2 AND DUP2 EQ PUSH2 0x391 JUMPI PUSH0 DUP1 REVERT JUMPDEST SWAP2 SWAP1 POP JUMP JUMPDEST PUSH0 PUSH1 0x20 DUP3 DUP5 SUB SLT ISZERO PUSH2 0x3A6 JUMPI PUSH0 DUP1 REVERT JUMPDEST PUSH2 0x3AF DUP3 PUSH2 0x37B JUMP JUMPDEST SWAP4 SWAP3 POP POP POP JUMP JUMPDEST PUSH0 DUP2 MLOAD DUP1 DUP5 MSTORE PUSH0 JUMPDEST DUP2 DUP2 LT ISZERO PUSH2 0x3DA JUMPI PUSH1 0x20 DUP2 DUP6 ADD DUP2 ADD MLOAD DUP7 DUP4 ADD DUP3 ADD MSTORE ADD PUSH2 0x3BE JUMP JUMPDEST POP PUSH0 PUSH1 0x20 DUP3 DUP7 ADD ADD MSTORE PUSH1 0x20 PUSH1 0x1F NOT PUSH1 0x1F DUP4 ADD AND DUP6 ADD ADD SWAP2 POP POP SWAP3 SWAP2 POP POP JUMP JUMPDEST PUSH0 PUSH1 0x20 DUP1 DUP4 ADD DUP2 DUP5 MSTORE DUP1 DUP6 MLOAD DUP1 DUP4 MSTORE PUSH1 0x40 DUP7 ADD SWAP2 POP PUSH1 0x40 DUP2 PUSH1 0x5 SHL DUP8 ADD ADD SWAP3 POP DUP4 DUP8 ADD PUSH0 JUMPDEST DUP3 DUP2 LT ISZERO PUSH2 0x44C JUMPI PUSH1 0x3F NOT DUP9 DUP7 SUB ADD DUP5 MSTORE PUSH2 0x43A DUP6 DUP4 MLOAD PUSH2 0x3B6 JUMP JUMPDEST SWAP5 POP SWAP3 DUP6 ADD SWAP3 SWAP1 DUP6 ADD SWAP1 PUSH1 0x1 ADD PUSH2 0x41E JUMP JUMPDEST POP SWAP3 SWAP8 SWAP7 POP POP POP POP POP POP POP JUMP JUMPDEST PUSH4 0x4E487B71 PUSH1 0xE0 SHL PUSH0 MSTORE PUSH1 0x41 PUSH1 0x4 MSTORE PUSH1 0x24 PUSH0 REVERT JUMPDEST PUSH0 DUP1 PUSH1 0x40 DUP4 DUP6 SUB SLT ISZERO PUSH2 0x47E JUMPI PUSH0 DUP1 REVERT JUMPDEST PUSH2 0x487 DUP4 PUSH2 0x37B JUMP JUMPDEST SWAP2 POP PUSH1 0x20 DUP4 ADD CALLDATALOAD PUSH8 0xFFFFFFFFFFFFFFFF DUP1 DUP3 GT ISZERO PUSH2 0x4A3 JUMPI PUSH0 DUP1 REVERT JUMPDEST DUP2 DUP6 ADD SWAP2 POP DUP6 PUSH1 0x1F DUP4 ADD SLT PUSH2 0x4B6 JUMPI PUSH0 DUP1 REVERT JUMPDEST DUP2 CALLDATALOAD DUP2 DUP2 GT ISZERO PUSH2 0x4C8 JUMPI PUSH2 0x4C8 PUSH2 0x459 JUMP JUMPDEST PUSH1 0x40 MLOAD PUSH1 0x1F DUP3 ADD PUSH1 0x1F NOT SWAP1 DUP2 AND PUSH1 0x3F ADD AND DUP2 ADD SWAP1 DUP4 DUP3 GT DUP2 DUP4 LT OR ISZERO PUSH2 0x4F0 JUMPI PUSH2 0x4F0 PUSH2 0x459 JUMP JUMPDEST DUP2 PUSH1 0x40 MSTORE DUP3 DUP2 MSTORE DUP9 PUSH1 0x20 DUP5 DUP8 ADD ADD GT ISZERO PUSH2 0x508 JUMPI PUSH0 DUP1 REVERT JUMPDEST DUP3 PUSH1 0x20 DUP7 ADD PUSH1 0x20 DUP4 ADD CALLDATACOPY PUSH0 PUSH1 0x20 DUP5 DUP4 ADD ADD MSTORE DUP1 SWAP6 POP POP POP POP POP POP SWAP3 POP SWAP3 SWAP1 POP JUMP JUMPDEST PUSH0 DUP1 PUSH1 0x40 DUP4 DUP6 SUB SLT ISZERO PUSH2 0x53A JUMPI PUSH0 DUP1 REVERT JUMPDEST PUSH2 0x543 DUP4 PUSH2 0x37B JUMP JUMPDEST SWAP5 PUSH1 0x20 SWAP4 SWAP1 SWAP4 ADD CALLDATALOAD SWAP4 POP POP POP JUMP JUMPDEST PUSH1 0x20 DUP2 MSTORE PUSH0 PUSH2 0x3AF PUSH1 0x20 DUP4 ADD DUP5 PUSH2 0x3B6 JUMP JUMPDEST PUSH1 0x1 DUP2 DUP2 SHR SWAP1 DUP3 AND DUP1 PUSH2 0x577 JUMPI PUSH1 0x7F DUP3 AND SWAP2 POP JUMPDEST PUSH1 0x20 DUP3 LT DUP2 SUB PUSH2 0x595 JUMPI PUSH4 0x4E487B71 PUSH1 0xE0 SHL PUSH0 MSTORE PUSH1 0x22 PUSH1 0x4 MSTORE PUSH1 0x24 PUSH0 REVERT JUMPDEST POP SWAP2 SWAP1 POP JUMP JUMPDEST PUSH1 0x1F DUP3 GT ISZERO PUSH2 0x5E4 JUMPI PUSH0 DUP2 DUP2 MSTORE PUSH1 0x20 DUP2 KECCAK256 PUSH1 0x1F DUP6 ADD PUSH1 0x5 SHR DUP2 ADD PUSH1 0x20 DUP7 LT ISZERO PUSH2 0x5C1 JUMPI POP DUP1 JUMPDEST PUSH1 0x1F DUP6 ADD PUSH1 0x5 SHR DUP3 ADD SWAP2 POP JUMPDEST DUP2 DUP2 LT ISZERO PUSH2 0x5E0 JUMPI DUP3 DUP2 SSTORE PUSH1 0x1 ADD PUSH2 0x5CD JUMP JUMPDEST POP POP POP JUMPDEST POP POP POP JUMP JUMPDEST DUP2 MLOAD PUSH8 0xFFFFFFFFFFFFFFFF DUP2 GT ISZERO PUSH2 0x603 JUMPI PUSH2 0x603 PUSH2 0x459 JUMP JUMPDEST PUSH2 0x617 DUP2 PUSH2 0x611 DUP5 SLOAD PUSH2 0x563 JUMP JUMPDEST DUP5 PUSH2 0x59B JUMP JUMPDEST PUSH1 0x20 DUP1 PUSH1 0x1F DUP4 GT PUSH1 0x1 DUP2 EQ PUSH2 0x64A JUMPI PUSH0 DUP5 ISZERO PUSH2 0x633 JUMPI POP DUP6 DUP4 ADD MLOAD JUMPDEST PUSH0 NOT PUSH1 0x3 DUP7 SWAP1 SHL SHR NOT AND PUSH1 0x1 DUP6 SWAP1 SHL OR DUP6 SSTORE PUSH2 0x5E0 JUMP JUMPDEST PUSH0 DUP6 DUP2 MSTORE PUSH1 0x20 DUP2 KECCAK256 PUSH1 0x1F NOT DUP7 AND SWAP2 JUMPDEST DUP3 DUP2 LT ISZERO PUSH2 0x678 JUMPI DUP9 DUP7 ADD MLOAD DUP3 SSTORE SWAP5 DUP5 ADD SWAP5 PUSH1 0x1 SWAP1 SWAP2 ADD SWAP1 DUP5 ADD PUSH2 0x659 JUMP JUMPDEST POP DUP6 DUP3 LT ISZERO PUSH2 0x695 JUMPI DUP8 DUP6 ADD MLOAD PUSH0 NOT PUSH1 0x3 DUP9 SWAP1 SHL PUSH1 0xF8 AND SHR NOT AND DUP2 SSTORE JUMPDEST POP POP POP POP POP PUSH1 0x1 SWAP1 DUP2 SHL ADD SWAP1 SSTORE POP JUMP JUMPDEST DUP1 DUP3 ADD DUP1 DUP3 GT ISZERO PUSH2 0x6C4 JUMPI PUSH4 0x4E487B71 PUSH1 0xE0 SHL PUSH0 MSTORE PUSH1 0x11 PUSH1 0x4 MSTORE PUSH1 0x24 PUSH0 REVERT JUMPDEST SWAP3 SWAP2 POP POP JUMP INVALID LOG2 PUSH5 0x6970667358 0x22 SLT KECCAK256 PUSH19 0xECE560F1A88214459837F90B7E0D41BCEC4441 0xD9 SWAP15 PUSH15 0xD348A49F1740F6486B64736F6C6343 STOP ADDMOD EQ STOP CALLER "
				},
				"gasEstimates": {
					"creation": {
						"codeDepositCost": "358400",
						"executionCost": "391",
						"totalCost": "358791"
					},
					"external": {
						"awardBadge(address,string)": "infinite",
						"badges(address,uint256)": "infinite",
						"getBadges(address)": "infinite",
						"increaseReputation(address,uint256)": "28400",
						"reputation(address)": "2541"
					}
				},
				"methodIdentifiers": {
					"awardBadge(address,string)": "833c5329",
					"badges(address,uint256)": "fbd09794",
					"getBadges(address)": "03828e45",
					"increaseReputation(address,uint256)": "ded86d68",
					"reputation(address)": "b9f79451"
				}
			},
			"storageLayout": {
				"storage": [
					{
						"astId": 5,
						"contract": "ChallengeFactory_flattened.sol:Reputation",
						"label": "reputation",
						"offset": 0,
						"slot": "0",
						"type": "t_mapping(t_address,t_uint256)"
					},
					{
						"astId": 10,
						"contract": "ChallengeFactory_flattened.sol:Reputation",
						"label": "badges",
						"offset": 0,
						"slot": "1",
						"type": "t_mapping(t_address,t_array(t_string_storage)dyn_storage)"
					}
				],
				"types": {
					"t_address": {
						"encoding": "inplace",
						"label": "address",
						"numberOfBytes": "20"
					},
					"t_array(t_string_storage)dyn_storage": {
						"base": "t_string_storage",
						"encoding": "dynamic_array",
						"label": "string[]",
						"numberOfBytes": "32"
					},
					"t_mapping(t_address,t_array(t_string_storage)dyn_storage)": {
						"encoding": "mapping",
						"key": "t_address",
						"label": "mapping(address => string[])",
						"numberOfBytes": "32",
						"value": "t_array(t_string_storage)dyn_storage"
					},
					"t_mapping(t_address,t_uint256)": {
						"encoding": "mapping",
						"key": "t_address",
						"label": "mapping(address => uint256)",
						"numberOfBytes": "32",
						"value": "t_uint256"
					},
					"t_string_storage": {
						"encoding": "bytes",
						"label": "string",
						"numberOfBytes": "32"
					},
					"t_uint256": {
						"encoding": "inplace",
						"label": "uint256",
						"numberOfBytes": "32"
					}
				}
			},
			"userdoc": {
				"kind": "user",
				"methods": {},
				"version": 1
			}
		}
	}
}